:020000040800F2
:10000000AC5E0120F5090008510A0008510A0008F9
:10001000510A0008510A0008510A000800000000B7
:10002000000000000000000000000000510A00086D
:10003000510A000800000000510A0008510A000897
:10004000510A0008510A0008510A0008510A000824
:10005000510A0008510A0008510A0008510A000814
:10006000510A0008510A0008510A0008510A000804
:10007000510A0008510A0008510A0008510A0008F4
:10008000510A0008510A0008510A0008510A0008E4
:10009000510A0008510A0008510A0008510A0008D4
:1000A000510A0008510A0008510A0008510A0008C4
:1000B00025320008510A0008510A0008510A0008B8
:1000C000510A0008510A0008510A0008510A0008A4
:1000D000510A0008510A00089D350008510A00081D
:1000E000510A0008510A0008510A0008510A000884
:1000F000510A0008510A0008510A0008510A000874
:10010000510A0008510A0008510A0008510A000863
:10011000510A0008510A0008510A0008510A000853
:10012000510A0008510A0008510A0008510A000843
:10013000510A0008510A0008510A0008510A000833
:10014000510A0008510A0008510A0008510A000823
:10015000DD320008510A0008510A0008510A00085F
:10016000510A0008510A0008510A0008510A000803
:10017000510A0008510A0008510A0008510A0008F3
:10018000510A0008510A000880B582B000AF7860BB
:100190007B68002B56D02D4802F014FB7B68013B96
:1001A000062B42D801A252F823F000BFC901000873
:1001B000D7010008E5010008F3010008010200086A
:1001C0000F0200081D020008214802F0FBFA7868BF
:1001D00002F002FB32E01F4802F0F4FA786802F005
:1001E000FBFA2BE01C4802F0EDFA786802F0F4FA12
:1001F00024E01A4802F0E6FA786802F0EDFA1DE011
:10020000174802F0DFFA786802F0E6FA16E01548BF
:1002100002F0D8FA786802F0DFFA0FE0124802F034
:10022000D1FA786802F0D8FA08E0104802F0CAFA69
:100230007B68DBB21946102002F0DAFA0C4802F0B3
:10024000C1FA00E000BF0837BD4680BD7C600008F1
:1002500088600008AC600008D0600008FC600008FE
:10026000206100083C6100086C610008A061000882
:10027000C461000880B485B000AF78600B46FB70A5
:100280000123FB6023E07B681B78272B10D1002320
:10029000BB6008E07B685A1C7A601B78272B06D06D
:1002A000BB680133BB60BB68C72BF3DD00E000BF58
:1002B0007B681B78FA789A420CBF01230023DBB2DB
:1002C0001A46FB681344FB607B6801337B607B68E4
:1002D0001B78002BD7D1FB6818461437BD4680BC6D
:1002E000704700BF80B485B000AF78600B46FB70EC
:1002F0001346BB7020E07B68013B1B78272B10D195
:100300000023FB6008E07B685A1C7A601B78272B6F
:1003100006D0FB680133FB60FB68C72BF3DD00E010
:1003200000BF7B681B78FA789A4205D17B68BA785F
:100330001A707B6801337B607B685A1C7A601B787B
:10034000002BD8D100BF1437BD4680BC704700BF1A
:1003500080B485B000AF78600B46FB701346BB706D
:100360000023BB603CE0BB68013B7A6813441B7808
:10037000272B19D10023FB6011E0BB687A68134476
:100380001A787B681A707B6801337B60BB687A6877
:1003900013441B78272B06D0FB680133FB60FB68F6
:1003A000C72BEADD00E000BF0023FB6005E0BB686F
:1003B0000133BB60FB680133FB60BB687A681344A0
:1003C0001B78FA789A4202D1FB68C72BEFDDBB6835
:1003D0007A6813441A787B681A707B6801337B60F3
:1003E0007B681B78BA789A42BDD100BF1437BD46EE
:1003F00080BC704780B5B6B000AF02F08FF9002026
:1004000001F0F0FF4FF0FF33C7F8D4303B461846F9
:1004100002F0CCF93B46002220211846FFF798FF56
:100420003B462C211846FFF725FF0346C7F8D0307E
:100430003B4600222C211846FFF754FF7E4802F06D
:10044000C1F93B46184602F0BDF97C4802F0BAF902
:100450003B467B49184600F0FFFA0346002B0ED0BE
:1004600007F164013B460022184600F0A9FB07F1A2
:100470006403184600F09EFDC7F8D400D7E03B4661
:100480007049184600F0E8FA0346002B0ED007F139
:1004900064013B460122184600F092FB07F1640319
:1004A000184600F087FDC7F8D400C0E03B46664917
:1004B000184600F0D1FA0346002B0ED007F1640174
:1004C0003B460322184600F07BFB07F16403184605
:1004D00000F070FDC7F8D400A9E03B465B49184620
:1004E00000F0BAFA0346002B0ED007F164013B4638
:1004F0000422184600F064FB07F16403184600F07C
:1005000059FDC7F8D40092E03B465149184600F027
:10051000A3FA0346002B14D007F164013B460522E1
:10052000184600F04DFB3B4664220021184605F0BA
:10053000F5FB07F16403184600F03CFDC7F8D40052
:1005400075E03B464349184600F086FA0346002B07
:100550000ED007F164013B460222184600F030FB42
:1005600007F16403184600F025FDC7F8D4005EE0EB
:100570003B463949184600F06FFA0346002B0ED06F
:1005800007F164013B460622184600F019FB07F10B
:100590006403184600F00EFDC7F8D40047E03B4660
:1005A0002E49184600F058FA0346002B0ED007F1EA
:1005B00064013B460722184600F002FB07F1640382
:1005C000184600F0F7FCC7F8D40030E03B46244959
:1005D000184600F041FA0346002B0ED007F16401E3
:1005E0003B460822184600F0EBFA07F16403184670
:1005F00000F0E0FCC7F8D40019E03B461949184662
:1006000000F02AFA0346002B0ED007F164013B46A6
:100610000922184600F0D4FA07F16403184600F0E6
:10062000C9FCC7F8D40002E00423C7F8D430D7F8D7
:10063000D400FFF7A9FDE9E6C8610008C46100081D
:10064000D4610008DC610008E8610008F06100087E
:10065000FC610008046200080C62000814620008D3
:100660001C6200082462000880B58AB000AF786080
:10067000396000237B6200233B620023FB6100237F
:10068000BB617B681B8A9BB27B627B6A23F440530D
:100690007B623B68DB881A467B6A13437B627B6A1A
:1006A0009AB27B681A827B689B899BB27B627B6A69
:1006B00023F4B05323F00C037B623B689A883B68B9
:1006C0001B8913439AB23B685B8913439BB21A465A
:1006D0007B6A13437B627B6A9AB27B689A817B68F0
:1006E0009B8A9BB27B627B6A23F440737B623B688C
:1006F0009B891A467B6A13437B627B6A9AB27B684A
:100700009A8207F10803184600F010FF7B68304A10
:10071000934203D07B682F4A934202D17B693B62AC
:1007200001E03B693B627B689B899BB21BB2002B5B
:100730000CDA3A6A13469B0013449A001A443B6849
:100740001B685B00B2FBF3F3FB610BE03A6A1346F4
:100750009B0013449A001A443B681B689B00B2FB41
:10076000F3F3FB61FB691C4AA2FB03235B091B013A
:100770007B627B6A1B09642202FB03F3FA69D31ACA
:10078000BB617B689B899BB21BB2002B0CDABB69F7
:10079000DB003233104AA2FB03235B0903F007039B
:1007A0007A6A13437B620BE0BB691B0132330A4A4E
:1007B000A2FB03235B0903F00F037A6A13437B62F6
:1007C0007B6A9AB27B681A8100BF2837BD4680BD1C
:1007D00000100140001401401F85EB5180B483B02C
:1007E00000AF78600B46FB70FB78002B08D07B686D
:1007F0009B899BB243F400539AB27B689A8107E0CD
:100800007B689B899BB223F400539AB27B689A81E0
:1008100000BF0C37BD4680BC704700BF80B483B0BA
:1008200000AF78600B467B807B88C3F308039AB2E5
:100830007B689A8000BF0C37BD4680BC704700BF04
:1008400080B487B000AF78600B467B8013467B7026
:1008500000233B610023FB600023BB6000237B611E
:100860007B687B617B88DBB25B09DBB23B617B88A9
:1008700003F01F03FB600122FB6802FA03F3BB6075
:100880003B69012B03D17B690C337B6109E03B6938
:10089000022B03D17B6910337B6102E07B69143347
:1008A0007B617B78002B06D07B697A691168BA6816
:1008B0000A431A6006E07B697A691168BA68D24314
:1008C0000A401A6000BF1C37BD4680BC704700BF9D
:1008D00080B485B000AF78600B467B800023FB734B
:1008E0007B681B889AB27B8813409BB2002B02D096
:1008F0000123FB7301E00023FB73FB7B18461437D5
:10090000BD4680BC704700BF80B487B000AF786040
:100910000B467B800023FB6000237B610023BB60D0
:100920000023FB747B88DBB25B09DBB2BB607B8896
:1009300003F01F037B6101227B6902FA03F37B61F1
:10094000BB68012B07D17B689B899BB21A467B69E8
:1009500013407B6111E0BB68022B07D17B681B8AC7
:100960009BB21A467B6913407B6106E07B689B8AD9
:100970009BB21A467B6913407B617B881B0A9BB242
:10098000FB600122FB6802FA03F3FB607B681B88B3
:100990009BB21A46FB681340FB607B69002B05D0B5
:1009A000FB68002B02D00123FB7401E00023FB74E1
:1009B000FB7C18461C37BD4680BC704780B485B0B0
:1009C00000AF78600B467B800023FB810023BB8156
:1009D0007B881B0AFB81FB89012202FA03F3BB819E
:1009E000BB89DB439AB27B681A8000BF1437BD46CF
:1009F00080BC704780B582B000AF104B7B60104B5D
:100A00003B6007E03B681A1D3A607A68111D796007
:100A100012681A603B680B4A9342F3D30A480B49A9
:100A20004FF000028842B8BF40F8042BFADBFFF712
:100A3000E1FC00BF0837BD4680BD00BFE1DB000818
:100A4000000000203C2900203C290020B056012055
:100A500080B400AFFEE700BF80B584B000AF78601F
:100A600039600023FB601AE0FB687A681A44FB686F
:100A700079680B441B78FB72154B1968FB7A0133BC
:100A80000B441B7803F00303022B02D1FB7A203BBB
:100A900000E0FB7ADBB21370FB680133FB60FB689C
:100AA0007A6813441B78002BDED1386805F088F98A
:100AB00003461A463968786805F0F0F90346002BBA
:100AC00001D1012300E0002318461037BD4680BD48
:100AD0003829002080B5DAB000AF3B1D186007F15F
:100AE0005003214A184611464FF487731A4605F001
:100AF0007BF807F108031D4A1846114648231A4699
:100B000005F072F80023C7F8643120E007F15001C6
:100B1000D7F8642113461B019B1ACA183B1D1146C6
:100B20001868FFF799FF0346002B08D007F1080368
:100B3000D7F8642153F82230C7F860310CE0002365
:100B4000C7F86031D7F864310133C7F86431D7F89A
:100B50006431B3F5877FD9D3D7F86031184607F5EC
:100B6000B477BD4680BD00BF2C6200083C6300081E
:100B700080B485B000AF7860396017E00023FB6077
:100B800005E0FB680133FB607B6801337B607B68B9
:100B90001B78002BF5D17B6801337B60FB68C82B89
:100BA00001DD002306E03B68013B3B603B68002B16
:100BB000E4DC7B6818461437BD4680BC704700BF34
:100BC00080B584B000AFF860B9607A607B68092BAB
:100BD00000F2EB8101A252F823F000BF050C0008DF
:100BE000890C00080D0D0008B10D00081D0E00084D
:100BF000330E0008510E0008590F0008610F00085D
:100C0000690F0008BB6800221A600121F868FFF72D
:100C1000AFFF0346184604F0E3FF0246BB685A6084
:100C20000221F868FFF7A4FF0346184604F0D8FF36
:100C30000246BB68DA610321F868FFF799FF0346B3
:100C4000184604F0CDFF0246BB685A630421F868D9
:100C5000FFF78EFF0346184604F0C2FF0246BB684A
:100C60009A630521F868FFF783FF0246BB68DA64E0
:100C70000621F868FFF77CFF0346184604F0B0FF32
:100C80000246BB681A6590E1BB6801221A60012127
:100C9000F868FFF76DFF0346184604F0A1FF02460F
:100CA000BB685A600221F868FFF762FF03461846E6
:100CB00004F096FF0246BB68DA610321F868FFF78B
:100CC00057FF0346184604F08BFF0246BB68DA6301
:100CD0000421F868FFF74CFF0346184604F080FF34
:100CE0000246BB681A640521F868FFF741FF024617
:100CF000BB68DA640621F868FFF73AFF0346184636
:100D000004F06EFF0246BB685A654EE1BB680222E2
:100D10001A600121F868FFF72BFF0346184604F01C
:100D20005FFF0246BB685A600221F868FFF720FFA8
:100D30000346184604F054FF0246BB68DA610321FB
:100D4000F868FFF715FF0246BB68DA640421F8680B
:100D5000FFF70EFF0246BB681A660521F868FFF729
:100D600007FF0246BB685A660621F868FFF700FFD6
:100D70000346184604F034FF0246BB689A65072113
:100D8000F868FFF7F5FE0346184604F029FF03460E
:100D9000DAB2BB6883F85C200821F868FFF7E8FE48
:100DA0000346184604F01CFF0246BB689A64FCE048
:100DB000BB6803221A600121F868FFF7D9FE0346D9
:100DC000184604F00DFF0246BB685A640221F86819
:100DD000FFF7CEFE0346184604F002FF0246BB684A
:100DE0005A600321F868FFF7C3FE0346184604F073
:100DF000F7FE0246BB68DA610421F868FFF7B8FE27
:100E00000346184604F0ECFE0346012B14BF0123F1
:100E10000023DBB21A46BB689A64C6E0BB680422B2
:100E20001A600121F868FFF7A3FE0246BB68DA6486
:100E3000BBE0BB6805221A600121F868FFF798FE45
:100E40000346184604F0CCFE0246BB689A66ACE046
:100E5000BB6806221A60BB6801221A650121F86886
:100E6000FFF786FE0346184604F0BAFE0246BB684A
:100E70005A600221F868FFF77BFE0346184604F02B
:100E8000AFFE0246BB68DA610321F868FFF770FE27
:100E90000346184604F0A4FE0246BB689A6004218B
:100EA000F868FFF765FE0346184604F099FE02460F
:100EB000BB681A620521F868FFF75AFE0346184618
:100EC00004F08EFE0246BB68DA600621F868FFF780
:100ED0004FFE0346184604F083FE0246BB685A6282
:100EE0000721F868FFF744FE0346184604F078FE31
:100EF0000246BB681A610821F868FFF739FE03460D
:100F0000184604F06DFE0246BB689A620921F86833
:100F1000FFF72EFE0346184604F062FE0246BB6849
:100F20005A610A21F868FFF723FE0346184604F0C9
:100F300057FE0246BB68DA620B21F868FFF718FE1D
:100F40000246BB68DA64BB685A68BB689A61BB68D2
:100F5000DA69BB681A6328E0BB6807221A6024E0DC
:100F6000BB6808221A6020E0BB6809221A600121D0
:100F7000F868FFF7FDFD0346184604F031FE02460F
:100F8000BB685A600221F868FFF7F2FD0346184675
:100F900004F026FE0246BB68DA610321F868FFF719
:100FA000E7FD0246BB68DA6400BF00BF1037BD46EC
:100FB00080BD00BFF0B58DB004AF78600023FB6149
:100FC0007B6804333B617B681C33FB607B681B6878
:100FD000092B00F2A68201A252F823F005100008A6
:100FE0004B10000895100008E510000809110008D2
:100FF0002911000841110008FB11000857120008D0
:10100000971200087B68DB6E052B01DC072389E261
:101010007B685C687B68DD697B685E6B7B689B6B6B
:101020003B607B68DB6C1846FFF754FD01467B682C
:101030001B6D00220292019300913B6832462946C3
:10104000204601F07FF9F8616BE27B68DB6E052BCF
:1010500001DC072366E27B685C687B68DD697B688E
:10106000DE6B7B681B6C3B607B68DB6C1846FFF7B4
:1010700031FD01467B685B6D0022039200220292E3
:10108000019300913B6832462946204601F080F9E1
:10109000F86146E27B68DB6E072B01DC072341E247
:1010A0007B685C687B68DD697B68DB6C1846FFF7F2
:1010B00011FD86467B68186E7B685B6E7A68926D60
:1010C000796891F85C100E467968896C03910296F4
:1010D00001920093034672462946204601F08EF99C
:1010E000F8611EE27B68DB6E032B01DC072319E24B
:1010F0007B6858687B68D9697B685A6C7B689B6C95
:1011000001F098F9F8610CE27B68DB6E002B01DCE2
:10111000072307E27B68DB6C1846FFF7DBFC03461E
:10112000184601F021FDFCE17B68DB6E002B01DC41
:101130000723F7E17B689B6E184601F02DFBF0E179
:101140007B681B68184601F047FB0023BB6145E044
:10115000B34801F037FBBB699B003A6913441B6835
:10116000184601F039FBAE4801F02CFBBB699B002F
:10117000FA6813441B68184601F02EFBBB699B00FC
:101180003A6913441C68BB699B00FA6813441D68E4
:10119000BB6901339B003A6913441E68BB69013384
:1011A0009B00FA6813441B683B607B68DB6C184645
:1011B000FFF790FC01467B681B6D002202920193B1
:1011C00000913B6832462946204601F0BBF80246B2
:1011D000FB691344FB61BB690133BB61BB69042B31
:1011E000B6DD8F4801F0EEFA7B68DB6C184601F043
:1011F000E9FA8C4801F0E6FA93E100230393002317
:10120000029300230193E023009350234FF4A07234
:101210000021002001F0BCF8002303930023029377
:1012200000230193FF23009350234FF4A072502119
:10123000002001F0ADF80023039300230293002364
:1012400001930323009350234FF4A072A0210020A8
:1012500001F09EF865E1E02001F0C4F8002303935B
:10126000002302930023019310230093F0236A22AA
:101270000021002001F08CF8002303930023029347
:1012800000230193FF230093F0236A2200216A20A8
:1012900001F07EF845E17B685C687B68DD697B680E
:1012A000DB6C1846FFF716FC02460023039300236D
:1012B000029300230193009214230A222946204618
:1012C00001F066F87B685B6803F119047B68DD69EF
:1012D0007B68DB6C1846FFF7FDFB02460023039397
:1012E0000023029300230193009214230A2229462B
:1012F000204601F04DF87B685B6803F132047B689F
:10130000DD697B68DB6C1846FFF7E4FB02460023CF
:1013100003930023029300230193009214230A22D3
:101320002946204601F034F87B685C687B68DB69FD
:1013300003F114057B68DB6C1846FFF7CBFB024614
:1013400000230393002302930023019300921423AC
:101350003C222946204601F01BF87B685B6803F1BC
:101360000F047B68DB6903F128057B68DB6C18469A
:10137000FFF7B0FB024600230393002302930023F0
:10138000019300923C231E222946204601F000F8DA
:101390007B685C687B68DB6903F164057B68DB6CF8
:1013A0001846FFF797FB024600230393002302939E
:1013B00000230193009228233C222946204600F076
:1013C000E7FF00237B6121E00023BB6118E07B681D
:1013D0005A68BB69D0187B68DB6903F164027B69DA
:1013E000D1180023039300230293012301930023C8
:1013F00000930A230A2200F0CBFFBB690A33BB61CA
:10140000BB693B2BE3DD7B690A337B617B69272B5F
:10141000DADD00237B6128E00023BB611FE000BF11
:1014200084630008886300087B685B6803F10F022F
:10143000BB69D0187B68DB6903F128027B69D1188E
:1014400000230393002302930123019300230093BD
:101450000A230A2200F09CFFBB690A33BB61BB6907
:101460001D2BE1DD7B690A337B617B693B2BD3DD7F
:1014700000237B6121E00023BB6118E07B685A6890
:10148000BB69D0187B68DB6903F114027B69D11852
:10149000002303930023029301230193002300936D
:1014A0000A230A2200F074FFBB690A33BB61BB69DF
:1014B0003B2BE3DD7B690A337B617B69132BDADD30
:1014C0007B6858687B68DB6903F164017B685B6853
:1014D00003F13C027B68DB6903F16404002302939F
:1014E00003230193FF230093234600F02BFF7B6827
:1014F0005B6803F10F007B68DB6903F128017B68FF
:101500005B6803F12D027B68DB6903F1280400238B
:10151000029303230193FF230093234600F012FF5D
:1015200000BFFB6918462437BD46F0BD80B489B0C2
:1015300000AF78600023BB6100237B610023FB6167
:1015400002233B610023FB600223BB60484B9B6886
:1015500003F00C03BB61BB69042B07D0082B09D037
:10156000002B3FD17B68434A1A603FE07B68424AC8
:101570001A603BE03E4B5B6803F480039B0DFB600D
:101580003B4B5B6803F03F03BB60FB68002B0DD057
:10159000394ABB68B2FBF3F2354B596847F6C07362
:1015A0000B409B0903FB02F3FB610CE0314ABB6873
:1015B000B2FBF3F22E4B596847F6C0730B409B0900
:1015C00003FB02F3FB612A4B5B6803F440331B0C03
:1015D00001335B003B61FA693B69B2FBF3F27B6864
:1015E0001A6003E07B68234A1A6000BF204B9B68A7
:1015F00003F0F003BB61BB691B09BB611F4ABB69F8
:1016000013441B78DBB27B617B681A687B69DA4024
:101610007B685A60164B9B6803F4E053BB61BB695F
:101620009B0ABB61154ABB6913441B78DBB27B6123
:101630007B685A687B69DA407B689A600C4B9B68D0
:1016400003F46043BB61BB695B0BBB610B4ABB69C5
:1016500013441B78DBB27B617B685A687B69DA4094
:101660007B68DA6000BF2437BD4680BC704700BF8E
:10167000003802400024F40000127A00000000202C
:1016800080B483B000AF78600B46FB70FB78002B12
:1016900006D00949084B1A6B7B6813430B6306E0BD
:1016A0000549054B1A6B7B68DB4313400B6300BF96
:1016B0000C37BD4680BC70470038024080B483B010
:1016C00000AF78600B46FB70FB78002B06D0094911
:1016D000084B1A6C7B6813430B6406E00549054B05
:1016E0001A6C7B68DB4313400B6400BF0C37BD46AC
:1016F00080BC70470038024080B483B000AF78608F
:101700000B46FB70FB78002B06D00949084B5A6C3E
:101710007B6813434B6406E00549054B5A6C7B68B4
:10172000DB4313404B6400BF0C37BD4680BC7047A1
:101730000038024080B487B000AF78603960002381
:101740007B6100233B610023FB6000237B6176E02B
:1017500001227B6902FA03F33B613B681A683B692B
:101760001340FB60FA683B699A4265D17B681A684E
:101770007B695B00032101FA03F3DB431A407B68BA
:101780001A607B681A683B681B7919467B695B00A5
:1017900001FA03F31A437B681A603B681B79012B3B
:1017A00003D03B681B79022B2ED17B689A687B693A
:1017B0005B00032101FA03F3DB431A407B689A6064
:1017C0007B689A683B685B7919467B695B0001FA24
:1017D00003F31A437B689A607B685A687B699BB203
:1017E000012101FA03F3DB431A407B685A607B68EE
:1017F0005A683B689B7919467B699BB201FA03F3EF
:101800009BB21A437B685A607B68DA687B699BB23B
:101810005B00032101FA03F3DB431A407B68DA60C3
:101820007B68DA683B68DB7919467B695B0001FA03
:1018300003F31A437B68DA607B6901337B617B6960
:101840000F2B85D900BF1C37BD4680BC704700BF39
:1018500080B485B000AF78600B467B8013467B7008
:101860000023FB600023BB607A787B8803F00703CA
:101870009B0002FA03F3FB607B88DB089BB21846EF
:101880007B88DB089BB21A467B68083253F822201B
:101890007B8803F007039B000F2101FA03F3DB436E
:1018A00002EA03017B6800F1080243F822107B88FA
:1018B000DB089BB21A467B68083253F82220FB688B
:1018C0001343BB607B88DB089BB21A467B680832F7
:1018D000B96843F8221000BF1437BD4680BC70477A
:1018E00080B500AF124A124B1B6843F0010313602E
:1018F0000F4B00229A600E4A0D4B1B6823F0847335
:1019000023F4803313600A4B0A4A5A60084A084B92
:101910001B6823F480231360054B0022DA6000F07B
:101920000DF8054B4FF000629A6000BF80BD00BF0C
:10193000003802401030002400ED00E080B483B095
:1019400000AF00237B6000233B60354A344B1B68AB
:1019500043F480331360324B1B6803F400333B6065
:101960007B6801337B603B68002B03D17B68B3F558
:10197000A06FF0D12A4B1B6803F40033002B02D078
:1019800001233B6001E000233B603B68012B42D117
:10199000234A234B1B6C43F080531364214A214B91
:1019A0001B6843F4804313601D4A1D4B9B68936082
:1019B0001B4A1B4B9B6843F400439360184A184B27
:1019C0009B6843F4A0539360154B174A5A60144A1E
:1019D000134B1B6843F08073136000BF104B1B68F0
:1019E00003F00073002BF9D0104B40F205621A602F
:1019F0000B4A0B4B9B6823F003039360084A084B88
:101A00009B6843F00203936000BF054B9B6803F0A3
:101A10000C03082BF9D100BF0C37BD4680BC7047C2
:101A2000003802400070004008544007003C02406B
:101A300080B483B000AF78607B681B6823F001023C
:101A40007B681A607B6800221A607B6800225A60FB
:101A50007B6800229A607B680022DA607B68002243
:101A60001A617B6821225A617B68454A934203D1FF
:101A7000444B3D229A607EE07B68434A934204D106
:101A8000404B4FF474629A6075E07B683F4A934222
:101A900004D13C4B4FF474129A606CE07B683C4A72
:101AA000934204D1374B4FF074629A6063E07B68D5
:101AB000384A934203D1334B374ADA605BE07B68A4
:101AC000364A934203D12F4B354ADA6053E07B68A4
:101AD000344A934203D12B4B334ADA604BE07B68A4
:101AE000324A934204D1274B4FF03D52DA6042E034
:101AF0007B682F4A934203D12E4B3D229A603AE0F5
:101B00007B682D4A934204D12A4B4FF474629A6049
:101B100031E07B68294A934204D1264B4FF474127A
:101B20009A6028E07B68264A934204D1214B4FF00B
:101B300074629A601FE07B68224A934203D11D4B76
:101B4000154ADA6017E07B681F4A934203D1194BAC
:101B5000134ADA600FE07B681C4A934203D1154BAD
:101B6000114ADA6007E07B68194A934203D1114BAE
:101B70004FF03D52DA6000BF0C37BD4680BC704765
:101B80001060024000600240286002404060024055
:101B900058600240706002403D00002088600240B2
:101BA000400F0020A060024000003D20B8600240CD
:101BB0001064024000640240286402404064024015
:101BC000586402407064024088640240A06402408D
:101BD000B864024080B485B000AF786039600023FB
:101BE000FB607B681B68FB60FA68244B1340FB605A
:101BF0003B681A683B68DB681A433B685B691A43B9
:101C00003B689B691A433B68DB691A433B681B6A64
:101C10001A433B685B6A1A433B689B6A1A433B68FA
:101C20005B6B1A433B689B6B1343FA681343FB607F
:101C30007B68FA681A607B685B69FB60FB6823F06D
:101C40000703FB603B68DA6A3B681B6B1343FA6867
:101C50001343FB607B68FA685A613B681A697B68CA
:101C60005A603B685A687B689A603B689A687B68F0
:101C7000DA6000BF1437BD4680BC70473F801CF05F
:101C800080B483B000AF78600B46FB70FB78002B0C
:101C900006D07B681B6843F001027B681A6005E090
:101CA0007B681B6823F001027B681A6000BF0C3759
:101CB000BD4680BC704700BF80B485B000AFF860FF
:101CC000B9601346FB71BB6803F08003002B0FD093
:101CD000FB79002B06D0FB685B6943F08002FB6850
:101CE0005A6105E0FB685B6923F08002FB685A617A
:101CF000BB68802B14D0FB79002B08D0FB681A68D6
:101D0000BB6803F01E031A43FB681A6008E0FB6817
:101D10001A68BB6803F01E03DB431A40FB681A60B5
:101D200000BF1437BD4680BC704700BF80B487B089
:101D300000AF786039600023FB750023FB6000234F
:101D4000BB607B68214A934202D8214B3B6101E092
:101D5000204B3B613B6823F0F02323F0C313002B9F
:101D60000AD03B68DB0A03F01E03FB607B681A683D
:101D7000FB681340BB6004E07B685B6903F0800391
:101D8000BB603B6803F00053002B03D03B695B68EA
:101D9000FB6002E03B691B68FB60FB6823F0F023FB
:101DA00023F08213FB60FA683B681340002B05D0D8
:101DB000BB68002B02D00123FB7501E00023FB75FB
:101DC000FB7D18461C37BD4680BC70470F6402403F
:101DD000006002400064024080B485B000AF7860CB
:101DE00039607B68104A934202D8104BFB6001E0D7
:101DF0000F4BFB603B6803F00053002B07D03B68A0
:101E000023F0F02323F08213FA68D36006E03B68E6
:101E100023F0F02323F08213FA68936000BF143795
:101E2000BD4680BC704700BF0F64024000600240A6
:101E30000064024080B485B000AF78600023FB737B
:101E40000023BB730F237B737B68DB78002B38D0B8
:101E5000264BDB68DB4303F4E0631B0AFB73FB7B6D
:101E6000C3F10403BB737A7BFB7B42FA03F37B73FE
:101E70007B685B781A46BB7B02FA03F3FB737B68D3
:101E80009A787B7B1340DAB2FB7B1343FB73FB7BBB
:101E90001B01FB73164A7B681B781344FA7B83F89B
:101EA0000023134A7B681B785B09DBB218467B680A
:101EB0001B7803F01F03012101FA03F342F82030DD
:101EC0000FE00B497B681B785B09DBB218467B6827
:101ED0001B7803F01F0301229A4000F1200341F810
:101EE000232000BF1437BD4680BC704700ED00E0E2
:101EF00000E100E080B485B000AF78603960002375
:101F0000FB817B681B88FB817B68284A934213D046
:101F10007B68274A93420FD07B68B3F1804F0BD088
:101F20007B68244A934207D07B68234A934203D0BC
:101F30007B68224A934208D1FB8923F07003FB811E
:101F40003B685A88FB891343FB817B681C4A934298
:101F50000CD07B681B4A934208D0FB8923F4407362
:101F6000FB813B681A89FB891343FB817B68FA89F3
:101F70001A803B685A687B68DA623B681A887B681B
:101F80001A857B68094A934203D07B68084A9342CA
:101F900004D13B689B7A9AB27B681A867B680122DF
:101FA0009A8200BF1437BD4680BC704700000140D4
:101FB000000401400004004000080040000C004004
:101FC000001000400014004080B483B000AF78607F
:101FD0000B46FB70FB78002B08D07B681B889BB2FC
:101FE00043F080039AB27B681A8007E07B681B8805
:101FF0009BB223F080039AB27B681A8000BF0C3733
:10200000BD4680BC704700BF80B483B000AF78602D
:102010000B46FB70FB78002B08D07B681B889BB2BB
:1020200043F001039AB27B681A8007E07B681B8843
:102030009BB223F001039AB27B681A8000BF0C3771
:10204000BD4680BC704700BF80B485B000AF7860EB
:10205000396000237B810023FB810023BB817B68E7
:102060001B8C9BB223F480739AB27B681A847B68C2
:102070001B8CFB817B689B88BB817B689B8B7B81F6
:102080007B8923F070037B817B8923F003037B81B1
:102090003B681A887B8913437B81FB8923F4007397
:1020A000FB813B689B891B029AB2FB891343FB812E
:1020B0003B685B881B029AB2FB891343FB817B68F8
:1020C000224A934203D07B68214A93422BD1FB8959
:1020D00023F40063FB813B68DB891B029AB2FB8916
:1020E0001343FB81FB8923F48063FB813B689B885E
:1020F0001B029AB2FB891343FB81BB8923F48053F3
:10210000BB81BB8923F40053BB813B681B8A1B0145
:102110009AB2BB891343BB813B685B8A1B019AB2AD
:10212000BB891343BB817B68BA899A807B687A89B3
:102130009A833B689A687B68DA637B68FA891A84B9
:1021400000BF1437BD4680BC704700BF000001408F
:102150000004014080B485B000AF7860396000238E
:10216000BB8100237B810023FB817B681B8C9BB29E
:1021700023F480539AB27B681A847B681B8C7B8122
:102180007B689B88FB817B689B8BBB81BB8923F42D
:10219000E043BB81BB8923F44073BB813B681B8850
:1021A0001B029AB2BB891343BB817B8923F4005382
:1021B0007B813B689B891B039AB27B8913437B819C
:1021C0003B685B881B039AB27B8913437B817B68E6
:1021D000114A934203D07B68104A93420AD1FB898B
:1021E00023F48043FB813B681B8A9B019AB2FB89E5
:1021F0001343FB817B68FA899A807B68BA899A834A
:102200003B689A687B681A647B687A891A8400BF85
:102210001437BD4680BC70470000014000040140F7
:1022200080B485B000AF78600B467B800023FB81D3
:102230007B689B8BFB81FB8923F00803FB81FA8978
:102240007B881343FB817B68FA899A8300BF14372C
:10225000BD4680BC704700BF80B485B000AF7860D9
:102260000B467B800023FB817B689B8BFB81FB897A
:1022700023F40063FB817B881B029AB2FB89134322
:10228000FB817B68FA899A8300BF1437BD4680BC06
:10229000704700BF80B483B000AF78600B467B808E
:1022A00013467B707B78002B08D07B689B899AB2A1
:1022B0007B8813439AB27B689A8109E07B689B898B
:1022C0009AB27B88DB439BB213409AB27B689A81B7
:1022D00000BF0C37BD4680BC704700BF80B483B0E0
:1022E00000AF78600B467B807B88DB439AB27B68CB
:1022F0001A8200BF0C37BD4680BC704780B483B0E3
:1023000000AF78600B467B8013467B707B78002B98
:1023100008D07B689B899AB27B8813439AB27B680A
:102320009A8109E07B689B899AB27B88DB439BB2E8
:1023300013409AB27B689A8100BF0C37BD4680BCBF
:10234000704700BF80B588B002AFF860B9607A60AE
:102350003B6000237B61F868B9687A683B6800F0ED
:10236000E9F978617B69002B01D07B690CE03B6A5D
:10237000DBB200937B6A0193F868B9687A683B68BE
:1023800000F0FEFB78617B6918461837BD4680BDBA
:1023900080B588B002AFF860B9607A603B60002316
:1023A0007B61FA687B681A44B9683B680B44F8683B
:1023B000B96800F0BFF978617B69002B01D07B69B7
:1023C0000BE03B6A00937B6A0193F868B9687A680E
:1023D0003B6800F015FD78617B6918461837BD46EB
:1023E00080BD00BF80B582B000AF7860786800F033
:1023F000BBFB002318460837BD4680BD80B58AB0B8
:1024000004AFF860B9607A603B603B6A00937B6A16
:102410000193BB6A0293FB6A03933868F968BA6850
:102420007B6800F01BFA78617B6918461837BD4657
:1024300080BD00BF80B588B000AFF860B9607A6039
:102440003B600023FB617B68052B00F25D8101A2EC
:1024500052F823F06D240008D9240008452500080F
:10246000B12500081D2600089D260008864B1B7814
:102470001A46854B5B781B021A43834B9B781B04DF
:102480001A4300231343BB617F4B1B791A467E4BD3
:102490005B791B021A437C4B9B791B041A43002374
:1024A00013437B61FA68BB691344B3F5A07F03D97A
:1024B000BB69C3F5A073FB60BA687B691344F02B5A
:1024C00003D97B69C3F1F003BB60F868B9686E4A51
:1024D0003B6800F0C1FA19E16C4B1B781A466B4B54
:1024E0005B781B021A43694B9B781B041A43002339
:1024F0001343BB61654B1B791A46644B5B791B0226
:102500001A43624B9B791B041A43002313437B61DC
:10251000FA68BB691344B3F5A07F03D9BB69C3F55F
:10252000A073FB60BA687B691344F02B03D97B6905
:10253000C3F1F003BB60F868B968544A3B6800F027
:102540008BFAE3E0524B1B781A46514B5B781B0227
:102550001A434F4B9B781B041A4300231343BB6160
:102560004B4B1B791A464A4B5B791B021A43484B6B
:102570009B791B041A43002313437B61FA68BB69F0
:102580001344B3F5A07F03D9BB69C3F5A073FB6007
:10259000BA687B691344F02B03D97B69C3F1F0035C
:1025A000BB60F868B9683A4A3B6800F055FAADE09C
:1025B000384B1B781A46374B5B781B021A43354B56
:1025C0009B781B041A4300231343BB61314B1B79D7
:1025D0001A46304B5B791B021A432E4B9B791B0426
:1025E0001A43002313437B61FA68BB691344B3F5B4
:1025F000A07F03D9BB69C3F5A073FB60BA687B6990
:102600001344F02B03D97B69C3F1F003BB60F86876
:10261000B968204A3B6800F01FFA77E01E4B1B7830
:102620001A461D4B5B781B021A431B4B9B781B04FD
:102630001A4300231343BB61174B1B791A46164BF1
:102640005B791B021A43144B9B791B041A4300232A
:1026500013437B61FA68BB691344B3F5A07F03D9C8
:10266000BB69C3F5A073FB60BA687B691344F02BA8
:1026700003D97B69C3F1F003BB60F868B968064A07
:102680003B6800F0E9F941E01000002078040020E8
:10269000E0080020200D0020601100201E4B1B7858
:1026A0001A461D4B5B781B021A431B4B9B781B047D
:1026B0001A4300231343BB61174B1B791A46164B71
:1026C0005B791B021A43144B9B791B041A430023AA
:1026D00013437B61FA68BB691344B3F5A07F03D948
:1026E000BB69C3F5A073FB60BA687B691344F02B28
:1026F00003D97B69C3F1F003BB60F868B968064A87
:102700003B6800F0A9F901E00423FB61FB6918466E
:102710002037BD4680BD00BF2C1B002080B500AF18
:10272000FFF7DEF800F0C8FB00F0FEFD00F0BAFE97
:1027300080BD00BF80B487B000AFF860B9607A6038
:102740003B6000237B61FB68B3F5A07F09DCFB687D
:10275000002B06DB7B68B3F5A07F02DC7B68002BD7
:1027600003DA7B6943F001037B61BB68F02B08DC73
:10277000BB68002B05DB3B68F02B02DC3B68002BC1
:1027800003DA7B6943F002037B617B6918461C37DF
:10279000BD465DF8047B704780B582B000AF7860BD
:1027A000786800F061FE0837BD4680BD80B582B014
:1027B00000AF78607868002100F0B4FF0837BD46AC
:1027C00080BD00BF80B582B000AF7860786800F04F
:1027D000CBFE0837BD4680BD80B582B000AF7860C3
:1027E0007B68184600F020FF0837BD4680BD00BF5B
:1027F00080B582B000AF78600B46FB70FB787868DC
:10280000194600F01DFF0837BD4680BD80B485B075
:1028100000AF786039600023FB6011E0FB687A68E4
:1028200013441A78FB6839680B441B789A4202D12A
:102830000123BB6001E00023BB60FB680133FB6048
:10284000FB687A6813441B78002BE7D1BB681846F5
:102850001437BD465DF8047B704700BF80B588B073
:1028600002AFF860B9607A603B6000237B61FF23B0
:102870003B61386A7649FFF7C9FF0346002B25D034
:10288000BB6A012B0CD0022B13D0002B1AD17B6A10
:10289000012B02D100233B6117E003233B6114E0CD
:1028A0007B6A012B02D101233B610EE004233B61D3
:1028B0000BE07B6A012B02D102233B6105E005237B
:1028C0003B6102E002237B6100BF2EE0386A614970
:1028D000FFF79CFF0346002B25D0BB6A012B0CD0D1
:1028E000022B13D0002B1AD17B6A012B02D10623B5
:1028F0003B6117E009233B6114E07B6A012B02D1A5
:1029000007233B610EE00A233B610BE07B6A012B4E
:1029100002D108233B6105E00B233B6102E0032366
:102920007B6100BF01E004237B613B690B2B00F25C
:10293000878001A252F823F0692900087B2900084A
:102940008D2900089F290008B1290008C329000823
:10295000D5290008E7290008F92900080B2A0008F2
:102960001D2A00082F2A0008FB6A0093F868B9683E
:102970007A683B6800F084FF65E0FB6A0093F868C2
:10298000B9687A683B6801F06BF85CE0FB6A009319
:10299000F868B9687A683B6801F052F953E0FB6A5D
:1029A0000093F868B9687A683B6801F039FA4AE040
:1029B000FB6A0093F868B9687A683B6801F020FB0D
:1029C00041E0FB6A0093F868B9687A683B6801F0F7
:1029D00007FC38E0FB6A0093F868B9687A683B68DE
:1029E00001F0EEFC2FE0FB6A0093F868B9687A68A2
:1029F0003B6801F0D5FD26E0FB6A0093F868B968F2
:102A00007A683B6801F0BCFE1DE0FB6A0093F86841
:102A1000B9687A683B6801F0A3FF14E0FB6A009391
:102A2000F868B9687A683B6802F08AF80BE0FB6ADC
:102A30000093F868B9687A683B6802F071F902E0BF
:102A400005237B6100BF7B6918461837BD4680BDF2
:102A50008C6300089463000880B588B000AFF8600C
:102A6000B9607A603B607B681B781A467B680133EB
:102A70001B781B021A437B6802331B781B041A4322
:102A8000002313437B617B6804331B781A467B6801
:102A900005331B781B021A437B6806331B781B0423
:102AA0001A43002313433B610023BB6155E000231D
:102AB000FB614BE0BB697A6902FB03F2FB691344DB
:102AC00008337A6813441B78FF2B1ED03B68002B19
:102AD0001BD1FB689AB2FB699BB2134499B2BB68E5
:102AE0009AB2BB699BB213449AB2BB69786900FB86
:102AF00003F0FB6903440833786803441B780846F5
:102B000011461A4600F03CFA1DE03B68012B1AD131
:102B1000FB689AB2FB699BB2134499B2BB689AB244
:102B2000BB699BB213449AB2BB69786900FB03F09E
:102B3000FB6903440833786803441B780846114650
:102B40001A4600F01DFAFB690133FB61FA697B69E3
:102B50009A42AFD3BB690133BB61BA693B699A4200
:102B6000A5D32037BD4680BD80B582B000AF786068
:102B70007B68DBB2184600F0DFF90837BD4680BD40
:102B800090B58BB000AFF860B9607A603B607A684E
:102B9000FB68D31A184602F0E3FD0346BB613A68AE
:102BA000BB68D31A184602F0DBFD03467B617869E7
:102BB000B96902F0DDFE03463B61FB6BDA0F13449B
:102BC0005B10FB6113E13B6923F0004318464FF0B3
:102BD0007E5102F0C1FF0346002B7BD0FA687B6870
:102BE0009A423ADAFB687B6232E07A6AFB68D31A6F
:102BF000184602F0B5FD03461846396902F004FE96
:102C000003461C46B86802F0ABFD03462046194651
:102C100002F0F2FC03461C46F86902F0A1FD0346EF
:102C20002046194602F0E8FC0346184602F0B2FFBF
:102C300003463B627B6A99B23B6A9AB297F8383096
:102C4000084611461A4600F09BF97B6A01337B6205
:102C50007A6A7B689A42C8DBC3E07B687B6234E0B7
:102C60007A6AFB68D31A184602F07AFD03461846C2
:102C7000396902F0C9FD03461C46B86802F070FDD0
:102C800003462046194602F0B7FC03461C46F86985
:102C900002F066FD03462046194602F0ADFC0346ED
:102CA000184602F077FF03463B627B6A99B23B6AA3
:102CB0009BB2013B9AB297F83830084611461A4643
:102CC00000F05EF97B6A01337B627A6AFB689A42A4
:102CD000C6DB86E0BA683B689A4241DABB683B6271
:102CE00039E04FF07E50396902F042FE03461C463F
:102CF0003A6ABB68D31A184602F032FD03462046F2
:102D0000194602F081FD03461C46F86802F028FDD2
:102D100003462046194602F06FFC03461C46F8693C
:102D200002F01EFD03462046194602F065FC0346EC
:102D3000184602F02FFF03467B627B6A99B23B6A1A
:102D40009AB297F83830084611461A4600F018F93A
:102D50003B6A01333B623A6A3B689A42C1DB40E01E
:102D60003B683B6239E04FF07E50396902F000FE6B
:102D700003461C463A6ABB68D31A184602F0F0FCB8
:102D800003462046194602F03FFD03461C46F868FC
:102D900002F0E6FC03462046194602F02DFC0346ED
:102DA0001C46F86902F0DCFC03462046194602F096
:102DB00023FC0346184602F0EDFE03467B627B6A65
:102DC00099B23B6A9AB297F83830084611461A46CB
:102DD00000F0D6F83B6A01333B623A6ABB689A421C
:102DE000C1DBFB69013BFB61FB6B013BFB63FB6BE5
:102DF000002B3FF7E8AE002318462C37BD4690BDA8
:102E000080B586B002AFF860B9607A603B607A68DE
:102E1000FB6813447B603A68BB6813443B60FB6902
:102E2000002B3CD0012B3FD1BB69DBB200930123C7
:102E30000193F868B9687A68BB68FFF7A1FEBB69BF
:102E4000DBB2009301230193F868B968FA683B6824
:102E5000FFF796FEBB69DBB200930123019378680C
:102E600039687A68BB68FFF78BFEBB69DBB20093F9
:102E70000123019378683968FA683B68FFF780FEA0
:102E800014E0BB69DBB2009301230193F868B968D1
:102E90007A68BB68FFF774FEBB680133BB60BA6831
:102EA0003B689A42EDDB01E0012300E00023184675
:102EB0001037BD4680BD00BF80B582B000AF1B4B50
:102EC00000221A80194B00225A60184B00229A6087
:102ED0000023BB8017E00023FB800DE0BA88134677
:102EE0009B0013449B011A44FB881344104A0021A1
:102EF000D154FB880133FB80FB88B3F5A07FEDD96B
:102F0000BB880133BB80BB88EF2BE4D900F05EF8AF
:102F100000F0B0F800F03EF900F010F9054B1A6827
:102F2000024B9A600837BD4680BD00BF4029002093
:102F30004C2900208864024080B584B000AF03466D
:102F4000FB710023BB8114E00023FB810AE0F989B7
:102F5000BA89FB79084611461A4600F011F8FB8938
:102F60000133FB81FB89B3F5A07FF0D3BB8901332B
:102F7000BB81BB89EF2BE7D91037BD4680BD00BFB1
:102F800080B483B000AF13460246FA800A46BA8086
:102F9000FB70FB88B3F5A07F01D30023FB80BB88C7
:102FA000EF2B01D90023BB80BA8813469B00134442
:102FB0009B011A44FB881344034AF978D1540C3717
:102FC000BD465DF8047B70474C29002080B582B077
:102FD00000AF10200121FEF753FB4FF47F433B600D
:102FE00001233B710023BB710123FB7103237B7120
:102FF0003B461E481946FEF79DFB1C4B4FF47F4293
:103000005A8302200121FEF73BFB4FF400633B6033
:1030100002233B7103237B710023BB710123FB71EE
:103020003B4613481946FEF785FB11480B21012248
:10303000FEF70EFC02200121FEF722FB4FF4805325
:103040003B6001233B710023BB710123FB71032310
:103050007B713B4606481946FEF76CFB044B4FF468
:1030600080521A830837BD4680BD00BF0010024061
:103070000004024080B588B000AF01200121FEF7B6
:103080003BFB0B23BB610023BB820023BB830023DC
:10309000FB8207F1140328481946FEF72BFF012095
:1030A0000121FEF70BFB40F66B23BB610023BB82C3
:1030B0000023BB830023FB8207F114034FF0804001
:1030C0001946FEF717FF60233B8001237B804FF4F6
:1030D000D273BB600223BB813B464FF08040194650
:1030E000FEF7B2FF4FF080400821FFF799F8602308
:1030F0003B8001237B804FF4A073BB600223BB8124
:103100003B464FF080401946FFF724F84FF08040CF
:103110000821FFF7A1F808480121FEF755FF4FF0FD
:1031200080400121FEF750FF4FF080400121FEF763
:103130006BFF2037BD4680BD0000014080B582B0E6
:1031400000AF134810210122FEF7B6FD44233B7166
:1031500000237B710023BB710123FB713B1D1846CB
:10316000FEF768FE4FF0804008210122FFF792F839
:103170001C233B7100237B710023BB710123FB7176
:103180003B1D1846FEF756FE0837BD4680BD00BF02
:103190008864024080B590B000AF4FF480000121F8
:1031A000FEF76EFA1B480021FEF76AFD1948FEF78C
:1031B0003FFC4FF040637B60174BBB60174BFB60DD
:1031C00040233B6140F241137B610023BB614FF41C
:1031D0008063FB6100233B6200237B620023BB62B0
:1031E0004FF44033FB6200233B6301237B630023E6
:1031F000BB630023FB633B1D06481946FEF7EAFC50
:1032000007484FF480710122FFF778F84037BD4638
:1032100080BD00BF88640240151002404C29002088
:103220000000014080B500AF4FF080400821FFF75B
:1032300055F8254B1B8801339AB2234B1A80224B39
:103240001B88B3F5037F05D91F4B00221A801F4A44
:103250001D4B5A601C4B1B88012B04D81C4B4FF490
:1032600080525A8303E01A4B4FF480521A83164B54
:103270001B88232B27D9144B1A8840F202239A4229
:1032800021D8144B104A92681A60124B0E4A5268A9
:10329000DA60114B104A128892B242F0010292B2E7
:1032A0001A800C4B0B4A126842F001021A60064B5E
:1032B0001B8803F00103002B05D0034B5B6803F26E
:1032C0004112014B5A6080BD402900204C2900204A
:1032D00000040240886402400000014080B500AF55
:1032E0000D480E49FEF722FD0346002B12D00A4876
:1032F0000A49FEF771FD0A4B094A128892B222F080
:10330000010292B21A80044B00221A60054B4FF45E
:103310007F425A8380BD00BF88640240008800203D
:10332000000001400010024080B584B000AF3B4671
:103330001846FEF7FBF83A68454B1A60444B1B6889
:10334000184601F0ABFE02460B46104619464FF0F8
:103350000002404B01F018FF02460B46104619468A
:103360004FF000023C4B02F039F802460B46104683
:1033700019464FF000024FF0804302F02FF802464A
:103380000B461046194602F011F90246334B1A60FB
:103390002F4B1B68184601F081FE02460B46104673
:1033A00019464FF000022B4B01F0EEFE02460B4691
:1033B0001046194622A3D3E9002302F00FF8024673
:1033C0000B46104619464FF000024FF0804302F0C2
:1033D00005F802460B461046194602F0E7F8024689
:1033E0001F4B1A601A4B1B68184601F057FE024625
:1033F0000B46104619464FF00002164B01F0C4FE72
:1034000002460B46104619460FA3D3E9002301F0EC
:10341000E5FF02460B46104619464FF000024FF0FA
:10342000804301F0DBFF02460B461046194602F0CE
:10343000BDF802460B4B1A601037BD4680BD00BF79
:10344000000000000094C14000000000882A614193
:103450003C5601200000F43F00002240405601206D
:10346000485601204456012080B485B000AF7860F2
:103470000DE00023FB6002E0FB680133FB60FA68AB
:10348000074B1B689A42F7D37B68013B7B607B68E4
:10349000002BEED11437BD465DF8047B704700BFAA
:1034A0004856012080B586B000AF4FF400300121AE
:1034B000FEF704F901200121FEF7E2F80C233B613D
:1034C00002233B750023BB750123FB7502237B752B
:1034D00007F1100316481946FEF72CF9144802218B
:1034E0000722FEF7B5F9124803210722FEF7B0F9CB
:1034F0004FF4E1333B600023BB800023FB800023BB
:103500003B810023BB810C237B813B460948194644
:10351000FDF7AAF8074840F225510122FDF790F97E
:1035200004480121FDF75AF91837BD4680BD00BF98
:10353000000002400044004080B582B000AF034666
:10354000FB7100BF07488021FDF7C2F90346002B3D
:10355000F8D0FB799BB203481946FDF75FF90837AD
:10356000BD4680BD0044004080B584B000AF7860A7
:103570000023FB6009E0FB687A6813441B78184657
:10358000FFF7DAFFFB680133FB60FB687A681344DE
:103590001B78002BEFD11037BD4680BD80B582B0BF
:1035A00000AF1E4840F22551FDF7AEF90346002B4F
:1035B00030D01A4840F22551FDF700FA174B9B888E
:1035C0009BB2FB71FB79082B09D1154B1B68002BB3
:1035D00013DD134B1B685A1E114B1A600DE0104B84
:1035E0001B68632B09D80E4B1B680E4AF979D1541E
:1035F0000B4B1B685A1C0A4B1A60094B1B68094A83
:103600000021D15400BF05484021FDF761F9034670
:10361000002BF8D00837BD4680BD00BF00440040F5
:103620003C2900204C56012080B582B000AF786064
:1036300078680A2100F004F80837BD4680BD00BF55
:1036400080B588B000AF78600B46FB700F23FB613C
:103650007B68002B09D107F10802FB691344302273
:103660001A70FB69013BFB6122E01EE0FA787B687F
:10367000B3FBF2F102FB01F29B1ABB61FB787A68A3
:10368000B2FBF3F37B60194ABB6913441B78DAB2CF
:1036900007F10801FB690B441A70FB69013BFB61F0
:1036A000FB69002B01D100237B607B68002BDDD1FF
:1036B00015E0FB690133FB6100BF0D488021FDF778
:1036C00007F90346002BF8D007F10802FB69134401
:1036D0001B785BB29BB206481946FDF79FF8FB6961
:1036E0000E2BE6DD2037BD4680BD00BFF82400204C
:1036F0000044004080B582B000AFFF23FB71084852
:103700002021FDF7E5F80346012B03D1044B9B88EC
:103710009BB2FB71FB7918460837BD4680BD00BFE0
:103720000044004080B584B000AF786039607B68A9
:10373000FB60FFF7DFFF03461A467B681A707B6861
:103740001B78FF2B03D07B681B780A2B00D11FE06E
:103750007B681B78082B07D17A68FB689A4203D9EB
:103760007B68013B7B6013E03B68002B04D07B68E7
:103770001B781846FFF7E0FE7B681B780D2B03D102
:103780007B6800221A7004E07B6801337B60D0E71D
:10379000CFE71037BD4680BD80B58AB000AFB960B5
:1037A0007A603B600346FB73FB7B203BFB73FB7B38
:1037B000314ADB0013445B68BB61FB7B5D2B06D0A9
:1037C000FB7B01332C4ADB0013445B6801E04FF4C0
:1037D00075737B6100237B6244E00023FB612DE075
:1037E00000233B6224E080223B6A1A41B969FB69ED
:1037F0000B442249CB5C13403B613B69002B14D046
:10380000FB699BB2DB009AB23B6A9BB213449AB24B
:10381000BB689BB2134499B27B689AB23B68DBB237
:10382000084611461A46FFF7ABFB3B6A01333B6281
:103830003B6A072BD7DDFB690133FB61FA7B0E4B3B
:1038400053F83220FB699A42CADC7B6801337B6003
:10385000FA7B094B53F83230BA691344BB617B6A77
:1038600001337B62BA697B699A42B6DB0023184652
:103870002837BD4680BD00BF74670008A0630008FC
:1038800090B58BB002AFF860B9607A603B600023FE
:10389000BB61BB687B617B683B61FB681B783A6BF3
:1038A0000092184679693A693B68FFF775FFB8617D
:1038B0000123FB6152E0FB69013BFA6813441B786A
:1038C000A3F120022B4B53F83230DA007B691A4403
:1038D0003B69143378693969FEF72CFFB861BB691D
:1038E000012B15D13B6914333B61FB69013BFA683D
:1038F00013441B78A3F120021E4B53F832201346C9
:103900005B079B1ADB001A46BB6813447B6104E02B
:10391000BB69022B01D1BB6928E0FB69FA6813443B
:103920001B78FA69013AF9680A441278A2F1200179
:10393000104A52F83120D20079690A447A613A6B10
:103940000092184679693A693B68FFF725FF0346FC
:10395000BA691343BB61FB690133FB61FC69F86819
:1039600002F02EFA03469C42A5D3BB6918462437C1
:10397000BD4690BD7467000880B58AB000AFB960DD
:103980007A603B600346FB73FB7B203BFB73FB7B56
:10399000314ADB0013445B68BB61FB7B5D2B06D0C7
:1039A000FB7B01332C4ADB0013445B6801E04FF4DE
:1039B00075737B6100237B6244E00023FB612DE093
:1039C00000233B6224E080223B6A1A41B969FB690B
:1039D0000B442249CB5C13403B613B69002B14D064
:1039E000FB699BB2DB009AB23B6A9BB213449AB26A
:1039F000BB689BB2134499B27B689AB23B68DBB256
:103A0000084611461A46FFF7BBFA3B6A01333B6290
:103A10003B6A072BD7DDFB690133FB61FA7B0E4B59
:103A200053F83220FB699A42CADC7B6801337B6021
:103A3000FA7B094B53F83230BA691344BB617B6A95
:103A400001337B62BA697B699A42B6DB0023184670
:103A50002837BD4680BD00BF74670008A06300081A
:103A600090B58BB002AFF860B9607A603B6000231C
:103A7000BB61BB687B617B683B61FB681B783A6B11
:103A80000092184679693A693B68FFF775FFB8619B
:103A90000123FB6152E0FB69013BFA6813441B7888
:103AA000A3F120022B4B53F83230DA007B691A4421
:103AB0003B69143378693969FEF73CFEB861BB692C
:103AC000012B15D13B6914333B61FB69013BFA685B
:103AD00013441B78A3F120021E4B53F832201346E7
:103AE0005B079B1ADB001A46BB6813447B6104E04A
:103AF000BB69022B01D1BB6928E0FB69FA6813445A
:103B00001B78FA69013AF9680A441278A2F1200197
:103B1000104A52F83120D20079690A447A613A6B2E
:103B20000092184679693A693B68FFF725FF03461A
:103B3000BA691343BB61FB690133FB61FC69F86837
:103B400002F03EF903469C42A5D3BB6918462437D0
:103B5000BD4690BD7467000880B58AB000AFB960FB
:103B60007A603B600346FB73FB7B203BFB73FB7B74
:103B7000314ADB0013445B68BB61FB7B5D2B06D0E5
:103B8000FB7B01332C4ADB0013445B6801E04FF4FC
:103B900093637B6100237B6244E00023FB612DE0A3
:103BA00000233B6224E080223B6A1A41B969FB6929
:103BB0000B442249CB5C13403B613B69002B14D082
:103BC000FB699BB2DB009AB23B6A9BB213449AB288
:103BD000BB689BB2134499B27B689AB23B68DBB274
:103BE000084611461A46FFF7CBF93B6A01333B62A0
:103BF0003B6A072BD7DDFB690133FB61FA7B0E4B78
:103C000053F83220FB699A42CADC7B6801337B603F
:103C1000FA7B094B53F83230BA691344BB617B6AB3
:103C200001337B62BA697B699A42B6DB002318468E
:103C30002837BD4680BD00BF307600089871000867
:103C400090B58BB002AFF860B9607A603B6000233A
:103C5000BB61BB687B617B683B61FB681B783A6B2F
:103C60000092184679693A693B68FFF775FFB861B9
:103C70000123FB6152E0FB69013BFA6813441B78A6
:103C8000A3F120022B4B53F83230DA007B691A443F
:103C90003B69143378693969FEF74CFDB861BB693B
:103CA000012B15D13B6914333B61FB69013BFA6879
:103CB00013441B78A3F120021E4B53F83220134605
:103CC0005B079B1ADB001A46BB6813447B6104E068
:103CD000BB69022B01D1BB6928E0FB69FA68134478
:103CE0001B78FA69013AF9680A441278A2F12001B6
:103CF000104A52F83120D20079690A447A613A6B4D
:103D00000092184679693A693B68FFF725FF034638
:103D1000BA691343BB61FB690133FB61FC69F86855
:103D200002F04EF803469C42A5D3BB6918462437DF
:103D3000BD4690BD3076000880B58AB000AFB9604E
:103D40007A603B600346FB73FB7B203BFB73FB7B92
:103D5000314ADB0013445B68BB61FB7B5D2B06D003
:103D6000FB7B01332C4ADB0013445B6801E040F627
:103D700035537B6100237B6244E00023FB612DE02F
:103D800000233B6224E080223B6A1A41B969FB6947
:103D90000B442249CB5C13403B613B69002B14D0A0
:103DA000FB699BB2DB009AB23B6A9BB213449AB2A6
:103DB000BB689BB2134499B27B689AB23B68DBB292
:103DC000084611461A46FFF7DBF83B6A01333B62AF
:103DD0003B6A072BD7DDFB690133FB61FA7B0E4B96
:103DE00053F83220FB699A42CADC7B6801337B605E
:103DF000FA7B094B53F83230BA691344BB617B6AD2
:103E000001337B62BA697B699A42B6DB00231846AC
:103E10002837BD4680BD00BF5886000820790008BD
:103E200090B58BB002AFF860B9607A603B60002358
:103E3000BB61BB687B617B683B61FB681B783A6B4D
:103E40000092184679693A693B68FFF775FFB861D7
:103E50000123FB6152E0FB69013BFA6813441B78C4
:103E6000A3F120022B4B53F83230DA007B691A445D
:103E70003B69143378693969FEF75CFCB861BB694A
:103E8000012B15D13B6914333B61FB69013BFA6897
:103E900013441B78A3F120021E4B53F83220134623
:103EA0005B079B1ADB001A46BB6813447B6104E086
:103EB000BB69022B01D1BB6928E0FB69FA68134496
:103EC0001B78FA69013AF9680A441278A2F12001D4
:103ED000104A52F83120D20079690A447A613A6B6B
:103EE0000092184679693A693B68FFF725FF034657
:103EF000BA691343BB61FB690133FB61FC69F86874
:103F000001F05EFF03469C42A5D3BB6918462437E7
:103F1000BD4690BD5886000880B58AB000AFB96034
:103F20007A603B600346FB73FB7B203BFB73FB7BB0
:103F3000314ADB0013445B68BB61FB7B5D2B06D021
:103F4000FB7B01332C4ADB0013445B6801E040F645
:103F50005F537B6100237B6244E00023FB612DE023
:103F600000233B6224E080223B6A1A41B969FB6965
:103F70000B442249CB5C13403B613B69002B14D0BE
:103F8000FB699BB2DB009AB23B6A9BB213449AB2C4
:103F9000BB689BB2134499B27B689AB23B68DBB2B0
:103FA000084611461A46FEF7EBFF3B6A01333B62B7
:103FB0003B6A072BD7DDFB690133FB61FA7B0E4BB4
:103FC00053F83220FB699A42CADC7B6801337B607C
:103FD000FA7B094B53F83230BA691344BB617B6AF0
:103FE00001337B62BA697B699A42B6DB00231846CB
:103FF0002837BD4680BD00BFA89600084889000844
:1040000090B58BB002AFF860B9607A603B60002376
:10401000BB61BB687B617B683B61FB681B783A6B6B
:104020000092184679693A693B68FFF775FFB861F5
:104030000123FB6152E0FB69013BFA6813441B78E2
:10404000A3F120022B4B53F83230DA007B691A447B
:104050003B69143378693969FEF76CFBB861BB6959
:10406000012B15D13B6914333B61FB69013BFA68B5
:1040700013441B78A3F120021E4B53F83220134641
:104080005B079B1ADB001A46BB6813447B6104E0A4
:10409000BB69022B01D1BB6928E0FB69FA681344B4
:1040A0001B78FA69013AF9680A441278A2F12001F2
:1040B000104A52F83120D20079690A447A613A6B89
:1040C0000092184679693A693B68FFF725FF034675
:1040D000BA691343BB61FB690133FB61FC69F86892
:1040E00001F06EFE03469C42A5D3BB6918462437F7
:1040F000BD4690BDA896000880B58AB000AFB960F3
:104100007A603B600346FB73FB7B203BFB73FB7BCE
:10411000314ADB0013445B68BB61FB7B5D2B06D03F
:10412000FB7B01332C4ADB0013445B6801E040F663
:1041300074537B6100237B6244E00023FB612DE02C
:1041400000233B6224E080223B6A1A41B969FB6983
:104150000B442249CB5C13403B613B69002B14D0DC
:10416000FB699BB2DB009AB23B6A9BB213449AB2E2
:10417000BB689BB2134499B27B689AB23B68DBB2CE
:10418000084611461A46FEF7FBFE3B6A01333B62C6
:104190003B6A072BD7DDFB690133FB61FA7B0E4BD2
:1041A00053F83220FB699A42CADC7B6801337B609A
:1041B000FA7B094B53F83230BA691344BB617B6A0E
:1041C00001337B62BA697B699A42B6DB00231846E9
:1041D0002837BD4680BD00BF0CA70008989900088D
:1041E00090B58BB002AFF860B9607A603B60002395
:1041F000BB61BB687B617B683B61FB681B783A6B8A
:104200000092184679693A693B68FFF775FFB86113
:104210000123FB6152E0FB69013BFA6813441B7800
:10422000A3F120022B4B53F83230DA007B691A4499
:104230003B69143378693969FEF77CFAB861BB6968
:10424000012B15D13B6914333B61FB69013BFA68D3
:1042500013441B78A3F120021E4B53F8322013465F
:104260005B079B1ADB001A46BB6813447B6104E0C2
:10427000BB69022B01D1BB6928E0FB69FA681344D2
:104280001B78FA69013AF9680A441278A2F1200110
:10429000104A52F83120D20079690A447A613A6BA7
:1042A0000092184679693A693B68FFF725FF034693
:1042B000BA691343BB61FB690133FB61FC69F868B0
:1042C00001F07EFD03469C42A5D3BB691846243706
:1042D000BD4690BD0CA7000880B58AB000AFB9609C
:1042E0007A603B600346FB73FB7B203BFB73FB7BED
:1042F000314ADB0013445B68BB61FB7B5D2B06D05E
:10430000FB7B01332C4ADB0013445B6801E040F285
:104310000A437B6100237B6244E00023FB612DE0C4
:1043200000233B6224E080223B6A1A41B969FB69A1
:104330000B442249CB5C13403B613B69002B14D0FA
:10434000FB699BB2DB009AB23B6A9BB213449AB200
:10435000BB689BB2134499B27B689AB23B68DBB2EC
:10436000084611461A46FEF70BFE3B6A01333B62D4
:104370003B6A072BD7DDFB690133FB61FA7B0E4BF0
:1043800053F83220FB699A42CADC7B6801337B60B8
:10439000FA7B094B53F83230BA691344BB617B6A2C
:1043A00001337B62BA697B699A42B6DB0023184607
:1043B0002837BD4680BD00BF08AE0008FCA9000834
:1043C00090B58BB002AFF860B9607A603B600023B3
:1043D000BB61BB687B617B683B61FB681B783A6BA8
:1043E0000092184679693A693B68FFF775FFB86132
:1043F0000123FB6152E0FB69013BFA6813441B781F
:10440000A3F120022B4B53F83230DA007B691A44B7
:104410003B69143378693969FEF78CF9B861BB6977
:10442000012B15D13B6914333B61FB69013BFA68F1
:1044300013441B78A3F120021E4B53F8322013467D
:104440005B079B1ADB001A46BB6813447B6104E0E0
:10445000BB69022B01D1BB6928E0FB69FA681344F0
:104460001B78FA69013AF9680A441278A2F120012E
:10447000104A52F83120D20079690A447A613A6BC5
:104480000092184679693A693B68FFF725FF0346B1
:10449000BA691343BB61FB690133FB61FC69F868CE
:1044A00001F08EFC03469C42A5D3BB691846243715
:1044B000BD4690BD08AE000880B58AB000AFB960B7
:1044C0007A603B600346FB73FB7B203BFB73FB7B0B
:1044D000314ADB0013445B68BB61FB7B5D2B06D07C
:1044E000FB7B01332C4ADB0013445B6801E040F2A4
:1044F0000A437B6100237B6244E00023FB612DE0E3
:1045000000233B6224E080223B6A1A41B969FB69BF
:104510000B442249CB5C13403B613B69002B14D018
:10452000FB699BB2DB009AB23B6A9BB213449AB21E
:10453000BB689BB2134499B27B689AB23B68DBB20A
:10454000084611461A46FEF71BFD3B6A01333B62E3
:104550003B6A072BD7DDFB690133FB61FA7B0E4B0E
:1045600053F83220FB699A42CADC7B6801337B60D6
:10457000FA7B094B53F83230BA691344BB617B6A4A
:1045800001337B62BA697B699A42B6DB0023184625
:104590002837BD4680BD00BF04B50008F8B000084C
:1045A00090B58BB002AFF860B9607A603B600023D1
:1045B000BB61BB687B617B683B61FB681B783A6BC6
:1045C0000092184679693A693B68FFF775FFB86150
:1045D0000123FB6152E0FB69013BFA6813441B783D
:1045E000A3F120022B4B53F83230DA007B691A44D6
:1045F0003B69143378693969FEF79CF8B861BB6987
:10460000012B15D13B6914333B61FB69013BFA680F
:1046100013441B78A3F120021E4B53F8322013469B
:104620005B079B1ADB001A46BB6813447B6104E0FE
:10463000BB69022B01D1BB6928E0FB69FA6813440E
:104640001B78FA69013AF9680A441278A2F120014C
:10465000104A52F83120D20079690A447A613A6BE3
:104660000092184679693A693B68FFF725FF0346CF
:10467000BA691343BB61FB690133FB61FC69F868EC
:1046800001F09EFB03469C42A5D3BB691846243724
:10469000BD4690BD04B5000880B58AB000AFB960D2
:1046A0007A603B600346FB73FB7B203BFB73FB7B29
:1046B000314ADB0013445B68BB61FB7B5D2B06D09A
:1046C000FB7B01332C4ADB0013445B6801E040F2C2
:1046D0000A437B6100237B6244E00023FB612DE001
:1046E00000233B6224E080223B6A1A41B969FB69DE
:1046F0000B442249CB5C13403B613B69002B14D037
:10470000FB699BB2DB009AB23B6A9BB213449AB23C
:10471000BB689BB2134499B27B689AB23B68DBB228
:10472000084611461A46FEF72BFC3B6A01333B62F2
:104730003B6A072BD7DDFB690133FB61FA7B0E4B2C
:1047400053F83220FB699A42CADC7B6801337B60F4
:10475000FA7B094B53F83230BA691344BB617B6A68
:1047600001337B62BA697B699A42B6DB0023184643
:104770002837BD4680BD00BF00BC0008F4B7000864
:1047800090B58BB002AFF860B9607A603B600023EF
:10479000BB61BB687B617B683B61FB681B783A6BE4
:1047A0000092184679693A693B68FFF775FFB8616E
:1047B0000123FB6152E0FB69013BFA6813441B785B
:1047C000A3F120022B4B53F83230DA007B691A44F4
:1047D0003B69143378693969FDF7ACFFB861BB698F
:1047E000012B15D13B6914333B61FB69013BFA682E
:1047F00013441B78A3F120021E4B53F832201346BA
:104800005B079B1ADB001A46BB6813447B6104E01C
:10481000BB69022B01D1BB6928E0FB69FA6813442C
:104820001B78FA69013AF9680A441278A2F120016A
:10483000104A52F83120D20079690A447A613A6B01
:104840000092184679693A693B68FFF725FF0346ED
:10485000BA691343BB61FB690133FB61FC69F8680A
:1048600001F0AEFA03469C42A5D3BB691846243733
:10487000BD4690BD00BC000880B58AB000AFB960ED
:104880007A603B600346FB73FB7B203BFB73FB7B47
:10489000314ADB0013445B68BB61FB7B5D2B06D0B8
:1048A000FB7B01332C4ADB0013445B6801E04FF4CF
:1048B000C6637B6100237B6244E00023FB612DE043
:1048C00000233B6224E080223B6A1A41B969FB69FC
:1048D0000B442249CB5C13403B613B69002B14D055
:1048E000FB699BB2DB009AB23B6A9BB213449AB25B
:1048F000BB689BB2134499B27B689AB23B68DBB247
:10490000084611461A46FEF73BFB3B6A01333B6201
:104910003B6A072BD7DDFB690133FB61FA7B0E4B4A
:1049200053F83220FB699A42CADC7B6801337B6012
:10493000FA7B094B53F83230BA691344BB617B6A86
:1049400001337B62BA697B699A42B6DB0023184661
:104950002837BD4680BD00BF20C50008F0BE000856
:1049600090B58BB002AFF860B9607A603B6000230D
:10497000BB61BB687B617B683B61FB681B783A6B02
:104980000092184679693A693B68FFF775FFB8618C
:104990000123FB6152E0FB69013BFA6813441B7879
:1049A000A3F120022B4B53F83230DA007B691A4412
:1049B0003B69143378693969FDF7BCFEB861BB699E
:1049C000012B15D13B6914333B61FB69013BFA684C
:1049D00013441B78A3F120021E4B53F832201346D8
:1049E0005B079B1ADB001A46BB6813447B6104E03B
:1049F000BB69022B01D1BB6928E0FB69FA6813444B
:104A00001B78FA69013AF9680A441278A2F1200188
:104A1000104A52F83120D20079690A447A613A6B1F
:104A20000092184679693A693B68FFF725FF03460B
:104A3000BA691343BB61FB690133FB61FC69F86828
:104A400001F0BEF903469C42A5D3BB691846243742
:104A5000BD4690BD20C5000880B58AB000AFB960E2
:104A60007A603B600346FB73FB7B203BFB73FB7B65
:104A7000314ADB0013445B68BB61FB7B5D2B06D0D6
:104A8000FB7B01332C4ADB0013445B6801E04FF4ED
:104A9000C0637B6100237B6244E00023FB612DE067
:104AA00000233B6224E080223B6A1A41B969FB691A
:104AB0000B442249CB5C13403B613B69002B14D073
:104AC000FB699BB2DB009AB23B6A9BB213449AB279
:104AD000BB689BB2134499B27B689AB23B68DBB265
:104AE000084611461A46FEF74BFA3B6A01333B6211
:104AF0003B6A072BD7DDFB690133FB61FA7B0E4B69
:104B000053F83220FB699A42CADC7B6801337B6030
:104B1000FA7B094B53F83230BA691344BB617B6AA4
:104B200001337B62BA697B699A42B6DB002318467F
:104B30002837BD4680BD00BF10CE000810C8000851
:104B400090B58BB002AFF860B9607A603B6000232B
:104B5000BB61BB687B617B683B61FB681B783A6B20
:104B60000092184679693A693B68FFF775FFB861AA
:104B70000123FB6152E0FB69013BFA6813441B7897
:104B8000A3F120022B4B53F83230DA007B691A4430
:104B90003B69143378693969FDF7CCFDB861BB69AD
:104BA000012B15D13B6914333B61FB69013BFA686A
:104BB00013441B78A3F120021E4B53F832201346F6
:104BC0005B079B1ADB001A46BB6813447B6104E059
:104BD000BB69022B01D1BB6928E0FB69FA68134469
:104BE0001B78FA69013AF9680A441278A2F12001A7
:104BF000104A52F83120D20079690A447A613A6B3E
:104C00000092184679693A693B68FFF725FF034629
:104C1000BA691343BB61FB690133FB61FC69F86846
:104C200001F0CEF803469C42A5D3BB691846243751
:104C3000BD4690BD10CE000880B58AB000AFB96007
:104C40007A603B600346FB73FB7B203BFB73FB7B83
:104C5000314ADB0013445B68BB61FB7B5D2B06D0F4
:104C6000FB7B01332C4ADB0013445B6801E04FF40B
:104C7000DE637B6100237B6244E00023FB612DE067
:104C800000233B6224E080223B6A1A41B969FB6938
:104C90000B442249CB5C13403B613B69002B14D091
:104CA000FB699BB2DB009AB23B6A9BB213449AB297
:104CB000BB689BB2134499B27B689AB23B68DBB283
:104CC000084611461A46FEF75BF93B6A01333B6220
:104CD0003B6A072BD7DDFB690133FB61FA7B0E4B87
:104CE00053F83220FB699A42CADC7B6801337B604F
:104CF000FA7B094B53F83230BA691344BB617B6AC3
:104D000001337B62BA697B699A42B6DB002318469D
:104D10002837BD4680BD00BFF0D7000800D100088D
:104D200090B58BB002AFF860B9607A603B60002349
:104D3000BB61BB687B617B683B61FB681B783A6B3E
:104D40000092184679693A693B68FFF775FFB861C8
:104D50000123FB6152E0FB69013BFA6813441B78B5
:104D6000A3F120022B4B53F83230DA007B691A444E
:104D70003B69143378693969FDF7DCFCB861BB69BC
:104D8000012B15D13B6914333B61FB69013BFA6888
:104D900013441B78A3F120021E4B53F83220134614
:104DA0005B079B1ADB001A46BB6813447B6104E077
:104DB000BB69022B01D1BB6928E0FB69FA68134487
:104DC0001B78FA69013AF9680A441278A2F12001C5
:104DD000104A52F83120D20079690A447A613A6B5C
:104DE0000092184679693A693B68FFF725FF034648
:104DF000BA691343BB61FB690133FB61FC69F86865
:104E000000F0DEFF03469C42A5D3BB691846243759
:104E1000BD4690BDF0D7000881F0004102E000BF20
:104E200083F0004330B54FEA41044FEA430594EA6A
:104E3000050F08BF90EA020F1FBF54EA000C55EAA5
:104E4000020C7FEA645C7FEA655C00F0E2804FEA76
:104E50005454D4EB5555B8BF6D420CDD2C4480EA58
:104E6000020281EA030382EA000083EA010180EA88
:104E7000020281EA0303362D88BF30BD11F0004FD6
:104E80004FEA01314FF4801C4CEA113102D040420C
:104E900061EB410113F0004F4FEA03334CEA133347
:104EA00002D0524263EB430394EA050F00F0A7805F
:104EB000A4F10104D5F1200E0DDB02FA0EFC22FA5A
:104EC00005F2801841F1000103FA0EF2801843FA4E
:104ED00005F359410EE0A5F120050EF1200E012A3F
:104EE00003FA0EFC28BF4CF0020C43FA05F3C0187D
:104EF00051EBE37101F0004507D54FF0000EDCF1F6
:104F0000000C7EEB00006EEB0101B1F5801F1BD39E
:104F1000B1F5001F0CD349085FEA30004FEA3C0CA2
:104F200004F101044FEA445212F5800F80F09A8098
:104F3000BCF1004F08BF5FEA500C50F1000041EB9C
:104F4000045141EA050130BD5FEA4C0C404141EBA0
:104F5000010111F4801FA4F10104E9D191F0000FC7
:104F600004BF01460020B1FA81F308BF2033A3F14A
:104F70000B03B3F120020CDA0C3208DD02F1140C41
:104F8000C2F10C0201FA0CF021FA02F10CE002F17C
:104F90001402D8BFC2F1200C01FA02F120FA0CFC75
:104FA000DCBF41EA0C019040E41AA2BF01EB0451BE
:104FB000294330BD6FEA04041F3C1CDA0C340EDCBC
:104FC00004F11404C4F1200220FA04F001FA02F3FF
:104FD00040EA030021FA04F345EA030130BDC4F1BD
:104FE0000C04C4F1200220FA02F001FA04F340EAB2
:104FF0000300294630BD21FA04F0294630BD94F063
:10500000000F83F4801306BF81F480110134013D49
:105010004EE77FEA645C18BF7FEA655C29D094EABA
:10502000050F08BF90EA020F05D054EA000C04BF38
:105030001946104630BD91EA030F1EBF0021002023
:1050400030BD5FEA545C05D14000494128BF41F0C2
:10505000004130BD14F580043CBF01F5801130BD26
:1050600001F0004545F0FE4141F470014FF00000B1
:1050700030BD7FEA645C1ABF194610467FEA655C62
:105080001CBF0B46024650EA013406BF52EA033504
:1050900091EA030F41F4002130BD00BF90F0000FF2
:1050A00004BF0021704730B54FF4806404F132042E
:1050B0004FF000054FF0000150E700BF90F0000FE7
:1050C00004BF0021704730B54FF4806404F132040E
:1050D00010F0004548BF40424FF000013EE700BFDE
:1050E00042004FEAE2014FEA31014FEA02701FBF6E
:1050F00012F07F4393F07F4F81F06051704792F040
:10510000000F14BF93F07F4F704730B54FF46074B9
:1051100001F0004521F0004120E700BF50EA010204
:1051200008BF704730B54FF000050AE050EA0102B1
:1051300008BF704730B511F0004502D5404261EB21
:1051400041014FF4806404F132045FEA915C3FF462
:10515000DCAE4FF003025FEADC0C18BF03325FEAFB
:10516000DC0C18BF033202EBDC02C2F1200300FAB0
:1051700003FC20FA02F001FA03FE40EA0E0021FAD5
:1051800002F11444C1E600BF70B54FF0FF0C4CF4BF
:10519000E06C1CEA11541DBF1CEA135594EA0C0F75
:1051A00095EA0C0F00F0DEF82C4481EA030621EAB0
:1051B0004C5123EA4C5350EA013518BF52EA0335EB
:1051C00041F4801143F4801338D0A0FB02CE4FF09D
:1051D0000005E1FB02E506F00042E0FB03E54FF0CD
:1051E0000006E1FB03569CF0000F18BF4EF0010EC5
:1051F000A4F1FF04B6F5007F64F5407404D25FEAC1
:105200004E0E6D4146EB060642EAC62141EA555173
:105210004FEAC52040EA5E504FEACE2EB4F1FD0CB5
:1052200088BFBCF5E06F1ED8BEF1004F08BF5FEA33
:10523000500E50F1000041EB045170BD06F00046E5
:1052400046EA010140EA020081EA0301B4EB5C0492
:10525000C2BFD4EB0C0541EA045170BD41F480118A
:105260004FF0000E013C00F3AB8014F1360FDEBFAF
:10527000002001F0004170BDC4F10004203C35DA8B
:105280000C341BDC04F11404C4F1200500FA05F30E
:1052900020FA04F001FA05F240EA020001F00042AF
:1052A00021F0004110EBD37021FA04F642EB060125
:1052B0005EEA430E08BF20EAD37070BDC4F10C044F
:1052C000C4F1200500FA04F320FA05F001FA04F213
:1052D00040EA020001F0004110EBD37041F10001FF
:1052E0005EEA430E08BF20EAD37070BDC4F120050A
:1052F00000FA05F24EEA020E20FA04F301FA05F272
:1053000043EA020321FA04F001F0004121FA04F219
:1053100020EA020000EBD3705EEA430E08BF20EAE9
:10532000D37070BD94F0000F0FD101F00046400023
:1053300041EB010111F4801F08BF013CF7D041EAA5
:10534000060195F0000F18BF704703F000465200A9
:1053500043EB030313F4801F08BF013DF7D043EA7A
:105360000603704794EA0C0F0CEA135518BF95EA30
:105370000C0F0CD050EA410618BF52EA4306D1D1B7
:1053800081EA030101F000414FF0000070BD50EAD6
:10539000410606BF1046194652EA430619D094EA60
:1053A0000C0F02D150EA013613D195EA0C0F05D14A
:1053B00052EA03361CBF104619460AD181EA03019E
:1053C00001F0004141F0FE4141F470014FF0000056
:1053D00070BD41F0FE4141F4780170BD70B54FF0F1
:1053E000FF0C4CF4E06C1CEA11541DBF1CEA135571
:1053F00094EA0C0F95EA0C0F00F0A7F8A4EB050453
:1054000081EA030E52EA03354FEA013100F0888049
:105410004FEA03334FF0805545EA131343EA126312
:105420004FEA022245EA111545EA10654FEA0026C7
:105430000EF000419D4208BF964244F1FD0404F580
:10544000407402D25B084FEA3202B61A65EB0305DC
:105450005B084FEA32024FF480104FF4002CB6EB99
:10546000020E75EB030E22BFB61A754640EA0C0019
:105470005B084FEA3202B6EB020E75EB030E22BF59
:10548000B61A754640EA5C005B084FEA3202B6EB9A
:10549000020E75EB030E22BFB61A754640EA9C0059
:1054A0005B084FEA3202B6EB020E75EB030E22BF29
:1054B000B61A754640EADC0055EA060E18D04FEAE7
:1054C000051545EA16754FEA06164FEAC30343EA87
:1054D00052734FEAC2025FEA1C1CC0D111F4801F54
:1054E0000BD141EA00014FF000004FF0004CB6E74D
:1054F00011F4801F04BF01430020B4F1FD0C88BFEC
:10550000BCF5E06F3FF6AFAEB5EB030C04BFB6EBF6
:10551000020C5FEA500C50F1000041EB045170BDE9
:105520000EF0004E4EEA113114EB5C04C2BFD4EB16
:105530000C0541EA045170BD41F480114FF0000E9A
:10554000013C90E645EA060E8DE60CEA135594EA16
:105550000C0F08BF95EA0C0F3FF43BAF94EA0C0F19
:105560000AD150EA01347FF434AF95EA0C0F7FF48E
:1055700025AF104619462CE795EA0C0F06D152EAE2
:1055800003353FF4FDAE1046194622E750EA4106C6
:1055900018BF52EA43067FF4C5AE50EA41047FF4D7
:1055A0000DAF52EA43057FF4EBAE12E74A0011D289
:1055B00012F5001211D20DD56FF47873B3EB62526D
:1055C0000ED44FEAC12343F0004343EA505323FA79
:1055D00002F070474FF00000704750EA013002D1EE
:1055E0004FF0FF3070474FF00000704780F00040F0
:1055F00002E000BF81F0004142001FBF5FEA4103AB
:1056000092EA030F7FEA226C7FEA236C6AD04FEAAA
:105610001262D2EB1363C1BFD218414048404140EF
:10562000B8BF5B42192B88BF704710F0004F40F4A1
:10563000000020F07F4018BF404211F0004F41F4BD
:10564000000121F07F4118BF494292EA030F3FD089
:10565000A2F1010241FA03FC10EB0C00C3F120039C
:1056600001FA03F100F0004302D5494260EB40002B
:10567000B0F5000F13D3B0F1807F06D340084FEA96
:10568000310102F10102FE2A51D2B1F1004F40EB8B
:10569000C25008BF20F0010040EA030070474900F3
:1056A00040EB000010F4000FA2F10102EDD1B0FABE
:1056B00080FCACF1080CB2EB0C0200FA0CF0AABFB3
:1056C00000EBC25052421843BCBFD0401843704751
:1056D00092F0000F81F4000106BF80F40000013257
:1056E000013BB5E74FEA41037FEA226C18BF7FEA2E
:1056F000236C21D092EA030F04D092F0000F08BF70
:105700000846704790EA010F1CBF0020704712F056
:105710007F4F04D1400028BF40F00040704712F195
:1057200000723CBF00F50000704700F0004343F0FA
:10573000FE4040F4000070477FEA226216BF084630
:105740007FEA23630146420206BF5FEA412390EAF3
:10575000010F40F4800070474FF0000304E000BFE9
:1057600010F0004348BF40425FEA000C08BF70479A
:1057700043F0964301464FF000001CE050EA01025E
:1057800008BF70474FF000030AE000BF50EA010273
:1057900008BF704711F0004302D5404261EB410160
:1057A0005FEA010C02BF84460146002043F0B64385
:1057B00008BFA3F18053A3F50003BCFA8CF2083AAA
:1057C000A3EBC25310DB01FA02FC634400FA02FCB3
:1057D000C2F12002BCF1004F20FA02F243EB0200BA
:1057E00008BF20F00100704702F1200201FA02FC1C
:1057F000C2F1200250EA4C0021FA02F243EB02000F
:1058000008BF20EADC7070474FF0FF0C1CEAD05252
:105810001EBF1CEAD15392EA0C0F93EA0C0F6FD013
:105820001A4480EA010C400218BF5FEA41211ED0F1
:105830004FF0006343EA501043EA5111A0FB0131DD
:105840000CF00040B1F5000F3EBF490041EAD371B2
:105850005B0040EA010062F17F02FD2A1DD8B3F12E
:10586000004F40EBC25008BF20F00100704790F09D
:10587000000F0CF0004C08BF49024CEA502040EAEF
:1058800051207F3AC2BFD2F1FF0340EAC2507047B5
:1058900040F400004FF00003013A5DDC12F1190FF3
:1058A000DCBF00F000407047C2F10002410021FA65
:1058B00002F1C2F1200200FA02FC5FEA310040F17D
:1058C000000053EA4C0308BF20EADC70704792F0F6
:1058D000000F00F0004C02BF400010F4000F013A2E
:1058E000F9D040EA0C0093F0000F01F0004C02BF29
:1058F000490011F4000F013BF9D041EA0C018FE798
:105900000CEAD15392EA0C0F18BF93EA0C0F0AD09D
:1059100030F0004C18BF31F0004CD8D180EA0100C3
:1059200000F00040704790F0000F17BF90F0004F5C
:10593000084691F0000F91F0004F14D092EA0C0F3E
:1059400001D142020FD193EA0C0F03D14B0218BFD1
:10595000084608D180EA010000F0004040F0FE4017
:1059600040F40000704740F0FE4040F440007047B3
:105970004FF0FF0C1CEAD0521EBF1CEAD15392EA32
:105980000C0F93EA0C0F69D0A2EB030280EA010C22
:1059900049024FEA402037D04FF0805343EA1111BB
:1059A00043EA10130CF000408B4238BF5B0042F119
:1059B0007D024FF4000C8B4224BF5B1A40EA0C00BE
:1059C000B3EB510F24BFA3EB510340EA5C00B3EBF0
:1059D000910F24BFA3EB910340EA9C00B3EBD10FDE
:1059E00024BFA3EBD10340EADC001B0118BF5FEA30
:1059F0001C1CE0D1FD2A3FF650AF8B4240EBC25059
:105A000008BF20F0010070470CF0004C4CEA502019
:105A10007F32C2BFD2F1FF0340EAC250704740F468
:105A200000004FF00003013A37E792F0000F00F05A
:105A3000004C02BF400010F4000F013AF9D040EAD8
:105A40000C0093F0000F01F0004C02BF490011F46C
:105A5000000F013BF9D041EA0C0195E70CEAD15364
:105A600092EA0C0F08D142027FF47DAF93EA0C0F4B
:105A70007FF470AF084676E793EA0C0F04D14B022F
:105A80003FF44CAF08466EE730F0004C18BF31F0E1
:105A9000004CCAD130F000427FF45CAF31F00043DB
:105AA0007FF43CAF5FE700BF4FF0FF3C06E000BF74
:105AB0004FF0010C02E000BF4FF0010C4DF804CD97
:105AC0004FEA40024FEA41037FEA226C18BF7FEAA7
:105AD000236C11D001B052EA530C18BF90EA010FA9
