:020000040800F2
:10000000AC5E0120C5090008210A0008210A000889
:10001000210A0008210A0008210A00080000000047
:10002000000000000000000000000000210A00089D
:10003000210A000800000000210A0008210A000827
:10004000210A0008210A0008210A0008210A0008E4
:10005000210A0008210A0008210A0008210A0008D4
:10006000210A0008210A0008210A0008210A0008C4
:10007000210A0008210A0008210A0008210A0008B4
:10008000210A0008210A0008210A0008210A0008A4
:10009000210A0008210A0008210A0008210A000894
:1000A000210A0008210A0008210A0008210A000884
:1000B000C93D0008210A0008210A0008210A000899
:1000C000210A0008210A0008210A0008210A000864
:1000D000210A0008210A000835410008210A000809
:1000E000210A0008210A0008210A0008210A000844
:1000F000210A0008210A0008210A0008210A000834
:10010000210A0008210A0008210A0008210A000823
:10011000210A0008210A0008210A0008210A000813
:10012000210A0008210A0008210A0008210A000803
:10013000210A0008210A0008210A0008210A0008F3
:10014000210A0008210A0008210A0008210A0008E3
:10015000853E0008210A0008210A0008210A00083B
:10016000210A0008210A0008210A0008210A0008C3
:10017000210A0008210A0008210A0008210A0008B3
:10018000210A0008210A000880B582B000AF78601B
:100190007B68002B4DD0294802F03AFB7B68013B7D
:1001A000052B39D801A252F823F000BFC501000881
:1001B000D3010008E1010008EF010008FD0100087B
:1001C0000B0200081E4802F023FB786802F02CFBAB
:1001D0002BE01C4802F01CFB786802F025FB24E0B1
:1001E000194802F015FB786802F01EFB1DE0174865
:1001F00002F00EFB786802F017FB16E0144802F0DC
:1002000007FB786802F010FB0FE0124802F000FBD9
:10021000786802F009FB08E00F4802F0F9FA7B6801
:10022000DBB21946102002F00BFB0C4802F0F0FA8A
:1002300000E000BF0837BD4680BD00BFBC550008C8
:10024000C8550008EC550008105600083C56000838
:10025000605600087C560008B0560008D4560008C6
:1002600080B485B000AF78600B46FB700123FB6063
:1002700023E07B681B78272B10D10023BB6008E0AC
:100280007B685A1C7A601B78272B06D0BB68013329
:10029000BB60BB68C72BF3DD00E000BF7B681B7849
:1002A000FA789A420CBF01230023DBB21A46FB689E
:1002B0001344FB607B6801337B607B681B78002BF9
:1002C000D7D1FB6818461437BD4680BC704700BFC5
:1002D00080B485B000AF78600B46FB701346BB70EE
:1002E00020E07B68013B1B78272B10D10023FB60AB
:1002F00008E07B685A1C7A601B78272B06D0FB68C5
:100300000133FB60FB68C72BF3DD00E000BF7B68B7
:100310001B78FA789A4205D17B68BA781A707B68A4
:1003200001337B607B685A1C7A601B78002BD8D124
:1003300000BF1437BD4680BC704700BF80B485B095
:1003400000AF78600B46FB701346BB700023BB60A8
:100350003CE0BB68013B7A6813441B78272B19D11A
:100360000023FB6011E0BB687A6813441A787B684D
:100370001A707B6801337B60BB687A6813441B7812
:10038000272B06D0FB680133FB60FB68C72BEADD37
:1003900000E000BF0023FB6005E0BB680133BB60E9
:1003A000FB680133FB60BB687A6813441B78FA78FA
:1003B0009A4202D1FB68C72BEFDDBB687A68134411
:1003C0001A787B681A707B6801337B607B681B78C6
:1003D000BA789A42BDD100BF1437BD4680BC704781
:1003E00080B5B6B000AF02F0BDF9002001F0E2FF29
:1003F0004FF0FF33C7F8D4303B46184602F0FCF903
:100400003B46002220211846FFF798FF3B462C214F
:100410001846FFF725FF0346C7F8D0303B460022B9
:100420002C211846FFF754FF3B467949184600F047
:10043000FBFA0346002B0ED007F164013B46002275
:10044000184600F0A5FB07F16403184600F09AFD7A
:10045000C7F8D400D7E03B466E49184600F0E4FAEE
:100460000346002B0ED007F164013B4601221846DB
:1004700000F08EFB07F16403184600F083FDC7F817
:10048000D400C0E03B466449184600F0CDFA03466C
:10049000002B0ED007F164013B460322184600F002
:1004A00077FB07F16403184600F06CFDC7F8D40031
:1004B000A9E03B465949184600F0B6FA0346002B1E
:1004C0000ED007F164013B460422184600F060FBA1
:1004D00007F16403184600F055FDC7F8D40092E018
:1004E0003B464F49184600F09FFA0346002B14D0B4
:1004F00007F164013B460522184600F049FB3B46E4
:1005000064220021184604F095FE07F164031846A2
:1005100000F038FDC7F8D40075E03B464149184665
:1005200000F082FA0346002B0ED007F164013B462F
:100530000222184600F02CFB07F16403184600F075
:1005400021FDC7F8D4005EE03B463749184600F06D
:100550006BFA0346002B0ED007F164013B460622DE
:10056000184600F015FB07F16403184600F00AFD79
:10057000C7F8D40047E03B462C49184600F054FA2F
:100580000346002B0ED007F164013B4607221846B4
:1005900000F0FEFA07F16403184600F0F3FCC7F818
:1005A000D40030E03B462249184600F03DFA0346AD
:1005B000002B0ED007F164013B460822184600F0DC
:1005C000E7FA07F16403184600F0DCFCC7F8D40032
:1005D00019E03B461749184600F026FA0346002B5F
:1005E0000ED007F164013B460922184600F0D0FA0C
:1005F00007F16403184600F0C5FCC7F8D40002E018
:100600000423C7F8D430D7F8D400FFF7BDFDF3E6D4
:10061000D8560008E0560008EC560008F4560008CA
:10062000005700080857000810570008185700081E
:10063000205700082857000880B58AB000AF7860BE
:10064000396000237B6200233B620023FB610023AF
:10065000BB617B681B8A9BB27B627B6A23F440533D
:100660007B623B68DB881A467B6A13437B627B6A4A
:100670009AB27B681A827B689B899BB27B627B6A99
:1006800023F4B05323F00C037B623B689A883B68E9
:100690001B8913439AB23B685B8913439BB21A468A
:1006A0007B6A13437B627B6A9AB27B689A817B6820
:1006B0009B8A9BB27B627B6A23F440737B623B68BC
:1006C0009B891A467B6A13437B627B6A9AB27B687A
:1006D0009A8207F10803184600F010FF7B68304A41
:1006E000934203D07B682F4A934202D17B693B62DD
:1006F00001E03B693B627B689B899BB21BB2002B8C
:100700000CDA3A6A13469B0013449A001A443B6879
:100710001B685B00B2FBF3F3FB610BE03A6A134624
:100720009B0013449A001A443B681B689B00B2FB71
:10073000F3F3FB61FB691C4AA2FB03235B091B016A
:100740007B627B6A1B09642202FB03F3FA69D31AFA
:10075000BB617B689B899BB21BB2002B0CDABB6927
:10076000DB003233104AA2FB03235B0903F00703CB
:100770007A6A13437B620BE0BB691B0132330A4A7E
:10078000A2FB03235B0903F00F037A6A13437B6226
:100790007B6A9AB27B681A8100BF2837BD4680BD4C
:1007A00000100140001401401F85EB5180B483B05C
:1007B00000AF78600B46FB70FB78002B08D07B689D
:1007C0009B899BB243F400539AB27B689A8107E0FD
:1007D0007B689B899BB223F400539AB27B689A8111
:1007E00000BF0C37BD4680BC704700BF80B483B0EB
:1007F00000AF78600B467B807B88C3F308039AB216
:100800007B689A8000BF0C37BD4680BC704700BF34
:1008100080B487B000AF78600B467B8013467B7056
:1008200000233B610023FB600023BB6000237B614E
:100830007B687B617B88DBB25B09DBB23B617B88D9
:1008400003F01F03FB600122FB6802FA03F3BB60A5
:100850003B69012B03D17B690C337B6109E03B6968
:10086000022B03D17B6910337B6102E07B69143377
:100870007B617B78002B06D07B697A691168BA6846
:100880000A431A6006E07B697A691168BA68D24344
:100890000A401A6000BF1C37BD4680BC704700BFCD
:1008A00080B485B000AF78600B467B800023FB737B
:1008B0007B681B889AB27B8813409BB2002B02D0C6
:1008C0000123FB7301E00023FB73FB7B1846143705
:1008D000BD4680BC704700BF80B487B000AF786071
:1008E0000B467B800023FB6000237B610023BB6001
:1008F0000023FB747B88DBB25B09DBB2BB607B88C7
:1009000003F01F037B6101227B6902FA03F37B6121
:10091000BB68012B07D17B689B899BB21A467B6918
:1009200013407B6111E0BB68022B07D17B681B8AF7
:100930009BB21A467B6913407B6106E07B689B8A09
:100940009BB21A467B6913407B617B881B0A9BB272
:10095000FB600122FB6802FA03F3FB607B681B88E3
:100960009BB21A46FB681340FB607B69002B05D0E5
:10097000FB68002B02D00123FB7401E00023FB7411
:10098000FB7C18461C37BD4680BC704780B485B0E0
:1009900000AF78600B467B800023FB810023BB8186
:1009A0007B881B0AFB81FB89012202FA03F3BB81CE
:1009B000BB89DB439AB27B681A8000BF1437BD46FF
:1009C00080BC704780B582B000AF104B7B60104B8D
:1009D0003B6007E03B681A1D3A607A68111D796038
:1009E00012681A603B680B4A9342F3D30A480B49DA
:1009F0004FF000028842B8BF40F8042BFADBFFF743
:100A0000EFFC00BF0837BD4680BD00BFE5D0000841
:100A1000000000203829002038290020AC56012091
:100A200080B400AFFEE700BF80B584B000AF78604F
:100A300039600023FB601AE0FB687A681A44FB689F
:100A400079680B441B78FB72154B1968FB7A0133EC
:100A50000B441B7803F00303022B02D1FB7A203BEB
:100A600000E0FB7ADBB21370FB680133FB60FB68CC
:100A70007A6813441B78002BDED1386804F040FC00
:100A800003461A463968786804F0A8FC0346002B30
:100A900001D1012300E0002318461037BD4680BD78
:100AA0003429002080B5DAB000AF3B1D186007F193
:100AB0005003214A184611464FF487731A4604F032
:100AC0001FFB07F108031D4A1846114648231A4622
:100AD00004F016FB0023C7F8643120E007F1500151
:100AE000D7F8642113461B019B1ACA183B1D1146F7
:100AF0001868FFF799FF0346002B08D007F1080399
:100B0000D7F8642153F82230C7F860310CE0002395
:100B1000C7F86031D7F864310133C7F86431D7F8CA
:100B20006431B3F5877FD9D3D7F86031184607F51C
:100B3000B477BD4680BD00BF30570008405800085C
:100B400080B485B000AF7860396017E00023FB60A7
:100B500005E0FB680133FB607B6801337B607B68E9
:100B60001B78002BF5D17B6801337B60FB68C82BB9
:100B700001DD002306E03B68013B3B603B68002B46
:100B8000E4DC7B6818461437BD4680BC704700BF64
:100B900080B584B000AFF860B9607A607B68092BDB
:100BA00000F2EB8101A252F823F000BFD50B000840
:100BB000590C0008DD0C0008810D0008ED0D00083F
:100BC000030E0008210E0008290F0008310F00084D
:100BD000390F0008BB6800221A600121F868FFF78E
:100BE000AFFF0346184604F087FA0246BB685A6016
:100BF0000221F868FFF7A4FF0346184604F07CFAC8
:100C00000246BB68DA610321F868FFF799FF0346E3
:100C1000184604F071FA0246BB685A630421F8686A
:100C2000FFF78EFF0346184604F066FA0246BB68DB
:100C30009A630521F868FFF783FF0246BB68DA6410
:100C40000621F868FFF77CFF0346184604F054FAC3
:100C50000246BB681A6590E1BB6801221A60012157
:100C6000F868FFF76DFF0346184604F045FA0246A0
:100C7000BB685A600221F868FFF762FF0346184616
:100C800004F03AFA0246BB68DA610321F868FFF71C
:100C900057FF0346184604F02FFA0246BB68DA6392
:100CA0000421F868FFF74CFF0346184604F024FAC5
:100CB0000246BB681A640521F868FFF741FF024647
:100CC000BB68DA640621F868FFF73AFF0346184666
:100CD00004F012FA0246BB685A654EE1BB68022274
:100CE0001A600121F868FFF72BFF0346184604F04D
:100CF00003FA0246BB685A600221F868FFF720FF3A
:100D00000346184604F0F8F90246BB68DA6103218D
:100D1000F868FFF715FF0246BB68DA640421F8683B
:100D2000FFF70EFF0246BB681A660521F868FFF759
:100D300007FF0246BB685A660621F868FFF700FF06
:100D40000346184604F0D8F90246BB689A650721A5
:100D5000F868FFF7F5FE0346184604F0CDF90346A0
:100D6000DAB2BB6883F85C200821F868FFF7E8FE78
:100D70000346184604F0C0F90246BB689A64FCE0DA
:100D8000BB6803221A600121F868FFF7D9FE034609
:100D9000184604F0B1F90246BB685A640221F868AB
:100DA000FFF7CEFE0346184604F0A6F90246BB68DC
:100DB0005A600321F868FFF7C3FE0346184604F0A3
:100DC0009BF90246BB68DA610421F868FFF7B8FEB8
:100DD0000346184604F090F90346012B14BF012383
:100DE0000023DBB21A46BB689A64C6E0BB680422E3
:100DF0001A600121F868FFF7A3FE0246BB68DA64B7
:100E0000BBE0BB6805221A600121F868FFF798FE75
:100E10000346184604F070F90246BB689A66ACE0D7
:100E2000BB6806221A60BB6801221A650121F868B6
:100E3000FFF786FE0346184604F05EF90246BB68DB
:100E40005A600221F868FFF77BFE0346184604F05B
:100E500053F90246BB68DA610321F868FFF770FEB8
:100E60000346184604F048F90246BB689A6004211C
:100E7000F868FFF765FE0346184604F03DF90246A0
:100E8000BB681A620521F868FFF75AFE0346184648
:100E900004F032F90246BB68DA600621F868FFF711
:100EA0004FFE0346184604F027F90246BB685A6213
:100EB0000721F868FFF744FE0346184604F01CF9C2
:100EC0000246BB681A610821F868FFF739FE03463D
:100ED000184604F011F90246BB689A620921F868C5
:100EE000FFF72EFE0346184604F006F90246BB68DB
:100EF0005A610A21F868FFF723FE0346184604F0FA
:100F0000FBF80246BB68DA620B21F868FFF718FEAF
:100F10000246BB68DA64BB685A68BB689A61BB6802
:100F2000DA69BB681A6328E0BB6807221A6024E00C
:100F3000BB6808221A6020E0BB6809221A60012100
:100F4000F868FFF7FDFD0346184604F0D5F80246A1
:100F5000BB685A600221F868FFF7F2FD03461846A5
:100F600004F0CAF80246BB68DA610321F868FFF7AB
:100F7000E7FD0246BB68DA6400BF00BF1037BD461C
:100F800080BD00BFF0B58DB004AF78600023FB6179
:100F90007B6804333B617B681C33FB607B681B68A8
:100FA000092B00F2A68201A252F823F0D50F000807
:100FB0001B10000865100008B5100008D9100008C3
:100FC000F910000811110008CB11000827120008C1
:100FD000671200087B68DB6E052B01DC062389E2C3
:100FE0007B685C687B68DD697B685E6B7B689B6B9C
:100FF0003B607B68DB6C1846FFF754FD01467B685D
:101000001B6D00220292019300913B6832462946F3
:10101000204601F07FF9F8616BE27B68DB6E052BFF
:1010200001DC062366E27B685C687B68DD697B68BF
:10103000DE6B7B681B6C3B607B68DB6C1846FFF7E4
:1010400031FD01467B685B6D002203920022029213
:10105000019300913B6832462946204601F080F911
:10106000F86146E27B68DB6E072B01DC062341E278
:101070007B685C687B68DD697B68DB6C1846FFF722
:1010800011FD86467B68186E7B685B6E7A68926D90
:10109000796891F85C100E467968896C0391029624
:1010A00001920093034672462946204601F08EF9CC
:1010B000F8611EE27B68DB6E032B01DC062319E27C
:1010C0007B6858687B68D9697B685A6C7B689B6CC5
:1010D00001F098F9F8610CE27B68DB6E002B01DC13
:1010E000062307E27B68DB6C1846FFF7DBFC034650
:1010F000184602F011FBFCE17B68DB6E002B01DC83
:101100000623F7E17B689B6E184601F069FBF0E16E
:101110007B681B68184601F087FB0023BB6145E034
:10112000B34801F075FBBB699B003A6913441B6827
:10113000184601F079FBAE4801F06AFBBB699B00E1
:10114000FA6813441B68184601F06EFBBB699B00EC
:101150003A6913441C68BB699B00FA6813441D6814
:10116000BB6901339B003A6913441E68BB690133B4
:101170009B00FA6813441B683B607B68DB6C184675
:10118000FFF790FC01467B681B6D002202920193E1
:1011900000913B6832462946204601F0BBF80246E2
:1011A000FB691344FB61BB690133BB61BB69042B61
:1011B000B6DD8F4801F02CFB7B68DB6C184601F034
:1011C00027FB8C4801F024FB93E1002303930023C9
:1011D000029300230193E023009350234FF4A07265
:1011E0000021002001F0BCF80023039300230293A8
:1011F00000230193FF23009350234FF4A07250214A
:10120000002001F0ADF80023039300230293002394
:1012100001930323009350234FF4A072A0210020D8
:1012200001F09EF865E1E02001F0C4F8002303938B
:10123000002302930023019310230093F0236A22DA
:101240000021002001F08CF8002303930023029377
:1012500000230193FF230093F0236A2200216A20D8
:1012600001F07EF845E17B685C687B68DD697B683E
:10127000DB6C1846FFF716FC02460023039300239D
:10128000029300230193009214230A222946204648
:1012900001F066F87B685B6803F119047B68DD691F
:1012A0007B68DB6C1846FFF7FDFB024600230393C7
:1012B0000023029300230193009214230A2229465B
:1012C000204601F04DF87B685B6803F132047B68CF
:1012D000DD697B68DB6C1846FFF7E4FB0246002300
:1012E00003930023029300230193009214230A2204
:1012F0002946204601F034F87B685C687B68DB692E
:1013000003F114057B68DB6C1846FFF7CBFB024644
:1013100000230393002302930023019300921423DC
:101320003C222946204601F01BF87B685B6803F1EC
:101330000F047B68DB6903F128057B68DB6C1846CA
:10134000FFF7B0FB02460023039300230293002320
:10135000019300923C231E222946204601F000F80A
:101360007B685C687B68DB6903F164057B68DB6C28
:101370001846FFF797FB02460023039300230293CE
:1013800000230193009228233C222946204600F0A6
:10139000E7FF00237B6121E00023BB6118E07B684D
:1013A0005A68BB69D0187B68DB6903F164027B690A
:1013B000D1180023039300230293012301930023F8
:1013C00000930A230A2200F0CBFFBB690A33BB61FA
:1013D000BB693B2BE3DD7B690A337B617B69272B90
:1013E000DADD00237B6128E00023BB611FE000BF42
:1013F000885800088C5800087B685B6803F10F026E
:10140000BB69D0187B68DB6903F128027B69D118BE
:1014100000230393002302930123019300230093ED
:101420000A230A2200F09CFFBB690A33BB61BB6937
:101430001D2BE1DD7B690A337B617B693B2BD3DDAF
:1014400000237B6121E00023BB6118E07B685A68C0
:10145000BB69D0187B68DB6903F114027B69D11882
:10146000002303930023029301230193002300939D
:101470000A230A2200F074FFBB690A33BB61BB690F
:101480003B2BE3DD7B690A337B617B69132BDADD60
:101490007B6858687B68DB6903F164017B685B6883
:1014A00003F13C027B68DB6903F1640400230293CF
:1014B00003230193FF230093234600F02BFF7B6857
:1014C0005B6803F10F007B68DB6903F128017B682F
:1014D0005B6803F12D027B68DB6903F128040023BC
:1014E000029303230193FF230093234600F012FF8E
:1014F00000BFFB6918462437BD46F0BD80B489B0F3
:1015000000AF78600023BB6100237B610023FB6197
:1015100002233B610023FB600223BB60484B9B68B6
:1015200003F00C03BB61BB69042B07D0082B09D067
:10153000002B3FD17B68434A1A603FE07B68424AF8
:101540001A603BE03E4B5B6803F480039B0DFB603D
:101550003B4B5B6803F03F03BB60FB68002B0DD087
:10156000394ABB68B2FBF3F2354B596847F6C07392
:101570000B409B0903FB02F3FB610CE0314ABB68A3
:10158000B2FBF3F22E4B596847F6C0730B409B0930
:1015900003FB02F3FB612A4B5B6803F440331B0C33
:1015A00001335B003B61FA693B69B2FBF3F27B6894
:1015B0001A6003E07B68234A1A6000BF204B9B68D7
:1015C00003F0F003BB61BB691B09BB611F4ABB6928
:1015D00013441B78DBB27B617B681A687B69DA4055
:1015E0007B685A60164B9B6803F4E053BB61BB6990
:1015F0009B0ABB61154ABB6913441B78DBB27B6154
:101600007B685A687B69DA407B689A600C4B9B6800
:1016100003F46043BB61BB695B0BBB610B4ABB69F5
:1016200013441B78DBB27B617B685A687B69DA40C4
:101630007B68DA6000BF2437BD4680BC704700BFBE
:10164000003802400024F40000127A00000000205C
:1016500080B483B000AF78600B46FB70FB78002B42
:1016600006D00949084B1A6B7B6813430B6306E0ED
:101670000549054B1A6B7B68DB4313400B6300BFC6
:101680000C37BD4680BC70470038024080B483B040
:1016900000AF78600B46FB70FB78002B06D0094941
:1016A000084B1A6C7B6813430B6406E00549054B35
:1016B0001A6C7B68DB4313400B6400BF0C37BD46DC
:1016C00080BC70470038024080B483B000AF7860BF
:1016D0000B46FB70FB78002B06D00949084B5A6C6F
:1016E0007B6813434B6406E00549054B5A6C7B68E5
:1016F000DB4313404B6400BF0C37BD4680BC7047D2
:101700000038024080B487B000AF786039600023B1
:101710007B6100233B610023FB6000237B6176E05B
:1017200001227B6902FA03F33B613B681A683B695B
:101730001340FB60FA683B699A4265D17B681A687E
:101740007B695B00032101FA03F3DB431A407B68EA
:101750001A607B681A683B681B7919467B695B00D5
:1017600001FA03F31A437B681A603B681B79012B6B
:1017700003D03B681B79022B2ED17B689A687B696A
:101780005B00032101FA03F3DB431A407B689A6094
:101790007B689A683B685B7919467B695B0001FA54
:1017A00003F31A437B689A607B685A687B699BB233
:1017B000012101FA03F3DB431A407B685A607B681E
:1017C0005A683B689B7919467B699BB201FA03F31F
:1017D0009BB21A437B685A607B68DA687B699BB26C
:1017E0005B00032101FA03F3DB431A407B68DA60F4
:1017F0007B68DA683B68DB7919467B695B0001FA34
:1018000003F31A437B68DA607B6901337B617B6990
:101810000F2B85D900BF1C37BD4680BC704700BF69
:1018200080B485B000AF78600B467B8013467B7038
:101830000023FB600023BB607A787B8803F00703FA
:101840009B0002FA03F3FB607B88DB089BB218461F
:101850007B88DB089BB21A467B68083253F822204B
:101860007B8803F007039B000F2101FA03F3DB439E
:1018700002EA03017B6800F1080243F822107B882A
:10188000DB089BB21A467B68083253F82220FB68BB
:101890001343BB607B88DB089BB21A467B68083227
:1018A000B96843F8221000BF1437BD4680BC7047AA
:1018B00080B500AF124A124B1B6843F0010313605E
:1018C0000F4B00229A600E4A0D4B1B6823F0847365
:1018D00023F4803313600A4B0A4A5A60084A084BC3
:1018E0001B6823F480231360054B0022DA6000F0AC
:1018F0000DF8054B4FF000629A6000BF80BD00BF3D
:10190000003802401030002400ED00E080B483B0C5
:1019100000AF00237B6000233B60354A344B1B68DB
:1019200043F480331360324B1B6803F400333B6095
:101930007B6801337B603B68002B03D17B68B3F588
:10194000A06FF0D12A4B1B6803F40033002B02D0A8
:1019500001233B6001E000233B603B68012B42D147
:10196000234A234B1B6C43F080531364214A214BC1
:101970001B6843F4804313601D4A1D4B9B689360B2
:101980001B4A1B4B9B6843F400439360184A184B57
:101990009B6843F4A0539360154B174A5A60144A4E
:1019A000134B1B6843F08073136000BF104B1B6820
:1019B00003F00073002BF9D0104B40F205621A605F
:1019C0000B4A0B4B9B6823F003039360084A084BB8
:1019D0009B6843F00203936000BF054B9B6803F0D4
:1019E0000C03082BF9D100BF0C37BD4680BC7047F3
:1019F000003802400070004008544007003C02409C
:101A000080B483B000AF78607B681B6823F001026C
:101A10007B681A607B6800221A607B6800225A602B
:101A20007B6800229A607B680022DA607B68002273
:101A30001A617B6821225A617B68454A934203D12F
:101A4000444B3D229A607EE07B68434A934204D136
:101A5000404B4FF474629A6075E07B683F4A934252
:101A600004D13C4B4FF474129A606CE07B683C4AA2
:101A7000934204D1374B4FF074629A6063E07B6805
:101A8000384A934203D1334B374ADA605BE07B68D4
:101A9000364A934203D12F4B354ADA6053E07B68D4
:101AA000344A934203D12B4B334ADA604BE07B68D4
:101AB000324A934204D1274B4FF03D52DA6042E064
:101AC0007B682F4A934203D12E4B3D229A603AE025
:101AD0007B682D4A934204D12A4B4FF474629A607A
:101AE00031E07B68294A934204D1264B4FF47412AB
:101AF0009A6028E07B68264A934204D1214B4FF03C
:101B000074629A601FE07B68224A934203D11D4BA6
:101B1000154ADA6017E07B681F4A934203D1194BDC
:101B2000134ADA600FE07B681C4A934203D1154BDD
:101B3000114ADA6007E07B68194A934203D1114BDE
:101B40004FF03D52DA6000BF0C37BD4680BC704795
:101B50001060024000600240286002404060024085
:101B600058600240706002403D00002088600240E2
:101B7000400F0020A060024000003D20B8600240FD
:101B80001064024000640240286402404064024045
:101B9000586402407064024088640240A0640240BD
:101BA000B864024080B485B000AF7860396000232B
:101BB000FB607B681B68FB60FA68244B1340FB608A
:101BC0003B681A683B68DB681A433B685B691A43E9
:101BD0003B689B691A433B68DB691A433B681B6A95
:101BE0001A433B685B6A1A433B689B6A1A433B682B
:101BF0005B6B1A433B689B6B1343FA681343FB60B0
:101C00007B68FA681A607B685B69FB60FB6823F09D
:101C10000703FB603B68DA6A3B681B6B1343FA6897
:101C20001343FB607B68FA685A613B681A697B68FA
:101C30005A603B685A687B689A603B689A687B6820
:101C4000DA6000BF1437BD4680BC70473F801CF08F
:101C500080B483B000AF78600B46FB70FB78002B3C
:101C600006D07B681B6843F001027B681A6005E0C0
:101C70007B681B6823F001027B681A6000BF0C3789
:101C8000BD4680BC704700BF80B485B000AFF8602F
:101C9000B9601346FB71BB6803F08003002B0FD0C3
:101CA000FB79002B06D0FB685B6943F08002FB6880
:101CB0005A6105E0FB685B6923F08002FB685A61AA
:101CC000BB68802B14D0FB79002B08D0FB681A6806
:101CD000BB6803F01E031A43FB681A6008E0FB6848
:101CE0001A68BB6803F01E03DB431A40FB681A60E6
:101CF00000BF1437BD4680BC704700BF80B487B0BA
:101D000000AF786039600023FB750023FB6000237F
:101D1000BB607B68214A934202D8214B3B6101E0C2
:101D2000204B3B613B6823F0F02323F0C313002BCF
:101D30000AD03B68DB0A03F01E03FB607B681A686D
:101D4000FB681340BB6004E07B685B6903F08003C1
:101D5000BB603B6803F00053002B03D03B695B681A
:101D6000FB6002E03B691B68FB60FB6823F0F0232B
:101D700023F08213FB60FA683B681340002B05D008
:101D8000BB68002B02D00123FB7501E00023FB752B
:101D9000FB7D18461C37BD4680BC70470F6402406F
:101DA000006002400064024080B485B000AF7860FB
:101DB00039607B68104A934202D8104BFB6001E007
:101DC0000F4BFB603B6803F00053002B07D03B68D0
:101DD00023F0F02323F08213FA68D36006E03B6817
:101DE00023F0F02323F08213FA68936000BF1437C6
:101DF000BD4680BC704700BF0F64024000600240D7
:101E00000064024080B485B000AF78600023FB73AB
:101E10000023BB730F237B737B68DB78002B38D0E8
:101E2000264BDB68DB4303F4E0631B0AFB73FB7B9D
:101E3000C3F10403BB737A7BFB7B42FA03F37B732E
:101E40007B685B781A46BB7B02FA03F3FB737B6803
:101E50009A787B7B1340DAB2FB7B1343FB73FB7BEB
:101E60001B01FB73164A7B681B781344FA7B83F8CB
:101E70000023134A7B681B785B09DBB218467B683A
:101E80001B7803F01F03012101FA03F342F820300D
:101E90000FE00B497B681B785B09DBB218467B6857
:101EA0001B7803F01F0301229A4000F1200341F840
:101EB000232000BF1437BD4680BC704700ED00E012
:101EC00000E100E080B485B000AF786039600023A5
:101ED000FB817B681B88FB817B68284A934213D077
:101EE0007B68274A93420FD07B68B3F1804F0BD0B9
:101EF0007B68244A934207D07B68234A934203D0ED
:101F00007B68224A934208D1FB8923F07003FB814E
:101F10003B685A88FB891343FB817B681C4A9342C8
:101F20000CD07B681B4A934208D0FB8923F4407392
:101F3000FB813B681A89FB891343FB817B68FA8923
:101F40001A803B685A687B68DA623B681A887B684B
:101F50001A857B68094A934203D07B68084A9342FA
:101F600004D13B689B7A9AB27B681A867B6801220F
:101F70009A8200BF1437BD4680BC70470000014004
:101F8000000401400004004000080040000C004034
:101F9000001000400014004080B483B000AF7860AF
:101FA0000B46FB70FB78002B08D07B681B889BB22C
:101FB00043F080039AB27B681A8007E07B681B8835
:101FC0009BB223F080039AB27B681A8000BF0C3763
:101FD000BD4680BC704700BF80B483B000AF78605E
:101FE0000B46FB70FB78002B08D07B681B889BB2EC
:101FF00043F001039AB27B681A8007E07B681B8874
:102000009BB223F001039AB27B681A8000BF0C37A1
:10201000BD4680BC704700BF80B485B000AF78601B
:10202000396000237B810023FB810023BB817B6817
:102030001B8C9BB223F480739AB27B681A847B68F2
:102040001B8CFB817B689B88BB817B689B8B7B8126
:102050007B8923F070037B817B8923F003037B81E1
:102060003B681A887B8913437B81FB8923F40073C7
:10207000FB813B689B891B029AB2FB891343FB815E
:102080003B685B881B029AB2FB891343FB817B6828
:10209000224A934203D07B68214A93422BD1FB8989
:1020A00023F40063FB813B68DB891B029AB2FB8946
:1020B0001343FB81FB8923F48063FB813B689B888E
:1020C0001B029AB2FB891343FB81BB8923F4805323
:1020D000BB81BB8923F40053BB813B681B8A1B0176
:1020E0009AB2BB891343BB813B685B8A1B019AB2DE
:1020F000BB891343BB817B68BA899A807B687A89E4
:102100009A833B689A687B68DA637B68FA891A84E9
:1021100000BF1437BD4680BC704700BF00000140BF
:102120000004014080B485B000AF786039600023BE
:10213000BB8100237B810023FB817B681B8C9BB2CE
:1021400023F480539AB27B681A847B681B8C7B8152
:102150007B689B88FB817B689B8BBB81BB8923F45D
:10216000E043BB81BB8923F44073BB813B681B8880
:102170001B029AB2BB891343BB817B8923F40053B2
:102180007B813B689B891B039AB27B8913437B81CC
:102190003B685B881B039AB27B8913437B817B6816
:1021A000114A934203D07B68104A93420AD1FB89BB
:1021B00023F48043FB813B681B8A9B019AB2FB8915
:1021C0001343FB817B68FA899A807B68BA899A837A
:1021D0003B689A687B681A647B687A891A8400BFB6
:1021E0001437BD4680BC7047000001400004014028
:1021F00080B485B000AF78600B467B800023FB8104
:102200007B689B8BFB81FB8923F00803FB81FA89A8
:102210007B881343FB817B68FA899A8300BF14375C
:10222000BD4680BC704700BF80B485B000AF786009
:102230000B467B800023FB817B689B8BFB81FB89AA
:1022400023F40063FB817B881B029AB2FB89134352
:10225000FB817B68FA899A8300BF1437BD4680BC36
:10226000704700BF80B483B000AF78600B467B80BE
:1022700013467B707B78002B08D07B689B899AB2D1
:102280007B8813439AB27B689A8109E07B689B89BB
:102290009AB27B88DB439BB213409AB27B689A81E7
:1022A00000BF0C37BD4680BC704700BF80B483B010
:1022B00000AF78600B467B807B88DB439AB27B68FB
:1022C0001A8200BF0C37BD4680BC704780B483B013
:1022D00000AF78600B467B8013467B707B78002BC9
:1022E00008D07B689B899AB27B8813439AB27B683B
:1022F0009A8109E07B689B899AB27B88DB439BB219
:1023000013409AB27B689A8100BF0C37BD4680BCEF
:10231000704700BF80B588B002AFF860B9607A60DE
:102320003B6000237B613B687A68B968F86800F01D
:1023300025FA78617B69002B01D07B690CE03B6A50
:10234000DBB27A6A019200933B687A68B968F868F0
:1023500001F0F0F978617B6918461837BD4680BDF9
:1023600080B588B002AFF860B9607A603B60002346
:102370007B61FA687B68D118BA683B6813440A46E7
:10238000B968F86800F0FAF978617B69002B01D030
:102390007B690BE07B6A01933B6A00933B687A6838
:1023A000B968F86801F0FEFA78617B691846183759
:1023B000BD4680BD80B582B000AF7860786801F01E
:1023C000ABF9002318460837BD4680BD80B58AB0FA
:1023D00004AFF860B9607A603B60FB6A0393BB6A44
:1023E00002937B6A01933B6A00937B68BA68F96841
:1023F000386800F0FDFA78617B6918461837BD46E9
:1024000080BD00BF80B588B000AFF860B9607A6069
:102410003B600023FB617B68052B00F2998101A2E0
:1024200052F823F03D240008BD2400083D25000893
:10243000BD2500083D260008D12600089F4B1B78CB
:102440001A469E4B5B781B021A439C4B9B781B04DD
:102450001A439A4BDB781946202301FA03F31343FE
:10246000BB61964B1B791A46944B5B791B021A434E
:10247000924B9B791B041A43904BDB79194620231E
:1024800001FA03F313437B61FA68BB691344B3F5A4
:10249000A07F03D9BB69C3F5A073FB60BA687B69F1
:1024A0001344F02B03D97B69C3F1F003BB603B6895
:1024B000824AB968F86801F09DF84BE1804B1B78BF
:1024C0001A467F4B5B781B021A437D4B9B781B049B
:1024D0001A437B4BDB781946202301FA03F313439D
:1024E000BB61774B1B791A46754B5B791B021A430C
:1024F000734B9B791B041A43714BDB7919462023DC
:1025000001FA03F313437B61FA68BB691344B3F523
:10251000A07F03D9BB69C3F5A073FB60BA687B6970
:102520001344F02B03D97B69C3F1F003BB603B6814
:10253000634AB968F86801F05DF80BE1614B1B78FC
:102540001A46604B5B781B021A435E4B9B781B0458
:102550001A435C4BDB781946202301FA03F313433B
:10256000BB61584B1B791A46564B5B791B021A43C9
:10257000544B9B791B041A43524BDB791946202399
:1025800001FA03F313437B61FA68BB691344B3F5A3
:10259000A07F03D9BB69C3F5A073FB60BA687B69F0
:1025A0001344F02B03D97B69C3F1F003BB603B6894
:1025B000444AB968F86801F01DF8CBE0424B1B783B
:1025C0001A46414B5B781B021A433F4B9B781B0416
:1025D0001A433D4BDB781946202301FA03F31343DA
:1025E000BB61394B1B791A46374B5B791B021A4387
:1025F000354B9B791B041A43334BDB791946202357
:1026000001FA03F313437B61FA68BB691344B3F522
:10261000A07F03D9BB69C3F5A073FB60BA687B696F
:102620001344F02B03D97B69C3F1F003BB603B6813
:10263000254AB968F86800F0DDFF8BE0234B1B7872
:102640001A46224B5B781B021A43204B9B781B04D3
:102650001A431E4BDB781946202301FA03F3134378
:10266000BB611A4B1B791A46184B5B791B021A4344
:10267000164B9B791B041A43144BDB791946202314
:1026800001FA03F313437B61FA68BB691344B3F5A2
:10269000A07F03D9BB69C3F5A073FB60BA687B69EF
:1026A0001344F02B03D97B69C3F1F003BB603B6893
:1026B000064AB968F86800F09DFF4BE01000002062
:1026C00078040020E0080020200D00206011002088
:1026D000234B1B781A46224B5B781B021A43204B74
:1026E0009B781B041A431E4BDB781946202301FA02
:1026F00003F31343BB611A4B1B791A46184B5B79E2
:102700001B021A43164B9B791B041A43144BDB79AB
:102710001946202301FA03F313437B61FA68BB696E
:102720001344B3F5A07F03D9BB69C3F5A073FB6065
:10273000BA687B691344F02B03D97B69C3F1F003BA
:10274000BB603B68064AB968F86800F053FF01E0D7
:102750000423FB61FB6918462037BD4680BD00BFDE
:102760002C1B002080B500AFFFF7A2F801F076F92E
:1027700001F0AEFB01F05EFC00BF80BD80B487B00D
:1027800000AFF860B9607A603B6000237B61FB6852
:10279000B3F5A07F09DCFB68002B06DB7B68B3F593
:1027A000A07F02DC7B68002B03DA7B6943F0010326
:1027B0007B61BB68F02B08DCBB68002B05DB3B684A
:1027C000F02B02DC3B68002B03DA7B6943F0020349
:1027D0007B617B6918461C37BD4680BC704700BFD3
:1027E00080B582B000AF7860786801F005FC00BF6A
:1027F0000837BD4680BD00BF80B582B000AF7860AD
:102800000021786801F05AFD00BF0837BD4680BD41
:1028100080B582B000AF7860786801F06FFC00BFCF
:102820000837BD4680BD00BF80B582B000AF78607C
:102830007B68184601F0C4FC00BF0837BD4680BD68
:1028400080B582B000AF78600B46FB70FB7819460C
:10285000786801F0C1FC00BF0837BD4680BD00BFED
:1028600080B584B000AF786039600023FB601AE067
:10287000FB687A681A44FB6879680B441B78FB7222
:10288000154B1968FB7A01330B441B7803F00303E3
:10289000022B02D1FB7A203B00E0FB7ADBB2137003
:1028A000FB680133FB60FB687A6813441B78002BDC
:1028B000DED1386802F024FD03461A46396878688C
:1028C00002F08CFD0346002B01D1012300E0002320
:1028D00018461037BD4680BD3429002080B58AB027
:1028E00000AFB9607A603B600346FB73FB7B203B23
:1028F000FB73FB7BDB00BA6B13445B68BB61FB7B48
:102900005D2B06D0FB7B0133DB00BA6B13445B68A5
:1029100000E004237B6100237B625FE00023FB6116
:1029200046E000233B623DE080223B6A42FA03F32B
:10293000B969FA690A4411467A6B0A44127813405D
:102940003B613B69002B13D0FB699BB2DB009AB261
:102950003B6A9BB213449AB2BB689BB213449BB2CE
:102960007A6891B23A68D2B2184601F0D9F816E006
:102970003B6BB3F1FF3F12D0FB699BB2DB009AB215
:102980003B6A9BB213449AB2BB689BB213449BB29E
:102990007A6891B23A6BD2B2184601F0C1F83B6A3C
:1029A00001333B623B6A072BBEDDFB690133FB61F0
:1029B000FB7BDB00BA6B13441A68FB699A42B0DCFC
:1029C0007B6801337B60FB7BDB00BA6B13441B68C5
:1029D000BA691344BB617B6A01337B62BA697B6964
:1029E0009A429BDB002318462837BD4680BD00BFB6
:1029F00080B58EB004AFF860B9607A603B600023A8
:102A00003B62BB68FB617B68BB61FF237B619649CE
:102A1000386BFFF725FF0346002B25D0BB6B012B3E
:102A20000CD0022B13D0002B1AD17B6B012B02D1BF
:102A300000237B6147E003237B6144E07B6B012B38
:102A400002D101237B613EE004237B613BE07B6B91
:102A5000012B02D102237B6135E005237B6132E04B
:102A600001233B6200BF2EE08049386BFFF7F8FE80
:102A70000346002B25D0BB6B012B0CD0022B13D0AF
:102A8000002B1AD17B6B012B02D106237B611AE04C
:102A900009237B6117E07B6B012B02D107237B614C
:102AA00011E00A237B610EE07B6B012B02D108232E
:102AB0007B6108E00B237B6105E001233B6200BFE3
:102AC00001E001233B627B690B2B00F2828501A2AE
:102AD00052F823F0052B0008E52B0008DF2C000836
:102AE000BF2D00089B2E0008972F000873300008A8
:102AF0004F310008433200081F330008FB33000841
:102B0000F7340008FB6818784FF475730393584B3B
:102B10000293584B0193FB6B00933B68BA69F969C8
:102B2000FFF7DCFE386201237B6252E07B6A013BE7
:102B3000FA6813441B78203B4D4A52F83330DA00D0
:102B4000FB691A44BB691433B969F869FFF716FECB
:102B500038623B6A012B10D1BB691433BB617B6ABD
:102B6000013BFA6813441B78203B414A52F833304A
:102B7000DB00BA68D31AFB6105E03B6A022B02D185
:102B80003B6A00F02ABD7B6AFA68134418787B6AB6
:102B9000013BFA6813441B78203B354A52F8333026
:102BA000DB00FA691344FB614FF475730393304BF8
:102BB0000293304B0193FB6B00933B68BA69F96950
:102BC000FFF78CFE02463B6A13433B627B6A01338C
:102BD0007B62F86802F094FB02467B6A9A42A5D8B1
:102BE00000F0FABCFB68187840F241430393224B93
:102BF0000293224B0193FB6B00933B68BA69F9691E
:102C0000FFF76CFE386201237B625FE07B6A013B69
:102C1000FA6813441B78203B174A52F83330DA0025
:102C2000FB691A44BB691433B969F869FFF7A6FD5B
:102C300038623B6A012B10D1BB691433BB617B6ADC
:102C4000013BFA6813441B78203B0B4A52F833309F
:102C5000DB00BA68D31AFB6112E03B6A022B0FD18A
:102C60003B6A00F0BABC00BFD0CF0008D8CF000844
:102C7000645C00089058000898630008545F0008DE
:102C80007B6AFA68134418787B6A013BFA6813443C
:102C90001B78203B9E4A52F83330DB00FA6913441C
:102CA000FB6140F241430393994B0293994B01938B
:102CB000FB6B00933B68BA69F969FFF70FFE0246A8
:102CC0003B6A13433B627B6A01337B62F86802F024
:102CD00017FB02467B6A9A4298D800F07DBCFB68DD
:102CE00018784FF4936303938B4B02938B4B0193B0
:102CF000FB6B00933B68BA69F969FFF7EFFD386237
:102D000001237B6252E07B6A013BFA6813441B7823
:102D1000203B814A52F83330DA00FB691A44BB6920
:102D20001433B969F869FFF729FD38623B6A012B52
:102D300010D1BB691433BB617B6A013BFA68134451
:102D40001B78203B744A52F83330DB00BA68D31A40
:102D5000FB6105E03B6A022B02D13B6A00F03DBCFF
:102D60007B6AFA68134418787B6A013BFA6813445B
:102D70001B78203B684A52F83330DB00FA69134471
:102D8000FB614FF493630393634B0293634B019393
:102D9000FB6B00933B68BA69F969FFF79FFD024638
:102DA0003B6A13433B627B6A01337B62F86802F043
:102DB000A7FA02467B6A9A42A5D800F00DBCFB68D0
:102DC000187840F635530393554B0293554B0193B6
:102DD000FB6B00933B68BA69F969FFF77FFD3862C6
:102DE00001237B6251E07B6A013BFA6813441B7844
:102DF000203B4B4A52F83330DA00FB691A44BB6976
:102E00001433B969F869FFF7B9FC38623B6A012BE2
:102E100010D1BB691433BB617B6A013BFA68134470
:102E20001B78203B3E4A52F83330DB00BA68D31A95
:102E3000FB6104E03B6A022B01D13B6ACDE37B6A74
:102E4000FA68134418787B6A013BFA6813441B78CC
:102E5000203B334A52F83330DB00FA691344FB61FC
:102E600040F6355303932E4B02932E4B0193FB6B8D
:102E700000933B68BA69F969FFF730FD02463B6A87
:102E800013433B627B6A01337B62F86802F038FAD5
:102E900002467B6A9A42A6D89EE3FB68187840F601
:102EA0005F530393204B0293204B0193FB6B0093E2
:102EB0003B68BA69F969FFF711FD386201237B624B
:102EC00061E07B6A013BFA6813441B78203B164A99
:102ED00052F83330DA00FB691A44BB691433B9691C
:102EE000F869FFF74BFC38623B6A012B20D1BB69C4
:102EF0001433BB617B6A013BFA6813441B78203BA7
:102F0000094A52F83330DB00BA68D31AFB6114E087
:102F100098630008545F0008206B0008886600086A
:102F2000487B0008106E0008988B0008387E000867
:102F30003B6A022B01D13B6A4FE37B6AFA68134478
:102F400018787B6A013BFA6813441B78203B9D4A42
:102F500052F83330DB00FA691344FB6140F65F53EB
:102F60000393984B0293984B0193FB6B00933B6840
:102F7000BA69F969FFF7B2FC02463B6A13433B6248
:102F80007B6A01337B62F86802F0BAF902467B6A19
:102F90009A4296D820E3FB68187840F6745303935E
:102FA0008A4B02938A4B0193FB6B00933B68BA698F
:102FB000F969FFF793FC386201237B6251E07B6A79
:102FC000013BFA6813441B78203B804A52F83330A7
:102FD000DA00FB691A44BB691433B969F869FFF771
:102FE000CDFB38623B6A012B10D1BB691433BB6146
:102FF0007B6A013BFA6813441B78203B734A52F802
:103000003330DB00BA68D31AFB6104E03B6A022B61
:1030100001D13B6AE1E27B6AFA68134418787B6A63
:10302000013BFA6813441B78203B684A52F833305E
:10303000DB00FA691344FB6140F674530393634B5E
:103040000293634B0193FB6B00933B68BA69F96988
:10305000FFF744FC02463B6A13433B627B6A013341
:103060007B62F86802F04CF902467B6A9A42A6D865
:10307000B2E2FB68187840F20A430393554B02937F
:10308000554B0193FB6B00933B68BA69F969FFF7F5
:1030900025FC386201237B6251E07B6A013BFA68C0
:1030A00013441B78203B4B4A52F83330DA00FB695B
:1030B0001A44BB691433B969F869FFF75FFB3862DA
:1030C0003B6A012B10D1BB691433BB617B6A013BA6
:1030D000FA6813441B78203B3E4A52F83330DB0039
:1030E000BA68D31AFB6104E03B6A022B01D13B6A48
:1030F00073E27B6AFA68134418787B6A013BFA68CA
:1031000013441B78203B334A52F83330DB00FA6912
:103110001344FB6140F20A4303932E4B02932E4B60
:103120000193FB6B00933B68BA69F969FFF7D6FB23
:1031300002463B6A13433B627B6A01337B62F86859
:1031400002F0DEF802467B6A9A42A6D844E2FB68A7
:10315000187840F20A4303931E4B02931E4B0193CF
:10316000FB6B00933B68BA69F969FFF7B7FB3862FC
:1031700001237B625DE07B6A013BFA6813441B78A4
:10318000203B144A52F83330DA00FB691A44BB6919
:103190001433B969F869FFF7F1FA38623B6A012B19
:1031A0001CD1BB691433BB617B6A013BFA681344D1
:1031B0001B78203B074A52F83330DB00BA68D31A39
:1031C000FB6110E0988B0008387E0008FC9B00082B
:1031D000888E0008F8A20008EC9E00083B6A022BCB
:1031E00001D13B6AF9E17B6AFA68134418787B6A7B
:1031F000013BFA6813441B78203B9D4A52F8333058
:10320000DB00FA691344FB6140F20A430393984BD5
:103210000293984B0193FB6B00933B68BA69F96981
:10322000FFF75CFB02463B6A13433B627B6A013358
:103230007B62F86802F064F802467B6A9A429AD888
:10324000CAE1FB68187840F20A4303938A4B029361
:103250008A4B0193FB6B00933B68BA69F969FFF7EE
:103260003DFB386201237B6251E07B6A013BFA68D7
:1032700013441B78203B804A52F83330DA00FB6954
:103280001A44BB691433B969F869FFF777FA3862F1
:103290003B6A012B10D1BB691433BB617B6A013BD4
:1032A000FA6813441B78203B734A52F83330DB0032
:1032B000BA68D31AFB6104E03B6A022B01D13B6A76
:1032C0008BE17B6AFA68134418787B6A013BFA68E1
:1032D00013441B78203B684A52F83330DB00FA690C
:1032E0001344FB6140F20A430393634B0293634B25
:1032F0000193FB6B00933B68BA69F969FFF7EEFA3B
:1033000002463B6A13433B627B6A01337B62F86887
:1033100001F0F6FF02467B6A9A42A6D85CE1FB68A0
:1033200018784FF4C6630393554B0293554B0193A2
:10333000FB6B00933B68BA69F969FFF7CFFA386213
:1033400001237B6251E07B6A013BFA6813441B78DE
:10335000203B4B4A52F83330DA00FB691A44BB6910
:103360001433B969F869FFF709FA38623B6A012B2F
:1033700010D1BB691433BB617B6A013BFA6813440B
:103380001B78203B3E4A52F83330DB00BA68D31A30
:10339000FB6104E03B6A022B01D13B6A1DE17B6AC1
:1033A000FA68134418787B6A013BFA6813441B7867
:1033B000203B334A52F83330DB00FA691344FB6197
:1033C0004FF4C66303932E4B02932E4B0193FB6B7A
:1033D00000933B68BA69F969FFF780FA02463B6AD5
:1033E00013433B627B6A01337B62F86801F088FF1C
:1033F00002467B6A9A42A6D8EEE0FB6818784FF442
:10340000C0630393204B0293204B0193FB6B00930B
:103410003B68BA69F969FFF761FA386201237B6298
:1034200061E07B6A013BFA6813441B78203B164A33
:1034300052F83330DA00FB691A44BB691433B969B6
:10344000F869FFF79BF938623B6A012B20D1BB6911
:103450001433BB617B6A013BFA6813441B78203B41
:10346000094A52F83330DB00BA68D31AFB6114E022
:10347000F8A20008EC9E0008F0B00008E4AC0008D8
:1034800010BA0008E0B3000800C3000800BD00083F
:103490003B6A022B01D13B6A9FE07B6AFA681344C6
:1034A00018787B6A013BFA6813441B78203B4D4A2D
:1034B00052F83330DB00FA691344FB614FF4C06308
:1034C0000393484B0293484B0193FB6B00933B687B
:1034D000BA69F969FFF702FA02463B6A13433B6295
:1034E0007B6A01337B62F86801F00AFF02467B6A5F
:1034F0009A4296D870E0FB6818784FF4DE63039325
:103500003A4B02933A4B0193FB6B00933B68BA69C9
:10351000F969FFF7E3F9386201237B6251E07B6AC6
:10352000013BFA6813441B78203B304A52F8333091
:10353000DA00FB691A44BB691433B969F869FFF70B
:103540001DF938623B6A012B10D1BB691433BB6192
:103550007B6A013BFA6813441B78203B234A52F8EC
:103560003330DB00BA68D31AFB6104E03B6A022BFC
:1035700001D13B6A31E07B6AFA68134418787B6AB0
:10358000013BFA6813441B78203B184A52F8333049
:10359000DB00FA691344FB614FF4DE630393134BC2
:1035A0000293134B0193FB6B00933B68BA69F96973
:1035B000FFF794F902463B6A13433B627B6A01338F
:1035C0007B62F86801F09CFE02467B6A9A42A6D8AC
:1035D00002E001233B6200BF3B6A18462837BD4624
:1035E00080BD00BF00C3000800BD0008E0CC00089B
:1035F000F0C5000880B588B000AFF860B9607A60A7
:103600003B607B681B781A467B6801331B781B0282
:103610001A437B6802331B781B041A437B6803330D
:103620001B781946202301FA03F313437B617B685F
:1036300004331B781A467B6805331B781B021A4338
:103640007B6806331B781B041A437B6807331B789F
:103650001946202301FA03F313433B610023BB61A6
:1036600051E00023FB6147E0BB697A6902FB03F28A
:10367000FB69134408337A6813441B78FF2B1CD072
:103680003B68002B19D1FB689AB2FB699BB21344CB
:1036900098B2BB689AB2BB699BB2134499B2BB693A
:1036A0007A6902FB03F2FB69134408337A68134416
:1036B0001B781A4600F034FA1BE03B68012B18D146
:1036C000FB689AB2FB699BB2134498B2BB689AB28A
:1036D000BB699BB2134499B2BB697A6902FB03F2DE
:1036E000FB69134408337A6813441B781A4600F0C8
:1036F00017FAFB690133FB61FA697B699A42B3D31C
:10370000BB690133BB61BA693B699A42A9D300BF67
:103710002037BD4680BD00BF80B582B000AF786065
:103720007B68DBB2184600F0D9F900BF0837BD4608
:1037300080BD00BF90B58BB000AFF860B9607A6013
:103740003B607A68FB68D31A184601F095FA034685
:10375000BB613A68BB68D31A184601F08DFA03467C
:103760007B61B969786901F08FFB03463B61FB6BB4
:10377000DA0F13445B10FB610BE13B6923F000435C
:103780004FF07E51184601F073FC0346002B77D0B2
:10379000FA687B689A4238DAFB687B6230E07A6AC2
:1037A000FB68D31A184601F067FA034639691846D0
:1037B00001F0B6FA03461C46B86801F05DFA03460C
:1037C0001946204601F0A4F903461C46F86901F0A9
:1037D00053FA03461946204601F09AF90346184663
:1037E00001F064FC03463B627B6A9BB23A6A91B289
:1037F00097F83820184600F093F97B6A01337B6212
:103800007A6A7B689A42CADBBDE07B687B6232E001
:103810007A6AFB68D31A184601F02EFA0346396912
:10382000184601F07DFA03461C46B86801F024FAF8
:1038300003461946204601F06BF903461C46F86919
:1038400001F01AFA03461946204601F061F90346D1
:10385000184601F02BFC03463B627B6A98B23B6A38
:103860009BB2013B9BB297F83820194600F058F9FB
:103870007B6A01337B627A6AFB689A42C8DB82E02A
:10388000BA683B689A423FDABB683B6237E0396905
:103890004FF07E5001F0F8FA03461C463A6ABB68C6
:1038A000D31A184601F0E8F903461946204601F0FC
:1038B00037FA03461C46F86801F0DEF9034619465C
:1038C000204601F025F903461C46F86901F0D4F9B9
:1038D00003461946204601F01BF90346184601F03D
:1038E000E5FB03467B627B6A9BB23A6A91B297F82A
:1038F0003820184600F014F93B6A01333B623A6AFB
:103900003B689A42C3DB3EE03B683B6237E0396983
:103910004FF07E5001F0B8FA03461C463A6ABB6885
:10392000D31A184601F0A8F903461946204601F0BB
:10393000F7F903461C46F86801F09EF9034619465C
:10394000204601F0E5F803461C46F86901F094F9B9
:1039500003461946204601F0DBF80346184601F0FD
:10396000A5FB03467B627B6A9BB23A6A91B297F8E9
:103970003820184600F0D4F83B6A01333B623A6ABB
:10398000BB689A42C3DBFB69013BFB61FB6B013BFC
:10399000FB63FB6B002B3FF7F0AE002318462C3780
:1039A000BD4690BD80B586B002AFF860B9607A6060
:1039B0003B607A68FB6813447B603A68BB681344D9
:1039C0003B60FB69002B3CD0012B3FD1BB69DBB2D4
:1039D000012201920093BB687A68B968F868FFF722
:1039E000A9FEBB69DBB20122019200933B68FA6831
:1039F000B968F868FFF79EFEBB69DBB2012201924D
:103A00000093BB687A6839687868FFF793FEBB69F2
:103A1000DBB20122019200933B68FA68396878684A
:103A2000FFF788FE14E0BB69DBB20122019200932C
:103A3000BB687A68B968F868FFF77CFEBB68013339
:103A4000BB60BA683B689A42EDDB01E0012300E00D
:103A5000002318461037BD4680BD00BF80B582B038
:103A600000AF1B4B00221A80194B00225A60184BE2
:103A700000229A600023BB8017E00023FB800DE04A
:103A8000BA8813469B0013449B011A44FB881344D5
:103A9000104A0021D154FB880133FB80FB88B3F529
:103AA000A07FEDD9BB880133BB80BB88EF2BE4D965
:103AB00000F05CF800F0AEF800F03EF900F010F90C
:103AC000054B1B68024A936000BF0837BD4680BDA6
:103AD0003C290020482900208864024080B584B039
:103AE00000AF0346FB710023BB8112E00023FB8182
:103AF00008E0FA79B989FB89184600F011F8FB89CA
:103B00000133FB81FB89B3F5A07FF2D3BB8901337D
:103B1000BB81BB89EF2BE9D900BF1037BD4680BD03
:103B200080B483B000AF0346FB800B46BB801346D6
:103B3000FB70FB88B3F5A07F01D30023FB80BB881B
:103B4000EF2B01D90023BB80BA8813469B00134496
:103B50009B011A44FB8813440349FA78CA5400BFF6
:103B60000C37BD4680BC70474829002080B582B024
:103B700000AF01211020FDF76BFD4FF47F433B6048
:103B800001233B710023BB710123FB7103237B7174
:103B90003B4619461D48FDF7B5FD1C4B4FF47F42CF
:103BA0005A8301210220FDF753FD4FF400633B606F
:103BB00002233B7103237B710023BB710123FB7143
:103BC0003B4619461248FDF79DFD01220B21104886
:103BD000FDF726FE01210220FDF73AFD4FF4805348
:103BE0003B6001233B710023BB710123FB71032365
:103BF0007B713B4619460648FDF784FD044B4FF4A4
:103C000080521A8300BF0837BD4680BD00100240B5
:103C10000004024080B588B000AF01210120FDF70B
:103C200053FD0B23BB610023BB820023BB83002316
:103C3000FB8207F1140319462848FEF743F90121D6
:103C40000120FDF723FD40F66B23BB610023BB82FF
:103C50000023BB830023FB8207F1140319464FF0B6
:103C60008040FEF72FF960233B8001237B804FF4D7
:103C7000D273BB600223BB813B4619464FF08040A4
:103C8000FEF7CAF908214FF08040FEF7B1FA602331
:103C90003B8001237B804FF4A073BB600223BB8178
:103CA0003B4619464FF08040FEF73CFA08214FF0A2
:103CB0008040FEF7B9FA01210848FEF76DF90121AD
:103CC0004FF08040FEF768F901214FF08040FEF789
:103CD00083F900BF2037BD4680BD00BF0000014012
:103CE00080B582B000AF012210211248FDF7CCFF51
:103CF00044233B7100237B710023BB710123FB71C3
:103D00003B1D1846FEF77EF8012208214FF0804047
:103D1000FEF7A8FA1C233B7100237B710023BB71C3
:103D20000123FB713B1D1846FEF76CF800BF0837F6
:103D3000BD4680BD8864024080B590B000AF0121CF
:103D40004FF48000FDF784FC00211B48FDF780FF45
:103D50001948FDF755FE4FF040637B60174BBB6081
:103D6000174BFB6040233B6140F241137B61002312
:103D7000BB614FF48063FB6100233B6200237B62E5
:103D80000023BB624FF44033FB6200233B630123FB
:103D90007B630023BB630023FB633B1D194606487E
:103DA000FDF700FF01224FF480710648FEF78EFAFE
:103DB00000BF4037BD4680BD8864024015100240F8
:103DC000482900200000014080B500AF08214FF0D5
:103DD0008040FEF76BFA264B1B8801339AB2244BC6
:103DE0001A80234B1B88B3F5037F05D9204B002293
:103DF0001A80204A1E4B5A601D4B1B88012B04D889
:103E00001D4B4FF480525A8303E01B4B4FF48052FA
:103E10001A83174B1B88232B27D9154B1B8840F27D
:103E20000222934221D8154A114B9B681360134A12
:103E30000F4B5B68D360124A114B1B889BB243F057
:103E400001039BB213800D4A0C4B1B6843F0010326
:103E50001360074B1B8803F00103002B05D0044BB4
:103E60005B6803F24113024A536000BF80BD00BF8C
:103E70003C290020482900200004024088640240B8
:103E80000000014080B500AF0D490E48FDF736FF38
:103E90000346002B12D00A490A48FDF785FF0A4A5B
:103EA000094B1B889BB223F001039BB21380054B87
:103EB00000221A60054B4FF47F425A8300BF80BD39
:103EC0000088002088640240000001400010024089
:103ED00090B585B000AF3B461846FDF70FFB3B6839
:103EE0003F4A13603E4B1B68184600F063FB4FF0DF
:103EF00000023C4B00F0D4FB03460C46184621461A
:103F00004FF00002384B00F0F5FC03460C46184613
:103F100021464FF000024FF0804300F0EBFC0346D7
:103F20000C461846214600F0CDFD02462F4B1A6084
:103F30002B4B1B68184600F03DFB4FF00002294B4D
:103F400000F0AEFB03460C461846214620A3D3E9F9
:103F5000002300F0CFFC03460C46184621464FF0E4
:103F600000024FF0804300F0C5FC03460C461846A3
:103F7000214600F0A7FD02461D4B1A60184B1B6836
:103F8000184600F017FB4FF00002164B00F088FBBC
:103F900003460C46184621460FA3D3E9002300F040
:103FA000A9FC03460C46184621464FF000024FF08C
:103FB000804300F09FFC03460C461846214600F063
:103FC00081FD02460B4B1A6000BF1437BD4690BD01
:103FD000000000000094C14000000000882A6141F8
:103FE000385601200000F43F000022403C560120DA
:103FF000445601204056012080B485B000AF78605F
:104000000DE00023FB6002E0FB680133FB60FA680F
:10401000074B1B689A42F7D37B68013B7B607B6848
:10402000002BEED100BF1437BD4680BC704700BFE7
:104030004456012080B586B000AF01214FF4003016
:10404000FDF724FB01210120FDF702FB0C233B615E
:1040500002233B750023BB750123FB7502237B758F
:1040600007F1100319461648FDF74CFB0722022101
:104070001348FDF7D5FB072203211148FDF7D0FBBC
:104080004FF4E1333B600023BB800023FB8000231F
:104090003B810023BB810C237B813B4619460948A9
:1040A000FCF7CAFA012240F225510648FCF7B0FBA2
:1040B00001210448FCF77AFB00BF1837BD4680BDDC
:1040C000000002400044004080B582B000AF0346CB
:1040D000FB7100BF80210848FCF7E2FB0346002B80
:1040E000F8D0FB799BB219460348FCF77FFB00BF71
:1040F0000837BD4680BD00BF0044004080B584B095
:1041000000AF78600023FB6009E0FB687A68134425
:104110001B781846FFF7D8FFFB680133FB60FB688C
:104120007A6813441B78002BEFD100BF1037BD46CF
:1041300080BD00BF80B582B000AF40F225511D4860
:10414000FCF7CAFB0346002B30D040F2255119483A
:10415000FCF71CFC174B9B889BB2FB71FB79082B6F
:1041600009D1154B1B68002B13DD134B1B68013B5A
:10417000114A13600DE0104B1B68632B09D80E4BDE
:104180001B680E49FA79CA540B4B1B6801330A4A63
:104190001360094B1B68094A0021D15400BF40211C
:1041A0000448FCF77DFB0346002BF8D000BF08371E
:1041B000BD4680BD004400403829002048560120FB
:1041C00080B582B000AF78600A21786800F004F80A
:1041D00000BF0837BD4680BD80B588B000AF7860AD
:1041E0000B46FB700F23FB617B68002B29D107F185
:1041F0000802FB69134430221A70FB69013BFB6122
:1042000039E0FA787B68B3FBF2F102FB01F29B1A0A
:10421000BB61FB787A68B2FBF3F37B60194ABB6938
:1042200013441B7859B207F10802FB6913440A468C
:104230001A70FB69013BFB61FB69002B01D1002374
:104240007B607B68002BDCD115E0FB690133FB61EF
:1042500000BF80210C48FCF723FB0346002BF8D05D
:1042600007F10802FB69134493F900309BB2194629
:104270000548FCF7BBFAFB690E2BE6DD00BF2037D3
:10428000BD4680BDF82400200044004080B582B0C7
:1042900000AFFF23FB7120210748FCF701FB034619
:1042A000012B03D1044B9B889BB2FB71FB79184611
:1042B0000837BD4680BD00BF0044004080B584B0D3
:1042C00000AF786039607B68FB60FFF7DFFF034673
:1042D0001A467B681A707B681B78FF2B23D07B689B
:1042E0001B780A2B1FD07B681B78082B07D17A68B4
:1042F000FB689A4203D97B68013B7B6014E03B6812
:10430000002B04D07B681B781846FFF7DDFE7B6826
:104310001B780D2B03D17B6800221A7005E07B68A7
:1043200001337B60D1E700BFCFE71037BD4680BDCA
:1043300081F0004102E000BF83F0004330B54FEA56
:1043400041044FEA430594EA050F08BF90EA020FC3
:104350001FBF54EA000C55EA020C7FEA645C7FEA56
:10436000655C00F0E2804FEA5454D4EB5555B8BF79
:104370006D420CDD2C4480EA020281EA030382EAEA
:10438000000083EA010180EA020281EA0303362D7C
:1043900088BF30BD11F0004F4FEA01314FF4801C4F
:1043A0004CEA113102D0404261EB410113F0004F61
:1043B0004FEA03334CEA133302D0524263EB430318
:1043C00094EA050F00F0A780A4F10104D5F1200EB6
:1043D0000DDB02FA0EFC22FA05F2801841F1000111
:1043E00003FA0EF2801843FA05F359410EE0A5F1E5
:1043F00020050EF1200E012A03FA0EFC28BF4CF016
:10440000020C43FA05F3C01851EBE37101F00045CB
:1044100007D54FF0000EDCF1000C7EEB00006EEBD8
:104420000101B1F5801F1BD3B1F5001F0CD3490862
:104430005FEA30004FEA3C0C04F101044FEA4452B9
:1044400012F5800F80F09A80BCF1004F08BF5FEA40
:10445000500C50F1000041EB045141EA050130BD20
:104460005FEA4C0C404141EB010111F4801FA4F1C3
:104470000104E9D191F0000F04BF01460020B1FA18
:1044800081F308BF2033A3F10B03B3F120020CDA50
:104490000C3208DD02F1140CC2F10C0201FA0CF02E
:1044A00021FA02F10CE002F11402D8BFC2F1200C93
:1044B00001FA02F120FA0CFCDCBF41EA0C01904049
:1044C000E41AA2BF01EB0451294330BD6FEA040492
:1044D0001F3C1CDA0C340EDC04F11404C4F120027D
:1044E00020FA04F001FA02F340EA030021FA04F38F
:1044F00045EA030130BDC4F10C04C4F1200220FAE6
:1045000002F001FA04F340EA0300294630BD21FA23
:1045100004F0294630BD94F0000F83F4801306BFE9
:1045200081F480110134013D4EE77FEA645C18BFDD
:104530007FEA655C29D094EA050F08BF90EA020F74
:1045400005D054EA000C04BF1946104630BD91EA6C
:10455000030F1EBF0021002030BD5FEA545C05D16F
:104560004000494128BF41F0004130BD14F58004AE
:104570003CBF01F5801130BD01F0004545F0FE4122
:1045800041F470014FF0000030BD7FEA645C1ABF57
:10459000194610467FEA655C1CBF0B46024650EA8E
:1045A000013406BF52EA033591EA030F41F40021BA
:1045B00030BD00BF90F0000F04BF0021704730B540
:1045C0004FF4806404F132044FF000054FF0000115
:1045D00050E700BF90F0000F04BF0021704730B5D6
:1045E0004FF4806404F1320410F0004548BF4042AB
:1045F0004FF000013EE700BF42004FEAE2014FEA00
:1046000031014FEA02701FBF12F07F4393F07F4FDA
:1046100081F06051704792F0000F14BF93F07F4F0C
:10462000704730B54FF4607401F0004521F000414F
:1046300020E700BF50EA010208BF704730B54FF0D5
:1046400000050AE050EA010208BF704730B511F0DA
:10465000004502D5404261EB41014FF4806404F112
:1046600032045FEA915C3FF4DCAE4FF003025FEA94
:10467000DC0C18BF03325FEADC0C18BF033202EB1C
:10468000DC02C2F1200300FA03FC20FA02F001FA76
:1046900003FE40EA0E0021FA02F11444C1E600BF15
:1046A00070B54FF0FF0C4CF4E06C1CEA11541DBFC8
:1046B0001CEA135594EA0C0F95EA0C0F00F0DEF893
:1046C0002C4481EA030621EA4C5123EA4C5350EA78
:1046D000013518BF52EA033541F4801143F48013C9
:1046E00038D0A0FB02CE4FF00005E1FB02E506F05A
:1046F0000042E0FB03E54FF00006E1FB03569CF0AF
:10470000000F18BF4EF0010EA4F1FF04B6F5007FB4
:1047100064F5407404D25FEA4E0E6D4146EB060626
:1047200042EAC62141EA55514FEAC52040EA5E50AF
:104730004FEACE2EB4F1FD0C88BFBCF5E06F1ED859
:10474000BEF1004F08BF5FEA500E50F1000041EB90
:10475000045170BD06F0004646EA010140EA02003D
:1047600081EA0301B4EB5C04C2BFD4EB0C0541EA5F
:10477000045170BD41F480114FF0000E013C00F374
:10478000AB8014F1360FDEBF002001F0004170BD98
:10479000C4F10004203C35DA0C341BDC04F11404B1
:1047A000C4F1200500FA05F320FA04F001FA05F23D
:1047B00040EA020001F0004221F0004110EBD3700A
:1047C00021FA04F642EB06015EEA430E08BF20EA36
:1047D000D37070BDC4F10C04C4F1200500FA04F3D9
:1047E00020FA05F001FA04F240EA020001F000416B
:1047F00010EBD37041F100015EEA430E08BF20EADE
:10480000D37070BDC4F1200500FA05F24EEA020E25
:1048100020FA04F301FA05F243EA020321FA04F054
:1048200001F0004121FA04F220EA020000EBD3700B
:104830005EEA430E08BF20EAD37070BD94F0000F0B
:104840000FD101F00046400041EB010111F4801F3F
:1048500008BF013CF7D041EA060195F0000F18BFF0
:10486000704703F00046520043EB030313F4801F2C
:1048700008BF013DF7D043EA0603704794EA0C0FE6
:104880000CEA135518BF95EA0C0F0CD050EA4106FC
:1048900018BF52EA4306D1D181EA030101F0004179
:1048A0004FF0000070BD50EA410606BF10461946A1
:1048B00052EA430619D094EA0C0F02D150EA0136AD
:1048C00013D195EA0C0F05D152EA03361CBF1046EE
:1048D00019460AD181EA030101F0004141F0FE418D
:1048E00041F470014FF0000070BD41F0FE4141F411
:1048F000780170BD70B54FF0FF0C4CF4E06C1CEA11
:1049000011541DBF1CEA135594EA0C0F95EA0C0FC5
:1049100000F0A7F8A4EB050481EA030E52EA033580
:104920004FEA013100F088804FEA03334FF08055A1
:1049300045EA131343EA12634FEA022245EA1115CE
:1049400045EA10654FEA00260EF000419D4208BF7F
:10495000964244F1FD0404F5407402D25B084FEA2C
:104960003202B61A65EB03055B084FEA32024FF4D8
:1049700080104FF4002CB6EB020E75EB030E22BF35
:10498000B61A754640EA0C005B084FEA3202B6EBF5
:10499000020E75EB030E22BFB61A754640EA5C00A4
:1049A0005B084FEA3202B6EB020E75EB030E22BF34
:1049B000B61A754640EA9C005B084FEA3202B6EB35
:1049C000020E75EB030E22BFB61A754640EADC00F4
:1049D00055EA060E18D04FEA051545EA16754FEA56
:1049E00006164FEAC30343EA52734FEAC2025FEA74
:1049F0001C1CC0D111F4801F0BD141EA00014FF003
:104A000000004FF0004CB6E711F4801F04BF0143D3
:104A10000020B4F1FD0C88BFBCF5E06F3FF6AFAEEF
:104A2000B5EB030C04BFB6EB020C5FEA500C50F17F
:104A3000000041EB045170BD0EF0004E4EEA113102
:104A400014EB5C04C2BFD4EB0C0541EA045170BD09
:104A500041F480114FF0000E013C90E645EA060E4D
:104A60008DE60CEA135594EA0C0F08BF95EA0C0F7B
:104A70003FF43BAF94EA0C0F0AD150EA01347FF4C3
:104A800034AF95EA0C0F7FF425AF104619462CE79A
:104A900095EA0C0F06D152EA03353FF4FDAE1046FD
:104AA000194622E750EA410618BF52EA43067FF44E
:104AB000C5AE50EA41047FF40DAF52EA43057FF4DE
:104AC000EBAE12E74A0011D212F5001211D20DD549
:104AD0006FF47873B3EB62520ED44FEAC12343F004
:104AE000004343EA505323FA02F070474FF00000AE
:104AF000704750EA013002D14FF0FF3070474FF05D
:104B00000000704780F0004002E000BF81F00041EB
:104B100042001FBF5FEA410392EA030F7FEA226C63
:104B20007FEA236C6AD04FEA1262D2EB1363C1BFF3
:104B3000D218414048404140B8BF5B42192B88BF62
:104B4000704710F0004F40F4000020F07F4018BF85
:104B5000404211F0004F41F4000121F07F4118BFA5
:104B6000494292EA030F3FD0A2F1010241FA03FC4D
:104B700010EB0C00C3F1200301FA03F100F0004335
:104B800002D5494260EB4000B0F5000F13D3B0F1FD
:104B9000807F06D340084FEA310102F10102FE2A6C
:104BA00051D2B1F1004F40EBC25008BF20F00100DC
:104BB00040EA03007047490040EB000010F4000F8A
:104BC000A2F10102EDD1B0FA80FCACF1080CB2EB1D
:104BD0000C0200FA0CF0AABF00EBC250524218437C
:104BE000BCBFD0401843704792F0000F81F4000121
:104BF00006BF80F400000132013BB5E74FEA4103F4
:104C00007FEA226C18BF7FEA236C21D092EA030F5F
:104C100004D092F0000F08BF0846704790EA010FD9
:104C20001CBF0020704712F07F4F04D1400028BF06
:104C300040F00040704712F100723CBF00F50000E8
:104C4000704700F0004343F0FE4040F4000070471E
:104C50007FEA226216BF08467FEA236301464202CA
:104C600006BF5FEA412390EA010F40F480007047DD
:104C70004FF0000304E000BF10F0004348BF404283
:104C80005FEA000C08BF704743F0964301464FF0BF
:104C900000001CE050EA010208BF70474FF000031B
:104CA0000AE000BF50EA010208BF704711F000435C
:104CB00002D5404261EB41015FEA010C02BF84462C
:104CC0000146002043F0B64308BFA3F18053A3F58B
:104CD0000003BCFA8CF2083AA3EBC25310DB01FAD2
:104CE00002FC634400FA02FCC2F12002BCF1004F56
:104CF00020FA02F243EB020008BF20F001007047E7
:104D000002F1200201FA02FCC2F1200250EA4C003A
:104D100021FA02F243EB020008BF20EADC70704780
:104D20004FF0FF0C1CEAD0521EBF1CEAD15392EA8E
:104D30000C0F93EA0C0F6FD01A4480EA010C40026A
:104D400018BF5FEA41211ED04FF0006343EA5010C4
:104D500043EA5111A0FB01310CF00040B1F5000F06
:104D60003EBF490041EAD3715B0040EA010062F1B5
:104D70007F02FD2A1DD8B3F1004F40EBC25008BF9F
:104D800020F00100704790F0000F0CF0004C08BFBD
:104D900049024CEA502040EA51207F3AC2BFD2F18A
:104DA000FF0340EAC250704740F400004FF0000398
:104DB000013A5DDC12F1190FDCBF00F000407047D2
:104DC000C2F10002410021FA02F1C2F1200200FA10
:104DD00002FC5FEA310040F1000053EA4C0308BFD7
:104DE00020EADC70704792F0000F00F0004C02BF28
:104DF000400010F4000F013AF9D040EA0C0093F0A3
:104E0000000F01F0004C02BF490011F4000F013BFC
:104E1000F9D041EA0C018FE70CEAD15392EA0C0F6A
:104E200018BF93EA0C0F0AD030F0004C18BF31F0D5
:104E3000004CD8D180EA010000F00040704790F0AB
:104E4000000F17BF90F0004F084691F0000F91F04F
:104E5000004F14D092EA0C0F01D142020FD193EA15
:104E60000C0F03D14B0218BF084608D180EA01009D
:104E700000F0004040F0FE4040F40000704740F079
:104E8000FE4040F4400070474FF0FF0C1CEAD05247
:104E90001EBF1CEAD15392EA0C0F93EA0C0F69D0A3
:104EA000A2EB030280EA010C49024FEA402037D00E
:104EB0004FF0805343EA111143EA10130CF0004005
:104EC0008B4238BF5B0042F17D024FF4000C8B42F5
:104ED00024BF5B1A40EA0C00B3EB510F24BFA3EBD5
:104EE000510340EA5C00B3EB910F24BFA3EB9103A5
:104EF00040EA9C00B3EBD10F24BFA3EBD10340EAFF
:104F0000DC001B0118BF5FEA1C1CE0D1FD2A3FF644
:104F100050AF8B4240EBC25008BF20F001007047F9
:104F20000CF0004C4CEA50207F32C2BFD2F1FF039C
:104F300040EAC250704740F400004FF00003013ACD
:104F400037E792F0000F00F0004C02BF400010F471
:104F5000000F013AF9D040EA0C0093F0000F01F085
:104F6000004C02BF490011F4000F013BF9D041EAA7
:104F70000C0195E70CEAD15392EA0C0F08D14202DA
:104F80007FF47DAF93EA0C0F7FF470AF084676E7AD
:104F900093EA0C0F04D14B023FF44CAF08466EE786
:104FA00030F0004C18BF31F0004CCAD130F0004254
:104FB0007FF45CAF31F000437FF43CAF5FE700BFAC
:104FC0004FF0FF3C06E000BF4FF0010C02E000BFD5
:104FD0004FF0010C4DF804CD4FEA40024FEA410377
:104FE0007FEA226C18BF7FEA236C11D001B052EA2D
:104FF000530C18BF90EA010F58BFB2EB030088BFF3
:10500000C81738BF6FEAE17018BF40F00100704761
:105010007FEA226C02D15FEA402C05D17FEA236C43
:10502000E4D15FEA412CE1D05DF8040B704700BF8A
:10503000844608466146FFE70FB5FFF7C9FF002821
:1050400048BF10F1000F0FBD4DF808EDFFF7F4FF5A
:105050000CBF012000205DF808FB00BF4DF808EDF3
:10506000FFF7EAFF34BF012000205DF808FB00BF16
:105070004DF808EDFFF7E0FF94BF012000205DF838
:1050800008FB00BF4DF808EDFFF7D2FF94BF0120E9
:1050900000205DF808FB00BF4DF808EDFFF7C8FFE2
:1050A00034BF012000205DF808FB00BF4FEA40023A
:1050B000B2F1FE4F0FD34FF09E03B3EB12620DD946
:1050C0004FEA002343F0004310F0004F23FA02F0B0
:1050D00018BF404270474FF00000704712F1610F57
:1050E00001D1420205D110F0004008BF6FF000402E
:1050F00070474FF0000070470A22002100F052BABA
:10510000844641EA000313F003036DD1403A41D3D2
:1051100051F8043B40F8043B51F8043B40F8043B91
:1051200051F8043B40F8043B51F8043B40F8043B81
:1051300051F8043B40F8043B51F8043B40F8043B71
:1051400051F8043B40F8043B51F8043B40F8043B61
:1051500051F8043B40F8043B51F8043B40F8043B51
:1051600051F8043B40F8043B51F8043B40F8043B41
:1051700051F8043B40F8043B51F8043B40F8043B31
:1051800051F8043B40F8043B51F8043B40F8043B21
:10519000403ABDD2303211D351F8043B40F8043BC1
:1051A00051F8043B40F8043B51F8043B40F8043B01
:1051B00051F8043B40F8043B103AEDD20C3205D3D1
:1051C00051F8043B40F8043B043AF9D2043208D0C9
:1051D000D2071CBF11F8013B00F8013B01D30B883B
:1051E00003806046704700BF082A13D38B078DD019
:1051F00010F003038AD0C3F10403D21ADB071CBFEB
:1052000011F8013B00F8013B80D331F8023B20F854
:10521000023B7BE7043AD9D3013A11F8013B00F88D
:10522000013BF9D20B7803704B7843708B78837015
:105230006046704770B4840746D0541E002A41D09F
:10524000CDB2034602E0621EE4B3144603F8015BEC
:105250009A07F8D1032C2ED9CDB245EA05250F2C9B
:1052600045EA054519D903F110022646103E0F2ED6
:1052700042F8105C42F80C5C42F8085C42F8045CAE
:1052800002F11002F2D8A4F1100222F00F0204F091
:105290000F041032032C13440DD91E462246043A43
:1052A000032A46F8045BFAD8221F22F003020432D4
:1052B000134404F003042CB1C9B21C4403F8011BCD
:1052C000A342FBD170BC704714460346C2E700BF3F
:1052D00000000000000000000000000000000000CE
:1052E00000000000000000000000000000000000BE
:1052F00000000000000000000000000000000000AE
:1053000090F800F06DE9024520F007016FF0000C05
:1053100010F0070491F820F040F049804FF00004AD
:105320006FF00700D1E9002391F840F000F1080088
:1053300082FA4CF2A4FA8CF283FA4CF3A2FA8CF3C0
:105340004BBBD1E9022382FA4CF200F10800A4FA27
:105350008CF283FA4CF3A2FA8CF3E3B9D1E904237B
:1053600082FA4CF200F10800A4FA8CF283FA4CF3B2
:10537000A2FA8CF37BB9D1E9062301F1200182FA6C
:105380004CF200F10800A4FA8CF283FA4CF3A2FA72
:105390008CF3002BC6D0002A04BF04301A4612BA80
:1053A000B2FA82F2FDE8024500EBD2007047D1E983
:1053B000002304F00305C4F100004FEAC50514F012
:1053C000040F91F840F00CFA05F562EA05021CBFE3
:1053D00063EA050362464FF00004A9E7002A41D0C2
:1053E00040EA010313F00303F0B425D1032A23D9C3
:1053F00004680D68AC421FD1043A35D0A4F10135E0
:1054000025EA040414F0803F31D1071D0D1D0DE085
:1054100057F8043B0E68A3F10134B34224EA0304B5
:105420000AD1043A20D014F0803F23D1032A294620
:10543000384605F10405EBD803780C789C4202F15C
:10544000FF320CD182B114B916E06AB17BB110F809
:10545000013F11F8014FA34202F1FF32F5D0181BB2
:10546000F0BC7047104670471046F0BC70471846B5
:10547000F0BC70470020F3E72046F1E72DE9F04F3C
:10548000474C83460E46D4F800E000E026463446FA
:1054900014F8015B0EEB0500407800F0080000F006
:1054A000FF080028F2D12D2D5CD02B2D04BF75787C
:1054B000B41C002B3ED0102B60D09A46B8F1000FE0
:1054C0000CBF6FF000404FF000400027B0FBFAF92E
:1054D000BC460AFB19000CE0303DAB4219DD7E1CD6
:1054E00005D0CC4523D820D00AFB0C5C012714F84A
:1054F000015B0EEB0506767816F0040FECD116F082
:10550000030606D0012E14BF57263726AD1BAB422B
:10551000E5DC7B1C16D0B8F1000F10D16046002AE4
:1055200039D0DFB91160BDE8F08F8542DCDD4FF086
:10553000FF37DCE7302D1AD00A239A46BEE7CCF1BC
:10554000000CEBE7B8F1000F4FF022030CBF6FF037
:1055500000404FF00040CBF80030F2B1611E116006
:10556000BDE8F08FB41C75784FF00108A1E72378EF
:1055700003F0DF03582B08D008239EE7302D9CD181
:10558000207800F0DF00582897D14FF0100A657896
:105590005346023492E7BDE8F08FBDE8F08F00BFBC
:1055A0003429002010B4044C13460A4601462068F2
:1055B00010BCFFF763BF00BF302900200A0D457201
:1055C000726F723A200A0D0009582056414C554519
:1055D000204F56455253495A4544210A0D4572728F
:1055E0006F72636F64653A2000000000095920560D
:1055F000414C5545204F56455253495A4544210A7E
:105600000D4572726F72636F64653A20000000008E
:1056100009424F5448205820414E442059205641B9
:105620004C5545204F56455253495A4544210A0D81
:105630004572726F72636F64653A200009494E507B
:10564000555420554E5245434F474E495A454421E3
:105650000A0D4572726F72636F64653A2000000034
:1056600009494E50555420454D505459210A0D4575
:1056700072726F72636F64653A20000009544F20A4
:105680004C4954544C4520504152414D455445528B
:1056900053212047495645204D45204D4F52450A3C
:1056A0000D4572726F72636F64653A2000000000EE
:1056B00009554E4B4F574E204552524F52434F447F
:1056C00045210A0D4572726F72636F64653A20302E
:1056D000780000000A0D00004C494A4E000000000E
:1056E0005245434854484F454B0000004249544DF1
:1056F00041500000434C45415253434845524D00F0
:10570000574143485400000054454B535400000097
:1057100046494755555200004E4C2D464C414700D6
:1057200049542D464C414700544F52454E0000000D
:1057300047524F454E000000000000000000004CA2
:105740004943485447524F454E0000000000524F15
:105750004F4400000000000000000000004C4943DE
:105760004854524F4F44000000000000424C415545
:1057700057000000000000000000004C494348545E
:10578000424C415557000000000044454550534BE2
:1057900059424C554500000000435941414E00001C
:1057A00000000000000000004C49434854435941A8
:1057B000414E00000000004D4147454E544100005D
:1057C0000000000000004C494348544D4147454EFD
:1057D00054410000004745454C0000000000000017
:1057E00000000000425255494E0000000000000039
:1057F0000000004752494A5300000000000000002A
:1058000000005A5741525400000000000000000000
:105810000057495400000000000000000000000094
:10582000524F5A45000000000000000000000050E8
:105830004141525300000000000000000000000041
:10584000100000001C000000E0000000ED0000005F
:1058500003000000BB000000170000001F00000054
:10586000EF000000E3000000F3000000FC00000077
:10587000A40000009200000000000000FF000000F3
:10588000EE00000082000000200000000A0D000071
:105890000000000000000000000080808080808008
:1058A00000800000A0A0A000000000000000282848
:1058B000F85050F8A0A0000070A8A0702828A87088
:1058C000200062009400940068000B001480148093
:1058D00023000000000030484830508C88740000DD
:1058E00080808000000000000000204080808080D8
:1058F000808040208040202020202020408040E0E8
:1059000040A000000000000000002020F82020003F
:105910000000000000000000008080800000000007
:1059200000E0000000000000000000000080000017
:10593000202040404040808000007088888888880F
:10594000887000002060A0202020202000007088A7
:105950000808102040F80000708808300808887097
:1059600000001030505090F810100000784080F087
:10597000080888700000708880F0888888700000AF
:10598000F8101020204040400000708888708888FF
:10599000887000007088888878088870000000008F
:1059A00080000000008000000000800000000080F7
:1059B000808000000870807008000000000000F87F
:1059C00000F80000000000008070087080000000F7
:1059D000708808102020002000001F0060804D40CB
:1059E0009340A240A240A6809B0040403F801028E8
:1059F0002828447C82820000F88484FC848484F813
:105A0000000038448080808044380000F08884841E
:105A1000848488F00000F88080F8808080F800009E
:105A2000F88080F0808080800000384482808E8200
:105A300044380000848484FC848484840000808052
:105A40008080808080800000101010101090906086
:105A50000000848890B0D088888400008080808096
:105A6000808080F8000082C6C6AAAAAA929200008E
:105A700084C4A4A494948C840000384482828282DA
:105A800044380000F0888888F08080800000384426
:105A90008282829A443A0000F88484F8908888844C
:105AA000000078848060180484780000F8202020AA
:105AB0002020202000008484848484848478000052
:105AC0008282444428281010000084208A204A4002
:105AD0004A4051405140208020800000000084480E
