:020000040800F2
:10000000AC5E0120010A00085D0A00085D0A0008D4
:100010005D0A00085D0A00085D0A00080000000093
:100020000000000000000000000000005D0A000861
:100030005D0A0008000000005D0A00085D0A000873
:100040005D0A00085D0A00085D0A00085D0A0008F4
:100050005D0A00085D0A00085D0A00085D0A0008E4
:100060005D0A00085D0A00085D0A00085D0A0008D4
:100070005D0A00085D0A00085D0A00085D0A0008C4
:100080005D0A00085D0A00085D0A00085D0A0008B4
:100090005D0A00085D0A00085D0A00085D0A0008A4
:1000A0005D0A00085D0A00085D0A00085D0A000894
:1000B000952100085D0A00085D0A00085D0A000835
:1000C0005D0A00085D0A00085D0A00085D0A000874
:1000D0005D0A00085D0A0008353600085D0A000860
:1000E0005D0A00085D0A00085D0A00085D0A000854
:1000F0005D0A00085D0A00085D0A00085D0A000844
:100100005D0A00085D0A00085D0A00085D0A000833
:100110005D0A00085D0A00085D0A00085D0A000823
:100120005D0A00085D0A00085D0A00085D0A000813
:100130005D0A00085D0A00085D0A00085D0A000803
:100140005D0A00085D0A00085D0A00085D0A0008F3
:10015000512200085D0A00085D0A00085D0A0008D7
:100160005D0A00085D0A00085D0A00085D0A0008D3
:100170005D0A00085D0A00085D0A00085D0A0008C3
:100180005D0A00085D0A000880B582B000AF7860A3
:100190007B68002B56D02D4802F0ACFD7B68013BFC
:1001A000062B42D801A252F823F000BFC901000873
:1001B000D7010008E5010008F3010008010200086A
:1001C0000F0200081D020008214802F093FD786824
:1001D00002F09CFD32E01F4802F08CFD786802F0CE
:1001E00095FD2BE01C4802F085FD786802F08EFD3D
:1001F00024E01A4802F07EFD786802F087FD1DE0D9
:10020000174802F077FD786802F080FD16E0154887
:1002100002F070FD786802F079FD0FE0124802F0FC
:1002200069FD786802F072FD08E0104802F062FD96
:100230007B68DBB21946102002F074FD0C4802F016
:1002400059FD00E000BF0837BD4680BD3C4A0008AC
:10025000484A00086C4A0008904A0008BC4A000856
:10026000E04A0008FC4A00082C4B0008604B0008DC
:10027000844B000880B485B000AF78600B46FB70FB
:100280000123FB6023E07B681B78272B10D1002320
:10029000BB6008E07B685A1C7A601B78272B06D06D
:1002A000BB680133BB60BB68C72BF3DD00E000BF58
:1002B0007B681B78FA789A420CBF01230023DBB2DB
:1002C0001A46FB681344FB607B6801337B607B68E4
:1002D0001B78002BD7D1FB6818461437BD4680BC6D
:1002E000704700BF80B485B000AF78600B46FB70EC
:1002F0001346BB7020E07B68013B1B78272B10D195
:100300000023FB6008E07B685A1C7A601B78272B6F
:1003100006D0FB680133FB60FB68C72BF3DD00E010
:1003200000BF7B681B78FA789A4205D17B68BA785F
:100330001A707B6801337B607B685A1C7A601B787B
:10034000002BD8D100BF1437BD4680BC704700BF1A
:1003500080B485B000AF78600B46FB701346BB706D
:100360000023BB603CE0BB68013B7A6813441B7808
:10037000272B19D10023FB6011E0BB687A68134476
:100380001A787B681A707B6801337B60BB687A6877
:1003900013441B78272B06D0FB680133FB60FB68F6
:1003A000C72BEADD00E000BF0023FB6005E0BB686F
:1003B0000133BB60FB680133FB60BB687A681344A0
:1003C0001B78FA789A4202D1FB68C72BEFDDBB6835
:1003D0007A6813441A787B681A707B6801337B60F3
:1003E0007B681B78BA789A42BDD100BF1437BD46EE
:1003F00080BC704780B5B6B000AF02F0FFFB02F0E2
:100400000BFC002002F022FA4FF0FF33C7F8D43083
:100410008D4802F06FFC3B46184602F041FC3B461B
:100420001B78002B00F00D813B780D2B07D10523A5
:10043000C7F8D430D7F8D400FFF7A6FE02E13B4658
:10044000002220211846FFF783FF3B462C21184647
:10045000FFF710FF0346C7F8D0303B4600222C219F
:100460001846FFF73FFF3B467849184600F0FAFA76
:100470000346002B0ED007F164013B4600221846CC
:1004800000F0A4FB07F16403184600F08DFDC7F8E7
:10049000D400D1E03B466E49184600F0E3FA03462B
:1004A000002B0ED007F164013B460122184600F0F4
:1004B0008DFB07F16403184600F076FDC7F8D40001
:1004C000BAE03B466349184600F0CCFA0346002BDD
:1004D0000ED007F164013B460322184600F076FB7C
:1004E00007F16403184600F05FFDC7F8D400A3E0ED
:1004F0003B465949184600F0B5FA0346002B0ED08A
:1005000007F164013B460422184600F05FFB07F147
:100510006403184600F048FDC7F8D4008CE03B4661
:100520004E49184600F09EFA0346002B0ED007F104
:1005300064013B460522184600F048FB07F16403BE
:10054000184600F031FDC7F8D40075E03B46444939
:10055000184600F087FA0346002B0ED007F164011D
:100560003B460222184600F031FB07F164031846AF
:1005700000F01AFDC7F8D4005EE03B463949184642
:1005800000F070FA0346002B0ED007F164013B46E1
:100590000622184600F01AFB07F16403184600F023
:1005A00003FDC7F8D40047E03B462F49184600F04A
:1005B00059FA0346002B0ED007F164013B4607228F
:1005C000184600F003FB07F16403184600F0ECFC4A
:1005D000C7F8D40030E03B462449184600F042FA00
:1005E0000346002B0ED007F164013B460822184653
:1005F00000F0ECFA07F16403184600F0D5FCC7F8E8
:10060000D40019E03B461A49184600F02BFA03467D
:10061000002B0ED007F164013B460922184600F07A
:10062000D5FA07F16403184600F0BEFCC7F8D40001
:1006300002E00423C7F8D430D7F8D400FFF7A4FDB4
:10064000E9E600BFE7E600BF884B0008A04B0008C2
:10065000A84B0008B44B0008BC4B0008C84B00086E
:10066000D04B0008D84B0008E04B0008E84B0008CE
:10067000F04B000880B58AB000AF78603960002385
:100680007B6200233B620023FB610023BB617B682C
:100690001B8A9BB27B627B6A23F440537B623B687C
:1006A000DB881A467B6A13437B627B6A9AB27B685B
:1006B0001A827B689B899BB27B627B6A23F4B0536E
:1006C00023F00C037B623B689A883B681B891343C9
:1006D0009AB23B685B8913439BB21A467B6A134309
:1006E0007B627B6A9AB27B689A817B689B8A9BB2A9
:1006F0007B627B6A23F440737B623B689B891A466A
:100700007B6A13437B627B6A9AB27B689A8207F1A9
:100710000803184600F004FF7B68304A934203D078
:100720007B682F4A934202D17B693B6201E03B69BF
:100730003B627B689B899BB21BB2002B0CDA3A6A46
:1007400013469B0013449A001A443B681B685B00E5
:10075000B2FBF3F3FB610BE03A6A13469B001344D0
:100760009A001A443B681B689B00B2FBF3F3FB61E1
:10077000FB691C4AA2FB03235B091B017B627B6AAA
:100780001B09642202FB03F3FA69D31ABB617B687D
:100790009B899BB21BB2002B0CDABB69DB003233A6
:1007A000104AA2FB03235B0903F007037A6A134391
:1007B0007B620BE0BB691B0132330A4AA2FB0323B5
:1007C0005B0903F00F037A6A13437B627B6A9AB278
:1007D0007B681A8100BF2837BD4680BD00100140EC
:1007E000001401401F85EB5180B483B000AF7860E6
:1007F0000B46FB70FB78002B08D07B689B899BB273
:1008000043F400539AB27B689A8107E07B689B8926
:100810009BB223F400539AB27B689A8100BF0C37D5
:10082000BD4680BC704700BF80B483B000AF786025
:100830000B467B807B88C3F308039AB27B689A805F
:1008400000BF0C37BD4680BC704700BF80B487B086
:1008500000AF78600B467B8013467B7000233B61C2
:100860000023FB600023BB6000237B617B687B610E
:100870007B88DBB25B09DBB23B617B8803F01F0343
:10088000FB600122FB6802FA03F3BB603B69012BAA
:1008900003D17B690C337B6109E03B69022B03D1F7
:1008A0007B6910337B6102E07B6914337B617B7869
:1008B000002B06D07B697A691168BA680A431A600E
:1008C00006E07B697A691168BA68D2430A401A6007
:1008D00000BF1C37BD4680BC704700BF80B485B0E8
:1008E00000AF78600B467B800023FB737B681B881E
:1008F0009AB27B8813409BB2002B02D00123FB737A
:1009000001E00023FB73FB7B18461437BD4680BC17
:10091000704700BF80B487B000AF78600B467B8023
:100920000023FB6000237B610023BB600023FB747A
:100930007B88DBB25B09DBB2BB607B8803F01F0303
:100940007B6101227B6902FA03F37B61BB68012BA7
:1009500007D17B689B899BB21A467B6913407B61F8
:1009600011E0BB68022B07D17B681B8A9BB21A4639
:100970007B6913407B6106E07B689B8A9BB21A46C9
:100980007B6913407B617B881B0A9BB2FB60012261
:10099000FB6802FA03F3FB607B681B889BB21A4674
:1009A000FB681340FB607B69002B05D0FB68002BC4
:1009B00002D00123FB7401E00023FB74FB7C18468A
:1009C0001C37BD4680BC704780B485B000AF7860EE
:1009D0000B467B800023FB810023BB817B881B0AA5
:1009E000FB81FB89012202FA03F3BB81BB89DB4354
:1009F0009AB27B681A8000BF1437BD4680BC70472E
:100A000080B582B000AF104B7B60104B3B6007E0BD
:100A10003B681A1D3A607A68111D796012681A6085
:100A20003B680B4A9342F3D30A480B494FF000024C
:100A30008842B8BF40F8042BFADBFFF7DBFC00BFAD
:100A40000837BD4680BD00BF815E00080000002061
:100A50003829002038290020AC56012080B400AF8E
:100A6000FEE700BF80B584B000AF78603960002336
:100A7000FB601AE0FB687A681A44FB6879680B44EB
:100A80001B78FB72154B1968FB7A01330B441B78FA
:100A900003F00303022B02D1FB7A203B00E0FB7A38
:100AA000DBB21370FB680133FB60FB687A681344A8
:100AB0001B78002BDED1386803F062FE03461A462D
:100AC0003968786803F0CAFE0346002B01D1012380
:100AD00000E0002318461037BD4680BD34290020B1
:100AE00080B5DAB000AF3B1D186007F15003214A12
:100AF000184611464FF487731A4603F02FFD07F18D
:100B000008031D4A1846114648231A4603F026FDDD
:100B10000023C7F8643120E007F15001D7F86421C1
:100B200013461B019B1ACA183B1D11461868FFF794
:100B300099FF0346002B08D007F10803D7F864217A
:100B400053F82230C7F860310CE00023C7F8603159
:100B5000D7F864310133C7F86431D7F86431B3F59D
:100B6000877FD9D3D7F86031184607F5B477BD46EB
:100B700080BD00BFF84B0008084D000880B485B068
:100B800000AF7860396017E00023FB6005E0FB6888
:100B90000133FB607B6801337B607B681B78002B33
:100BA000F5D17B6801337B60FB68C82B01DD002336
:100BB00006E03B68013B3B603B68002BE4DC7B6864
:100BC00018461437BD4680BC704700BF80B584B05E
:100BD00000AFF860B9607A607B68092B00F2E081B1
:100BE00001A252F823F000BF110C0008950C000878
:100BF000190D0008A70D0008130E0008290E0008A3
:100C0000470E00084F0F0008570F00085F0F00083D
:100C1000BB6800221A600121F868FFF7AFFF0346A6
:100C2000184603F097FC0246BB685A600221F86838
:100C3000FFF7A4FF0346184603F08CFC0246BB688E
:100C4000DA610321F868FFF799FF0346184603F0BD
:100C500081FC0246BB685A630421F868FFF78EFFE7
:100C60000346184603F076FC0246BB689A630521EA
:100C7000F868FFF783FF0246BB68DA640621F8686C
:100C8000FFF77CFF0346184603F064FC0246BB688E
:100C90001A6585E1BB6801221A600121F868FFF737
:100CA0006DFF0346184603F055FC0246BB685A60C8
:100CB0000221F868FFF762FF0346184603F04AFC7A
:100CC0000246BB68DA610321F868FFF757FF034665
:100CD000184603F03FFC0246BB68DA630421F8685B
:100CE000FFF74CFF0346184603F034FC0246BB688E
:100CF0001A640521F868FFF741FF0246BB68DA6411
:100D00000621F868FFF73AFF0346184603F022FC75
:100D10000246BB685A6543E1BB6802221A600121A2
:100D2000F868FFF72BFF0346184603F013FC024652
:100D3000BB685A600221F868FFF720FF0346184697
:100D400003F008FC0246BB68DA610321F868FFF78C
:100D500015FF0246BB68DA640421F868FFF70EFF4E
:100D60000246BB681A660521F868FFF707FF0246CE
:100D7000BB685A660621F868FFF700FF034618466D
:100D800003F0E8FB0246BB689A650721F868FFF7A5
:100D9000F5FE0346184603F0DDFB0346DAB2BB68F6
:100DA00083F85C20FCE0BB6803221A600121F8682C
:100DB000FFF7E4FE0346184603F0CCFB0246BB688F
:100DC0005A640221F868FFF7D9FE0346184603F07B
:100DD000C1FB0246BB685A600321F868FFF7CEFEEC
:100DE0000346184603F0B6FB0246BB68DA610421ED
:100DF000F868FFF7C3FE0346184603F0ABFB034653
:100E0000012B14BF01230023DBB21A46BB689A648E
:100E1000C6E0BB6804221A600121F868FFF7AEFE45
:100E20000246BB68DA64BBE0BB6805221A60012198
:100E3000F868FFF7A3FE0346184603F08BFB024653
:100E4000BB689A66ACE0BB6806221A60BB680122E8
:100E50001A650B21F868FFF791FE0246BB68DA6459
:100E60000121F868FFF78AFE0346184603F072FB7B
:100E70000246BB685A600221F868FFF77FFE03460E
:100E8000184603F067FB0246BB68DA610321F86885
:100E9000FFF774FE0346184603F05CFB0246BB688E
:100EA0009A600421F868FFF769FE0346184603F0CC
:100EB00051FB0246BB681A620521F868FFF75EFE27
:100EC0000346184603F046FB0246BB68DA6006217B
:100ED000F868FFF753FE0346184603F03BFB024653
:100EE000BB685A620721F868FFF748FE03461846B8
:100EF00003F030FB0246BB681A610821F868FFF76F
:100F00003DFE0346184603F025FB0246BB689A6285
:100F10000921F868FFF732FE0346184603F01AFB72
:100F20000246BB685A610A21F868FFF727FE0346AC
:100F3000184603F00FFB0246BB68DA62BB685A68CA
:100F4000BB689A61BB68DA69BB681A6328E0BB6852
:100F500007221A6024E0BB6808221A6020E0BB6800
:100F600009221A600121F868FFF708FE03461846B7
:100F700003F0F0FA0246BB685A600221F868FFF7F6
:100F8000FDFD0346184603F0E5FA0246BB68DA6148
:100F90000321F868FFF7F2FD0246BB68DA6400BF80
:100FA00000BF1037BD4680BDF0B58DB004AF78608E
:100FB0000023FB617B6804333B617B681C33FB606F
:100FC0007B681B68092B00F2A68201A252F823F06D
:100FD000F90F00083F10000889100008D910000818
:100FE000FD1000081D11000835110008EF11000860
:100FF0004B1200088B1200087B68DB6E052B01DCAE
:10100000072389E27B685C687B68DD697B685E6BCF
:101010007B689B6B3B607B68DB6C1846FFF760FD71
:1010200001467B681B6D00220292019300913B6890
:1010300032462946204601F0B9FBF8616BE27B6835
:10104000DB6E052B01DC072366E27B685C687B684E
:10105000DD697B68DE6B7B681B6C3B607B68DB6CEF
:101060001846FFF73DFD01467B685B6D0022039249
:1010700000220292019300913B68324629462046A5
:1010800001F0BAFBF86146E27B68DB6E032B01DC02
:10109000072341E27B685C687B68DD697B68DB6C09
:1010A0001846FFF71DFD86467B68186E7B685B6EF1
:1010B0007A68926D796891F85C100E467968896C4F
:1010C00003910296019200930346724629462046F8
:1010D00001F0C8FBF8611EE27B68DB6E032B01DCCC
:1010E000072319E27B6858687B68D9697B685A6C6A
:1010F0007B689B6C01F0D2FBF8610CE27B68DB6ED5
:10110000002B01DC072307E27B68DB6C1846FFF746
:10111000E7FC0346184601F0A3FFFCE17B68DB6EA9
:10112000002B01DC0723F7E17B689B6E184601F07A
:10113000ABFDF0E17B681B68184601F0E7FD00237A
:10114000BB6145E0B34801F0D5FDBB699B003A693E
:1011500013441B68184601F0D9FDAE4801F0CAFDE2
:10116000BB699B00FA6813441B68184601F0CEFD6A
:10117000BB699B003A6913441C68BB699B00FA6811
:1011800013441D68BB6901339B003A6913441E6810
:10119000BB6901339B00FA6813441B683B607B68A2
:1011A000DB6C1846FFF79CFC01467B681B6D002238
:1011B0000292019300913B6832462946204601F095
:1011C000F5FA0246FB691344FB61BB690133BB615D
:1011D000BB69042BB6DD8F4801F08CFD7B68DB6CAE
:1011E000184601F087FD8C4801F084FD93E100234F
:1011F00003930023029300230193E02300935023E1
:101200004FF4A0720021002001F0F6FA00230393AE
:101210000023029300230193FF23009350234FF4F4
:10122000A0725021002001F0E7FA0023039300236D
:101230000293002301930323009350234FF4A072E1
:10124000A021002001F0D8FA65E1E02001F0FEFACB
:1012500000230393002302930023019310230093A0
:10126000F0236A220021002001F0C6FA0023039334
:101270000023029300230193FF230093F0236A22AB
:1012800000216A2001F0B8FA45E17B685C687B6860
:10129000DD697B68DB6C1846FFF722FC0246002301
:1012A00003930023029300230193009214230A2244
:1012B0002946204601F0A0FA7B685B6803F1190417
:1012C0007B68DD697B68DB6C1846FFF709FC02462A
:1012D000002303930023029300230193009214231D
:1012E0000A222946204601F087FA7B685B6803F1F1
:1012F00032047B68DD697B68DB6C1846FFF7F0FB26
:1013000002460023039300230293002301930092DB
:1013100014230A222946204601F06EFA7B685C6895
:101320007B68DB6903F114057B68DB6C1846FFF70B
:10133000D7FB02460023039300230293002301936B
:10134000009214233C222946204601F055FA7B687E
:101350005B6803F10F047B68DB6903F128057B6898
:10136000DB6C1846FFF7BCFB024600230393002307
:1013700002930023019300923C231E22294620461B
:1013800001F03AFA7B685C687B68DB6903F164050D
:101390007B68DB6C1846FFF7A3FB02460023039330
:1013A0000023029300230193009228233C22294624
:1013B000204601F021FA00237B6121E00023BB617C
:1013C00018E07B685A68BB69D0187B68DB6903F159
:1013D00064027B69D1180023039300230293012345
:1013E0000193002300930A230A2201F005FABB6946
:1013F0000A33BB61BB693B2BE3DD7B690A337B614D
:101400007B69272BDADD00237B6128E00023BB61A9
:101410001FE000BF504D0008544D00087B685B681A
:1014200003F10F02BB69D0187B68DB6903F1280266
:101430007B69D118002303930023029301230193B6
:10144000002300930A230A2201F0D6F9BB690A336C
:10145000BB61BB691D2BE1DD7B690A337B617B6965
:101460003B2BD3DD00237B6121E00023BB6118E02F
:101470007B685A68BB69D0187B68DB6903F114028A
:101480007B69D11800230393002302930123019366
:10149000002300930A230A2201F0AEF9BB690A3344
:1014A000BB61BB693B2BE3DD7B690A337B617B69F5
:1014B000132BDADD7B6858687B68DB6903F1640114
:1014C0007B685B6803F13C027B68DB6903F16404C1
:1014D0000023029303230193FF230093234601F08B
:1014E00065F97B685B6803F10F007B68DB6903F1DA
:1014F00028017B685B6803F12D027B68DB6903F1DF
:1015000028040023029303230193FF23009323461F
:1015100001F04CF900BFFB6918462437BD46F0BD09
:1015200080B489B000AF78600023BB6100237B6189
:101530000023FB6102233B610023FB600223BB60AD
:10154000484B9B6803F00C03BB61BB69042B07D0BD
:10155000082B09D0002B3FD17B68434A1A603FE03B
:101560007B68424A1A603BE03E4B5B6803F48003B1
:101570009B0DFB603B4B5B6803F03F03BB60FB686C
:10158000002B0DD0394ABB68B2FBF3F2354B5968DA
:1015900047F6C0730B409B0903FB02F3FB610CE0B1
:1015A000314ABB68B2FBF3F22E4B596847F6C07361
:1015B0000B409B0903FB02F3FB612A4B5B6803F4BE
:1015C00040331B0C01335B003B61FA693B69B2FBA2
:1015D000F3F27B681A6003E07B68234A1A6000BF5D
:1015E000204B9B6803F0F003BB61BB691B09BB6127
:1015F0001F4ABB6913441B78DBB27B617B681A68A6
:101600007B69DA407B685A60164B9B6803F4E053B1
:10161000BB61BB699B0ABB61154ABB6913441B785C
:10162000DBB27B617B685A687B69DA407B689A60D1
:101630000C4B9B6803F46043BB61BB695B0BBB61F4
:101640000B4ABB6913441B78DBB27B617B685A6829
:101650007B69DA407B68DA6000BF2437BD4680BC16
:10166000704700BF003802400024F40000127A00E6
:101670000000002080B483B000AF78600B46FB70A0
:10168000FB78002B06D00949084B1A6B7B68134383
:101690000B6306E00549054B1A6B7B68DB4313407F
:1016A0000B6300BF0C37BD4680BC7047003802405A
:1016B00080B483B000AF78600B46FB70FB78002BE2
:1016C00006D00949084B1A6C7B6813430B6406E08B
:1016D0000549054B1A6C7B68DB4313400B6400BF64
:1016E0000C37BD4680BC70470038024080B483B0E0
:1016F00000AF78600B46FB70FB78002B06D00949E1
:10170000084B5A6C7B6813434B6406E00549054B54
:101710005A6C7B68DB4313404B6400BF0C37BD46FB
:1017200080BC70470038024080B487B000AF78605A
:10173000396000237B6100233B610023FB600023B1
:101740007B6176E001227B6902FA03F33B613B682F
:101750001A683B691340FB60FA683B699A4265D19D
:101760007B681A687B695B00032101FA03F3DB43A2
:101770001A407B681A607B681A683B681B791946B7
:101780007B695B0001FA03F31A437B681A603B68CC
:101790001B79012B03D03B681B79022B2ED17B6870
:1017A0009A687B695B00032101FA03F3DB431A406B
:1017B0007B689A607B689A683B685B7919467B69AD
:1017C0005B0001FA03F31A437B689A607B685A68EE
:1017D0007B699BB2012101FA03F3DB431A407B686A
:1017E0005A607B685A683B689B7919467B699BB253
:1017F00001FA03F39BB21A437B685A607B68DA688C
:101800007B699BB25B00032101FA03F3DB431A40BF
:101810007B68DA607B68DA683B68DB7919467B694C
:101820005B0001FA03F31A437B68DA607B690133DA
:101830007B617B690F2B85D900BF1C37BD4680BCFF
:10184000704700BF80B485B000AF78600B467B80E6
:1018500013467B700023FB600023BB607A787B8893
:1018600003F007039B0002FA03F3FB607B88DB08AD
:101870009BB218467B88DB089BB21A467B6808320D
:1018800053F822207B8803F007039B000F2101FA05
:1018900003F3DB4302EA03017B6800F1080243F82B
:1018A00022107B88DB089BB21A467B68083253F80B
:1018B0002220FB681343BB607B88DB089BB21A467F
:1018C0007B680832B96843F8221000BF1437BD4660
:1018D00080BC704780B500AF124A124B1B6843F0C2
:1018E000010313600F4B00229A600E4A0D4B1B68D8
:1018F00023F0847323F4803313600A4B0A4A5A603E
:10190000084A084B1B6823F480231360054B002210
:10191000DA6000F00DF8054B4FF000629A6000BFEE
:1019200080BD00BF003802401030002400ED00E010
:1019300080B483B000AF00237B6000233B60354A56
:10194000344B1B6843F480331360324B1B6803F441
:1019500000333B607B6801337B603B68002B03D125
:101960007B68B3F5A06FF0D12A4B1B6803F40033FA
:10197000002B02D001233B6001E000233B603B6869
:10198000012B42D1234A234B1B6C43F08053136439
:10199000214A214B1B6843F4804313601D4A1D4BB1
:1019A0009B6893601B4A1B4B9B6843F40043936006
:1019B000184A184B9B6843F4A0539360154B174A81
:1019C0005A60144A134B1B6843F08073136000BFC6
:1019D000104B1B6803F00073002BF9D0104B40F242
:1019E00005621A600B4A0B4B9B6823F0030393605C
:1019F000084A084B9B6843F00203936000BF054B05
:101A00009B6803F00C03082BF9D100BF0C37BD46CF
:101A100080BC704700380240007000400854400706
:101A2000003C024080B483B000AF78607B681B68E4
:101A300023F001027B681A607B6800221A607B68D1
:101A400000225A607B6800229A607B680022DA607C
:101A50007B6800221A617B6821225A617B68454AB3
:101A6000934203D1444B3D229A607EE07B68434A17
:101A7000934204D1404B4FF474629A6075E07B68E6
:101A80003F4A934204D13C4B4FF474129A606CE08D
:101A90007B683C4A934204D1374B4FF074629A60A2
:101AA00063E07B68384A934203D1334B374ADA60AC
:101AB0005BE07B68364A934203D12F4B354ADA60AC
:101AC00053E07B68344A934203D12B4B334ADA60AC
:101AD0004BE07B68324A934204D1274B4FF03D5292
:101AE000DA6042E07B682F4A934203D12E4B3D22BD
:101AF0009A603AE07B682D4A934204D12A4B4FF416
:101B000074629A6031E07B68294A934204D1264B83
:101B10004FF474129A6028E07B68264A934204D1FD
:101B2000214B4FF074629A601FE07B68224A934217
:101B300003D11D4B154ADA6017E07B681F4A9342B8
:101B400003D1194B134ADA600FE07B681C4A9342B9
:101B500003D1154B114ADA6007E07B68194A9342BA
:101B600003D1114B4FF03D52DA6000BF0C37BD4638
:101B700080BC704710600240006002402860024054
:101B80004060024058600240706002403D0000200A
:101B900088600240400F0020A060024000003D200D
:101BA000B8600240106402400064024028640240B1
:101BB00040640240586402407064024088640240FD
:101BC000A0640240B864024080B485B000AF786081
:101BD00039600023FB607B681B68FB60FA68244B5C
:101BE0001340FB603B681A683B68DB681A433B683C
:101BF0005B691A433B689B691A433B68DB691A437C
:101C00003B681B6A1A433B685B6A1A433B689B6AE2
:101C10001A433B685B6B1A433B689B6B1343FA6840
:101C20001343FB607B68FA681A607B685B69FB6042
:101C3000FB6823F00703FB603B68DA6A3B681B6BB9
:101C40001343FA681343FB607B68FA685A613B6888
:101C50001A697B685A603B685A687B689A603B687F
:101C60009A687B68DA6000BF1437BD4680BC704755
:101C70003F801CF080B483B000AF78600B46FB70EF
:101C8000FB78002B06D07B681B6843F001027B6861
:101C90001A6005E07B681B6823F001027B681A600C
:101CA00000BF0C37BD4680BC704700BF80B485B014
:101CB00000AFF860B9601346FB71BB6803F08003A6
:101CC000002B0FD0FB79002B06D0FB685B6943F03B
:101CD0008002FB685A6105E0FB685B6923F08002C3
:101CE000FB685A61BB68802B14D0FB79002B08D0AD
:101CF000FB681A68BB6803F01E031A43FB681A608E
:101D000008E0FB681A68BB6803F01E03DB431A4057
:101D1000FB681A6000BF1437BD4680BC704700BF27
:101D200080B487B000AF786039600023FB75002372
:101D3000FB600023BB607B68214A934202D8214BA1
:101D40003B6101E0204B3B613B6823F0F02323F033
:101D5000C313002B0AD03B68DB0A03F01E03FB60B1
:101D60007B681A68FB681340BB6004E07B685B69B2
:101D700003F08003BB603B6803F00053002B03D0EB
:101D80003B695B68FB6002E03B691B68FB60FB68CA
:101D900023F0F02323F08213FB60FA683B681340C2
:101DA000002B05D0BB68002B02D00123FB7501E09E
:101DB0000023FB75FB7D18461C37BD4680BC704771
:101DC0000F640240006002400064024080B485B0AD
:101DD00000AF786039607B68104A934202D8104B9C
:101DE000FB6001E00F4BFB603B6803F00053002BEE
:101DF00007D03B6823F0F02323F08213FA68D36006
:101E000006E03B6823F0F02323F08213FA68936026
:101E100000BF1437BD4680BC704700BF0F6402404E
:101E2000006002400064024080B582B000AF1B4BEE
:101E300000221A80194B00225A60184B00229A6027
:101E40000023BB8017E00023FB800DE0BA88134617
:101E50009B0013449B011A44FB881344104A002141
:101E6000D154FB880133FB80FB88B3F5A07FEDD90B
:101E7000BB880133BB80BB88EF2BE4D900F05CF852
:101E800000F0AEF800F03EF900F010F9054B1B68C9
:101E9000024A936000BF0837BD4680BD3C29002040
:101EA000482900208864024080B584B000AF034612
:101EB000FB710023BB8112E00023FB8108E0FA796B
:101EC000B989FB89184600F011F8FB890133FB81C1
:101ED000FB89B3F5A07FF2D3BB890133BB81BB89FA
:101EE000EF2BE9D900BF1037BD4680BD80B483B069
:101EF00000AF0346FB800B46BB801346FB70FB889C
:101F0000B3F5A07F01D30023FB80BB88EF2B01D961
:101F10000023BB80BA8813469B0013449B011A44DC
:101F2000FB8813440349FA78CA5400BF0C37BD46F6
:101F300080BC70474829002080B582B000AF0121E5
:101F40001020FFF797FB4FF47F433B6001233B7169
:101F50000023BB710123FB7103237B713B461946B0
:101F60001D48FFF7E1FB1C4B4FF47F425A830121D0
:101F70000220FFF77FFB4FF400633B6002233B71BD
:101F800003237B710023BB710123FB713B46194680
:101F90001248FFF7C9FB01220B211048FFF752FC42
:101FA00001210220FFF766FB4FF480533B600123C1
:101FB0003B710023BB710123FB7103237B713B4603
:101FC00019460648FFF7B0FB044B4FF480521A83C2
:101FD00000BF0837BD4680BD00100240000402402B
:101FE00080B588B000AF01210120FFF77FFB0B23F4
:101FF000BB610023BB820023BB830023FB8207F16C
:1020000014031946284800F0A9F901210120FFF71F
:102010004FFB40F66B23BB610023BB820023BB83D5
:102020000023FB8207F1140319464FF0804000F0B3
:1020300095F960233B8001237B804FF4D273BB6012
:102040000223BB813B4619464FF0804000F030FA36
:1020500008214FF0804000F017FB60233B800123F4
:102060007B804FF4A073BB600223BB813B461946C3
:102070004FF0804000F0A2FA08214FF0804000F0BD
:102080001FFB0121084800F0D3F901214FF08040E7
:1020900000F0CEF901214FF0804000F0E9F900BFD7
:1020A0002037BD4680BD00BF0000014080B582B032
:1020B00000AF012210211248FFF7F8FD44233B71C5
:1020C00000237B710023BB710123FB713B1D18466C
:1020D00000F0E4F8012208214FF0804000F00EFBF0
:1020E0001C233B7100237B710023BB710123FB7117
:1020F0003B1D184600F0D2F800BF0837BD4680BD32
:102100008864024080B590B000AF01214FF4800098
:10211000FFF7B0FA00211B48FFF7ACFD1948FFF7A5
:1021200081FC4FF040637B60174BBB60174BFB603B
:1021300040233B6140F241137B610023BB614FF4BC
:102140008063FB6100233B6200237B620023BB6250
:102150004FF44033FB6200233B6301237B63002386
:10216000BB630023FB633B1D19460648FFF72CFDAC
:1021700001224FF48071064800F0F4FA00BF4037A6
:10218000BD4680BD886402401510024048290020E9
:102190000000014080B500AF08214FF0804000F002
:1021A000D1FA264B1B8801339AB2244B1A80234B59
:1021B0001B88B3F5037F05D9204B00221A80204AE3
:1021C0001E4B5A601D4B1B88012B04D81D4B4FF42E
:1021D00080525A8303E01B4B4FF480521A83174BF3
:1021E0001B88232B27D9154B1B8840F202229342D0
:1021F00021D8154A114B9B681360134A0F4B5B683B
:10220000D360124A114B1B889BB243F001039BB26F
:1022100013800D4A0C4B1B6843F001031360074BFE
:102220001B8803F00103002B05D0044B5B6803F20D
:102230004113024A536000BF80BD00BF3C2900200B
:102240004829002000040240886402400000014048
:1022500080B500AF0D490E48FFF762FD0346002B25
:1022600012D00A490A48FFF7B1FD0A4A094B1B88F8
:102270009BB223F001039BB21380054B00221A602E
:10228000054B4FF47F425A8300BF80BD0088002079
:1022900088640240000001400010024080B485B014
:1022A00000AF78600023FB730023BB730F237B73A5
:1022B0007B68DB78002B38D0264BDB68DB4303F4EC
:1022C000E0631B0AFB73FB7BC3F10403BB737A7BE4
:1022D000FB7B42FA03F37B737B685B781A46BB7B1C
:1022E00002FA03F3FB737B689A787B7B1340DAB2C4
:1022F000FB7B1343FB73FB7B1B01FB73164A7B6861
:102300001B781344FA7B83F80023134A7B681B78FD
:102310005B09DBB218467B681B7803F01F030121C1
:1023200001FA03F342F820300FE00B497B681B7879
:102330005B09DBB218467B681B7803F01F030122A0
:102340009A4000F1200341F8232000BF1437BD4616
:1023500080BC704700ED00E000E100E080B485B093
:1023600000AF786039600023FB817B681B88FB81AC
:102370007B68284A934213D07B68274A93420FD048
:102380007B68B3F1804F0BD07B68244A934207D01F
:102390007B68234A934203D07B68224A934208D148
:1023A000FB8923F07003FB813B685A88FB89134348
:1023B000FB817B681C4A93420CD07B681B4A93428A
:1023C00008D0FB8923F44073FB813B681A89FB89A1
:1023D0001343FB817B68FA891A803B685A687B68E3
:1023E000DA623B681A887B681A857B68094A9342DF
:1023F00003D07B68084A934204D13B689B7A9AB227
:102400007B681A867B6801229A8200BF1437BD461A
:1024100080BC7047000001400004014000040040FF
:1024200000080040000C0040001000400014004074
:1024300080B483B000AF78600B46FB70FB78002B54
:1024400008D07B681B889BB243F080039AB27B68FC
:102450001A8007E07B681B889BB223F080039AB246
:102460007B681A8000BF0C37BD4680BC704700BF38
:1024700080B483B000AF78600B46FB70FB78002B14
:1024800008D07B681B889BB243F001039AB27B683B
:102490001A8007E07B681B889BB223F001039AB285
:1024A0007B681A8000BF0C37BD4680BC704700BFF8
:1024B00080B485B000AF7860396000237B81002351
:1024C000FB810023BB817B681B8C9BB223F4807350
:1024D0009AB27B681A847B681B8CFB817B689B8823
:1024E000BB817B689B8B7B817B8923F070037B8125
:1024F0007B8923F003037B813B681A887B89134324
:102500007B81FB8923F40073FB813B689B891B0261
:102510009AB2FB891343FB813B685B881B029AB22A
:10252000FB891343FB817B68224A934203D07B687B
:10253000214A93422BD1FB8923F40063FB813B6842
:10254000DB891B029AB2FB891343FB81FB8923F4CD
:102550008063FB813B689B881B029AB2FB89134313
:10256000FB81BB8923F48053BB81BB8923F40053D7
:10257000BB813B681B8A1B019AB2BB891343BB8199
:102580003B685B8A1B019AB2BB891343BB817B68A2
:10259000BA899A807B687A899A833B689A687B6853
:1025A000DA637B68FA891A8400BF1437BD4680BCA1
:1025B000704700BF000001400004014080B485B0B6
:1025C00000AF786039600023BB8100237B8100234A
:1025D000FB817B681B8C9BB223F480539AB27B688F
:1025E0001A847B681B8C7B817B689B88FB817B6862
:1025F0009B8BBB81BB8923F4E043BB81BB8923F464
:102600004073BB813B681B881B029AB2BB89134392
:10261000BB817B8923F400537B813B689B891B032F
:102620009AB27B8913437B813B685B881B039AB218
:102630007B8913437B817B68114A934203D07B687B
:10264000104A93420AD1FB8923F48043FB813B6803
:102650001B8A9B019AB2FB891343FB817B68FA8931
:102660009A807B68BA899A833B689A687B681A6407
:102670007B687A891A8400BF1437BD4680BC7047D6
:10268000000001400004014080B485B000AF7860D4
:102690000B467B800023FB817B689B8BFB81FB8946
:1026A00023F00803FB81FA897B881343FB817B6855
:1026B000FA899A8300BF1437BD4680BC704700BFBB
:1026C00080B485B000AF78600B467B800023FB812F
:1026D0007B689B8BFB81FB8923F40063FB817B88F8
:1026E0001B029AB2FB891343FB817B68FA899A83A8
:1026F00000BF1437BD4680BC704700BF80B483B0B4
:1027000000AF78600B467B8013467B707B78002B94
:1027100008D07B689B899AB27B8813439AB27B6806
:102720009A8109E07B689B899AB27B88DB439BB2E4
:1027300013409AB27B689A8100BF0C37BD4680BCBB
:10274000704700BF80B483B000AF78600B467B80D9
:102750007B88DB439AB27B681A8200BF0C37BD4688
:1027600080BC704780B483B000AF78600B467B803C
:1027700013467B707B78002B08D07B689B899AB2CC
:102780007B8813439AB27B689A8109E07B689B89B6
:102790009AB27B88DB439BB213409AB27B689A81E2
:1027A00000BF0C37BD4680BC704700BF80B588B005
:1027B00002AFF860B9607A603B6000237B613B68E0
:1027C0007A68B968F86800F02DFA78617B69002BA7
:1027D00001D07B690CE03B6ADBB27A6A019200931C
:1027E0003B687A68B968F86800F048FC78617B69F2
:1027F00018461837BD4680BD80B588B002AFF86076
:10280000B9607A603B6000237B61FA687B68D1180D
:10281000BA683B6813440A46B968F86800F002FADF
:1028200078617B69002B01D07B690BE07B6A0193A7
:102830003B6A00933B687A68B968F86800F056FD17
:1028400078617B6918461837BD4680BD80B582B077
:1028500000AF7860786800F003FC00231846083762
:10286000BD4680BD80B58AB004AFF860B9607A60BB
:102870003B60FB6A0393BB6A02937B6A01933B6AEA
:1028800000937B68BA68F968386800F0E3FA786109
:102890007B6918461837BD4680BD00BF80B588B03B
:1028A00000AFF860B9607A603B600023FB617B6831
:1028B000052B00F2998101A252F823F0D5280008D7
:1028C00055290008D5290008552A0008D52A0008EE
:1028D000692B00089F4B1B781A469E4B5B781B02A6
:1028E0001A439C4B9B781B041A439A4BDB7819467E
:1028F000202301FA03F31343BB61964B1B791A465D
:10290000944B5B791B021A43924B9B791B041A432D
:10291000904BDB791946202301FA03F313437B61C3
:10292000FA68BB691344B3F5A07F03D9BB69C3F54B
:10293000A073FB60BA687B691344F02B03D97B69F1
:10294000C3F1F003BB603B68824AB968F86800F0E5
:10295000F5FA4BE1804B1B781A467F4B5B781B02E4
:102960001A437D4B9B781B041A437B4BDB7819463B
:10297000202301FA03F31343BB61774B1B791A46FB
:10298000754B5B791B021A43734B9B791B041A43EB
:10299000714BDB791946202301FA03F313437B6162
:1029A000FA68BB691344B3F5A07F03D9BB69C3F5CB
:1029B000A073FB60BA687B691344F02B03D97B6971
:1029C000C3F1F003BB603B68634AB968F86800F084
:1029D000B5FA0BE1614B1B781A46604B5B781B0222
:1029E0001A435E4B9B781B041A435C4BDB781946F9
:1029F000202301FA03F31343BB61584B1B791A469A
:102A0000564B5B791B021A43544B9B791B041A43A8
:102A1000524BDB791946202301FA03F313437B6100
:102A2000FA68BB691344B3F5A07F03D9BB69C3F54A
:102A3000A073FB60BA687B691344F02B03D97B69F0
:102A4000C3F1F003BB603B68444AB968F86800F022
:102A500075FACBE0424B1B781A46414B5B781B0260
:102A60001A433F4B9B781B041A433D4BDB781946B6
:102A7000202301FA03F31343BB61394B1B791A4638
:102A8000374B5B791B021A43354B9B791B041A4366
:102A9000334BDB791946202301FA03F313437B619F
:102AA000FA68BB691344B3F5A07F03D9BB69C3F5CA
:102AB000A073FB60BA687B691344F02B03D97B6970
:102AC000C3F1F003BB603B68254AB968F86800F0C1
:102AD00035FA8BE0234B1B781A46224B5B781B029E
:102AE0001A43204B9B781B041A431E4BDB78194674
:102AF000202301FA03F31343BB611A4B1B791A46D7
:102B0000184B5B791B021A43164B9B791B041A4323
:102B1000144BDB791946202301FA03F313437B613D
:102B2000FA68BB691344B3F5A07F03D9BB69C3F549
:102B3000A073FB60BA687B691344F02B03D97B69EF
:102B4000C3F1F003BB603B68064AB968F86800F05F
:102B5000F5F94BE01000002078040020E008002088
:102B6000200D002060110020234B1B781A46224BB9
:102B70005B781B021A43204B9B781B041A431E4BA5
:102B8000DB781946202301FA03F31343BB611A4B88
:102B90001B791A46184B5B791B021A43164B9B791B
:102BA0001B041A43144BDB791946202301FA03F363
:102BB00013437B61FA68BB691344B3F5A07F03D963
:102BC000BB69C3F5A073FB60BA687B691344F02B43
:102BD00003D97B69C3F1F003BB603B68064AB9685F
:102BE000F86800F0ABF901E00423FB61FB691846CB
:102BF0002037BD4680BD00BF2C1B002080B500AF34
:102C0000FEF768FEFFF710F900F0CEFB00F07EFC47
:102C100000F0FCFC00BF80BD80B500AF00F0F6FC0A
:102C200000BF80BD80B487B000AFF860B9607A6043
:102C30003B6000237B61FB68B3F5A07F09DCFB6888
:102C4000002B06DB7B68B3F5A07F02DC7B68002BE2
:102C500003DA7B6943F001037B61BB68F02B08DC7E
:102C6000BB68002B05DB3B68F02B02DC3B68002BCC
:102C700003DA7B6943F002037B617B6918461C37EA
:102C8000BD4680BC704700BF80B582B000AF7860A1
:102C9000786800F01DFC00BF0837BD4680BD00BF4E
:102CA00080B582B000AF7860104801F069FD03463E
:102CB000013B0E4AD35C0A2B10D10C4801F060FD99
:102CC0000346012B0AD90949786801F0E1FC074B5A
:102CD00000221A70064B00221A6002E07B68002274
:102CE0001A7000BF0837BD4680BD00BF485601209E
:102CF0003829002080B582B000AF7860786800F095
:102D000069FC00BF0837BD4680BD00BF80B582B0FA
:102D100000AF78607B68184600F0D2FC00BF08372F
:102D2000BD4680BD80B582B000AF78600B46FB70B9
:102D3000FB781946786800F0CFFC00BF0837BD4625
:102D400080BD00BF80B58AB000AFB9607A603B60DB
:102D50000346FB73FB7B203BFB73FB7B3B4ADB00A7
:102D600013445B68BB61FB7B5D2B06D0FB7B0133AF
:102D7000364ADB0013445B6801E04FF43C737B612F
:102D800000237B6259E00023FB6142E000233B62A9
:102D900039E080223B6A42FA03F3B969FA690A44CE
:102DA0002B498A5C1340002B13D0FB699BB2DB00DC
:102DB0009AB23B6A9BB213449AB2BB689BB213446B
:102DC0009BB27A6891B23A68D2B21846FFF78EF891
:102DD00016E03B6BB3F1FF3F12D0FB699BB2DB0007
:102DE0009AB23B6A9BB213449AB2BB689BB213443B
:102DF0009BB27A6891B23A6BD2B21846FFF776F876
:102E00003B6A01333B623B6A072BC2DDFB6901333E
:102E1000FB61FB7B0D4A52F83320FB699A42B5DC1B
:102E20007B6801337B60FB7B084A52F83330BA6918
:102E30001344BB617B6A01337B62BA697B699A4246
:102E4000A1DB002318462837BD4680BD905A0008F4
:102E5000584D000880B58AB002AFF860B9607A605A
:102E60003B600023BB61BB687B617B683B61FB68A7
:102E700018787B6B00933B683A697969FFF762FFCA
:102E8000B8610123FB614AE0FB69013BFA68134426
:102E90001B78203B284A52F83330DA007B691A4409
:102EA0003B69143339697869FFF7BCFEB861BB69C7
:102EB000012B10D13B6914333B61FB69013BFA687C
:102EC00013441B78203B1C4A52F83330DB00BA68AD
:102ED000D31A7B6104E0BB69022B01D1BB6926E0F8
:102EE000FB69FA6813441878FB69013BFA681344DC
:102EF0001B78203B104A52F83330DB007A691344C8
:102F00007B617B6B00933B683A697969FFF71AFF35
:102F10000246BB691344BB61FB690133FB61F8687E
:102F200001F02EFC0246FB699A42ADD8BB691846F7
:102F30002037BD4680BD00BF905A000880B588B0DC
:102F400000AFF860B9607A603B607B681B781A4616
:102F50007B6801331B781B021A437B6802331B78A2
:102F60001B041A437B6803331B781946202301FA9C
:102F700003F313437B617B6804331B781A467B6839
:102F800005331B781B021A437B6806331B781B042E
:102F90001A437B6807331B781946202301FA03F391
:102FA00013433B610023BB6151E00023FB6147E019
:102FB000BB697A6902FB03F2FB69134408337A6840
:102FC00013441B78FF2B1CD03B68002B19D1FB68E6
:102FD0009AB2FB699BB2134498B2BB689AB2BB69C0
:102FE0009BB2134499B2BB697A6902FB03F2FB6995
:102FF000134408337A6813441B781A46FEF776FFA9
:103000001BE03B68012B18D1FB689AB2FB699BB2AD
:10301000134498B2BB689AB2BB699BB2134499B28D
:10302000BB697A6902FB03F2FB69134408337A68CF
:1030300013441B781A46FEF759FFFB690133FB6105
:10304000FA697B699A42B3D3BB690133BB61BA6940
:103050003B699A42A9D300BF2037BD4680BD00BF5F
:1030600080B582B000AF78607B68DBB21846FEF7AF
:103070001BFF00BF0837BD4680BD00BF90B58BB0B9
:1030800000AFF860B9607A603B607A68FB68D31A79
:10309000184601F01FF80346BB613A68BB68D31AB3
:1030A000184601F017F803467B61B969786901F0A9
:1030B00019F903463B61FB6BDA0F13445B10FB61AC
:1030C0000BE13B6923F000434FF07E51184601F0BD
:1030D000FDF90346002B77D0FA687B689A4238DA0C
:1030E000FB687B6230E07A6AFB68D31A184600F00E
:1030F000F1FF03463969184601F040F803461C46C3
:10310000B86800F0E7FF03461946204600F02EFF9E
:1031100003461C46F86900F0DDFF034619462046C9
:1031200000F024FF0346184601F0EEF903463B6227
:103130007B6A9BB23A6A91B297F838201846FEF73C
:10314000D5FE7B6A01337B627A6A7B689A42CADB6E
:10315000BDE07B687B6232E07A6AFB68D31A18466E
:1031600000F0B8FF03463969184601F007F8034636
:103170001C46B86800F0AEFF03461946204600F032
:10318000F5FE03461C46F86900F0A4FF0346194605
:10319000204600F0EBFE0346184601F0B5F9034661
:1031A0003B627B6A98B23B6A9BB2013B9BB297F849
:1031B00038201946FEF79AFE7B6A01337B627A6AF1
:1031C000FB689A42C8DB82E0BA683B689A423FDA01
:1031D000BB683B6237E039694FF07E5001F082F8FE
:1031E00003461C463A6ABB68D31A184600F072FFC1
:1031F00003461946204600F0C1FF03461C46F86806
:1032000000F068FF03461946204600F0AFFE034673
:103210001C46F86900F05EFF03461946204600F0A0
:10322000A5FE0346184601F06FF903467B627B6AF0
:103230009BB23A6A91B297F838201846FEF756FECC
:103240003B6A01333B623A6A3B689A42C3DB3EE029
:103250003B683B6237E039694FF07E5001F042F83D
:1032600003461C463A6ABB68D31A184600F032FF80
:1032700003461946204600F081FF03461C46F868C5
:1032800000F028FF03461946204600F06FFE034673
:103290001C46F86900F01EFF03461946204600F060
:1032A00065FE0346184601F02FF903467B627B6AF0
:1032B0009BB23A6A91B297F838201846FEF716FE8C
:1032C0003B6A01333B623A6ABB689A42C3DBFB69E3
:1032D000013BFB61FB6B013BFB63FB6B002B3FF78F
:1032E000F0AE002318462C37BD4690BD80B586B0A1
:1032F00002AFF860B9607A603B607A68FB6813449B
:103300007B603A68BB6813443B60FB69002B3CD090
:10331000012B3FD1BB69DBB2012201920093BB6854
:103320007A68B968F868FFF7A9FEBB69DBB20122C9
:10333000019200933B68FA68B968F868FFF79EFE4F
:10334000BB69DBB2012201920093BB687A683968DD
:103350007868FFF793FEBB69DBB20122019200930C
:103360003B68FA6839687868FFF788FE14E0BB6943
:10337000DBB2012201920093BB687A68B968F868F1
:10338000FFF77CFEBB680133BB60BA683B689A42BA
:10339000EDDB01E0012300E0002318461037BD46B5
:1033A00080BD00BF0000000090B585B000AF3B4677
:1033B0001846FEF7B5F83B683F4A13603E4B1B6862
:1033C000184600F025FB4FF000023C4B00F096FB46
:1033D00003460C46184621464FF00002384B00F0D9
:1033E000B7FC03460C46184621464FF000024FF04A
:1033F000804300F0ADFC03460C461846214600F021
:103400008FFD02462F4B1A602B4B1B68184600F0AD
:10341000FFFA4FF00002294B00F070FB03460C4608
:103420001846214620A3D3E9002300F091FC03466F
:103430000C46184621464FF000024FF0804300F042
:1034400087FC03460C461846214600F069FD0246FB
:103450001D4B1A60184B1B68184600F0D9FA4FF044
:103460000002164B00F04AFB03460C461846214664
:103470000FA3D3E9002300F06BFC03460C4618466B
:1034800021464FF000024FF0804300F061FC0346FC
:103490000C461846214600F043FD02460B4B1A60CD
:1034A00000BF1437BD4690BD000000000094C1402D
:1034B00000000000882A6141385601200000F43FD6
:1034C000000022403C560120445601204056012075
:1034D00080B485B000AF78600DE00023FB6002E0AF
:1034E000FB680133FB60FA68074B1B689A42F7D30D
:1034F0007B68013B7B607B68002BEED100BF1437FB
:10350000BD4680BC704700BF4456012080B586B0E0
:1035100000AF01214FF40030FEF7CAF8012101206D
:10352000FEF7A8F80C233B6102233B750023BB7513
:103530000123FB7502237B7507F11003194616481A
:10354000FEF7F2F8072202211348FEF77BF9072263
:1035500003211148FEF776F94FF4E1333B60002375
:10356000BB800023FB8000233B810023BB810C2315
:103570007B813B4619460948FDF77CF8012240F261
:1035800025510648FDF762F901210448FDF72CF9A1
:1035900000BF1837BD4680BD000002400044004017
:1035A00080B582B000AF0346FB7100BF80210848A0
:1035B000FDF794F90346002BF8D0FB799BB219462E
:1035C0000348FDF731F900BF0837BD4680BD00BF95
:1035D0000044004080B584B000AF78600023FB60F9
:1035E00009E0FB687A6813441B781846FFF7D8FF98
:1035F000FB680133FB60FB687A6813441B78002B7F
:10360000EFD100BF1037BD4680BD00BF80B582B08E
:1036100000AF26233B7101237B710123BB71012382
:10362000FB713B1D1846FEF739FE00BF0837BD464B
:1036300080BD00BF80B582B000AF40F225511D486B
:10364000FDF768F90346002B30D040F225511948A8
:10365000FDF7BAF9174B9B889BB2FB71FB79082BDE
:1036600009D1154B1B68002B13DD134B1B68013B65
:10367000114A13600DE0104B1B68632B09D80E4BE9
:103680001B680E49FA79CA540B4B1B6801330A4A6E
:103690001360094B1B68094A0021D15400BF402127
:1036A0000448FDF71BF90346002BF8D000BF08378C
:1036B000BD4680BD00440040382900204856012006
:1036C00080B582B000AF78600A21786800F004F815
:1036D00000BF0837BD4680BD80B588B000AF7860B8
:1036E0000B46FB700F23FB617B68002B29D107F190
:1036F0000802FB69134430221A70FB69013BFB612D
:1037000039E0FA787B68B3FBF2F102FB01F29B1A15
:10371000BB61FB787A68B2FBF3F37B60194ABB6943
:1037200013441B7859B207F10802FB6913440A4697
:103730001A70FB69013BFB61FB69002B01D100237F
:103740007B607B68002BDCD115E0FB690133FB61FA
:1037500000BF80210C48FDF7C1F80346002BF8D0CC
:1037600007F10802FB69134493F900309BB2194634
:103770000548FDF759F8FB690E2BE6DD00BF203741
:10378000BD4680BDF82400200044004081F0004187
:1037900002E000BF83F0004330B54FEA41044FEA36
:1037A000430594EA050F08BF90EA020F1FBF54EAD1
:1037B000000C55EA020C7FEA645C7FEA655C00F06D
:1037C000E2804FEA5454D4EB5555B8BF6D420CDD3E
:1037D0002C4480EA020281EA030382EA000083EAC1
:1037E000010180EA020281EA0303362D88BF30BD61
:1037F00011F0004F4FEA01314FF4801C4CEA1131B7
:1038000002D0404261EB410113F0004F4FEA033315
:103810004CEA133302D0524263EB430394EA050FA0
:1038200000F0A780A4F10104D5F1200E0DDB02FA0F
:103830000EFC22FA05F2801841F1000103FA0EF2A3
:10384000801843FA05F359410EE0A5F120050EF169
:10385000200E012A03FA0EFC28BF4CF0020C43FA9A
:1038600005F3C01851EBE37101F0004507D54FF0A7
:10387000000EDCF1000C7EEB00006EEB0101B1F5F7
:10388000801F1BD3B1F5001F0CD349085FEA30003D
:103890004FEA3C0C04F101044FEA445212F5800F48
:1038A00080F09A80BCF1004F08BF5FEA500C50F1E5
:1038B000000041EB045141EA050130BD5FEA4C0CC8
:1038C000404141EB010111F4801FA4F10104E9D151
:1038D00091F0000F04BF01460020B1FA81F308BF48
:1038E0002033A3F10B03B3F120020CDA0C3208DD14
:1038F00002F1140CC2F10C0201FA0CF021FA02F1EF
:103900000CE002F11402D8BFC2F1200C01FA02F15E
:1039100020FA0CFCDCBF41EA0C019040E41AA2BF83
:1039200001EB0451294330BD6FEA04041F3C1CDA4B
:103930000C340EDC04F11404C4F1200220FA04F06B
:1039400001FA02F340EA030021FA04F345EA030115
:1039500030BDC4F10C04C4F1200220FA02F001FAD7
:1039600004F340EA0300294630BD21FA04F0294659
:1039700030BD94F0000F83F4801306BF81F48011F2
:103980000134013D4EE77FEA645C18BF7FEA655C65
:1039900029D094EA050F08BF90EA020F05D054EA37
:1039A000000C04BF1946104630BD91EA030F1EBF3C
:1039B0000021002030BD5FEA545C05D14000494140
:1039C00028BF41F0004130BD14F580043CBF01F533
:1039D000801130BD01F0004545F0FE4141F4700119
:1039E0004FF0000030BD7FEA645C1ABF19461046F4
:1039F0007FEA655C1CBF0B46024650EA013406BFF5
:103A000052EA033591EA030F41F4002130BD00BFB3
:103A100090F0000F04BF0021704730B54FF4806470
:103A200004F132044FF000054FF0000150E700BFF1
:103A300090F0000F04BF0021704730B54FF4806450
:103A400004F1320410F0004548BF40424FF000013D
:103A50003EE700BF42004FEAE2014FEA31014FEA80
:103A600002701FBF12F07F4393F07F4F81F06051CF
:103A7000704792F0000F14BF93F07F4F704730B53E
:103A80004FF4607401F0004521F0004120E700BFD1
:103A900050EA010208BF704730B54FF000050AE058
:103AA00050EA010208BF704730B511F0004502D559
:103AB000404261EB41014FF4806404F132045FEA5B
:103AC000915C3FF4DCAE4FF003025FEADC0C18BF00
:103AD00003325FEADC0C18BF033202EBDC02C2F1F6
:103AE000200300FA03FC20FA02F001FA03FE40EA88
:103AF0000E0021FA02F11444C1E600BF70B54FF088
:103B0000FF0C4CF4E06C1CEA11541DBF1CEA135569
:103B100094EA0C0F95EA0C0F00F0DEF82C4481EAD1
:103B2000030621EA4C5123EA4C5350EA013518BFF1
:103B300052EA033541F4801143F4801338D0A0FBDE
:103B400002CE4FF00005E1FB02E506F00042E0FB8B
:103B500003E54FF00006E1FB03569CF0000F18BF91
:103B60004EF0010EA4F1FF04B6F5007F64F5407439
:103B700004D25FEA4E0E6D4146EB060642EAC621CC
:103B800041EA55514FEAC52040EA5E504FEACE2E39
:103B9000B4F1FD0C88BFBCF5E06F1ED8BEF1004F3C
:103BA00008BF5FEA500E50F1000041EB045170BDB8
:103BB00006F0004646EA010140EA020081EA0301FC
:103BC000B4EB5C04C2BFD4EB0C0541EA045170BDF8
:103BD00041F480114FF0000E013C00F3AB8014F172
:103BE000360FDEBF002001F0004170BDC4F10004BB
:103BF000203C35DA0C341BDC04F11404C4F120053C
:103C000000FA05F320FA04F001FA05F240EA020096
:103C100001F0004221F0004110EBD37021FA04F6CC
:103C200042EB06015EEA430E08BF20EAD37070BD86
:103C3000C4F10C04C4F1200500FA04F320FA05F0E5
:103C400001FA04F240EA020001F0004110EBD370E7
:103C500041F100015EEA430E08BF20EAD37070BD57
:103C6000C4F1200500FA05F24EEA020E20FA04F330
:103C700001FA05F243EA020321FA04F001F00041DF
:103C800021FA04F220EA020000EBD3705EEA430E50
:103C900008BF20EAD37070BD94F0000F0FD101F07F
:103CA0000046400041EB010111F4801F08BF013CB8
:103CB000F7D041EA060195F0000F18BF704703F0F6
:103CC0000046520043EB030313F4801F08BF013D7D
:103CD000F7D043EA0603704794EA0C0F0CEA135539
:103CE00018BF95EA0C0F0CD050EA410618BF52EAF3
:103CF0004306D1D181EA030101F000414FF00000F9
:103D000070BD50EA410606BF1046194652EA430606
:103D100019D094EA0C0F02D150EA013613D195EA7A
:103D20000C0F05D152EA03361CBF104619460AD1C2
:103D300081EA030101F0004141F0FE4141F47001CC
:103D40004FF0000070BD41F0FE4141F4780170BDBC
:103D500070B54FF0FF0C4CF4E06C1CEA11541DBF21
:103D60001CEA135594EA0C0F95EA0C0F00F0A7F823
:103D7000A4EB050481EA030E52EA03354FEA013150
:103D800000F088804FEA03334FF0805545EA131363
:103D900043EA12634FEA022245EA111545EA10652B
:103DA0004FEA00260EF000419D4208BF964244F1C2
:103DB000FD0404F5407402D25B084FEA3202B61AE1
:103DC00065EB03055B084FEA32024FF480104FF4B5
:103DD000002CB6EB020E75EB030E22BFB61A754629
:103DE00040EA0C005B084FEA3202B6EB020E75EBBC
:103DF000030E22BFB61A754640EA5C005B084FEA24
:103E00003202B6EB020E75EB030E22BFB61A7546F0
:103E100040EA9C005B084FEA3202B6EB020E75EBFB
:103E2000030E22BFB61A754640EADC0055EA060EBC
:103E300018D04FEA051545EA16754FEA06164FEAFF
:103E4000C30343EA52734FEAC2025FEA1C1CC0D1AB
:103E500011F4801F0BD141EA00014FF000004FF038
:103E6000004CB6E711F4801F04BF01430020B4F1F9
:103E7000FD0C88BFBCF5E06F3FF6AFAEB5EB030CB1
:103E800004BFB6EB020C5FEA500C50F1000041EBAE
:103E9000045170BD0EF0004E4EEA113114EB5C047B
:103EA000C2BFD4EB0C0541EA045170BD41F480114E
:103EB0004FF0000E013C90E645EA060E8DE60CEA56
:103EC000135594EA0C0F08BF95EA0C0F3FF43BAF73
:103ED00094EA0C0F0AD150EA01347FF434AF95EA2A
:103EE0000C0F7FF425AF104619462CE795EA0C0F0E
:103EF00006D152EA03353FF4FDAE1046194622E7DB
:103F000050EA410618BF52EA43067FF4C5AE50EAB4
:103F100041047FF40DAF52EA43057FF4EBAE12E7A4
:103F20004A0011D212F5001211D20DD56FF4787338
:103F3000B3EB62520ED44FEAC12343F0004343EA8D
:103F4000505323FA02F070474FF00000704750EAD8
:103F5000013002D14FF0FF3070474FF00000704742
:103F600080F0004002E000BF81F0004142001FBF2E
:103F70005FEA410392EA030F7FEA226C7FEA236C37
:103F80006AD04FEA1262D2EB1363C1BFD21841402C
:103F900048404140B8BF5B42192B88BF704710F0C2
:103FA000004F40F4000020F07F4018BF404211F065
:103FB000004F41F4000121F07F4118BF494292EACD
:103FC000030F3FD0A2F1010241FA03FC10EB0C00F9
:103FD000C3F1200301FA03F100F0004302D5494286
:103FE00060EB4000B0F5000F13D3B0F1807F06D333
:103FF00040084FEA310102F10102FE2A51D2B1F12B
:10400000004F40EBC25008BF20F0010040EA03001F
:104010007047490040EB000010F4000FA2F10102CC
:10402000EDD1B0FA80FCACF1080CB2EB0C0200FA56
:104030000CF0AABF00EBC25052421843BCBFD040A4
:104040001843704792F0000F81F4000106BF80F41E
:1040500000000132013BB5E74FEA41037FEA226CE1
:1040600018BF7FEA236C21D092EA030F04D092F0AC
:10407000000F08BF0846704790EA010F1CBF0020E0
:10408000704712F07F4F04D1400028BF40F000403D
:10409000704712F100723CBF00F50000704700F05D
:1040A000004343F0FE4040F4000070477FEA226284
:1040B00016BF08467FEA23630146420206BF5FEA55
:1040C000412390EA010F40F4800070474FF0000355
:1040D00004E000BF10F0004348BF40425FEA000C1C
:1040E00008BF704743F0964301464FF000001CE0C4
:1040F00050EA010208BF70474FF000030AE000BF1A
:1041000050EA010208BF704711F0004302D5404257
:1041100061EB41015FEA010C02BF844601460020C9
:1041200043F0B64308BFA3F18053A3F50003BCFAE4
:104130008CF2083AA3EBC25310DB01FA02FC634491
:1041400000FA02FCC2F12002BCF1004F20FA02F298
:1041500043EB020008BF20F00100704702F120028B
:1041600001FA02FCC2F1200250EA4C0021FA02F2EC
:1041700043EB020008BF20EADC7070474FF0FF0CF1
:104180001CEAD0521EBF1CEAD15392EA0C0F93EAEC
:104190000C0F6FD01A4480EA010C400218BF5FEA8E
:1041A00041211ED04FF0006343EA501043EA511101
:1041B000A0FB01310CF00040B1F5000F3EBF4900FB
:1041C00041EAD3715B0040EA010062F17F02FD2AFF
:1041D0001DD8B3F1004F40EBC25008BF20F00100E2
:1041E000704790F0000F0CF0004C08BF49024CEAF9
:1041F000502040EA51207F3AC2BFD2F1FF0340EA8B
:10420000C250704740F400004FF00003013A5DDCFB
:1042100012F1190FDCBF00F000407047C2F100023C
:10422000410021FA02F1C2F1200200FA02FC5FEA29
:10423000310040F1000053EA4C0308BF20EADC7073
:10424000704792F0000F00F0004C02BF400010F4E5
:10425000000F013AF9D040EA0C0093F0000F01F092
:10426000004C02BF490011F4000F013BF9D041EAB4
:104270000C018FE70CEAD15392EA0C0F18BF93EAB6
:104280000C0F0AD030F0004C18BF31F0004CD8D1E0
:1042900080EA010000F00040704790F0000F17BF67
:1042A00090F0004F084691F0000F91F0004F14D0AD
:1042B00092EA0C0F01D142020FD193EA0C0F03D105
:1042C0004B0218BF084608D180EA010000F0004008
:1042D00040F0FE4040F40000704740F0FE4040F4E3
:1042E000400070474FF0FF0C1CEAD0521EBF1CEA82
:1042F000D15392EA0C0F93EA0C0F69D0A2EB0302A0
:1043000080EA010C49024FEA402037D04FF0805339
:1043100043EA111143EA10130CF000408B4238BFFE
:104320005B0042F17D024FF4000C8B4224BF5B1A0C
:1043300040EA0C00B3EB510F24BFA3EB510340EA5A
:104340005C00B3EB910F24BFA3EB910340EA9C0008
:10435000B3EBD10F24BFA3EBD10340EADC001B0178
:1043600018BF5FEA1C1CE0D1FD2A3FF650AF8B421C
:1043700040EBC25008BF20F0010070470CF0004C29
:104380004CEA50207F32C2BFD2F1FF0340EAC25054
:10439000704740F400004FF00003013A37E792F015
:1043A000000F00F0004C02BF400010F4000F013A73
:1043B000F9D040EA0C0093F0000F01F0004C02BF6E
:1043C000490011F4000F013BF9D041EA0C0195E7D7
:1043D0000CEAD15392EA0C0F08D142027FF47DAF70
:1043E00093EA0C0F7FF470AF084676E793EA0C0F60
:1043F00004D14B023FF44CAF08466EE730F0004C5E
:1044000018BF31F0004CCAD130F000427FF45CAFED
:1044100031F000437FF43CAF5FE700BF4FF0FF3C5B
:1044200006E000BF4FF0010C02E000BF4FF0010CAE
:104430004DF804CD4FEA40024FEA41037FEA226C77
:1044400018BF7FEA236C11D001B052EA530C18BF99
:1044500090EA010F58BFB2EB030088BFC81738BFFE
:104460006FEAE17018BF40F0010070477FEA226CEC
:1044700002D15FEA402C05D17FEA236CE4D15FEAE8
:10448000412CE1D05DF8040B704700BF844608461C
:104490006146FFE70FB5FFF7C9FF002848BF10F1DD
:1044A000000F0FBD4DF808EDFFF7F4FF0CBF012022
:1044B00000205DF808FB00BF4DF808EDFFF7EAFFAC
:1044C00034BF012000205DF808FB00BF4DF808ED67
:1044D000FFF7E0FF94BF012000205DF808FB00BF5C
:1044E0004DF808EDFFF7D2FF94BF012000205DF8E2
:1044F00008FB00BF4DF808EDFFF7C8FF34BF0120EF
:1045000000205DF808FB00BF4FEA4002B2F1FE4F09
:104510000FD34FF09E03B3EB12620DD94FEA002385
:1045200043F0004310F0004F23FA02F018BF40425E
:1045300070474FF00000704712F1610F01D1420245
:1045400005D110F0004008BF6FF0004070474FF0F9
:10455000000070470A22002100F064BA844641EA54
:10456000000313F003036DD1403A41D351F8043BEB
:1045700040F8043B51F8043B40F8043B51F8043B3D
:1045800040F8043B51F8043B40F8043B51F8043B2D
:1045900040F8043B51F8043B40F8043B51F8043B1D
:1045A00040F8043B51F8043B40F8043B51F8043B0D
:1045B00040F8043B51F8043B40F8043B51F8043BFD
:1045C00040F8043B51F8043B40F8043B51F8043BED
:1045D00040F8043B51F8043B40F8043B51F8043BDD
:1045E00040F8043B51F8043B40F8043B403ABDD24C
:1045F000303211D351F8043B40F8043B51F8043BEE
:1046000040F8043B51F8043B40F8043B51F8043BAC
:1046100040F8043B103AEDD20C3205D351F8043B7C
:1046200040F8043B043AF9D2043208D0D2071CBF48
:1046300011F8013B00F8013B01D30B880380604671
:10464000704700BF082A13D38B078DD010F00303E7
:104650008AD0C3F10403D21ADB071CBF11F8013B57
:1046600000F8013B80D331F8023B20F8023B7BE7A6
:10467000043AD9D3013A11F8013B00F8013BF9D2D1
:104680000B7803704B7843708B788370604670476B
:1046900080EA0102844612F0030F4FD111F0030F9C
:1046A00032D14DF8044D11F0040F51F8043B0BD0FA
:1046B000A3F101329A4312F0803F04BF4CF8043B4F
:1046C00051F8043B16D100BF51F8044BA3F101325D
:1046D0009A4312F0803FA4F101320BD14CF8043B15
:1046E000A24312F0803F04BF51F8043B4CF8044B46
:1046F000EAD023460CF8013B13F0FF0F4FEA3323B7
:10470000F8D15DF8044B704711F0010F06D011F895
:10471000012B0CF8012B002A08BF704711F0020F83
:10472000BFD031F8022B12F0FF0F16BF2CF8022B6E
:104730008CF8002012F47F4FB3D1704711F8012B91
:104740000CF8012B002AF9D1704700BF00000000CF
:104750000000000000000000000000000000000059
:104760000000000000000000000000000000000049
:104770000000000000000000000000000000000039
:1047800090F800F06DE9024520F007016FF0000C91
:1047900010F0070491F820F040F049804FF0000439
:1047A0006FF00700D1E9002391F840F000F1080014
:1047B00082FA4CF2A4FA8CF283FA4CF3A2FA8CF34C
:1047C0004BBBD1E9022382FA4CF200F10800A4FAB3
:1047D0008CF283FA4CF3A2FA8CF3E3B9D1E9042307
:1047E00082FA4CF200F10800A4FA8CF283FA4CF33E
:1047F000A2FA8CF37BB9D1E9062301F1200182FAF8
:104800004CF200F10800A4FA8CF283FA4CF3A2FAFD
:104810008CF3002BC6D0002A04BF04301A4612BA0B
:10482000B2FA82F2FDE8024500EBD2007047D1E90E
:10483000002304F00305C4F100004FEAC50514F09D
:10484000040F91F840F00CFA05F562EA05021CBF6E
:1048500063EA050362464FF00004A9E7002A41D04D
:1048600040EA010313F00303F0B425D1032A23D94E
:1048700004680D68AC421FD1043A35D0A4F101356B
:1048800025EA040414F0803F31D1071D0D1D0DE011
:1048900057F8043B0E68A3F10134B34224EA030441
:1048A0000AD1043A20D014F0803F23D1032A2946AC
:1048B000384605F10405EBD803780C789C4202F1E8
:1048C000FF320CD182B114B916E06AB17BB110F895
:1048D000013F11F8014FA34202F1FF32F5D0181B3E
:1048E000F0BC7047104670471046F0BC7047184641
:1048F000F0BC70470020F3E72046F1E72DE9F04FC8
:10490000474C83460E46D4F800E000E02646344685
:1049100014F8015B0EEB0500407800F0080000F091
:10492000FF080028F2D12D2D5CD02B2D04BF757807
:10493000B41C002B3ED0102B60D09A46B8F1000F6B
:104940000CBF6FF000404FF000400027B0FBFAF9B9
:10495000BC460AFB19000CE0303DAB4219DD7E1C61
:1049600005D0CC4523D820D00AFB0C5C012714F8D5
:10497000015B0EEB0506767816F0040FECD116F00D
:10498000030606D0012E14BF57263726AD1BAB42B7
:10499000E5DC7B1C16D0B8F1000F10D16046002A70
:1049A00039D0DFB91160BDE8F08F8542DCDD4FF012
:1049B000FF37DCE7302D1AD00A239A46BEE7CCF148
:1049C000000CEBE7B8F1000F4FF022030CBF6FF0C3
:1049D00000404FF00040CBF80030F2B1611E116092
:1049E000BDE8F08FB41C75784FF00108A1E723787B
:1049F00003F0DF03582B08D008239EE7302D9CD10D
:104A0000207800F0DF00582897D14FF0100A657821
:104A10005346023492E7BDE8F08FBDE8F08F00BF47
:104A20003429002010B4044C13460A46014620687D
:104A300010BCFFF763BF00BF302900200A0D45728C
:104A4000726F723A200A0D0009582056414C5545A4
:104A5000204F56455253495A4544210A0D4572721A
:104A60006F72636F64653A20000000000959205698
:104A7000414C5545204F56455253495A4544210A09
:104A80000D4572726F72636F64653A20000000001A
:104A900009424F5448205820414E44205920564145
:104AA0004C5545204F56455253495A4544210A0D0D
:104AB0004572726F72636F64653A200009494E5007
:104AC000555420554E5245434F474E495A4544216F
:104AD0000A0D4572726F72636F64653A20000000C0
:104AE00009494E50555420454D505459210A0D4501
:104AF00072726F72636F64653A20000009544F2030
:104B00004D55434820504152414D45544552532143
:104B10002047495645204D45204C4553530A0D45E5
:104B200072726F72636F64653A20000009544F20FF
:104B30004C4954544C4520504152414D45544552E6
:104B400053212047495645204D45204D4F52450A97
:104B50000D4572726F72636F64653A200000000049
:104B600009554E4B4F574E204552524F52434F44DA
:104B700045210A0D4572726F72636F64653A203089
:104B8000780000000A0D000057454C4B4F4D204D5A
:104B9000494A4E20434F4445203A440A0D00000044
:104BA0004C494A4E000000005245434854484F4586
:104BB0004B0000004249544D41500000434C4541D8
:104BC0005253434845524D0057414348540000005A
:104BD00054454B5354000000464947555552000078
:104BE0004E4C2D464C41470049542D464C41470000
:104BF000544F52454E00000047524F454E000000B2
:104C0000000000000000004C4943485447524F4503
:104C10004E0000000000524F4F4400000000000012
:104C200000000000004C49434854524F4F440000DC
:104C300000000000424C41555700000000000000F9
:104C40000000004C49434854424C41555700000075
:104C5000000044454550534B59424C554500000017
:104C600000435941414E00000000000000000000D8
:104C70004C49434854435941414E00000000004D07
:104C80004147454E544100000000000000004C49DF
:104C90004348544D4147454E544100000047454567
:104CA0004C00000000000000000000004252554986
:104CB0004E000000000000000000004752494A5327
:104CC000000000000000000000005A57415254004C
:104CD00000000000000000000057495400000000E0
:104CE0000000000000000000524F5A450000000084
:104CF000000000000000005041415253000000003D
:104D00000000000000000000100000001C00000077
:104D1000E0000000ED00000003000000BB00000008
:104D2000170000001F000000EF000000E30000007B
:104D3000F3000000FC000000A4000000920000004E
:104D400000000000FF000000EE00000082000000F4
:104D5000200000000A0D000000000000000000001C
:104D60000000000000000000000000000000C0C0C3
:104D7000C0C0C0C0C0C0C0C0C00000C0C0000000F3
:104D8000000000CCCCCCCCCC000000000000000027
:104D90000000000000000000000C600C600CE01837
:104DA000C0FFF0FFF018C031803180FFF0FFF0311C
:104DB000807300630063000000000000000000003A
:104DC0000008003E007F00EB80C980C800E8007C3E
:104DD000001F000B8009800980C980EB807F003EA6
:104DE0000008000800000000000000000000380C6F
:104DF000006C1800C61800C63000C63000C660003F
:104E00006CC00038CE00019B0001B18003318003EB
:104E100031800631800C1B000C0E000000000000E9
:104E20000000000000000000000000000F001F80D4
:104E300030C030C031801B001E003E006730C3B060
:104E4000C1E0C0C0E1E07FB03E1000000000000003
:104E50000000000000C0C0C0C0C000000000000092
:104E6000000000000000000000000810302060601A
:104E7000C0C0C0C0C0C0C06060203010080000804A
:104E8000406020303018181818181818303020607A
:104E9000408000001818FF183C6600000000000069
:104EA0000000000000000000000000000000000002
:104EB0000C000C000C000C00FFC0FFC00C000C002C
:104EC0000C000C00000000000000000000000000CA
:104ED00000000000000000000000000000000000D2
:104EE000C0C0404080000000000000000000000042
:104EF000FCFC0000000000000000000000000000BA
:104F000000000000000000000000C0C00000000021
:104F100000000C0C1818181830303060606060C049
:104F2000C0000000000000003E007F806180C0C023
:104F3000C0C0C0C0C0C0C0C0C0C0C0C0C0C0C0C071
:104F400061807F801F000000000000000000000062
:104F5000000C0C3C7CCC0C0C0C0C0C0C0C0C0C0C3D
:104F6000000000000000003F007F80E1C0C0C000E2
:104F7000C000C00180018003000E001C00300060F2
:104F800000FFC0FFC00000000000000000000000A3
:104F9000003E007F00E380C180018003000E000F0F
:104FA0008001C000C000C0C0C0E1807F803E000022
:104FB00000000000000000000000000100030007E6
:104FC000000F001B001B0033006300C300FFC0FF85
:104FD000C003000300030003000000000000000005
:104FE00000000000003F803F806000600060006FB4
:104FF00000FF80C1C000C000C000C0C0C0E1807F11
:10500000803E000000000000000000000000001FC3
:10501000003F8061C060C0C000CF00FF80E1C0C021
:10502000C0C0C0C0C0C0C061803F801E0000000082
:10503000000000000000000000FFC0FFC00180036E
:10504000000300060006000C000C001800180018F1
:1050500000300030003000000000000000000000C0
:105060000000001E003F0061806180618061803F20
:10507000003F006180C0C0C0C0C0C0E1C07F803FB1
:10508000000000000000000000000000001E007F83
:10509000006180C0C0C0C0C0C0C0C061C07FC03C93
:1050A000C000C0C180E1807F003E00000000000021
:1050B00000000000000000000000C0C00000000070
:1050C000000000C0C000000000000000000000C0A0
:1050D000C000000000000000C0C040408000000090
:1050E0000000000000004001C007801E007000C0EA
:1050F0000070001E00078001C0004000000000009A
:10510000000000000000000000000000000000009F
:10511000000000FFC0FFC0000000000000FFC0FF53
:10512000C0000000000000000000000000000000BF
:105130000000000000000000008000E00078001E79
:1051400000038000C003801E007800E000800000A3
:105150000000000000000000000000000000003F10
:10516000007F80E1C0C0C000C00180038007000E46
:10517000000C000C00000000000C000C00000000FF
:105180000000000000000000000001FC000FFF0014
:105190001E07803801C030E6C063F6E0671C60C6B9
:1051A0000C60CC0C60CC0C60CC08E0CC18C0CE39C4
:1051B0008067FF0073DE603800C01E03800FFF00B1
:1051C00003FC000000000000070007000D800D80B8
:1051D0000D8018C018C018C03FE03FE0603060305C
:1051E0006030C018C018000000000000000000007F
:1051F0000000FF00FF80C1C0C0C0C0C0C1C0FF80B0
:10520000FF80C0C0C060C060C060C0E0FFC0FF8061
:105210000000000000000000000000000FC03FE0A0
:1052200038706038E018C000C000C000C000C00086
:10523000E018603078703FE00FC000000000000010
:10524000000000000000FF00FFC0C0E0C060C030F0
:10525000C030C030C030C030C030C030C060C0E0EE
:10526000FFC0FF0000000000000000000000000080
:10527000FFE0FFE0C000C000C000C000FFC0FFC0F2
:10528000C000C000C000C000C000FFE0FFE00000A0
:1052900000000000000000000000FFC0FFC0C000D0
:1052A000C000C000C000FF80FF80C000C000C00080
:1052B000C000C000C000C0000000000000000000EE
:1052C000000000000FE01FF03838601C6008C000CC
:1052D000C000C1FCC1FCC00C600C600C383C1FF865
:1052E00007E0000000000000000000000000C030E7
:1052F000C030C030C030C030C030FFF0FFF0C03030
:10530000C030C030C030C030C030C03000000000FD
:1053100000000000000000C0C0C0C0C0C0C0C0C0CD
:10532000C0C0C0C0C0C000000000000003030303F1
:10533000030303030303C3C3E77E3C000000000034
:105340000000C0E0C1C0C380C700CE00DC00DC00AC
:10535000FC00EE00C700C380C180C1C0C0E0C070C7
:10536000000000000000000000000000C000C000BD
:10537000C000C000C000C000C000C000C000C0002D
:10538000C000C000C000FF80FF80000000000000DF
:10539000000000000000E00EF01EF01ED016D8360F
:1053A000D836C826CC66CC66C446C6C6C6C6C28633
:1053B000C386C3860000000000000000000000005B
:1053C000C030E030F030F030D830CC30CC30C630A7
:1053D000C330C330C1B0C0F0C0F0C070C0300000F6
:1053E000000000000000000000000FC01FE0387047
:1053F0006018E01CC00CC00CC00CC00CC00CE01C41
:10540000601838701FE00FC00000000000000000AE
:1054100000000000FF80FFC0C0E0C060C060C0604E
:10542000C0E0FFC0FF80C000C000C000C000C000DE
:10543000C0000000000000000000000000000FC0DD
:105440001FF038786018E01CC00CC00CC00CC00CF9
:10545000C00CE01861D838701FF80FDC00040000A1
:105460000000000000000000FF80FFC0C0E0C0603E
:10547000C060C0E0FFC0FF80C300C380C180C1C066
:10548000C0E0C060C070000000000000000000002C
:1054900000000F803FE070706030600070003F00DF
:1054A0000FC000E00030C030E03070703FE01F807F
:1054B000000000000000000000000000FFF0FFF00E
:1054C00006000600060006000600060006000600AC
:1054D00006000600060006000600000000000000AE
:1054E000000000000000C030C030C030C030C0300C
:1054F000C030C030C030C030C030C030E07070E06C
:105500003FC01F80000000000000000000000000FD
:10551000C018E0386030603070703060306038E063
:1055200018C018C01DC00D800D800F80070000003E
:105530000000000000000000000000C07018C070F3
:105540001860D83060D83060D83070C870318C6046
:10555000318C60318C601B06C01B06C01B06C01B53
:1055600006C00E03800E0380000000000000000053
:105570000000000000000000007038387018600C57
:10558000C00CC007800300078007800DC01CE01816
:105590006030307038E01C000000000000000000A7
:1055A000000000E01C6018303038701CE00CC007B0
:1055B00080078003000300030003000300030003CF
:1055C000000000000000000000000000007FF07FED
:1055D000F0006000C001800180030006000C00188C
:1055E00000180030006000FFF0FFF0000000000035
:1055F000000000000000F0F0C0C0C0C0C0C0C0C0CB
:10560000C0C0C0C0C0C0C0F0F00000C0C0606060DA
:1056100060303030181818180C0C00000000000022
:10562000F0F03030303030303030303030303030FA
:1056300030F0F00000183C3C3C666666C300000099
:10564000000000000000000000000000000000005A
:10565000000000000000000000000000000000004A
:1056600000000000000000000000000000FFF0FF4C
:10567000F0000000C06020000000000000000000FA
:10568000000000000000000000000000000000001A
:1056900000003F00FF80C18001800F807F80F1808B
:1056A000C180C380FF807CC00000000000000000BB
:1056B00000000000C000C000C000C000DE00FF000D
:1056C000E300C180C180C180C180C180E300FF00D0
:1056D000DE000000000000000000000000000000EC
:1056E0000000000000001E007F006380C180C00039
:1056F000C000C000C18063807F003E000000000049
:105700000000000000000000018001800180018095
:105710003D807F806380C180C180C180C180C180A5
:1057200063807F803D8000000000000000000000DA
:10573000000000000000000000001E007F8061806B
:10574000C0C0FFC0FFC0C000C00061C07F801F009C
:1057500000000000000000000000001E3E3030FC91
:10576000FC3030303030303030300000000000008D
:105770000000000000000000003D807F806380C1C9
:1057800080C180C180C180C18063807F803D8001F5
:1057900080C380FF003E0000000000C000C000C0C9
:1057A00000C000DE00FF00E380C180C180C180C175
:1057B00080C180C180C180C1800000000000000065
:1057C00000000000C0C00000C0C0C0C0C0C0C0C059
:1057D000C0C0C00000000000003030000030303099
:1057E00030303030303030303030F0E0000000C049
:1057F00000C000C000C000C380C700CE00DC00F8BD
:1058000000FC00CC00C600C700C300C3800000003D
:105810000000000000000000C0C0C0C0C0C0C0C088
:10582000C0C0C0C0C0C0C000000000000000000038
:10583000000000000000DE78FEFCE38CC30CC30C0B
:10584000C30CC30CC30CC30CC30CC30C000000007E
:105850000000000000000000000000000000000048
:10586000DE00FF00E380C180C180C180C180C180B3
:10587000C180C180C1800000000000000000000065
:10588000000000000000000000001E007F8061801A
:10589000C0C0C0C0C0C0C0C0C0C061807F801E008A
:1058A00000000000000000000000000000000000F8
:1058B00000000000DE00FF00E300C180C180C18065
:1058C000C180C180E300FF00DE00C000C000C00056
:1058D000C0000000000000000000000000003D804B
:1058E0007F806380C180C180C180C180C1806380AE
:1058F0007F803D80018001800180018000000000E8
:10590000000000DCFCE0C0C0C0C0C0C0C0C00000DF
:10591000000000000000000000000000003E007FCA
:1059200000C180C000F8007F0007800180C1807F37
:10593000003E0000000000000000000000002060A9
:105940006060F8F860606060606060783800000057
:10595000000000000000000000000000C180C180C5
:10596000C180C180C180C180C180C180E3807F804F
:105970003D8000000000000000000000000000006A
:10598000000000000000C060C06060C060C03180E6
:1059900031801B001B000E000E0004000000000000
:1059A00000000000000000000000000000000000F7
:1059B000C106C3864384628C66CC36D836D8145070
:1059C0001C701C700C600000000000000000000053
:1059D00000000000000000000000E1C06180330012
:1059E00033001E000C001E00330033006180E1C054
:1059F00000000000000000000000000000000000A7
:105A000000000000C180C1806300630073003300A8
:105A100036001E001E000C000C000C001800F800E0
:105A2000F0000000000000000000000000007F8087
:105A30007F80038007000E001C0038007000E0002B
:105A4000FF80FF8000000000000000000000001C3C
:105A50003C303030303070E0E0603030303030306A
:105A60003C1C0000C0C0C0C0C0C0C0C0C0C0C0C0DE
:105A7000C0C0C0C0C0C0C0C000E0F0303030303066
:105A8000381C1C38303030303030F0E0000000007E
:105A900001000000000000000100000015000000EF
:105AA000010000002A000000020000003F0000008A
:105AB00002000000690000000300000093000000E5
:105AC00002000000D200000001000000FC00000005
:105AD000010000001101000001000000260100008B
