:020000040800F2
:100000000C4C012089010008E5010008E501000809
:10001000E5010008E5010008E50100080000000016
:10002000000000000000000000000000E5010008E2
:10003000E501000800000000E5010008E5010008F6
:10004000E5010008E5010008E5010008E5010008F8
:10005000E5010008E5010008E5010008E5010008E8
:10006000E5010008E5010008E5010008E5010008D8
:10007000E5010008E5010008E5010008E5010008C8
:10008000E5010008E5010008E5010008E5010008B8
:10009000E5010008E5010008E5010008E5010008A8
:1000A000E5010008E5010008E5010008E501000898
:1000B000050E0008E5010008E5010008E50100085B
:1000C000E5010008E5010008E5010008E501000878
:1000D000E5010008E5010008E5010008E501000868
:1000E000E5010008E5010008E5010008E501000858
:1000F000E5010008E5010008E5010008E501000848
:10010000E5010008E5010008E5010008E501000837
:10011000E5010008E5010008E5010008E501000827
:10012000E5010008E5010008E5010008E501000817
:10013000E5010008E5010008E5010008E501000807
:10014000E5010008E5010008E5010008E5010008F7
:10015000BD0E0008E5010008E5010008E501000802
:10016000E5010008E5010008E5010008E5010008D7
:10017000E5010008E5010008E5010008E5010008C7
:10018000E5010008E501000880B582B000AF104B22
:100190007B60104B3B6007E03B681A1D3A607A6851
:1001A000111D796012681A603A680B4B9A42F3D3BA
:1001B0000A480B494FF000028842B8BF40F8042BB0
:1001C000FFF6FAAF00F07CF80837BD4680BD00BFEF
:1001D0001414000800000020101700201017002041
:1001E0000C44012080B400AFFEE700BF80B588B0AA
:1001F00000AFF860B9607A60FB683B6108237B61FF
:100200007B68BB6120E0BB68FB6112E0FB6999B2CF
:10021000BB699AB27B69386903441B78084611466A
:100220001A4600F09DFC7B6901337B61FB69013359
:10023000FB613B691B781A46BB681A44FB699A420A
:10024000E4DCBB690133BB613B6904331B781A46AC
:100250007B681A44BB699A42D5DC2037BD4680BD15
:1002600080B584B000AFF860B9607A607B68002B1D
:1002700002D0012B06D00BE00848F968BA68FFF7F6
:10028000B5FF05E00648F968BA68FFF7AFFF00BFA1
:10029000002318461037BD4680BD00BF0000002077
:1002A0006C00002080B582B000AF78607B68DBB264
:1002B000184600F031FC002318460837BD4680BDC3
:1002C00080B500AF00F03EF900F0E6FBFF20FFF73D
:1002D000E9FF002000210022FFF7C2FF3220322177
:1002E0000122FFF7BDFFFEE780B483B000AF786066
:1002F0000B46FB70FB78002B06D0094B084A116BAC
:100300007A680A431A6306E0054B054A116B7A685E
:10031000D2430A401A630C37BD465DF8047B704730
:100320000038024080B483B000AF78600B46FB70A9
:10033000FB78002B06D0094B084A116C7A680A43F7
:100340001A6406E0054B054A116C7A68D2430A40EC
:100350001A640C37BD465DF8047B704700380240D4
:1003600080B483B000AF78600B46FB70FB78002B45
:1003700006D0094B084A516C7A680A435A6406E071
:10038000054B054A516C7A68D2430A405A640C37CF
:10039000BD465DF8047B70470038024080B487B0EA
:1003A00000AF7860396000237B6100233B6100234C
:1003B000FB6000237B6176E07B69012202FA03F394
:1003C0003B613B681A683B691340FB60FA683B6914
:1003D0009A4265D17B681A687B695B00032101FA48
:1003E00003F3DB431A407B681A607B681A683B683A
:1003F0001B7919467B695B0001FA03F31A437B689A
:100400001A603B681B79012B03D03B681B79022BD8
:100410002ED17B689A687B695B00032101FA03F3A4
:10042000DB431A407B689A607B689A683B685B791B
:1004300019467B695B0001FA03F31A437B689A60F3
:100440007B685A687B699BB2012101FA03F3DB43A5
:100450001A407B685A607B685A683B689B791946EA
:100460007B699BB201FA03F39BB21A437B685A6023
:100470007B68DA687B699BB25B00032101FA03F3B6
:10048000DB431A407B68DA607B68DA683B68DB79BB
:1004900019467B695B0001FA03F31A437B68DA6053
:1004A0007B6901337B617B690F2B85D91C37BD4686
:1004B0005DF8047B704700BF80B485B000AF786002
:1004C00013460A467A807B700023FB600023BB60E2
:1004D0007A787B8803F007039B0002FA03F3FB6042
:1004E0007B88DB089BB21A467B88DB089BB21946E7
:1004F0007B68083153F821107B8803F007039B00C9
:100500000F2000FA03F3DB4319407B68083243F8FD
:1005100022107B88DB089BB21A467B68083253F8AE
:100520002220FB681343BB607B88DB089BB21A4622
:100530007B680832B96843F822101437BD465DF86D
:10054000047B704780B500AF114B114A126842F02E
:1005500001021A600E4B00229A600D4A0C4B1B6878
:1005600023F0847323F480331360094B094A5A60E3
:10057000074B074A126822F480221A60044B0022BB
:10058000DA6000F00BF8044B4FF000629A6080BD17
:10059000003802401030002400ED00E080B483B049
:1005A00000AF00237B6000233B60354B344A126868
:1005B00042F480321A60324B1B6803F400333B6014
:1005C0007B6801337B603B68002B03D17B68B3F50C
:1005D000A06FF0D12A4B1B6803F40033002B02D02C
:1005E00001233B6001E000233B603B68012B42D1CB
:1005F000234B234A126C42F080521A64214B214A49
:10060000126842F480421A601D4B1D4A92689A603B
:100610001B4B1B4A926842F400429A60184B184ADE
:10062000926842F4A0529A60154B174A5A60144BD4
:10063000134A126842F080721A6000BF104B1B68A8
:1006400003F00073002BF9D0104B40F205621A60E2
:100650000B4B0B4A926822F003029A60084B084A3F
:10066000926842F002029A6000BF054B9B6803F05B
:100670000C03082BF9D10C37BD465DF8047B70479D
:10068000003802400070004008544007003C02401F
:1006900080B483B000AF78607B681B6823F00102F0
:1006A0007B681A607B6800221A607B6800225A60AF
:1006B0007B6800229A607B680022DA607B680022F7
:1006C0001A617B6821225A617A68454B9A4203D1AC
:1006D000444B3D229A607EE07A68434B9A4204D1B3
:1006E000404B4FF474629A6075E07A683F4B9A42CF
:1006F00004D13C4B4FF474129A606CE07A683C4B26
:100700009A4204D1374B4FF074629A6063E07A6882
:10071000384B9A4203D1334B374ADA605BE07A6850
:10072000364B9A4203D12F4B354ADA6053E07A6850
:10073000344B9A4203D12B4B334ADA604BE07A6850
:10074000324B9A4204D1274B4FF03D52DA6042E0DF
:100750007A682F4B9A4203D12E4B3D229A603AE0A1
:100760007A682D4B9A4204D12A4B4FF474629A60F6
:1007700031E07A68294B9A4204D1264B4FF4741227
:100780009A6028E07A68264B9A4204D1214B4FF0B8
:1007900074629A601FE07A68224B9A4203D11D4B23
:1007A000154ADA6017E07A681F4B9A4203D1194B59
:1007B000134ADA600FE07A681C4B9A4203D1154B5A
:1007C000114ADA6007E07A68194B9A4203D1114B5B
:1007D0004FF03D52DA600C37BD465DF8047B704740
:1007E0001060024000600240286002404060024009
:1007F00058600240706002403D0000208860024066
:10080000400F0020A060024000003D20B860024080
:1008100010640240006402402864024040640240C8
:10082000586402407064024088640240A064024040
:10083000B864024080B485B000AF786039600023AE
:10084000FB607B681B68FB60FA68244B1340FB600D
:100850003B681A683B68DB681A433B685B691A436C
:100860003B689B691A433B68DB691A433B681B6A18
:100870001A433B685B6A1A433B689B6A1A433B68AE
:100880005B6B1A433B689B6B1343FA681343FB6033
:100890007B68FA681A607B685B69FB60FB6823F021
:1008A0000703FB603B68DA6A3B681B6B1343FA681B
:1008B0001343FB607B68FA685A613B681A697B687E
:1008C0005A603B685A687B689A603B689A687B68A4
:1008D000DA601437BD465DF8047B70473F801CF03A
:1008E00080B483B000AF78600B46FB70FB78002BC0
:1008F00006D07B681B6843F001027B681A6005E044
:100900007B681B6823F001027B681A600C37BD46C8
:100910005DF8047B704700BF80B485B000AFF8601D
:10092000B9601346FB71BB6803F08003002B0FD046
:10093000FB79002B06D0FB685B6943F08002FB6803
:100940005A6105E0FB685B6923F08002FB685A612D
:10095000BB68802B14D0FB79002B08D0FB681A6889
:10096000BB6803F01E031A43FB681A6008E0FB68CB
:100970001A68BB6803F01E03DB431A40FB681A6069
:100980001437BD465DF8047B704700BF80B487B064
:1009900000AF786039600023FB750023FB60002303
:1009A000BB607A68224B9A4202D8224B3B6101E03D
:1009B000214B3B613B6823F0F02323F0C313002B52
:1009C0000AD03B68DB0A03F01E03FB607B681A68F1
:1009D000FB681340BB6004E07B685B6903F0800345
:1009E000BB603B6803F00053002B03D03B695B689E
:1009F000FB6002E03B691B68FB60FB6823F0F023AF
:100A000023F08213FB60FA683B681340002B05D08B
:100A1000BB68002B02D00123FB7501E00023FB75AE
:100A2000FB7D18461C37BD465DF8047B704700BF50
:100A30000F640240006002400064024080B485B050
:100A400000AF786039607A68104B9A4202D8104B38
:100A5000FB6001E00F4BFB603B6803F00053002B91
:100A600007D03B6823F0F02323F08213FA68D360A9
:100A700006E03B6823F0F02323F08213FA689360CA
:100A80001437BD465DF8047B704700BF0F64024019
:100A9000006002400064024080B582B000AF1B4B92
:100AA00000221A80194B00225A60184B00229A60CB
:100AB0000023BB8017E00023FB800DE0BA881346BB
:100AC0009B0013449B011A44FB881344104A0021E5
:100AD000D154FB880133FB80FB88B3F5A07FEDD9AF
:100AE000BB880133BB80BB88EF2BE4D900F05EF8F4
:100AF00000F0B0F800F03EF900F010F9054B1A686C
:100B0000024B9A600837BD4680BD00BF1017002019
:100B10001C1700208864024080B584B000AF0346F3
:100B2000FB710023BB8114E00023FB810AE0F989FB
:100B3000BA89FB79084611461A4600F011F8FB897C
:100B40000133FB81FB89B3F5A07FF0D3BB8901336F
:100B5000BB81BB89EF2BE7D91037BD4680BD00BFF5
:100B600080B483B000AF13460246FA800A46BA80CA
:100B7000FB70FB88B3F5A07F01D30023FB80BB880B
:100B8000EF2B01D90023BB80BA8813469B00134486
:100B90009B011A44FB881344034AF978D1540C375B
:100BA000BD465DF8047B70471C17002080B582B0FD
:100BB00000AF10200121FFF797FB4FF47F433B600C
:100BC00001233B710023BB710123FB7103237B7164
:100BD0003B461E481946FFF7E1FB1C4B4FF47F4292
:100BE0005A8302200121FFF77FFB4FF400633B6033
:100BF00002233B7103237B710023BB710123FB7133
:100C00003B4613481946FFF7C9FB11480B21012247
:100C1000FFF752FC02200121FFF766FB4FF48053DF
:100C20003B6001233B710023BB710123FB71032354
:100C30007B713B4606481946FFF7B0FB044B4FF467
:100C400080521A830837BD4680BD00BF00100240A5
:100C50000004024080B588B000AF01200121FFF7F9
:100C60007FFB0B23BB610023BB820023BB830023DC
:100C7000FB8207F114032848194600F0A3F901206C
:100C80000121FFF74FFB40F66B23BB610023BB82C2
:100C90000023BB830023FB8207F114034FF0804045
:100CA000194600F08FF960233B8001237B804FF4CD
:100CB000D273BB600223BB813B464FF08040194694
:100CC00000F02AFA4FF08040082100F011FB602369
:100CD0003B8001237B804FF4A073BB600223BB8168
:100CE0003B464FF08040194600F09CFA4FF08040A0
:100CF000082100F019FB0848012100F0CDF94FF060
:100D00008040012100F0C8F94FF08040012100F03F
:100D1000E3F92037BD4680BD0000014080B582B0B8
:100D200000AF134810210122FFF7F6FD44233B7169
:100D300000237B710023BB710123FB713B1D18460F
:100D400000F0E2F84FF080400821012200F00AFB99
:100D50001C233B7100237B710023BB710123FB71BA
:100D60003B1D184600F0D0F80837BD4680BD00BFD7
:100D70008864024080B590B000AF4FF4800001213C
:100D8000FFF7B2FA1B480021FFF7AAFD1948FFF749
:100D90007FFC4FF040637B60174BBB60174BFB60E1
:100DA00040233B6140F241137B610023BB614FF460
:100DB0008063FB6100233B6200237B620023BB62F4
:100DC0004FF44033FB6200233B6301237B6300232A
:100DD000BB630023FB633B1D06481946FFF72AFD52
:100DE00007484FF48071012200F0F0FA4037BD4609
:100DF00080BD00BF88640240151002401C1700200F
:100E00000000014080B500AF4FF08040082100F0A5
:100E1000CDFA254B1B8801339AB2234B1A80224B03
:100E20001B88B3F5037F05D91F4B00221A801F4A88
:100E30001D4B5A601C4B1B88012B04D81C4B4FF4D4
:100E400080525A8303E01A4B4FF480521A83164B98
:100E50001B88232B27D9144B1A8840F202239A426D
:100E600021D8144B104A92681A60124B0E4A5268ED
:100E7000DA60114B104A128892B242F0010292B22B
:100E80001A800C4B0B4A126842F001021A60064BA2
:100E90001B8803F00103002B05D0034B5B6803F2B2
:100EA0004112014B5A6080BD101700201C17002012
:100EB00000040240886402400000014080B500AF99
:100EC0000D480E49FFF762FD0346002B12D00A4879
:100ED0000A49FFF7B3FD0A4B094A128892B222F081
:100EE000010292B21A80044B00221A60054B4FF4A3
:100EF0007F425A8380BD00BF886402400088002082
:100F0000000001400010024080B485B000AF78605E
:100F10000023FB730023BB730F237B737B68DB7899
:100F2000002B37D0254BDB68DB4303F4E0631B0A5F
:100F3000FB73FB7BC3F10403BB737A7BFB7B42FA3D
:100F400003F37B737B685B781A46BB7B02FA03F37F
:100F5000FB737B689A787B7B1340DAB2FB7B13438D
:100F6000FB73FB7B1B01FB73154A7B681B781344E7
:100F7000FA7B83F80023124B7A6812785209D2B2B6
:100F80007968097801F01F01012000FA01F143F8A6
:100F900022100EE00A4B7A6812785209D2B27968B0
:100FA000097801F01F01012000FA01F1203243F815
:100FB00022101437BD465DF8047B704700ED00E059
:100FC00000E100E080B485B000AF786039600023B4
:100FD000FB817B681B88FB817A68284B9A4213D07F
:100FE0007A68274B9A420FD07B68B3F1804F0BD0C1
:100FF0007A68244B9A4207D07A68234B9A4203D0EE
:101000007A68224B9A4208D1FB8923F07003FB8156
:101010003B685A88FB891343FB817A681C4B9A42D0
:101020000CD07A681B4B9A4208D0FB8923F440739A
:10103000FB813B681A89FB891343FB817B68FA8932
:101040001A803B685A687B68DA623B681A887B685A
:101050001A857A68094B9A4203D07A68084B9A42FB
:1010600004D13B689B7A1A467B681A867B6801220A
:101070009A821437BD465DF8047B7047000001403A
:10108000000401400004004000080040000C004043
:10109000001000400014004080B483B000AF7860BE
:1010A0000B46FB70FB78002B08D07B681B889BB23B
:1010B00043F080039AB27B681A8007E07B681B8844
:1010C0009BB223F080039AB27B681A800C37BD462E
:1010D0005DF8047B704700BF80B483B000AF7860D8
:1010E0000B46FB70FB78002B08D07B681B889BB2FB
:1010F00043F001039AB27B681A8007E07B681B8883
:101100009BB223F001039AB27B681A800C37BD466C
:101110005DF8047B704700BF80B485B000AF786095
:10112000396000237B810023FB810023BB817B6826
:101130001B8C9BB223F480739AB27B681A847B6801
:101140001B8CFB817B689B88BB817B689B8B7B8135
:101150007B8923F070037B817B8923F003037B81F0
:101160003B681A887B8913437B81FB8923F40073D6
:10117000FB813B689B891B029AB2FB891343FB816D
:101180003B685B881B029AB2FB891343FB817A6838
:10119000224B9A4203D07A68214B9A422BD1FB8989
:1011A00023F40063FB813B68DB891B029AB2FB8955
:1011B0001343FB81FB8923F48063FB813B689B889D
:1011C0001B029AB2FB891343FB81BB8923F4805332
:1011D000BB81BB8923F40053BB813B681B8A1B0185
:1011E0009AB2BB891343BB813B685B8A1B019AB2ED
:1011F000BB891343BB817B68BA899A807B687A89F3
:101200009A833B689A687B68DA637B68FA891A84F8
:101210001437BD465DF8047B704700BF00000140F5
:101220000004014080B485B000AF786039600023CD
:10123000BB8100237B810023FB817B681B8C9BB2DD
:1012400023F480539AB27B681A847B681B8C7B8161
:101250007B689B88FB817B689B8BBB81BB8923F46C
:10126000E043BB81BB8923F44073BB813B681B888F
:101270001B029AB2BB891343BB817B8923F40053C1
:101280007B813B689B891B039AB27B8913437B81DB
:101290003B685B881B039AB27B8913437B817A6826
:1012A000114B9A4203D07A68104B9A420AD1FB89BB
:1012B00023F48043FB813B681B8A9B019AB2FB8924
:1012C0001343FB817B68FA899A807B68BA899A8389
:1012D0003B689A687B681A647B687A891A84143739
:1012E000BD465DF8047B70470000014000040140EA
:1012F00080B485B000AF78600B467B800023FB8113
:101300007B689B8BFB81FB8923F00803FB81FA89B7
:101310007B881343FB817B68FA899A831437BD4627
:101320005DF8047B704700BF80B485B000AF786083
:101330000B467B800023FB817B689B8BFB81FB89B9
:1013400023F40063FB817B881B029AB2FB89134361
:10135000FB817B68FA899A831437BD465DF8047B6C
:10136000704700BF80B483B000AF786013460A4670
:101370007A807B707B78002B08D07B689B899AB23F
:101380007B8813439AB27B689A8109E07B689B89CA
:101390009AB27B88DB439BB213409AB27B689A81F6
:1013A0000C37BD465DF8047B704700BF80B483B046
:1013B00000AF78600B467B807B88DB439AB27B680A
:1013C0001A820C37BD465DF8047B704780B483B049
:1013D00000AF786013460A467A807B707B78002BDA
:1013E00008D07B689B899AB27B8813439AB27B684A
:1013F0009A8109E07B689B899AB27B88DB439BB228
:1014000013409AB27B689A810C37BD465DF8047B25
:04141000704700BF62
:10141400090000000B000000FFFFFFFFFFFFFFFFBC
:10142400FFFFFFFFFF00FFFFFFFFFFFFFF00FF00C5
:10143400FFFFFFFFFF00FFFFFF00FFFFFF00FFFFB5
:10144400FFFFFF00FF000000FFFFFF000000FFFFA1
:1014540000FFFFFF00FFFFFFFF00FFFFFF00FFFF94
:10146400FFFF00FFFFFF00FFFFFFFF000000000081
:10147400FFFFFFFFFFFFFFFFFFFFFF004100000032
:1014840059000000FFFFFFFFFFFFFFFFFFFFFFFF0B
:10149400FFF609070807F5F5F5F5F5F5070707A4BD
:1014A400A4A4A4E4EDFFECFFFFFFFFFFFFFFFFFF99
:1014B400FFFFFFFFFFFFFFFFFFFFFFFFFFFFF6F64A
:1014C400F6F6F6F6F6FFFFFFF6FFFFFFFFFFFFFF5E
:1014D400FFFF09F508F5F5F5F5F5F5070707F5A498
:1014E400A4A4A4ED09EDEDFFFFFFFFFFFFFFFFFF45
:1014F400FFFFFFFFFFFFFFFFFFFFFFFFFFFFFFF601
:10150400F6F6F6F6F6F6FFFFFFFFFFFFFFFFFFFF1D
:10151400FF09080707070707F5F50707F5A4A4A4BB
:10152400A4F7F6F7F6FFFFFFFFFFFFFFFFFFFFFF44
:10153400FFFFFFFFFFFFFFFFFFFFFFFFFFFFFFFFB7
:1015440008F6F6F6F6F6F6F6FFFFFFFFFFFFFFFFDD
:10155400F60708070707070707070807A4A4A4A4B2
:10156400A4F7F707FFFFFFFFFFFFFFFFFFFFFFFFEA
:10157400FFFFFFFFFFFFFFFFFFFFFFFFFFFFFFFF77
:10158400FF07F6F6F6F6F6F6FFFFFFFFFFFFFFF59F
:10159400F5080707070707070808EDACA4A4A49BF0
:1015A400A4A4FFFFFFFFFFFFFFFFFFFFFFFFFFFFFD
:1015B400FFFFFFFFFFFFFFFFFFFFFFFFFFFFFFFF37
:1015C400FFFF07F6F6F6F6F6F6FFFFFFFFF609094A
:1015D400080707070707070808F7A4A4A4F7A49BAC
:1015E400A4A4FFFFFFFFFFFFFFFFFFFFFFFFFFFFBD
:1015F400FFFFFFFFFFFFFFFFFFFFFFFFFFFFFFFFF7
:10160400FFFFFF07F6F6F6F6F6F6FFFFF6F6F50827
:101614000707070707070908F7A4A4A4A4ED9BA4D8
:10162400A4A4F7F7FFFFFFFFFFFFFFFFFFFFFFFF8C
:10163400FFFFFFFFFFFFFFFFFFFFFFFFFFFFFFFFB6
:10164400FFFFFFFF07F6F6F6F6F6F6FFFFEC0707D7
:1016540007070707070809F7F7A4A4A4F7F5A4F6F2
:10166400A4F7A4F7F7FFFFFFFFFFFFFFFFFFFFFF54
:10167400FFFFFFFFFFFFFFFFFFFFFFFFFFFFFFFF76
:10168400FFFFFFFFFF07F6F6F6F6F6F608F5070785
:1016940007070707080907F7A4A4ACEDA3A4F6FFFE
:1016A400FFFFF7A4F7F7FFFFFFFFFFFFFFFFFFFFB9
:1016B400FFFFFFFFFFFFFFFFFFFFFFFFFFFFFFFF36
:1016C400FFFFFFFFFFFF07F6F6F6F6F6F60707F54E
:1016D400F507070908F5ACA4A4F7079B07FFFFFF6C
:1016E400FFFFFFF7A4EDF5FFFFFFFFFFFFFFFFFF85
:1016F400FFFFFFFFFFFFFFFFFFFFFFFFFFFFFFFFF6
:10170400FFFFFFFFFFFFFF07F6F6F6F6F6F6F5F527
:10171400F5F50908F7A4A4A4F70707FFFFFFFFFFE7
:10172400FFFFFFFFF59B0707FFFFFFFFFFFFFFFF23
:10173400FFFFFFFFFFFFFFFFFFFFFFFFFFFFFFFFB5
:10174400FFFFFFFFFFFFFFFF07F6F6F6F6F6F6F5DD
:10175400F5070807ACA4A4A407A3F5FFFFFFFFFF48
:10176400FFFFFFFFFF079B08F6FFFFFFFFFFFFFFE1
:10177400FFFFFFFFFFFFFFFFFFFFFFFFFFFFFFFF75
:10178400FFFFFFFFFFFFFFFFFF07F6F6F6F6F6F693
:10179400F50707A4A4A4F707A4F6FFFFFFFFFFFFC4
:1017A400FFFFFFFFFFFFF69BF608FFFFFFFFFFFFB2
:1017B400FFFFFFFFFFFFFFFFFFFFFFFFFFFFFFFF35
:1017C400FFFFFFFFFFFFFFFFFFFF07F6F6F6F6F64A
:1017D400F6A4A4A4A4A4F7FFFFFFFFFFFFFFFFFFED
:1017E400FFFFFFFFFFFFFF07ED07F7070808F6FFFE
:1017F400FFFFFFFFFFFFFFFFFFFFFFFFFFFFFFFFF5
:10180400FFFFFFFFFFFFFFFFFFFFFF07F6F6F6F600
:10181400F6F6A4A4A4A3F7FFFFFFFFFFFFFFFFFF5B
:10182400FFFFFFFFFFFFFFFFF6A4F7A4F7EE07F7A4
:1018340007F6FFFFFFFFFFFFFFFFFFFFFFFFFFFFB5
:10184400FFFFFFFFFFFFFFFFFFFFFFFF07F6F6F6B7
:10185400F6F6F6F7F7FFACF7FFFFFFFFFFFFFFFF1A
:10186400FFFFFFFFFFFFFFFFF75B5B9CA49B9B9CBD
:101874009CA4A4F7FFFFFFFFFFFFFFFFFFFFFFFF95
:10188400FFFFFFFFFFFFFFFFFF080807070708F63A
:10189400F6F6F6F6FFFFFFF7F7FFFFFFFFFFFFFF88
:1018A400FFFFFFFFFFFFFFFF5B9C5B9C5353535302
:1018B4005B9C9C9C9CA407F7F6FFFFFFFFFFFFFFC8
:1018C400FFFFFFFFFFFFF6080707070707070708E3
:1018D400F6F6F6F6F6FFFFFF08F7FFFFFFFFFFFF40
:1018E400FFFFFFFFFFFFFFFF08535B5B5C5C5C5C7B
:1018F4005B5C5C9C9C9B9B9CA4EDFFFFFFFFFFFF3C
:10190400FFFFF608080707070707070707F7ED07AC
:1019140007F6F6F6F6F6FFFFFFFFF7FFFFFFFFFF00
:10192400FFFFFFFFFFFFFFFF089C53535B5C5C5C02
:101934005C5C9C9C9C9C9C9B9B9CF7F7FFFFFFFF23
:10194400FF08080707070707070707F70707070739
:101954000707F6F6F6F6F6FFFFFFFFA4F6FFFFFF14
:10196400FFFFFFFFFFFFFFFFFFA45B5B535C5D65B1
:101974006565A5A5A5A5A5A59C9C9CA4F7EE08074F
:1019840007070707070707ED070708F6F6FFFFFF36
:10199400FF0707F6F6F6F6F6FFFFFFFFAC07FFFFBB
:1019A400FFFFFFFFFFFFFFFFFF0853535C5DA5A68A
:1019B400A6A6A6AEAEAEAEA6A6AEA59C9BA4F7F711
:1019C400EDF707070708F608FFFFFFF60808FFFF13
:1019D400FFFF0707F6F6F6F6F6FFFFFFFFED07FF3A
:1019E400FFFFFFFFFFFFFFFFFFF65C5252A5A5AE0E
:1019F400AEAEAEAEAEAEAEAEAEAEAEAEAD9B9BA434
:101A0400A40808FFFFFF070807FFFFFFFFFFFFFF12
:101A1400FFFFFF07F5F6F6F6F6F6FFFFFFFF07F503
:101A2400FFFFFFFFFFFFFFFFFFFFFF5B5252A5AE6B
:101A3400AEAFAEAEAEAEAEAEAEAEAEAEAEAEA45227
:101A4400F7A5FFFFF60707FFFFFFFFFFFFFFFFFFFD
:101A5400FFFFFFFF07F7F6F6F6F6F6FFFFFFFF07B7
:101A6400F7F6FFFFFFFFFFFFFFFFFF07524A5CAEE1
:101A7400AEAFAEAEAFAEAEAEAEAEAEAEB60707F77D
:101A84005B9BF7FFFFFFFFFFFFFFFFFFFFFFFFFF72
:101A9400FFFFFFFFFFF5F7F6F6F6F6F6FFFFFFFF91
:101AA40007A407FFFFFFFFFFFFFFFFFFA4524A5CED
:101AB400AEAEAEAEAEAEAEAEAEAEAEAEAEAE070790
:101AC400F79B9B07FFFFFFFFFFFFFFFFFFFFFFFFEA
:101AD400FFFFFFFFFFFFEDF7F6F6F6F6F6FFFFFF59
:101AE400FFFFF707FFFFFFFFF60707070752494A03
:101AF4005CAEAFAFAFAEAEAEAEAEAEAEAEAEAE07F8
:101B040007079B9BFFFFFFFFFFFFFFFFFFFFFFFF99
:101B1400FFFFFFFFFFFFFFF7F7F6F6F6F6F6FFFF0E
:101B2400FFFFFFF707FF07080707070707075249E3
:101B34004A65AEAEAFAFAEAEAEAEAEAEAEAEAEAE6C
:101B44000707079B9BFFFFFFFFFFFFFFFFFFFFFF51
:101B5400FFFFFFFFFFFFFFFFF7ACF6F6F6F6F6FF19
:101B6400FFFFF6070707070808FFFFED09F6FF5216
:101B7400525DAEAEAEA5A5A6A6AEAEAEA6A65D5C03
:101B84005CA5AE07AE9BF6FFFFF6FFFFFFFFFFFF6E
:101B9400FFFFFFFFFFFFFFFFFFF7A4F6F6F6F6F6E1
:101BA4000807FFFFF7EDF70707FFFFFFF6FFFFFF4B
:101BB400A452AEAEAEA565545C5CA5A6A6A55DA573
:101BC400A6A6AEAE070752F7FFFFFF08FFFFFFFF11
:101BD400FFFFFFFFFFFFFF07FFFFF7A4F6F6F6F690
:101BE400F6F707F6FFF7A4A407FFFFFFFFFFFFFFC9
:101BF400FFA453AEAEAEAEAEAEA6A5A5AEA6A5A549
:101C0400A6AEAEAEAE07079C9BFFFFFFFFFFFFFF34
:101C140009FFFFFFFFF6FFFFFFFFFFF7A4F6F6F64D
:101C2400F6F608070707FF07FF07F6FFFFFFFFFFAA
:101C3400FFFFA45BB7AFAEAEAEA6A5A5A5AEAEAE94
:101C440065650A494A5CAE07AE9BFFFFFFFFFFF6DE
:101C5400FFFFFFFFF6FFFFFFFFFFFFFFF7F7F6F6BB
:101C6400F6F6F6535C5CA4F707F7F7FFFFFFFFF601
:101C7400FFFFFF5B5BB7AE540AA44A5353A6B7AE4B
:101C8400AEA554535CA5AEAE07079CFFFFFFFFFF54
:101C9400FFFFFFFFFFFFFFFFF6FFFF08F5F7F7F673
:101CA400F6F6F6F65C52A55CA40708F6FFFFFFFF04
:101CB400F6F6FFFF535BB7AFAEAE655C65A5A6AFA6
:101CC400AEAEAEA565A5AEAEAE0707AEFFFFFFFF95
:101CD40007FFFFFFFF07FFFFFFF6FFFFFFFFF7F719
:101CE400F6F6F6F6F65B535353539CF6FF07FFFFE5
:101CF400FFF6FFFFFF5C54B7B7AFAEAEA6A6AEAE1D
:101D0400B7AFEFAEAEAEAEAEAE070707AFFFFFF5AF
:101D1400FF090907FFFFF60708FFFFF5F6FFFFF7C6
:101D2400F7F6F6F6F6F65C534A5353A507FFFFFFA2
:101D3400FFF608FFF5095C54B7B7B7AFAFAFAFAF65
:101D4400AEB7AF07EEAEAFAFAFAF070707AE090749
:101D54000908F60707FFFFFFED08F6FFF609FFFF86
:101D6400F7F7F6F6F6F6F653534A4A4AA50707F686
:101D7400FF0909F507FFF6AD5DAEB7B7B7AFAFAF73
:101D8400AEAEB7AFAFAEAEAEAFAFAF070707EE07BD
:101D9400F5ECF5FFF6FF09FF09FFF6EDFFF5FF0986
:101DA400F6F7F7F6F6080808AEAE5D54535307F697
:101DB400EDFFFFFFF6080808F7AEAEAEAFAFAFAE6B
:101DC400A666AFAEAEAEAEAEA6AEAEAEEE0707F54D
:101DD400FFFFFFF6FFEDEDE4FFF60709FFFFFFFF4E
:101DE400FFFFF707F60807F5F5AEAEA5A6535B07A8
:101DF400F7F7FFFFFFFFFFFF09A4F5AEAEAFAFAEED
:101E0400AEA665A6A5A5A54BA5A5A6AEAEAE07072D
:101E1400F6FFFF0909FF09F7F5EFEF09FF09FFFFD7
:101E2400FFF607F7F7F7F7ACA4ACAEAEAEAEA6EC90
:101E3400FFFFFFFFFFFFFFFFFFFF090707AEAEAE87
:101E4400A6A665A6AEA6545DAEA6A6A6A6AEAEAEE2
:101E5400F7F7F5F7F7F7F7F7F7F7F7F7F7F6F5F713
:101E6400ACA4A4A4A3A3A3A3A3A3A3EEB7AEAE520E
:101E7400FFFFFFFFFFFFFFFFFFF6FF07070707AEA8
:101E8400A6A56566AEAEAEA6A6AEAEA6A6A6AEAE38
:101E9400AEA4F7F7F7F7F7F7F7F7F7F7F7F79BA419
:101EA400A4A4A4A3A3A3A3A3A3A3A3A307B7AEA675
:101EB400F6F6FFFFFFFFFFFFFFFFFFF6FFFF07F54B
:101EC400AEA6655DA6AEAEAEA6A6AEAEAEA6A5AEF9
:101ED400AEAE53A4F7A49BACF7F7F7F7F7F7F79B6D
:101EE4009B9B9BA3A3A3A3A3A3A3A3A3A3AEAE075C
:101EF400FFF6F6FFFFFFFFFFFFFFFFFFFF0707FFF0
:101F0400FFAEA6A6655D5D5D5D5D5D555D4B5DAE39
:101F1400AEAE9C5BA409FFFFFFFFFFFFFFFFFFFFC7
:101F24009B9A9B9B9BA3A3A3A3A3A3A3A3A3AE0737
:101F3400F6F6FFFFFFFFFFFFFFFFFFFFFFFF0707AF
:101F44000708A6A6A66666AEA69E9E9EA6A6A6AEF2
:101F5400A6A6A5495252A4A4A4A4A4A4A4A4A4A437
:101F6400A49B5A9B9B9BA3A3A3A3A3A3A3A3A3F652
:101F7400F6F6F6F6F6FFFFFFFFFFFFFFFFFFFFF6A3
:101F8400EE07AEAE656565AEA65E9E9E9EA5A5A651
:101F9400AEA5A5A5494A5BA5F7F7F7F7F7F7F7F755
:101FA400F7F75A9A9B9B9B9BA3A3A3A3A3A3A3A3C7
:101FB400F60807070707070808F6F6FFFFFFFFFF05
:101FC400FF08AD52B7AE6565A6A6665D5D5DA6A6C3
:101FD400A6A6A6A649494952F7F70708080808081B
:101FE400080808525B9B9B9B9B9B9B9B9B9B9B9B7F
:101FF400A308070707F707070708F6F6F6FFFF0821
:1020040008525B07B7AEAE656565A6AEA6A6A6A6E2
:10201400A6A6A6A5004949494952F7070808080891
:1020240008080808525A9B9B9B9B9B9B9B9B9B9BD2
:102034009B9B0707A452ADF70707F6F6F60808F6C8
:1020440008A3B7B7AFAEAEAEA6656565A6A6A6A64D
:10205400A6A6A6A55B0049494949524A5107070863
:102064000808080808529B9B9B9B9B9B9B9B9B9BE4
:102074009B9B9B6552F7F7F7F7F7F7F7F70749527A
:102084009A5252B7B7AFAEAEAEA6655D65656565EB
:10209400A5A5A5655D0A49000049494A5200ECEC32
:1020A400080808080808A49B9B9B9B9B9B9B9B9BE5
:1020B4009B9B9B9BF7F7A4A4A4A4A4F7AD49514907
:1020C40049515149B7AFAFAFAEAEAE655D5C545444
:1020D4005454545C5D650A00494949494949494990
:1020E40051E40808080808089B5A9B9B9B9B9B9BF0
:1020F4009B9B9B9B9BF7ADA4A49B5BA4AC525151AF
:102104004949494949AEAFAFAFAEAEAE66655D541D
:102114005454545C5C65650A000049494952494974
:10212400495108FF07070808089B5A9B9B9B9B9BE8
:102134009B9B9B9B9B9AA4A4A4A49B5A9A524952EE
:1021440049494949494965AEAFAFAFAEAE66655D31
:102154005C5454545C5D65A50A49494900494949A0
:1021640049005149F6F608080807499B9B9B9B9B2D
:102174009B9B9B9B9A5A5AA4A4A49B52529A9A51F1
:102184005251494949494949AEAFAFAFAEAE666510
:102194005D5C5C5C5C5C5D65650A004949004949BD
:1021A400494900494951F79B070707499B9B9B9B5A
:1021B4009B9B9A9B5A5A5A5AA4A4F79A5251515229
:1021C400F6494951494949494949AEB7AFAFAEAE5D
:1021D400655D5D5D5D5D656565654B00494900490B
:1021E40049494900494949494949920707499B9B3B
:1021F4009B9B5A5A5A5A525252A4F7A45A524951C2
:1022040051F70849494949494949495CAFAFAFAE1B
:10221400AEA6655D5D5D656565656553004900490C
:10222400494949494949494949494951A4A4525A42
:102234009B9B9B5A5A5A52525252A4A49A495151A6
:10224400514949494949494949494949494AAEAF26
:10225400AEAEAEAEA6656565A5A6A6A65C00000AF0
:1022640049494949495249494949490049A4A5A408
:102274005A5A9B9A5A5A525252525200A451514994
:10228400490000494949494949494949494949AFE6
:10229400AEAEAEAEAEAEA6A6A6A6A6A6A65C000040
:1022A40049494949494949494949494949495207D3
:1022B400079B529B9A5A525252525251495A51496F
:1022C400494949494949494949494949494949497A
:1022D40049AEAEAEAEAEAEAEAEA6A6A6A6A65D5254
:1022E40000490049004949494900494900494951BF
:1022F4009BAD495A5A5A525252525251499B5251C9
:102304004949494949494949494949494949494939
:10231400494949A6AEAEAEAEAEAEAEAEA6A6650A0D
:1023240053494949490049524900004949494949E1
:102334004951F7495A5252525252514949495A52F3
:1023440051494949494949494949494949494949F1
:10235400494949494953AEAEAEAEAEAEAEAEA6653E
:102364004952494949494949494A49494951F70062
:102374004949515252525252525252514949495268
:1023840051514949494949494949494949494949A9
:1023940049494949494949494949494900494949F2
:1023A4004900494949AFAFF607F6F6F608EFEFEFF3
:1023B400EF0749495107495251515149494949087F
:1023C4004951494949494949494949494949494971
:1023D4004949494949494949494949494949494969
:1023E4004949004949AEA6A6AF070707B7AFAFAE44
:1023F400AEB7F60852499A4952514949494949A444
:10240400FF51514949494949494949494949494972
:102414004949494949494949494949494949494928
:10242400494949004949AFA6A6AF07B7B7AFAEA619
:10243400A6B7EF07070708525B525149494949ECCF
:10244400FFFF51514949494949494949494949497C
:1024540049494949494949494949494949494949E8
:102464004949494949495CAFAEAFAFAFB7B7AEA62A
:10247400A6AEAFAFAFAF070708F69B494949494934
:10248400FFFFFF514949494949494949494949498E
:1024940049494949494949494949494949494949A8
:1024A400494949494900A5AFAFB7B7AFAFAEA66533
:1024B400A6AEAFAEAEAEAEAFB7B7070707F649529A
:1024C400F6FFFFFF514949494949494949494949A1
:1024D4004949494951494949494949494949494960
:1024E40049494949494949AFAFAFB7B7AFAEAE5D06
:1024F400AEAEAFAFAEAEAEAFB7B7AEAEB6070707D0
:10250400FFFFFFFFFF4949494949494949494949A9
:102514004949494949494949490749494949494969
:1025240049494949494949AEAFAFB7B7B7AEAE5DBE
:10253400AEAEAEAEAEAE65AFB7AFEFAEB6AEB6B79B
:10254400B707FFFFFFFF49494949494949494949F3
:10255400494949494949494949F7080749494949BC
:102564004949494949494949B7B7B7B7B7AFAE66C9
:10257400A6AEAEAEAEAEEE07B7AFB7EF0707AEB6D8
:10258400AEB6AE07FFFFFF494949494949494949A0
:1025940049000049494949494949490808A4494960
:1025A4004949494949494949AFB7B7B7B7AFAF6591
:1025B400AEAEAFAFAFAFB7B7AFAFAEAEAEAEAEAE1F
:1025C400AEAEAEAEAEAEFFFF08084949494949492F
:1025D40049494900494949494949494949084949F1
:1025E4004949494949494949AEAFB7B7B7B7B7B7F8
:1025F400AEAFB7B7AFAEAEAEAEAEAEA6A6A6AEAEFB
:10260400AEAEAEAEAEAEAEAEFF0808AD4949494976
:10261400494949494949494949494949495149491E
:102624004949494949494949AEAFAFB7B7B7B7B7BF
:10263400B7B7B7AFAFAEAEAEAEAEA6A565A5A6A60C
:10264400AEAEAEAEAEAEAEAEAE070808074949496F
:102654004949494949494949004849494949494930
:102664005149494949494949AEAFAFAFB7B7B7B77F
:10267400B7B7AFAFAEAEAEA6A5A55C545DA6A6A691
:10268400A6AEAEAEADA5ADADAEAEAE080807494937
:1026940049494949494949490049494948494949F0
:1026A400494949514949494949AEAFAFAFAFB7B7B5
:1026B400AFAFAEAEAEAEA6655D5D4A5D5D66A6A685
:1026C400A6A5A5A5A5A5A5A5A5AEAEAE080749498D
:1026D40049494949494949490000494949494949F8
:1026E400494949494949494949A5AFAFAFAFAFAF96
:1026F400AFAFAEAEAEA66565656565A5AEAEAEA67A
:10270400AEAEAEA5A55DA5A5A5A5A6AEAE494949A3
:1027140049494949494949494900004949494949B7
:10272400494949494949494949A6AEAFAFAFAFAF55
:10273400AFAEAEAEAEAEAEAEAEAEAEAEAEAEAEAEB4
:10274400AEAEEEAE656665A5A5A5A5A5A6AE49493E
:102754004949494949499A52529C00494949494978
:102764004949494949494800495CAEAEAEAEAEAFAD
:10277400AFAFAFAEAEAEAFAFAFAFAFAEAEAEAEAE6D
:10278400AEA5A5A6A565A666A5A5A5A5A5A5A649C4
:1027940049535DAEAEAEAEAEAEAEA5494949494968
:1027A400494949494949494949A5AEAEAEAEAEAEDB
:1027B400AEAEAEB7AFAEAEAEAEAEAEAEA6A5A5A54E
:1027C400A507EC5B535D656565A5A5A5A5A5A5A5B0
:1027D40065AEAEAEAEAEAEAEAEAEAEA549494949FB
:1027E40049494949494949494949AEAEAEAEAEAEF7
:1027F400AEAEAEAEAFAEAEAEAEAEAEA6A5A55C5CB2
:102804005349A4F6FF9C5D5D6565A5A5A5A5A5A591
:10281400A5A6A6A6AEAEAEAEAEAEAEAEA500494976
:10282400494949494949494949AEAEAEAEAEAEAE51
:10283400AEAEAEAEAEAEAEAEAEAEA65C534A524A8D
:1028440049494A92FFFFFF5C5D6565A5A5A5A5A55D
:10285400A5A5A6A6A6AEAEAEAEAEAEAEAEA5494991
:10286400494949494949494949A6AEAEAEAEAEAE19
:10287400AEAEAEAEAEAEAEAEAEAEA6A55DA5A5A5F1
:102884006565A5A5A5FFFFFF079D656565A5A5A5CC
:10289400A5A5A566A6A6AEAEAEAEAEAEAEAEA54935
:1028A40049494949494949F749A5AEAEAEAEAEAE2C
:1028B400AEAEAEAEAEAEAEAEAEAEAEA6AEAEAEAE3C
:1028C400AEAEAEAEAEAEFFFFFFFFA4656565A5A5D7
:1028D400A5A5A5A5A6A6A6A6AEAEAEAEAEAEA6A569
:1028E40049494949494949490707A5AEAEAEAEAE83
:1028F400AEAEAEAEAEAEAEAEAEAEAEAEAEAEAEAEF4
:10290400AEA6AEAEA6A6AEFFFFFFFFFFA46565A50B
:10291400A5A5A5A5A56666A6A6AEAEAEAEAEAEA6A8
:10292400A549494949494949070808F7A6AEAEAE41
:10293400AEAEAEAEAEAEAEAEAEAEAEAEA6AEAEAEBB
:10294400A665A5A5A55C53EDF6FFFFFFFFFFA5A5B2
:10295400A5A5A5A5A5A56666A6A6A6AEAEAEAEAE71
:10296400A5A5004949494949070808F6F765AEAEE7
:10297400AEAEAEAEAEAEAEAEAEAEAEA6A6A6A6A59C
:10298400A55C53494949499BE4F6F6F6F609F6F67F
:1029940065A5A5A5A5A5A56666A6A6AEA6A6A6AE8A
:1029A400A6A5A500494949494908080808F765AE9C
:1029B400AEAEAEAEAEAEAEAEAEAEAEAEA6A6A66594
:1029C4005C5349494949494909F509F6F609090990
:1029D400F6A5A5A5A5A5A5A565656666A6A6A6A64C
:1029E400A6A6A55C49004949A5070808080807A543
:1029F400AEAEAEAEAEAEA6AEA6A6A5A5A55C0000D4
:102A040000000049004949520909F609F6F6F6F6AC
:102A140009F6F609A5A5A5A5A5656566666666A673
:102A2400A6A5A5A55C49494949A5070808080808B9
:102A3400A6AEAEAEAEAEAEA6A6A5A5A5A55C004953
:102A44000000494900494949A40909F609F6F6F67E
:102A5400F6F6090909A4A5A5A5A5656566666666D1
:102A640066A5A5A5A55C49490AA5A6AD0808080759
:102A74005CA5AEAEAEAEA6A6A5A5A5A55300000066
:102A840000000000490049495BA407090909090934
:102A9400F609090907070707A5A5A565656565661C
:102AA4006565A5A5A55D534949A5A6A6A50808F78A
:102AB40007A5ADA6AEA6A6A6A5A55C5B4A00000028
:102AC40000000049004949525252A4070909090962
:102AD400090909080807070707A5A5656565656568
:102AE4006565656565655C5265A5A6A6A6A6A55B34
:102AF4005CA5F7F7F7A5A5A59C000000494949493D
:102B0400494949490000495BADA4A4A40707090841
:102B140008080808070707070707F7F7A4000000D5
:0400000508000000EF
:00000001FF
