:020000040800F2
:10000000AC5E01208D080008E9080008E908000836
:10001000E9080008E9080008E908000800000000F5
:10002000000000000000000000000000E9080008D7
:10003000E908000800000000E9080008E9080008D5
:10004000E9080008E9080008E9080008E9080008CC
:10005000E9080008E9080008E9080008E9080008BC
:10006000E9080008E9080008E9080008E9080008AC
:10007000E9080008E9080008E9080008E90800089C
:10008000E9080008E9080008E9080008E90800088C
:10009000E9080008E9080008E9080008E90800087C
:1000A000E9080008E9080008E9080008E90800086C
:1000B0009D170008E9080008E9080008E908000899
:1000C000E9080008E9080008E9080008E90800084C
:1000D000E9080008E9080008ED280008E908000818
:1000E000E9080008E9080008E9080008E90800082C
:1000F000E9080008E9080008E9080008E90800081C
:10010000E9080008E9080008E9080008E90800080B
:10011000E9080008E9080008E9080008E9080008FB
:10012000E9080008E9080008E9080008E9080008EB
:10013000E9080008E9080008E9080008E9080008DB
:10014000E9080008E9080008E9080008E9080008CB
:1001500059180008E9080008E9080008E90800083B
:10016000E9080008E9080008E9080008E9080008AB
:10017000E9080008E9080008E9080008E90800089B
:10018000E9080008E908000880B483B000AF78608F
:100190000B46FB701346BB700AE07B681B78FA784D
:1001A0009A4205D17B68BA781A707B6801337B600C
:1001B0007B685A1C7A601B78002BEED100BF0C378D
:1001C000BD4680BC704700BF80B483B000AF78608C
:1001D00039600CE07B6801337B607B681B78002B07
:1001E000F8D17B6801337B603B68013B3B603B6837
:1001F000002BF2DC7B6818460C37BD4680BC70478C
:1002000080B485B000AF78600B46FB700023FB60C4
:100210000FE0FB680133FB60FB687A6813441B78CE
:10022000FA789A42F5D0FB687A6813441A787B68AA
:100230001A707B685A1C7A601B78002BECD100BFC7
:100240001437BD4680BC704780B5A2B002AF01F044
:1002500065FEE32001F036FF3B1D322200211846E7
:1002600003F030FB9F4801F07FFE0123019332230E
:100270000093C82301220121012001F0CFFD3B1D85
:10028000184601F059FE3B1D20211846FFF7B8FF24
:100290003B1D00222C211846FFF776FF0023FB6749
:1002A0001EE0FB6F3A1D1A44FB6F391D0B441B788F
:1002B00087F87B308C4B196897F87B3001330B44FF
:1002C0001B7803F00303022B03D197F87B30203B0C
:1002D00001E097F87B30DBB21370FB6F0133FB67F3
:1002E000FB6F3A1D13441B78002BDAD13B1D04220F
:1002F0007E49184603F034FB0346002B53D10023FC
:10030000BB633B1D01211846FFF75EFF03461846FD
:1003100003F0D4FA0346FB633B1D02211846FFF7A6
:1003200053FF0346184603F0C9FA03463B643B1DDE
:1003300003211846FFF748FF0346184603F0BEFAAC
:1003400003467B643B1D04211846FFF73DFF03462F
:10035000184603F0B3FA0346BB643B1D052118465B
:10036000FFF732FF0346184603F0A8FA0346FB6581
:100370003B1D06211846FFF727FF0346184603F0EA
:100380009DFA03463B665A4801F0EEFD07F138033B
:10039000184600F0ADFA0346184601F0D9FD55485D
:1003A00001F0E2FD96E03B1D09225349184603F097
:1003B000D7FA0346002B4DD10123BB633B1D01211E
:1003C0001846FFF701FF0346184603F077FA034685
:1003D000FB633B1D02211846FFF7F6FE0346184655
:1003E00003F06CFA03463B643B1D03211846FFF7FC
:1003F000EBFE0346184603F061FA0346FB643B1D1F
:1004000004211846FFF7E0FE0346184603F056FAAB
:1004100003463B653B1D05211846FFF7D5FE034605
:10042000184603F04BFA0346FB653B1D06211846B0
:10043000FFF7CAFE0346184603F040FA03467B6600
:1004400007F13803184600F053FA0346184601F046
:100450007FFD3FE03B1D06222849184603F080FA45
:100460000346002B36D10323BB633B1D01211846F5
:10047000FFF7AAFE0346184603F020FA03467B6501
:100480003B1D02211846FFF79FFE0346184603F066
:1004900015FA0346FB633B1D03211846FFF794FE44
:1004A0000346184603F00AFA03463B643B1D042149
:1004B0001846FFF789FE0346184603F0FFF9034686
:1004C000BB6507F13803184600F012FA03461846D8
:1004D00001F03EFD3B1D32220021184603F0F2F9E7
:1004E000CDE600BF403B000808250020583B00082F
:1004F000603B00086C3B0008703B00087C3B000838
:1005000080B58AB000AF7860396000237B62002339
:100510003B620023FB610023BB617B681B8A9BB2AB
:100520007B627B6A23F440537B623B68DB881A461C
:100530007B6A13437B627B6A9AB27B681A827B6810
:100540009B899BB27B627B6A23F4B05323F00C033C
:100550007B623B689A883B681B8913439AB23B686D
:100560005B8913439BB21A467B6A13437B627B6AA7
:100570009AB27B689A817B689B8A9BB27B627B6A1A
:1005800023F440737B623B689B891A467B6A134362
:100590007B627B6A9AB27B689A8207F108031846ED
:1005A00000F08CFA7B68304A934203D07B682F4A74
:1005B000934202D17B693B6201E03B693B627B680D
:1005C0009B899BB21BB2002B0CDA3A6A13469B0044
:1005D00013449A001A443B681B685B00B2FBF3F3B8
:1005E000FB610BE03A6A13469B0013449A001A44DD
:1005F0003B681B689B00B2FBF3F3FB61FB691C4A81
:10060000A2FB03235B091B017B627B6A1B0964223B
:1006100002FB03F3FA69D31ABB617B689B899BB227
:100620001BB2002B0CDABB69DB003233104AA2FB91
:1006300003235B0903F007037A6A13437B620BE031
:10064000BB691B0132330A4AA2FB03235B0903F097
:100650000F037A6A13437B627B6A9AB27B681A81C2
:1006600000BF2837BD4680BD001001400014014086
:100670001F85EB5180B483B000AF78600B46FB70F0
:10068000FB78002B08D07B689B899BB243F4005316
:100690009AB27B689A8107E07B689B899BB223F4BE
:1006A00000539AB27B689A8100BF0C37BD4680BC6C
:1006B000704700BF80B483B000AF78600B467B808A
:1006C0007B88C3F308039AB27B689A8000BF0C371B
:1006D000BD4680BC704700BF80B487B000AF786073
:1006E0000B467B8013467B7000233B610023FB603D
:1006F0000023BB6000237B617B687B617B88DBB26E
:100700005B09DBB23B617B8803F01F03FB600122C6
:10071000FB6802FA03F3BB603B69012B03D17B69E1
:100720000C337B6109E03B69022B03D17B691033F9
:100730007B6102E07B6914337B617B78002B06D000
:100740007B697A691168BA680A431A6006E07B69B6
:100750007A691168BA68D2430A401A6000BF1C3730
:10076000BD4680BC704700BF80B485B000AF7860E4
:100770000B467B800023FB737B681B889AB27B88C7
:1007800013409BB2002B02D00123FB7301E0002336
:10079000FB73FB7B18461437BD4680BC704700BF17
:1007A00080B487B000AF78600B467B800023FB608D
:1007B00000237B610023BB600023FB747B88DBB2DA
:1007C0005B09DBB2BB607B8803F01F037B61012206
:1007D0007B6902FA03F37B61BB68012B07D17B685D
:1007E0009B899BB21A467B6913407B6111E0BB6811
:1007F000022B07D17B681B8A9BB21A467B69134088
:100800007B6106E07B689B8A9BB21A467B6913403A
:100810007B617B881B0A9BB2FB600122FB6802FAAA
:1008200003F3FB607B681B889BB21A46FB6813408E
:10083000FB607B69002B05D0FB68002B02D00123F5
:10084000FB7401E00023FB74FB7C18461C37BD469B
:1008500080BC704780B485B000AF78600B467B8069
:100860000023FB810023BB817B881B0AFB81FB8962
:10087000012202FA03F3BB81BB89DB439AB27B6896
:100880001A8000BF1437BD4680BC704780B582B067
:1008900000AF104B7B60104B3B6007E03B681A1DBC
:1008A0003A607A68111D796012681A603B680B4AD9
:1008B0009342F3D30A480B494FF000028842B8BF75
:1008C00040F8042BFADBFFF7BFFC00BF0837BD463A
:1008D00080BD00BFA03C0008000000203C29002093
:1008E0003C290020B056012080B400AFFEE700BFD5
:1008F000B0B586B002AF78600023FB607B681B68F0
:10090000012B52D0032B00F09F80002B40F0CB80B6
:100910007B681B68184601F01BFB654801F024FB4F
:100920007B685B68184601F013FB614801F01CFB13
:100930007B689B68184601F00BFB5D4801F014FBD7
:100940007B68DB68184601F003FB594801F00CFB9B
:100950007B681B69184601F0FBFA554801F004FB5F
:100960007B685B6A184601F0F3FA514801F0FCFA23
:100970007B689B6A184601F0EBFA4E4801F0F4FAE6
:100980007B6858687B6899687B68DC687B681D6950
:100990007B685B6ADBB27A68926A019200932B46AD
:1009A000224601F03BFAF8607DE07B681B68184640
:1009B00001F0CEFA3E4801F0D7FA7B685B68184632
:1009C00001F0C6FA3A4801F0CFFA7B689B681846F6
:1009D00001F0BEFA364801F0C7FA7B685B69184639
:1009E00001F0B6FA324801F0BFFA7B689B691846FD
:1009F00001F0AEFA2E4801F0B7FA7B685B6A184640
:100A000001F0A6FA2A4801F0AFFA7B68DB6A1846C3
:100A100001F09EFA274801F0A7FA7B6858687B68C6
:100A200099687B685C697B689D697B685B6A7A68AA
:100A3000D26A019200932B46224601F089FCF860AD
:100A40001D4801F091FA2EE07B681B68184601F002
:100A50007FFA174801F088FA7B68DB69184601F0D5
:100A600077FA134801F080FA7B685B68184601F05A
:100A70006FFA0F4801F078FA7B689B68184601F01E
:100A800067FA0C4801F070FA7B68D8697B6859688E
:100A90007B689A687B681B6A01F0E6F9F860064893
:100AA00001F062FA00BFFB6818461037BD46B0BDC2
:100AB000843B0008883B00088C3B000880B489B068
:100AC00000AF78600023BB6100237B610023FB61E2
:100AD00002233B610023FB600223BB60484B9B6801
:100AE00003F00C03BB61BB69042B07D0082B09D0B2
:100AF000002B3FD17B68434A1A603FE07B68424A43
:100B00001A603BE03E4B5B6803F480039B0DFB6087
:100B10003B4B5B6803F03F03BB60FB68002B0DD0D1
:100B2000394ABB68B2FBF3F2354B596847F6C073DC
:100B30000B409B0903FB02F3FB610CE0314ABB68ED
:100B4000B2FBF3F22E4B596847F6C0730B409B097A
:100B500003FB02F3FB612A4B5B6803F440331B0C7D
:100B600001335B003B61FA693B69B2FBF3F27B68DE
:100B70001A6003E07B68234A1A6000BF204B9B6821
:100B800003F0F003BB61BB691B09BB611F4ABB6972
:100B900013441B78DBB27B617B681A687B69DA409F
:100BA0007B685A60164B9B6803F4E053BB61BB69DA
:100BB0009B0ABB61154ABB6913441B78DBB27B619E
:100BC0007B685A687B69DA407B689A600C4B9B684B
:100BD00003F46043BB61BB695B0BBB610B4ABB6940
:100BE00013441B78DBB27B617B685A687B69DA400F
:100BF0007B68DA6000BF2437BD4680BC704700BF09
:100C0000003802400024F40000127A0000000020A6
:100C100080B483B000AF78600B46FB70FB78002B8C
:100C200006D00949084B1A6B7B6813430B6306E037
:100C30000549054B1A6B7B68DB4313400B6300BF10
:100C40000C37BD4680BC70470038024080B483B08A
:100C500000AF78600B46FB70FB78002B06D009498B
:100C6000084B1A6C7B6813430B6406E00549054B7F
:100C70001A6C7B68DB4313400B6400BF0C37BD4626
:100C800080BC70470038024080B483B000AF786009
:100C90000B46FB70FB78002B06D00949084B5A6CB9
:100CA0007B6813434B6406E00549054B5A6C7B682F
:100CB000DB4313404B6400BF0C37BD4680BC70471C
:100CC0000038024080B487B000AF786039600023FC
:100CD0007B6100233B610023FB6000237B6176E0A6
:100CE00001227B6902FA03F33B613B681A683B69A6
:100CF0001340FB60FA683B699A4265D17B681A68C9
:100D00007B695B00032101FA03F3DB431A407B6834
:100D10001A607B681A683B681B7919467B695B001F
:100D200001FA03F31A437B681A603B681B79012BB5
:100D300003D03B681B79022B2ED17B689A687B69B4
:100D40005B00032101FA03F3DB431A407B689A60DE
:100D50007B689A683B685B7919467B695B0001FA9E
:100D600003F31A437B689A607B685A687B699BB27D
:100D7000012101FA03F3DB431A407B685A607B6868
:100D80005A683B689B7919467B699BB201FA03F369
:100D90009BB21A437B685A607B68DA687B699BB2B6
:100DA0005B00032101FA03F3DB431A407B68DA603E
:100DB0007B68DA683B68DB7919467B695B0001FA7E
:100DC00003F31A437B68DA607B6901337B617B69DB
:100DD0000F2B85D900BF1C37BD4680BC704700BFB4
:100DE00080B485B000AF78600B467B800023FB7336
:100DF0007B681A697B881340002B02D00123FB73A8
:100E000001E00023FB73FB7B18461437BD4680BC12
:100E1000704700BF80B483B000AF78600B467B8022
:100E20007B687A881A8300BF0C37BD4680BC704748
:100E300080B483B000AF78600B467B807B687A8893
:100E40005A8300BF0C37BD4680BC704780B485B064
:100E500000AF78600B467B8013467B700023FB60FD
:100E60000023BB607A787B8803F007039B0002FABB
:100E700003F3FB607B88DB089BB218467B88DB08AA
:100E80009BB21A467B68083253F822207B8803F015
:100E900007039B000F2101FA03F3DB4302EA03017E
:100EA0007B6800F1080243F822107B88DB089BB2C4
:100EB0001A467B68083253F82220FB681343BB6054
:100EC0007B88DB089BB21A467B680832B96843F816
:100ED000221000BF1437BD4680BC704780B500AFFC
:100EE000124A124B1B6843F0010313600F4B0022A0
:100EF0009A600E4A0D4B1B6823F0847323F48033F1
:100F000013600A4B0A4A5A60084A084B1B6823F4CC
:100F100080231360054B0022DA6000F00DF8054BCA
:100F20004FF000629A6000BF80BD00BF00380240F1
:100F30001030002400ED00E080B483B000AF002347
:100F40007B6000233B60354A344B1B6843F480339D
:100F50001360324B1B6803F400333B607B68013342
:100F60007B603B68002B03D17B68B3F5A06FF0D1A9
:100F70002A4B1B6803F40033002B02D001233B6093
:100F800001E000233B603B68012B42D1234A234B05
:100F90001B6C43F080531364214A214B1B6843F4BC
:100FA000804313601D4A1D4B9B6893601B4A1B4B7B
:100FB0009B6843F400439360184A184B9B6843F4C2
:100FC000A0539360154B174A5A60144A134B1B6881
:100FD00043F08073136000BF104B1B6803F0007375
:100FE000002BF9D0104B40F205621A600B4A0B4BF4
:100FF0009B6823F003039360084A084B9B6843F007
:101000000203936000BF054B9B6803F00C03082BA1
:10101000F9D100BF0C37BD4680BC70470038024094
:101020000070004008544007003C024080B483B088
:1010300000AF78607B681B6823F001027B681A6050
:101040007B6800221A607B6800225A607B6800225D
:101050009A607B680022DA607B6800221A617B68F4
:1010600021225A617B68454A934203D1444B3D2279
:101070009A607EE07B68434A934204D1404B4FF430
:1010800074629A6075E07B683F4A934204D13C4B9E
:101090004FF474129A606CE07B683C4A934204D12E
:1010A000374B4FF074629A6063E07B68384A934232
:1010B00003D1334B374ADA605BE07B68364A9342B0
:1010C00003D12F4B354ADA6053E07B68344A9342B0
:1010D00003D12B4B334ADA604BE07B68324A9342B0
:1010E00004D1274B4FF03D52DA6042E07B682F4A33
:1010F000934203D12E4B3D229A603AE07B682D4A01
:10110000934204D12A4B4FF474629A6031E07B68B9
:10111000294A934204D1264B4FF474129A6028E076
:101120007B68264A934204D1214B4FF074629A6047
:101130001FE07B68224A934203D11D4B154ADA60B7
:1011400017E07B681F4A934203D1194B134ADA60B8
:101150000FE07B681C4A934203D1154B114ADA60B9
:1011600007E07B68194A934203D1114B4FF03D527F
:10117000DA6000BF0C37BD4680BC7047106002408B
:101180000060024028600240406002405860024017
:10119000706002403D00002088600240400F002047
:1011A000A060024000003D20B86002401064024090
:1011B00000640240286402404064024058640240D7
:1011C0007064024088640240A0640240B864024037
:1011D00080B485B000AF786039600023FB607B6825
:1011E0001B68FB60FA68244B1340FB603B681A687D
:1011F0003B68DB681A433B685B691A433B689B6941
:101200001A433B68DB691A433B681B6A1A433B6815
:101210005B6A1A433B689B6A1A433B685B6B1A43E1
:101220003B689B6B1343FA681343FB607B68FA6867
:101230001A607B685B69FB60FB6823F00703FB6057
:101240003B68DA6A3B681B6B1343FA681343FB6025
:101250007B68FA685A613B681A697B685A603B6828
:101260005A687B689A603B689A687B68DA6000BF5E
:101270001437BD4680BC70473F801CF080B483B0FB
:1012800000AF78600B46FB70FB78002B06D07B68C4
:101290001B6843F001027B681A6005E07B681B68ED
:1012A00023F001027B681A6000BF0C37BD4680BC8A
:1012B000704700BF80B485B000AFF860B9601346D6
:1012C000FB71BB6803F08003002B0FD0FB79002B70
:1012D00006D0FB685B6943F08002FB685A6105E059
:1012E000FB685B6923F08002FB685A61BB68802B56
:1012F00014D0FB79002B08D0FB681A68BB6803F098
:101300001E031A43FB681A6008E0FB681A68BB6892
:1013100003F01E03DB431A40FB681A6000BF14375A
:10132000BD4680BC704700BF80B487B000AF786016
:1013300039600023FB750023FB600023BB607B68E2
:10134000214A934202D8214B3B6101E0204B3B6193
:101350003B6823F0F02323F0C313002B0AD03B6833
:10136000DB0A03F01E03FB607B681A68FB6813400E
:10137000BB6004E07B685B6903F08003BB603B6893
:1013800003F00053002B03D03B695B68FB6002E075
:101390003B691B68FB60FB6823F0F02323F082139A
:1013A000FB60FA683B681340002B05D0BB68002B3C
:1013B00002D00123FB7501E00023FB75FB7D18467D
:1013C0001C37BD4680BC70470F640240006002407D
:1013D0000064024080B485B000AF786039607B68FB
:1013E000104A934202D8104BFB6001E00F4BFB60A8
:1013F0003B6803F00053002B07D03B6823F0F02339
:1014000023F08213FA68D36006E03B6823F0F023F0
:1014100023F08213FA68936000BF1437BD4680BC86
:10142000704700BF0F640240006002400064024049
:1014300080B582B000AF1B4B00221A80194B0022EE
:101440005A60184B00229A600023BB8017E00023EB
:10145000FB800DE0BA8813469B0013449B011A449D
:10146000FB881344104A0021D154FB880133FB80D0
:10147000FB88B3F5A07FEDD9BB880133BB80BB8867
:10148000EF2BE4D900F05CF800F0AEF800F03EF984
:1014900000F010F9054B1B68024A936000BF083743
:1014A000BD4680BD402900204C29002088640240B0
:1014B00080B584B000AF0346FB710023BB8112E00E
:1014C0000023FB8108E0FA79B989FB89184600F00E
:1014D00011F8FB890133FB81FB89B3F5A07FF2D3BF
:1014E000BB890133BB81BB89EF2BE9D900BF103722
:1014F000BD4680BD80B483B000AF0346FB800B4681
:10150000BB801346FB70FB88B3F5A07F01D300239B
:10151000FB80BB88EF2B01D90023BB80BA88134620
:101520009B0013449B011A44FB8813440349FA7837
:10153000CA5400BF0C37BD4680BC70474C29002000
:1015400080B582B000AF01211020FFF761FB4FF49E
:101550007F433B6001233B710023BB710123FB717F
:1015600003237B713B4619461D48FFF7ABFB1C4B21
:101570004FF47F425A8301210220FFF749FB4FF4C9
:1015800000633B6002233B7103237B710023BB712B
:101590000123FB713B4619461248FFF793FB0122DA
:1015A0000B211048FFF752FC01210220FFF730FB0E
:1015B0004FF480533B6001233B710023BB71012337
:1015C000FB7103237B713B4619460648FFF77AFB04
:1015D000044B4FF480521A8300BF0837BD4680BDCC
:1015E000001002400004024080B588B000AF012125
:1015F0000120FFF749FB0B23BB610023BB820023C3
:10160000BB830023FB8207F114031946284800F02E
:10161000A9F901210120FFF719FB40F66B23BB61FB
:101620000023BB820023BB830023FB8207F114034A
:1016300019464FF0804000F095F960233B8001236C
:101640007B804FF4D273BB600223BB813B461946BB
:101650004FF0804000F030FA08214FF0804000F059
:1016600017FB60233B8001237B804FF4A073BB609A
:101670000223BB813B4619464FF0804000F0A2FA9E
:1016800008214FF0804000F01FFB0121084800F0C6
:10169000D3F901214FF0804000F0CEF901214FF045
:1016A000804000F0E9F900BF2037BD4680BD00BF93
:1016B0000000014080B582B000AF01221021124825
:1016C000FFF7F8FD44233B7100237B710023BB71BE
:1016D0000123FB713B1D184600F0E4F801220821AC
:1016E0004FF0804000F00EFB1C233B7100237B7108
:1016F0000023BB710123FB713B1D184600F0D2F89B
:1017000000BF0837BD4680BD8864024080B590B0F8
:1017100000AF01214FF48000FFF77AFA00211B4847
:10172000FFF7ACFD1948FFF781FC4FF040637B6089
:10173000174BBB60174BFB6040233B6140F24113EA
:101740007B610023BB614FF48063FB6100233B623C
:1017500000237B620023BB624FF44033FB62002313
:101760003B6301237B630023BB630023FB633B1DBF
:1017700019460648FFF72CFD01224FF480710648F8
:1017800000F0F4FA00BF4037BD4680BD88640240D7
:10179000151002404C2900200000014080B500AF28
:1017A00008214FF0804000F0D1FA264B1B8801330E
:1017B0009AB2244B1A80234B1B88B3F5037F05D9BB
:1017C000204B00221A80204A1E4B5A601D4B1B885A
:1017D000012B04D81D4B4FF480525A8303E01B4B5E
:1017E0004FF480521A83174B1B88232B27D9154B94
:1017F0001B8840F20222934221D8154A114B9B6864
:101800001360134A0F4B5B68D360124A114B1B885D
:101810009BB243F001039BB213800D4A0C4B1B6833
:1018200043F001031360074B1B8803F00103002BF7
:1018300005D0044B5B6803F24113024A536000BFBA
:1018400080BD00BF402900204C2900200004024038
:10185000886402400000014080B500AF0D490E4889
:10186000FFF762FD0346002B12D00A490A48FFF732
:10187000B1FD0A4A094B1B889BB223F001039BB2BE
:101880001380054B00221A60054B4FF47F425A83A8
:1018900000BF80BD00880020886402400000014035
:1018A0000010024080B485B000AF78600023FB7365
:1018B0000023BB730F237B737B68DB78002B38D04E
:1018C000264BDB68DB4303F4E0631B0AFB73FB7B03
:1018D000C3F10403BB737A7BFB7B42FA03F37B7394
:1018E0007B685B781A46BB7B02FA03F3FB737B6869
:1018F0009A787B7B1340DAB2FB7B1343FB73FB7B51
:101900001B01FB73164A7B681B781344FA7B83F830
:101910000023134A7B681B785B09DBB218467B689F
:101920001B7803F01F03012101FA03F342F8203072
:101930000FE00B497B681B785B09DBB218467B68BC
:101940001B7803F01F0301229A4000F1200341F8A5
:10195000232000BF1437BD4680BC704700ED00E077
:1019600000E100E080B485B000AF7860396000230A
:10197000FB817B681B88FB817B68284A934213D0DC
:101980007B68274A93420FD07B68B3F1804F0BD01E
:101990007B68244A934207D07B68234A934203D052
:1019A0007B68224A934208D1FB8923F07003FB81B4
:1019B0003B685A88FB891343FB817B681C4A93422E
:1019C0000CD07B681B4A934208D0FB8923F44073F8
:1019D000FB813B681A89FB891343FB817B68FA8989
:1019E0001A803B685A687B68DA623B681A887B68B1
:1019F0001A857B68094A934203D07B68084A934260
:101A000004D13B689B7A9AB27B681A867B68012274
:101A10009A8200BF1437BD4680BC70470000014069
:101A2000000401400004004000080040000C004099
:101A3000001000400014004080B483B000AF786014
:101A40000B46FB70FB78002B08D07B681B889BB291
:101A500043F080039AB27B681A8007E07B681B889A
:101A60009BB223F080039AB27B681A8000BF0C37C8
:101A7000BD4680BC704700BF80B483B000AF7860C3
:101A80000B46FB70FB78002B08D07B681B889BB251
:101A900043F001039AB27B681A8007E07B681B88D9
:101AA0009BB223F001039AB27B681A8000BF0C3707
:101AB000BD4680BC704700BF80B485B000AF786081
:101AC000396000237B810023FB810023BB817B687D
:101AD0001B8C9BB223F480739AB27B681A847B6858
:101AE0001B8CFB817B689B88BB817B689B8B7B818C
:101AF0007B8923F070037B817B8923F003037B8147
:101B00003B681A887B8913437B81FB8923F400732C
:101B1000FB813B689B891B029AB2FB891343FB81C3
:101B20003B685B881B029AB2FB891343FB817B688D
:101B3000224A934203D07B68214A93422BD1FB89EE
:101B400023F40063FB813B68DB891B029AB2FB89AB
:101B50001343FB81FB8923F48063FB813B689B88F3
:101B60001B029AB2FB891343FB81BB8923F4805388
:101B7000BB81BB8923F40053BB813B681B8A1B01DB
:101B80009AB2BB891343BB813B685B8A1B019AB243
:101B9000BB891343BB817B68BA899A807B687A8949
:101BA0009A833B689A687B68DA637B68FA891A844F
:101BB00000BF1437BD4680BC704700BF0000014025
:101BC0000004014080B485B000AF78603960002324
:101BD000BB8100237B810023FB817B681B8C9BB234
:101BE00023F480539AB27B681A847B681B8C7B81B8
:101BF0007B689B88FB817B689B8BBB81BB8923F4C3
:101C0000E043BB81BB8923F44073BB813B681B88E5
:101C10001B029AB2BB891343BB817B8923F4005317
:101C20007B813B689B891B039AB27B8913437B8131
:101C30003B685B881B039AB27B8913437B817B687B
:101C4000114A934203D07B68104A93420AD1FB8920
:101C500023F48043FB813B681B8A9B019AB2FB897A
:101C60001343FB817B68FA899A807B68BA899A83DF
:101C70003B689A687B681A647B687A891A8400BF1B
:101C80001437BD4680BC704700000140000401408D
:101C900080B485B000AF78600B467B800023FB8169
:101CA0007B689B8BFB81FB8923F00803FB81FA890E
:101CB0007B881343FB817B68FA899A8300BF1437C2
:101CC000BD4680BC704700BF80B485B000AF78606F
:101CD0000B467B800023FB817B689B8BFB81FB8910
:101CE00023F40063FB817B881B029AB2FB891343B8
:101CF000FB817B68FA899A8300BF1437BD4680BC9C
:101D0000704700BF80B483B000AF78600B467B8023
:101D100013467B707B78002B08D07B689B899AB236
:101D20007B8813439AB27B689A8109E07B689B8920
:101D30009AB27B88DB439BB213409AB27B689A814C
:101D400000BF0C37BD4680BC704700BF80B483B075
:101D500000AF78600B467B807B88DB439AB27B6860
:101D60001A8200BF0C37BD4680BC704780B483B078
:101D700000AF78600B467B8013467B707B78002B2E
:101D800008D07B689B899AB27B8813439AB27B68A0
:101D90009A8109E07B689B899AB27B88DB439BB27E
:101DA00013409AB27B689A8100BF0C37BD4680BC55
:101DB000704700BF80B487B000AFF860B9607A6048
:101DC0003B6000237B61FB68B3F5A07F09DAFB6809
:101DD000002B06DD7B68B3F5A07F02DA7B68002B61
:101DE00003DC7B6943F001037B61BB68B3F5A07F33
:101DF00009DABB68002B06DD3B68B3F5A07F02DA89
:101E00003B68002B03DC7B6943F002037B617B6949
:101E100018461C37BD4680BC704700BF80B588B0EF
:101E200002AFF860B9607A603B6000237B613B6879
:101E30007A68B968F868FFF7BDFF78617B69002BA5
:101E400001D07B690CE07B6A019397F82030009306
:101E50003B687A68B968F86800F042F978617B6994
:101E600018461837BD4680BD80B586B000AFF86013
:101E7000B9607A603B6000237B61FB68052B39D831
:101E800001A252F823F000BFA11E0008AF1E0008F7
:101E9000BD1E0008CB1E0008D91E0008E71E000862
:101EA0003B68184A7968B86800F06AF824E03B6833
:101EB000154A7968B86800F063F81DE03B68134A7A
:101EC0007968B86800F05CF816E03B68104A7968F9
:101ED000B86800F055F80FE03B680E4A7968B868BA
:101EE00000F04EF808E03B680B4A7968B86800F0EB
:101EF00047F801E008237B617B6918461837BD4627
:101F000080BD00BF1000002078040020E008002001
:101F1000200D0020601100202C1B002080B500AF98
:101F2000FEF7DCFFFFF784FA00F084FA00F0ACFB68
:101F300000F05CFC00BF80BD80B582B000AF78606F
:101F40000021786800F0AAFD00BF0837BD4680BDBB
:101F500080B582B000AF78607B68184600F020FD45
:101F600000BF0837BD4680BD80B582B000AF786045
:101F7000786800F09FFC00BF0837BD4680BD00BFF9
:101F800080B588B000AFF860B9607A603B607B686C
:101F90001B781A467B6801331B781B021A437B6847
:101FA00002331B781B041A437B6803331B781946E2
:101FB000202301FA03F313437B617B6804331B780E
:101FC0001A467B6805331B781B021A437B6806336D
:101FD0001B781B041A437B6807331B7819462023A0
:101FE00001FA03F313433B610023BB6161E000236B
:101FF000FB6157E0BB697A6902FB03F2FB6913449A
:1020000008337A6813441B78FF2B24D03B68002BDD
:1020100021D1FB689AB2FB699BB213449AB27B69E7
:102020009BB2134498B2BB689AB2BB699BB213448B
:102030009AB23B699BB2134499B2BB697A6902FBBD
:1020400003F2FB69134408337A6813441B781A4679
:10205000FFF750FA23E03B68012B20D1FB689AB2CE
:10206000FB699BB213449AB27B699BB2134498B24A
:10207000BB689AB2BB699BB213449AB23B699BB2EC
:10208000134499B2BB697A6902FB03F2FB691344FA
:1020900008337A6813441B781A46FFF72BFAFB695A
:1020A0000133FB61FA697B699A42A3D3BB690133AF
:1020B000BB61BA693B699A4299D300BF2037BD46DC
:1020C00080BD00BF80B582B000AF78607B68DBB2B6
:1020D0001846FFF7EDF900BF0837BD4680BD00BFC9
:1020E00090B58BB000AFF860B9607A603B607A68F9
:1020F000FB68D31A184601F0A1F90346BB613A68A0
:10210000BB68D31A184601F099F903467B61B96997
:10211000786901F09BFA03463B61FB6BDA0F1344CD
:102120005B10FB610BE13B6923F000434FF07E51F4
:10213000184601F07FFB0346002B77D0FA687B68D6
:102140009A4238DAFB687B6230E07A6AFB68D31A1D
:10215000184601F073F903463969184601F0C2F9CF
:1021600003461C46B86801F069F903461946204643
:1021700001F0B0F803461C46F86901F05FF9034628
:102180001946204601F0A6F80346184601F070FBF8
:1021900003463B627B6A9BB23A6A91B297F8382059
:1021A0001846FFF7A7F97B6A01337B627A6A7B687E
:1021B0009A42CADBBDE07B687B6232E07A6AFB68E8
:1021C000D31A184601F03AF903463969184601F066
:1021D00089F903461C46B86801F030F903461946F0
:1021E000204601F077F803461C46F86901F026F90D
:1021F00003461946204601F06DF80346184601F0E3
:1022000037FB03463B627B6A98B23B6A9BB2013B59
:102210009BB297F838201946FFF76CF97B6A0133B7
:102220007B627A6AFB689A42C8DB82E0BA683B68E4
:102230009A423FDABB683B6237E039694FF07E5023
:1022400001F004FA03461C463A6ABB68D31A1846E2
:1022500001F0F4F803461946204601F043F903461D
:102260001C46F86801F0EAF803461946204601F0DA
:1022700031F803461C46F86901F0E0F803461946B8
:10228000204601F027F80346184601F0F1FA03460C
:102290007B627B6A9BB23A6A91B297F83820184603
:1022A000FFF728F93B6A01333B623A6A3B689A427E
:1022B000C3DB3EE03B683B6237E039694FF07E505C
:1022C00001F0C4F903461C463A6ABB68D31A1846A3
:1022D00001F0B4F803461946204601F003F903461D
:1022E0001C46F86801F0AAF803461946204600F09B
:1022F000F1FF03461C46F86901F0A0F803461946B1
:10230000204600F0E7FF0346184601F0B1FA034605
:102310007B627B6A9BB23A6A91B297F83820184682
:10232000FFF7E8F83B6A01333B623A6ABB689A42BE
:10233000C3DBFB69013BFB61FB6B013BFB63FB6B9D
:10234000002B3FF7F0AE002318462C37BD4690BD5A
:1023500080B586B002AFF860B9607A603B607A6899
:10236000FB6813447B603A68BB6813443B60FB69BD
:10237000002B02D0012B3BD03FE0BB69DBB2012236
:1023800001920093BB687A68B968F868FFF7A8FE05
:10239000BB69DBB20122019200933B68FA68B9681D
:1023A000F868FFF79DFEBB69DBB201220192009342
:1023B000BB687A6839687868FFF792FEBB69DBB260
:1023C0000122019200933B68FA6839687868FFF748
:1023D00087FE14E0BB69DBB2012201920093BB6867
:1023E0007A68B968F868FFF77BFEBB680133BB60A9
:1023F000BA683B689A42EDDB01E0012300E000236C
:1024000018461037BD4680BD80B500AF082108488A
:10241000FEF70EFD10210648FEF70AFD20210448B4
:10242000FEF706FD40210248FEF702FD00BF80BD19
:102430000010024080B582B000AF01211020FEF7ED
:10244000E7FB01210420FEF7E3FB01210820FEF752
:10245000DFFB01233B710023BB710023FB710223CF
:102460007B7178233B603B4619462848FEF72AFCDF
:102470004FF420533B603B4619462548FEF722FCAB
:1024800001233B603B4619462248FEF71BFC4FF4F4
:1024900000511F48FEF7CCFC01211E48FEF7C8FC86
:1024A0004FF400611A48FEF7C3FC0F2000F080F9DA
:1024B000302000F063F8322000F07AF9302000F08C
:1024C0005DF8302000F05AF8022000F057F805209F
:1024D00000F06EF92C2000F051F80F2000F068F9A0
:1024E0000E2000F04BF80F2000F062F9012000F000
:1024F00045F80F2000F05CF9062000F03FF80F20AF
:1025000000F056F900BF0837BD4680BD00100240FC
:1025100000080240000C024080B582B000AF0346C4
:10252000FB71FFF771FFFB7903F00103002B03D070
:1025300040211148FEF76EFCFB7903F00203002BEB
:1025400003D020210C48FEF765FCFB7903F004035F
:10255000002B03D010210848FEF75CFCFB7903F048
:102560000803002B03D008210348FEF753FC00BFEB
:102570000837BD4680BD00BF0010024080B582B064
:1025800000AF0346FB7101211148FEF743FCFB79C4
:102590001B09DBB21846FFF7BFFF01210C48FEF70D
:1025A00047FC00F017F801210948FEF733FCFB79DE
:1025B00003F00F03DBB21846FFF7AEFF012104481A
:1025C000FEF736FC00F006F800BF0837BD4680BDB8
:1025D000000C024080B584B000AF0023FB730123E0
:1025E000BB732FE078237B6000233B720023BB7218
:1025F0000023FB7202237B723B1D19461E48FEF727
:1026000061FB4FF400511D48FEF712FC4FF40061CE
:102610001A48FEF7FFFB012000F0CAF80121184814
:10262000FEF7F8FB012000F0C3F840211248FEF746
:10263000D7FB0346FB7301211148FEF7F9FB01208C
:1026400000F0B6F8FA7BBB7B9A42CBD078237B6054
:1026500001233B720023BB720023FB7202237B72B7
:102660003B1D19460448FEF72DFB012000F0A0F8A1
:1026700000BF1037BD4680BD001002400008024078
:10268000000C02400000000090B585B000AF3B4652
:102690001846FEF713FA3B683F4A13603E4B1B682F
:1026A000184600F069FB4FF000023C4B00F0DAFBEB
:1026B00003460C46184621464FF00002384B00F006
:1026C000FBFC03460C46184621464FF000024FF033
:1026D000804300F0F1FC03460C461846214600F00A
:1026E000D3FD02462F4B1A602B4B1B68184600F097
:1026F00043FB4FF00002294B00F0B4FB03460C46AD
:102700001846214620A3D3E9002300F0D5FC034658
:102710000C46184621464FF000024FF0804300F06F
:10272000CBFC03460C461846214600F0ADFD0246A0
:102730001D4B1A60184B1B68184600F01DFB4FF02C
:102740000002164B00F08EFB03460C46184621464D
:102750000FA3D3E9002300F0AFFC03460C46184654
:1027600021464FF000024FF0804300F0A5FC0346E5
:102770000C461846214600F087FD02460B4B1A60B6
:1027800000BF1437BD4690BD000000000094C1405A
:1027900000000000882A61413C5601200000F43FFF
:1027A0000000224040560120485601204456012096
:1027B00080B485B000AF78600DE00023FB6002E0DC
:1027C000FB680133FB60FA68074B1B689A42F7D33A
:1027D0007B68013B7B607B68002BEED100BF143728
:1027E000BD4680BC704700BF4856012080B586B00A
:1027F00000AF01214FF40030FEF728FA012101203B
:10280000FEF706FA0C233B6102233B750023BB75E0
:102810000123FB7502237B7507F110031946164847
:10282000FEF750FA072202211348FEF70FFB07229A
:1028300003211148FEF70AFB4FF4E1333B6000230C
:10284000BB800023FB8000233B810023BB810C2342
:102850007B813B4619460948FDF752FE012240F2B2
:1028600025510648FDF738FF01210448FDF702FF16
:1028700000BF1837BD4680BD000002400044004044
:1028800080B582B000AF0346FB7100BF80210848CD
:10289000FDF76AFF0346002BF8D0FB799BB219467F
:1028A0000348FDF707FF00BF0837BD4680BD00BFE6
:1028B0000044004080B584B000AF78600023FB6026
:1028C00009E0FB687A6813441B781846FFF7D8FFC5
:1028D000FB680133FB60FB687A6813441B78002BAC
:1028E000EFD100BF1037BD4680BD00BF80B582B0BC
:1028F00000AF40F225512748FDF752FF0346002B59
:1029000044D040F225512348FDF7A4FF214B9B887A
:102910009BB2FB70FB78402B05D9FB785A2B02D871
:10292000FB782033FB70FB780D2B1DD800237B60D8
:102930000BE0194A7B6813441B789BB21946154873
:10294000FDF7B8FE7B6801337B60144B1B687A6827
:102950009A42EEDB114B00221A60FB789BB21946BB
:102960000C48FDF7A7FE09E00C4B1B680A49FA78F2
:10297000CA540A4B1B680133084A136000BF402148
:102980000448FDF7F1FE0346002BF8D000BF0837DE
:10299000BD4680BD004400404C5601203C2900202B
:1029A00080B582B000AF78600A21786800F004F842
:1029B00000BF0837BD4680BD80B588B000AF7860E5
:1029C0000B46FB700F23FB617B68002B29D107F1BD
:1029D0000802FB69134430221A70FB69013BFB615A
:1029E00039E0FA787B68B3FBF2F102FB01F29B1A43
:1029F000BB61FB787A68B2FBF3F37B60194ABB6971
:102A000013441B7859B207F10802FB6913440A46C4
:102A10001A70FB69013BFB61FB69002B01D10023AC
:102A20007B607B68002BDCD115E0FB690133FB6127
:102A300000BF80210C48FDF797FE0346002BF8D01D
:102A400007F10802FB69134493F900309BB2194661
:102A50000548FDF72FFEFB690E2BE6DD00BF203792
:102A6000BD4680BDF82400200044004080B582B0FF
:102A700000AFFF23FB7120210748FDF775FE0346D9
:102A8000012B03D1044B9B889BB2FB71FB79184649
:102A90000837BD4680BD00BF0044004080B582B00D
:102AA00000AF78603960FFF7E1FF03461A467B68A4
:102AB0001A707B681B78FF2B17D07B681B780A2B5A
:102AC00013D03B68002B04D07B681B781846FFF7B7
:102AD000D7FE7B681B780D2B03D17B6800221A7010
:102AE00005E07B6801337B60DDE700BFDBE708378B
:102AF000BD4680BD81F0004102E000BF83F000438D
:102B000030B54FEA41044FEA430594EA050F08BF88
:102B100090EA020F1FBF54EA000C55EA020C7FEA4C
:102B2000645C7FEA655C00F0E2804FEA5454D4EBC9
:102B30005555B8BF6D420CDD2C4480EA020281EA93
:102B4000030382EA000083EA010180EA020281EACB
:102B50000303362D88BF30BD11F0004F4FEA01311D
:102B60004FF4801C4CEA113102D0404261EB41012C
:102B700013F0004F4FEA03334CEA133302D05242B2
:102B800063EB430394EA050F00F0A780A4F101046E
:102B9000D5F1200E0DDB02FA0EFC22FA05F28018A8
:102BA00041F1000103FA0EF2801843FA05F359418E
:102BB0000EE0A5F120050EF1200E012A03FA0EFC0D
:102BC00028BF4CF0020C43FA05F3C01851EBE37137
:102BD00001F0004507D54FF0000EDCF1000C7EEB54
:102BE00000006EEB0101B1F5801F1BD3B1F5001F92
:102BF0000CD349085FEA30004FEA3C0C04F10104B1
:102C00004FEA445212F5800F80F09A80BCF1004FD9
:102C100008BF5FEA500C50F1000041EB045141EA5B
:102C2000050130BD5FEA4C0C404141EB010111F45C
:102C3000801FA4F10104E9D191F0000F04BF014607
:102C40000020B1FA81F308BF2033A3F10B03B3F1E5
:102C500020020CDA0C3208DD02F1140CC2F10C0275
:102C600001FA0CF021FA02F10CE002F11402D8BFD3
:102C7000C2F1200C01FA02F120FA0CFCDCBF41EA9F
:102C80000C019040E41AA2BF01EB0451294330BD6E
:102C90006FEA04041F3C1CDA0C340EDC04F114044B
:102CA000C4F1200220FA04F001FA02F340EA030022
:102CB00021FA04F345EA030130BDC4F10C04C4F168
:102CC000200220FA02F001FA04F340EA0300294648
:102CD00030BD21FA04F0294630BD94F0000F83F492
:102CE000801306BF81F480110134013D4EE77FEA75
:102CF000645C18BF7FEA655C29D094EA050F08BFC1
:102D000090EA020F05D054EA000C04BF19461046A1
:102D100030BD91EA030F1EBF0021002030BD5FEAE5
:102D2000545C05D14000494128BF41F0004130BD0D
:102D300014F580043CBF01F5801130BD01F0004561
:102D400045F0FE4141F470014FF0000030BD7FEAD4
:102D5000645C1ABF194610467FEA655C1CBF0B46CF
:102D6000024650EA013406BF52EA033591EA030FE6
:102D700041F4002130BD00BF90F0000F04BF0021DE
:102D8000704730B54FF4806404F132044FF0000511
:102D90004FF0000150E700BF90F0000F04BF00218A
:102DA000704730B54FF4806404F1320410F00045F0
:102DB00048BF40424FF000013EE700BF42004FEAEB
:102DC000E2014FEA31014FEA02701FBF12F07F4368
:102DD00093F07F4F81F06051704792F0000F14BF65
:102DE00093F07F4F704730B54FF4607401F00045A9
:102DF00021F0004120E700BF50EA010208BF704700
:102E000030B54FF000050AE050EA010208BF7047F4
:102E100030B511F0004502D5404261EB41014FF45D
:102E2000806404F132045FEA915C3FF4DCAE4FF061
:102E300003025FEADC0C18BF03325FEADC0C18BF48
:102E4000033202EBDC02C2F1200300FA03FC20FA99
:102E500002F001FA03FE40EA0E0021FA02F11444E6
:102E6000C1E600BF70B54FF0FF0C4CF4E06C1CEAFB
:102E700011541DBF1CEA135594EA0C0F95EA0C0F70
:102E800000F0DEF82C4481EA030621EA4C5123EAE3
:102E90004C5350EA013518BF52EA033541F4801112
:102EA00043F4801338D0A0FB02CE4FF00005E1FBC5
:102EB00002E506F00042E0FB03E54FF00006E1FB0F
:102EC00003569CF0000F18BF4EF0010EA4F1FF0452
:102ED000B6F5007F64F5407404D25FEA4E0E6D4192
:102EE00046EB060642EAC62141EA55514FEAC520A3
:102EF00040EA5E504FEACE2EB4F1FD0C88BFBCF51F
:102F0000E06F1ED8BEF1004F08BF5FEA500E50F1CF
:102F1000000041EB045170BD06F0004646EA010195
:102F200040EA020081EA0301B4EB5C04C2BFD4EBC7
:102F30000C0541EA045170BD41F480114FF0000EC0
:102F4000013C00F3AB8014F1360FDEBF002001F02E
:102F5000004170BDC4F10004203C35DA0C341BDCA8
:102F600004F11404C4F1200500FA05F320FA04F07A
:102F700001FA05F240EA020001F0004221F00041AE
:102F800010EBD37021FA04F642EB06015EEA430E21
:102F900008BF20EAD37070BDC4F10C04C4F1200551
:102FA00000FA04F320FA05F001FA04F240EA020004
:102FB00001F0004110EBD37041F100015EEA430ED5
:102FC00008BF20EAD37070BDC4F1200500FA05F2F5
:102FD0004EEA020E20FA04F301FA05F243EA020374
:102FE00021FA04F001F0004121FA04F220EA020083
:102FF00000EBD3705EEA430E08BF20EAD37070BDC9
:1030000094F0000F0FD101F00046400041EB0101A8
:1030100011F4801F08BF013CF7D041EA060195F08A
:10302000000F18BF704703F00046520043EB030344
:1030300013F4801F08BF013DF7D043EA0603704731
:1030400094EA0C0F0CEA135518BF95EA0C0F0CD03C
:1030500050EA410618BF52EA4306D1D181EA030182
:1030600001F000414FF0000070BD50EA410606BF7C
:103070001046194652EA430619D094EA0C0F02D1C1
:1030800050EA013613D195EA0C0F05D152EA033606
:103090001CBF104619460AD181EA030101F0004124
:1030A00041F0FE4141F470014FF0000070BD41F06D
:1030B000FE4141F4780170BD70B54FF0FF0C4CF447
:1030C000E06C1CEA11541DBF1CEA135594EA0C0F66
:1030D00095EA0C0F00F0A7F8A4EB050481EA030EB3
:1030E00052EA03354FEA013100F088804FEA03339A
:1030F0004FF0805545EA131343EA12634FEA022268
:1031000045EA111545EA10654FEA00260EF0004128
:103110009D4208BF964244F1FD0404F5407402D27A
:103120005B084FEA3202B61A65EB03055B084FEA0B
:1031300032024FF480104FF4002CB6EB020E75EB08
:10314000030E22BFB61A754640EA0C005B084FEA30
:103150003202B6EB020E75EB030E22BFB61A7546AD
:1031600040EA5C005B084FEA3202B6EB020E75EBF8
:10317000030E22BFB61A754640EA9C005B084FEA70
:103180003202B6EB020E75EB030E22BFB61A75467D
:1031900040EADC0055EA060E18D04FEA051545EA6C
:1031A00016754FEA06164FEAC30343EA52734FEA15
:1031B000C2025FEA1C1CC0D111F4801F0BD141EA8E
:1031C00000014FF000004FF0004CB6E711F4801FF3
:1031D00004BF01430020B4F1FD0C88BFBCF5E06FD3
:1031E0003FF6AFAEB5EB030C04BFB6EB020C5FEAE3
:1031F000500C50F1000041EB045170BD0EF0004E38
:103200004EEA113114EB5C04C2BFD4EB0C0541EA69
:10321000045170BD41F480114FF0000E013C90E666
:1032200045EA060E8DE60CEA135594EA0C0F08BF2A
:1032300095EA0C0F3FF43BAF94EA0C0F0AD150EA29
:1032400001347FF434AF95EA0C0F7FF425AF1046BC
:1032500019462CE795EA0C0F06D152EA03353FF4E4
:10326000FDAE1046194622E750EA410618BF52EA61
:1032700043067FF4C5AE50EA41047FF40DAF52EA35
:1032800043057FF4EBAE12E74A0011D212F50012AB
:1032900011D20DD56FF47873B3EB62520ED44FEAAE
:1032A000C12343F0004343EA505323FA02F070472E
:1032B0004FF00000704750EA013002D14FF0FF306C
:1032C00070474FF00000704780F0004002E000BF00
:1032D00081F0004142001FBF5FEA410392EA030F01
:1032E0007FEA226C7FEA236C6AD04FEA1262D2EB4B
:1032F0001363C1BFD218414048404140B8BF5B4250
:10330000192B88BF704710F0004F40F4000020F0E8
:103310007F4018BF404211F0004F41F4000121F0FE
:103320007F4118BF494292EA030F3FD0A2F1010248
:1033300041FA03FC10EB0C00C3F1200301FA03F186
:1033400000F0004302D5494260EB4000B0F5000FA9
:1033500013D3B0F1807F06D340084FEA310102F168
:103360000102FE2A51D2B1F1004F40EBC25008BF1A
:1033700020F0010040EA03007047490040EB0000E4
:1033800010F4000FA2F10102EDD1B0FA80FCACF113
:10339000080CB2EB0C0200FA0CF0AABF00EBC25012
:1033A00052421843BCBFD0401843704792F0000F00
:1033B00081F4000106BF80F400000132013BB5E753
:1033C0004FEA41037FEA226C18BF7FEA236C21D0C9
:1033D00092EA030F04D092F0000F08BF084670472E
:1033E00090EA010F1CBF0020704712F07F4F04D1FC
:1033F000400028BF40F00040704712F100723CBF0F
:1034000000F50000704700F0004343F0FE4040F438
:10341000000070477FEA226216BF08467FEA2363F6
:103420000146420206BF5FEA412390EA010F40F4E1
:10343000800070474FF0000304E000BF10F000432D
:1034400048BF40425FEA000C08BF704743F0964314
:1034500001464FF000001CE050EA010208BF70472F
:103460004FF000030AE000BF50EA010208BF7047B6
:1034700011F0004302D5404261EB41015FEA010CCB
:1034800002BF84460146002043F0B64308BFA3F1C3
:103490008053A3F50003BCFA8CF2083AA3EBC253A5
:1034A00010DB01FA02FC634400FA02FCC2F12002C4
:1034B000BCF1004F20FA02F243EB020008BF20F0FB
:1034C0000100704702F1200201FA02FCC2F1200261
:1034D00050EA4C0021FA02F243EB020008BF20EA56
:1034E000DC7070474FF0FF0C1CEAD0521EBF1CEA84
:1034F000D15392EA0C0F93EA0C0F6FD01A4480EA72
:10350000010C400218BF5FEA41211ED04FF000635A
:1035100043EA501043EA5111A0FB01310CF0004086
:10352000B1F5000F3EBF490041EAD3715B0040EAAC
:10353000010062F17F02FD2A1DD8B3F1004F40EB7C
:10354000C25008BF20F00100704790F0000F0CF04F
:10355000004C08BF49024CEA502040EA51207F3A13
:10356000C2BFD2F1FF0340EAC250704740F40000EE
:103570004FF00003013A5DDC12F1190FDCBF00F0DF
:1035800000407047C2F10002410021FA02F1C2F18D
:10359000200200FA02FC5FEA310040F1000053EA29
:1035A0004C0308BF20EADC70704792F0000F00F077
:1035B000004C02BF400010F4000F013AF9D040EA7D
:1035C0000C0093F0000F01F0004C02BF490011F411
:1035D000000F013BF9D041EA0C018FE70CEAD1530F
:1035E00092EA0C0F18BF93EA0C0F0AD030F0004C8F
:1035F00018BF31F0004CD8D180EA010000F0004043
:10360000704790F0000F17BF90F0004F084691F000
:10361000000F91F0004F14D092EA0C0F01D142023A
:103620000FD193EA0C0F03D14B0218BF084608D103
:1036300080EA010000F0004040F0FE4040F400004D
:10364000704740F0FE4040F4400070474FF0FF0CE0
:103650001CEAD0521EBF1CEAD15392EA0C0F93EA27
:103660000C0F69D0A2EB030280EA010C49024FEA79
:10367000402037D04FF0805343EA111143EA101332
:103680000CF000408B4238BF5B0042F17D024FF4EA
:10369000000C8B4224BF5B1A40EA0C00B3EB510FC5
:1036A00024BFA3EB510340EA5C00B3EB910F24BFAE
:1036B000A3EB910340EA9C00B3EBD10F24BFA3EB33
:1036C000D10340EADC001B0118BF5FEA1C1CE0D1FB
:1036D000FD2A3FF650AF8B4240EBC25008BF20F0AE
:1036E000010070470CF0004C4CEA50207F32C2BF02
:1036F000D2F1FF0340EAC250704740F400004FF09F
:103700000003013A37E792F0000F00F0004C02BFCF
:10371000400010F4000F013AF9D040EA0C0093F099
:10372000000F01F0004C02BF490011F4000F013BF3
:10373000F9D041EA0C0195E70CEAD15392EA0C0F5B
:1037400008D142027FF47DAF93EA0C0F7FF470AF93
:10375000084676E793EA0C0F04D14B023FF44CAFD6
:1037600008466EE730F0004C18BF31F0004CCAD16B
:1037700030F000427FF45CAF31F000437FF43CAFA7
:103780005FE700BF4FF0FF3C06E000BF4FF0010CC9
:1037900002E000BF4FF0010C4DF804CD4FEA4002AB
:1037A0004FEA41037FEA226C18BF7FEA236C11D0F5
:1037B00001B052EA530C18BF90EA010F58BFB2EBA8
:1037C000030088BFC81738BF6FEAE17018BF40F028
:1037D000010070477FEA226C02D15FEA402C05D1DC
:1037E0007FEA236CE4D15FEA412CE1D05DF8040B61
:1037F000704700BF844608466146FFE70FB5FFF7F4
:10380000C9FF002848BF10F1000F0FBD4DF808EDAB
:10381000FFF7F4FF0CBF012000205DF808FB00BF9C
:103820004DF808EDFFF7EAFF34BF012000205DF8F6
:1038300008FB00BF4DF808EDFFF7E0FF94BF012043
:1038400000205DF808FB00BF4DF808EDFFF7D2FF40
:1038500094BF012000205DF808FB00BF4DF808ED83
:10386000FFF7C8FF34BF012000205DF808FB00BF50
:103870004FEA4002B2F1FE4F0FD34FF09E03B3EB7D
:1038800012620DD94FEA002343F0004310F0004FBD
:1038900023FA02F018BF404270474FF00000704713
:1038A00012F1610F01D1420205D110F0004008BFB2
:1038B0006FF0004070474FF0000070470A2200216F
:1038C00000F032B970B4840746D0541E002A41D0AB
:1038D000CDB2034602E0621EE4B3144603F8015B76
:1038E0009A07F8D1032C2ED9CDB245EA05250F2C25
:1038F00045EA054519D903F110022646103E0F2E60
:1039000042F8105C42F80C5C42F8085C42F8045C37
:1039100002F11002F2D8A4F1100222F00F0204F01A
:103920000F041032032C13440DD91E462246043ACC
:10393000032A46F8045BFAD8221F22F0030204325D
:10394000134404F003042CB1C9B21C4403F8011B56
:10395000A342FBD170BC704714460346C2E700BFC8
:10396000002A41D040EA010313F00303F0B425D14B
:10397000032A23D904680D68AC421FD1043A35D01C
:10398000A4F1013525EA040414F0803F31D1071D6C
:103990000D1D0DE057F8043B0E68A3F10134B3424E
:1039A00024EA03040AD1043A20D014F0803F23D142
:1039B000032A2946384605F10405EBD803780C782C
:1039C0009C4202F1FF320CD182B114B916E06AB107
:1039D0007BB110F8013F11F8014FA34202F1FF3211
:1039E000F5D0181BF0BC7047104670471046F0BC6D
:1039F00070471846F0BC70470020F3E72046F1E717
:103A00002DE9F04F474C83460E46D4F800E000E025
:103A10002646344614F8015B0EEB0500407800F0B2
:103A2000080000F0FF080028F2D12D2D5CD02B2DCE
:103A300004BF7578B41C002B3ED0102B60D09A4682
:103A4000B8F1000F0CBF6FF000404FF000400027AE
:103A5000B0FBFAF9BC460AFB19000CE0303DAB4262
:103A600019DD7E1C05D0CC4523D820D00AFB0C5C88
:103A7000012714F8015B0EEB0506767816F0040FAB
:103A8000ECD116F0030606D0012E14BF57263726B8
:103A9000AD1BAB42E5DC7B1C16D0B8F1000F10D19A
:103AA0006046002A39D0DFB91160BDE8F08F854249
:103AB000DCDD4FF0FF37DCE7302D1AD00A239A46C1
:103AC000BEE7CCF1000CEBE7B8F1000F4FF022039A
:103AD0000CBF6FF000404FF00040CBF80030F2B167
:103AE000611E1160BDE8F08FB41C75784FF00108BD
:103AF000A1E7237803F0DF03582B08D008239EE7C3
:103B0000302D9CD1207800F0DF00582897D14FF05D
:103B1000100A65785346023492E7BDE8F08FBDE89D
:103B2000F08F00BF0825002010B4044C13460A464D
:103B30000146206810BCFFF763BF00BF3829002092
:103B400057454C4B4F4D204D494A4E20434F44451D
:103B5000203A440A0D0000004C494A4E0000000083
:103B60000A0D4572726F723A200A0D000A0A0D00A2
:103B70005245434854484F454B0000004249544D7C
:103B80004150000020000000200A0D000A0D45727F
:103B9000726F723A200A0D00002020202020202081
:103BA00020202828282828202020202020202020ED
:103BB00020202020202020202088101010101010FD
:103BC0001010101010101010100404040404040449
:103BD00004040410101010101010414141414141E3
:103BE00001010101010101010101010101010101C5
:103BF00001010101101010101010424242424242D5
:103C00000202020202020202020202020202020294
:103C1000020202021010101020000000000000003C
:103C20000000000000000000000000000000000094
:103C30000000000000000000000000000000000084
:103C40000000000000000000000000000000000074
:103C50000000000000000000000000000000000064
:103C60000000000000000000000000000000000054
:103C70000000000000000000000000000000000044
:103C80000000000000000000000000000000000034
:103C900000000000000000000000000043000000E1
:103CA00000000000010203040102030406070809E2
:103CB000280000001C000000FFFFFFFFFFFFFFFFC8
:103CC000FFFFFFFFFFFFFFFFFFFFFFFFFFFFFFFF04
:103CD000FFFFFFFFFFFFFFFFFFFFFFFFFFFFFFFFF4
:103CE000FFFFFFFFFFFFFFFFFFFFFFFFFFFFFFFFE4
:103CF000FFFFFF0000FFFFFFFFFFFFFFFFFFFFFFD2
:103D0000FFFFFFFFFFFFFFFFFFFFFFFFFFFFFFFFC3
:103D1000FFFFFFFFFFFFFFFFFF0000000000FFFFAE
:103D2000FFFFFFFFFFFFFFFFFFFFFFFFFFFFFFFFA3
:103D3000FFFFFFFFFFFFFFFFFFFFFFFFFFFFFF0092
:103D4000000000000000FFFFFFFFFFFFFFFFFFFF7D
:103D5000FFFFFFFFFFFFFFFFFFFFFFFFFFFFFFFF73
:103D6000FFFFFFFFFFFF0000000000000000FFFF5B
:103D7000FFFFFFFFFFFFFFFFFFFFFFFFFFFFFFFF53
:103D8000FFFFFFFFFFFFFFFFFFFFFFFF000000003F
:103D9000000000000000FFFFFFFFFFFFFFFFFFFF2D
:103DA000FFFFFFFFFFFFFFFFFFFFFFFFFFFFFFFF23
:103DB000FFFF000000000000000000000000000005
:103DC0000000000000000000000000000000FFFFF5
:103DD000FFFFFFFFFFFFFFFFFF00000000000000EC
:103DE00000000000000000000000000000000000D3
:103DF00000000000000000FFFFFFFFFFFFFFFF00CB
:103E000000000000000000000000000000000000B2
:103E1000000000000000000000000000000000FFA3
:103E2000FFFFFFFFFF000000000000000000000097
:103E30000000000000000000000000000000000082
:103E400000000000000000FFFFFFFFFF0000000077
:103E50000000000000000000000000000000000062
:103E6000000000000000000000000000000000FF53
:103E7000FFFF000000000000000000000000000044
:103E80000000000000000000000000000000000032
:103E900000000000000000FFFF0000000000000024
:103EA0000000000000000000000000000000000012
:103EB000000000000000000000000000000000FF03
:103EC000FF000000000000000000000000000000F3
:103ED00000000000000000000000000000000000E2
:103EE00000000000000000FFFF00000000000000D4
:103EF00000000000000000000000000000000000C2
:103F0000000000000000000000000000000000FFB2
:103F1000FFFF0000000000000000000000000000A3
:103F20000000000000000000000000000000000091
:103F300000000000000000FFFFFFFFFF0000000086
:103F40000000000000000000000000000000000071
:103F5000000000000000000000000000000000FF62
:103F6000FFFFFFFFFF000000000000000000000056
:103F70000000000000000000000000000000000041
:103F800000000000000000FFFFFFFFFFFFFFFF0039
:103F90000000000000000000000000000000000021
:103FA000000000000000000000000000000000FF12
:103FB000FFFFFFFFFFFFFFFFFF000000000000000A
:103FC00000000000000000000000000000000000F1
:103FD00000000000000000FFFFFFFFFFFFFFFFFFEA
:103FE000FFFF0000000000000000000000000000D3
:103FF0000000000000000000000000000000FFFFC3
:10400000FFFFFFFFFFFFFFFFFFFFFFFF00000000BC
:10401000000000000000FFFFFFFFFFFFFFFFFFFFAA
:10402000FFFFFFFFFFFFFFFFFFFFFFFFFFFFFFFFA0
:10403000FFFFFFFFFF000000000000000000FFFF87
:10404000FFFFFFFFFFFFFFFFFFFFFFFFFFFFFFFF80
:10405000FFFFFFFFFFFFFFFFFFFFFFFFFFFFFF006F
:10406000000000000000FFFFFFFFFFFFFFFFFFFF5A
:10407000FFFFFFFFFFFFFFFFFFFFFFFFFFFFFFFF50
:10408000FFFFFFFFFFFFFFFFFF0000000000FFFF3B
:10409000FFFFFFFFFFFFFFFFFFFFFFFFFFFFFFFF30
:1040A000FFFFFFFFFFFFFFFFFFFFFFFFFFFFFFFF20
:1040B000FFFF000000FFFFFFFFFFFFFFFFFFFFFF0D
:1040C000FFFFFFFFFFFFFFFFFFFFFFFFFFFFFFFF00
:1040D000FFFFFFFFFFFFFFFFFFFFFFFFFFFFFFFFF0
:1040E000FFFFFFFFFFFFFFFFFFFFFFFFFFFFFFFFE0
:1040F000FFFFFFFFFFFFFFFFFFFFFFFFFFFFFFFFD0
:10410000FFFFFFFFFFFFFFFFFFFFFFFFFFFFFFFFBF
:10411000FFFFFFFFFFFFFFFF280000001C00000063
:10412000FFFFFFFFFFFFFFFFFFFFFFFFFFFFFFFF9F
:10413000FFFFFFFFFFFFFFFFFFFFFFFFFFFFFFFF8F
:10414000FFFFFFFFFFFFFFFFFFFFFFFFFFFFFFFF7F
:10415000FFFFFFFFFFFFFFFFFFFFFFFFFFFFFFFF6F
:10416000FFFFFFFFFFFFFFFFFFFFFFFFFFFFFFFF5F
:10417000FFFFFFFFFFFFFFFFFFFFFFFFFFFFFFFF4F
:10418000FFFFFF000000FFFFFFFFFFFFFFFFFFFF3C
:10419000FFFFFFFFFFFFFFFFFFFFFFFFFFFFFFFF2F
:1041A000FFFFFFFFFFFFFFFFFFFF0000000000FF1A
:1041B000FFFFFFFFFFFFFFFFFFFFFFFFFFFFFFFF0F
:1041C000FFFFFFFFFFFFFFFFFFFFFFFFFFFFFFFFFF
:1041D000FFFF00000000000000FFFFFFFFFFFFFFE8
:1041E000FFFFFFFFFFFFFFFFFFFFFFFFFFFFFFFFDF
:1041F000FFFFFFFFFFFFFFFFFFFF000000000000C9
:10420000000000FFFFFFFFFFFFFFFFFFFFFFFFFFBB
:10421000FFFFFFFFFFFFFFFFFFFFFFFFFFFFFFFFAE
:10422000FFFF00000000000000000000FFFFFFFF94
:10423000FFFFFFFFFFFFFFFFFFFF00000000000088
:10424000000000000000000000000000000000006E
:10425000000000000000FFFFFFFFFFFFFFFFFFFF68
:10426000FF0000000000000000000000000000004F
:10427000000000000000000000000000000000FF3F
:10428000FFFFFFFFFFFFFFFFFF0000000000000037
:10429000000000000000000000000000000000001E
:1042A000000000000000000000FFFFFFFFFFFFFF15
:1042B000FF000000000000000000000000000000FF
:1042C00000000000000000000000000000000000EE
:1042D000000000FFFFFFFFFFFF00000000000000E4
:1042E00000000000000000000000000000000000CE
:1042F000000000000000000000000000FFFFFFFFC2
:10430000FF000000000000000000000000000000AE
:10431000000000000000000000000000000000009D
:10432000000000000000FFFFFF0000000000000090
:10433000000000000000000000000000000000007D
:10434000000000000000000000000000000000FF6E
:10435000FF0000000000000000000000000000005E
:10436000000000000000000000000000000000004D
:1043700000000000000000FFFF000000000000003F
:10438000000000000000000000000000000000002D
:10439000000000000000000000000000000000FF1E
:1043A000FF0000000000000000000000000000000E
:1043B00000000000000000000000000000000000FD
:1043C000000000000000FFFFFF00000000000000F0
:1043D00000000000000000000000000000000000DD
:1043E000000000000000000000000000FFFFFFFFD1
:1043F000FF000000000000000000000000000000BE
:1044000000000000000000000000000000000000AC
:10441000000000FFFFFFFFFFFF00000000000000A2
:10442000000000000000000000000000000000008C
:10443000000000000000000000FFFFFFFFFFFFFF83
:10444000FF0000000000000000000000000000006D
:10445000000000000000000000000000000000FF5D
:10446000FFFFFFFFFFFFFFFFFFFF00000000000056
:10447000000000000000000000000000000000003C
:10448000000000000000FFFFFFFFFFFFFFFFFFFF36
:10449000FFFFFFFFFFFFFFFFFFFFFFFFFFFFFFFF2C
:1044A000FFFF00000000000000000000FFFFFFFF12
:1044B000FFFFFFFFFFFFFFFFFFFFFFFFFFFFFFFF0C
:1044C000FFFFFFFFFFFFFFFFFFFF000000000000F6
:1044D0000000FFFFFFFFFFFFFFFFFFFFFFFFFFFFEA
:1044E000FFFFFFFFFFFFFFFFFFFFFFFFFFFFFFFFDC
:1044F000FFFF00000000000000FFFFFFFFFFFFFFC5
:10450000FFFFFFFFFFFFFFFFFFFFFFFFFFFFFFFFBB
:10451000FFFFFFFFFFFFFFFFFFFF0000000000FFA6
:10452000FFFFFFFFFFFFFFFFFFFFFFFFFFFFFFFF9B
:10453000FFFFFFFFFFFFFFFFFFFFFFFFFFFFFFFF8B
:10454000FFFFFF0000FFFFFFFFFFFFFFFFFFFFFF79
:10455000FFFFFFFFFFFFFFFFFFFFFFFFFFFFFFFF6B
:10456000FFFFFFFFFFFFFFFFFFFFFFFFFFFFFFFF5B
:10457000FFFFFFFFFFFFFFFFFFFFFFFFFFFFFFFF4B
:104580001B00000028000000FFFFFFFFFFFFFFFFF0
:10459000FFFFFFFFFFFFFFFFFFFFFFFFFFFFFFFF2B
:1045A000FFFFFFFFFFFFFFFFFFFFFFFFFFFFFF001A
:1045B0000000FFFFFFFFFFFFFFFFFFFFFFFFFFFF09
:1045C000FFFFFFFFFFFFFFFFFF0000000000FFFFF6
:1045D000FFFFFFFFFFFFFFFFFFFFFFFFFFFFFFFFEB
:1045E000FFFFFFFF0000000000FFFFFFFFFFFFFFD6
:1045F000FFFFFFFFFFFFFFFFFFFFFFFFFFFF0000C9
:104600000000000000FFFFFFFFFFFFFFFFFFFFFFB5
:10461000FFFFFFFFFFFFFFFF0000000000000000A2
:1046200000FFFFFFFFFFFFFFFFFFFFFFFFFFFFFF99
:10463000FFFFFF000000000000000000FFFFFFFF81
:10464000FFFFFFFFFFFFFFFFFFFFFFFFFF00000077
:104650000000000000000000FFFFFFFFFFFFFFFF62
:10466000FFFFFFFFFFFFFFFF000000000000000052
:10467000000000FFFFFFFFFFFFFFFFFFFFFFFFFF47
:10468000FFFF00000000000000000000000000FF2D
:10469000FFFFFFFFFFFFFFFFFFFFFFFF0000000026
:1046A0000000000000000000000000FFFFFFFFFF0F
:1046B000FFFFFFFFFFFFFF00000000000000000001
:1046C000000000000000FFFFFFFFFFFFFFFFFFFFF4
:1046D000FF000000000000000000000000000000DB
:1046E0000000FFFFFFFFFFFFFFFFFF0000000000D3
:1046F00000000000000000000000000000FFFFFFBD
:10470000FFFFFFFFFFFF00000000000000000000AF
:10471000000000000000000000FFFFFFFFFFFFFFA0
:104720000000000000000000000000000000000089
:104730000000000000FFFFFFFFFFFF00000000007F
:104740000000000000000000000000000000000069
:10475000FFFFFFFFFF00000000000000000000005E
:10476000000000000000000000000000FFFFFF004C
:104770000000000000000000000000000000000039
:1047800000000000000000FFFFFF0000000000002C
:104790000000000000000000000000000000000019
:1047A000000000FFFF00000000000000000000000B
:1047B0000000000000000000000000000000FFFFFB
:1047C000FF000000000000000000000000000000EA
:1047D0000000000000000000FFFFFFFFFFFFFFFFE1
:1047E000000000000000000000000000000000FFCA
:1047F000FFFFFFFFFFFFFFFFFFFFFF0000000000C4
:1048000000000000000000000000FFFFFFFFFFFFAE
:10481000FFFFFFFFFFFF000000000000000000009E
:104820000000000000FFFFFFFFFFFFFFFFFFFFFF93
:10483000FF00000000000000000000000000000079
:10484000FFFFFFFFFFFFFFFFFFFFFFFF0000000074
:104850000000000000000000000000FFFFFFFFFF5D
:10486000FFFFFFFFFFFFFF0000000000000000004F
:10487000000000000000FFFFFFFFFFFFFFFFFFFF42
:10488000FFFF00000000000000000000000000002A
:1048900000FFFFFFFFFFFFFFFFFFFFFFFF00000024
:1048A000000000000000000000000000FFFFFFFF0C
:1048B000FFFFFFFFFFFFFFFF000000000000000000
:1048C00000000000000000FFFFFFFFFFFFFFFFFFF1
:1048D000FFFFFF00000000000000000000000000DB
:1048E0000000FFFFFFFFFFFFFFFFFFFFFFFF0000D4
:1048F00000000000000000000000000000FFFFFFBB
:10490000FFFFFFFFFFFFFFFFFF00000000000000B0
:104910000000000000000000FFFFFFFFFFFFFFFF9F
:10492000FFFFFFFF0000000000000000000000008B
:10493000000000FFFFFFFFFFFFFFFFFFFFFFFF0083
:104940000000000000000000000000000000FFFF69
:10495000FFFFFFFFFFFFFFFFFFFF00000000000061
:10496000000000000000000000FFFFFFFFFFFFFF4E
:10497000FFFFFFFFFF00000000000000000000003C
:1049800000000000FFFFFFFFFFFFFFFFFFFFFFFF33
:10499000FF00000000000000000000000000FFFF1A
:1049A000FFFFFFFFFFFFFFFFFFFFFFFFFFFFFFFF17
:1049B000FFFFFFFFFFFFFFFFFFFFFFFFFFFFFFFF07
:1049C0001B00000028000000FFFFFFFFFFFFFFFFAC
:1049D000FFFFFFFFFFFFFFFFFFFFFFFFFFFFFFFFE7
:1049E000FFFFFFFFFFFFFFFFFFFF000000000000D1
:1049F00000000000000000FFFFFFFFFFFFFFFFFFC0
:104A0000FFFFFFFF000000000000000000000000AA
:104A1000000000FFFFFFFFFFFFFFFFFFFFFFFF00A2
:104A20000000000000000000000000000000FFFF88
:104A3000FFFFFFFFFFFFFFFFFFFF00000000000080
:104A4000000000000000000000FFFFFFFFFFFFFF6D
:104A5000FFFFFFFFFF00000000000000000000005B
:104A600000000000FFFFFFFFFFFFFFFFFFFFFFFF52
:104A7000000000000000000000000000000000FF37
:104A8000FFFFFFFFFFFFFFFFFFFFFF000000000031
:104A900000000000000000000000FFFFFFFFFFFF1C
:104AA000FFFFFFFFFFFF000000000000000000000C
:104AB0000000000000FFFFFFFFFFFFFFFFFFFFFF01
:104AC000FF000000000000000000000000000000E7
:104AD000FFFFFFFFFFFFFFFFFFFFFFFF00000000E2
:104AE0000000000000000000000000FFFFFFFFFFCB
:104AF000FFFFFFFFFFFFFF000000000000000000BD
:104B0000000000000000FFFFFFFFFFFFFFFFFFFFAF
:104B1000FFFF000000000000000000000000000097
:104B200000FFFFFFFFFFFFFFFFFFFFFFFF00000091
:104B3000000000000000000000000000FFFFFFFF79
:104B4000FFFFFFFFFFFFFFFF00000000000000006D
:104B500000000000000000FFFFFFFFFFFFFFFFFF5E
:104B6000FFFFFF0000000000000000000000000048
:104B70000000FFFFFFFFFFFFFFFFFFFFFFFF000041
:104B800000000000000000000000000000FFFFFF28
:104B9000FFFFFFFFFFFFFFFFFF000000000000001E
:104BA0000000000000000000FFFFFFFFFFFFFFFF0D
:104BB00000000000000000000000000000000000F5
:104BC00000000000000000FFFFFF000000000000E8
:104BD00000000000000000000000000000000000D5
:104BE000000000FFFF0000000000000000000000C7
:104BF0000000000000000000000000000000FFFFB7
:104C0000FF000000000000000000000000000000A5
:104C1000000000000000000000FFFFFF0000000097
:104C20000000000000000000000000000000000084
:104C3000000000FFFFFFFFFF000000000000000079
:104C400000000000000000000000000000FFFFFF67
:104C5000FFFFFF0000000000000000000000000057
:104C60000000000000000000FFFFFFFFFFFFFF004B
:104C70000000000000000000000000000000000034
:104C80000000FFFFFFFFFFFFFFFFFF00000000002D
:104C900000000000000000000000000000FFFFFF17
:104CA000FFFFFFFFFFFF000000000000000000000A
:104CB00000000000000000FFFFFFFFFFFFFFFFFFFD
:104CC000FFFF0000000000000000000000000000E6
:104CD00000FFFFFFFFFFFFFFFFFFFFFFFF000000E0
:104CE000000000000000000000000000FFFFFFFFC8
:104CF000FFFFFFFFFFFFFFFFFF00000000000000BD
:104D0000000000000000FFFFFFFFFFFFFFFFFFFFAD
:104D1000FFFFFFFFFF000000000000000000000098
:104D2000FFFFFFFFFFFFFFFFFFFFFFFFFFFFFFFF93
:104D30000000000000000000000000FFFFFFFFFF78
:104D4000FFFFFFFFFFFFFFFFFFFFFFFF000000006F
:104D50000000000000FFFFFFFFFFFFFFFFFFFFFF5E
:104D6000FFFFFFFFFFFFFF0000000000000000004A
:104D7000FFFFFFFFFFFFFFFFFFFFFFFFFFFFFFFF43
:104D8000FFFFFF00000000000000FFFFFFFFFFFF2C
:104D9000FFFFFFFFFFFFFFFFFFFFFFFFFFFFFF0022
:104DA00000000000FFFFFFFFFFFFFFFFFFFFFFFF0F
:104DB000FFFFFFFFFFFFFFFFFFFF0000000000FFFE
:104DC000FFFFFFFFFFFFFFFFFFFFFFFFFFFFFFFFF3
:104DD000FFFFFFFFFFFF000000FFFFFFFFFFFFFFE0
:104DE000FFFFFFFFFFFFFFFFFFFFFFFFFFFFFFFFD3
:104DF000FFFFFFFFFFFFFFFFFFFFFFFFFFFFFFFFC3
:104E00003200000032000000FFFFFFFFFFFFFFFF46
:104E1000FFFFFFFFFFFFFFFFFFFFFFFFFFFFFFFFA2
:104E2000FFFFFFFFFFFFFFFFFFFFFFFFFFFFFFFF92
:104E3000FFFFFFFFFFFFFFFFFFFFFFFFFFFFFFFF82
:104E4000FFFFFFFFFFFFFFFFFFFFFFFFFFFFFFFF72
:104E5000FFFFFFFFFFFFFFFFFFFFFFFFFFFFFFFF62
:104E6000FFFFFFFFFFFFFFFFFFFFFFFFFFFFFFFF52
:104E7000FFFFFFFFFFFFFFFFFFFFFFFFFFFFF6A4A6
:104E8000A45B0000000000009BA4F7F6FFFFFFFFFB
:104E9000FFFFFFFFFFFFFFFFFFFFFFFFFFFFFFFF22
:104EA000FFFFFFFFFFFFFFFFFFFFFFFFFFFFA45B11
:104EB00000000000000000000000000000009BF760
:104EC000FFFFFFFFFFFFFFFFFFFFFFFFFFFFFFFFF2
:104ED000FFFFFFFFFFFFFFFFFFFFFFFFFFFF085B7D
:104EE000000000000000A4F7F7F7F79B00000000A7
:104EF000000049F6FFFFFFFFFFFFFFFFFFFFFFFF7F
:104F0000FFFFFFFFFFFFFFFFFFFFFFFFFFFFF65B5E
:104F100000000000A4F7FFFFFFFFFFFFFFFFFFFF00
:104F2000F79B000000009BF6FFFFFFFFFFFFFFFF66
:104F3000FFFFFFFFFFFFFFFFFFFFFFFFFFFFFF0878
:104F400049000000A4F6FFFFFFFFFFFFFFFFFFFF88
:104F5000FFFFFFFF089B00000049F7FFFFFFFFFF77
:104F6000FFFFFFFFFFFFFFFFFFFFFFFFFFFFFFFF51
:104F7000A4000000A4F6FFFFFFFFFFFFFFFFFFFFFD
:104F8000FFFFFFFFFFFFFFFF089B000000F7FFFF91
:104F9000FFFFFFFFFFFFFFFFFFFFFFFFFFFFFFFF21
:104FA000FFA4000000A4FFFFFFFFFFFFFFFFFFFFC4
:104FB000FFFFFFFFFFFFFFFFFFFFFFFFA400000059
:104FC000F7FFFFFFFFFFFFFFFFFFFFFFFFFFFFFFF9
:104FD000FFFFA4000049F6FFFFFFFFFFFFFFFFFFF9
:104FE000FFFFFFFFFFFFFFFFFFFFFFFFFFFFFF08C8
:104FF000000000F7FFFFFFFFFFFFFFFFFFFFFFFFC6
:10500000FFFFFFF6490049F6FFFFFFFFFFFFFFFF2D
:10501000FFFFFFFFFFFFFFFFFFFFFFFFFFFFFFFFA0
:10502000FFFFF6000000F6FFFFFFFFFFFFFFFFFF9F
:10503000FFFFFFFFF649000007FFFFFFFFFFFFFF35
:10504000FFFFFFFFFFFFFFFFFFFFFFFFFFFFFFFF70
:10505000FFFFFFFFFFF6000049FFFFFFFFFFFFFF1D
:10506000FFFFFFFFFFFFA40000A4FFFFFFFFFFFF04
:10507000FFF608F6FFFFFFFFFFFFFFF608F6FFFF52
:10508000FFFFFFFFFFFFFFFFA40000A4FFFFFFFFE4
:10509000FFFFFFFFFFFFFFF6490049FFFFFFFFFF94
:1050A000FFFFF600000008FFFFFFFFFF0700000002
:1050B000F6FFFFFFFFFFFFFFFFFFFF490000F6FFC6
:1050C000FFFFFFFFFFFFFFFFFF5B000007FFFFFF8A
:1050D000FFFFFFFF0800000008FFFFFFFFFF0700C2
:1050E0000000F6FFFFFFFFFFFFFFFFFFFFF70000DD
:1050F0009BFFFFFFFFFFFFFFFFFFF6000049FFFFE1
:10510000FFFFFFFFFFFFFF070707FFFFFFFFFFFF97
:10511000FF070708FFFFFFFFFFFFFFFFFFFFFFFF86
:10512000A40000FFFFFFFFFFFFFFFFFFA400000739
:10513000FFFFFFFFFFFFFFFFFFFFFFFFFFFFFFFF7F
:10514000FFFFFFFFFFFFFFFFFFFFFFFFFFFFFFFF6F
:10515000FFFFF60000F7FFFFFFFFFFFFFFFF5B0011
:1051600000FFFFFFFFFFFFFFFFFFFFFFFFFFFFFF4E
:10517000FFFFFFFFFFFFFFFFFFFFFFFFFFFFFFFF3F
:10518000FFFFFFFFFF49005BFFFFFFFFFFFFFFF691
:105190000000A4FFFFFFFFFFFFFFFFFFFFFFFFFF78
:1051A000FFFFFFFFFFFFFFFFFFFFFFFFFFFFFFFF0F
:1051B000FFFFFFFFFFFFFFF70000FFFFFFFFFFFF05
:1051C000FFF60000F7FFFFFFFFFFFFFFFFFFFFFFFE
:1051D000FFFFFFFFFFFFFFFFFFFFFFFFFFFFFFFFDF
:1051E000FFFFFFFFFFFFFFFFFFF70000FFFFFFFFD5
:1051F000FFFFFFA40000F6FFFFFFFFFFFFFFFFFF21
:10520000FFFFFFFFFFFFFFFFFFFFFFFFFFFFFFFFAE
:10521000FFFFFFFFFFFFFFFFFFFFFFF60000A4FF00
:10522000FFFFFFFFFFA40000FFFFFFFFFFFFFFFFE7
:10523000FFFFFFFFFFFFFFFFFFFFFFFFFFFFFFFF7E
:10524000FFFFFFFFFFFFFFFFFFFFFFFFFFFF00006C
:10525000A4FFFFFFFFFFFFA40000FFFFFF07F6FF13
:10526000FFFFFFFFFFFFFFFFFFFFFFFFFFFFFFFF4E
:10527000FFFFFFFFFFFFFFFFFFFFF607FFFFFFFF3F
:105280000000A4FFFFFFFFFFFFA40000FFFF9B0043
:1052900049F6FFFFFFFFFFFFFFFFFFFFFFFFFFFFDD
:1052A000FFFFFFFFFFFFFFFFFFFFFFFF4900A4FF1E
:1052B000FFFF0000A4FFFFFFFFFFFFA40000FFFFB0
:1052C000A40000A4FFFFFFFFFFFFFFFFFFFFFFFFA2
:1052D000FFFFFFFFFFFFFFFFFFFFFFFFFFA4000037
:1052E000A4FFFFFF0000A4FFFFFFFFFFFFA40000DB
:1052F000FFFFFFA40000F7FFFFFFFFFFFFFFFFFF1F
:10530000FFFFFFFFFFFFFFFFFFFFFFFFFFFFF600B5
:105310000049FFFFFFFF0000A4FFFFFFFFFFFFF6B4
:105320000000F7FFFFF6000000F7FFFFFFFFFFFFA1
:10533000FFFFFFFFFFFFFFFFFFFFFFFFFFFFFFFF7D
:10534000490000F6FFFFFFF70000F6FFFFFFFFFF39
:10535000FFF60000F7FFFFFF08000049F6FFFFFF20
:10536000FFFFFFFFFFFFFFFFFFFFFFFFFFFFFFFF4D
:10537000FFA400005BFFFFFFFFF70000FFFFFFFF40
:10538000FFFFFFFF490049FFFFFFFF08000049F64C
:10539000FFFFFFFFFFFFFFFFFFFFFFFFFFFFFFFF1D
:1053A000FFFFF6000049F6FFFFFFFF9B0049FFFFEC
:1053B000FFFFFFFFFFFF9B0000F6FFFFFFFF9B00CB
:1053C0000049F6FFFFFFFFFFFFFFFFFFFFFFFFFFAB
:1053D000FFFFFFF6000000F6FFFFFFFFFF0000A445
:1053E000FFFFFFFFFFFFFFFFF60000A4FFFFFFFF2F
:1053F000FF9B000049F6FFFFFFFFFFFFFFFFFFFFDE
:10540000FFFFFFFFFFA40000A4FFFFFFFFFFF70067
:1054100000F6FFFFFFFFFFFFFFFFF6490000F6FF6A
:10542000FFFFFFFF9B00004907FFFFFFFFFFFFFF9C
:10543000FFFFFFFFFFFFA400005BFFFFFFFFFF0870
:10544000000049FFFFFFFFFFFFFFFFFFFFF7000026
:10545000A4FFFFFFFFFFFF9B000000F7FFFFFFFF20
:10546000FFFFFFFFFFFFFFA4000049F6FFFFFFFF64
:10547000FF9B0000F7FFFFFFFFFFFFFFFFFFFFF6AF
:10548000490000F6FFFFFFFFFFFFA400000049F600
:10549000FFFFFFFFFFFFFFF649000049F6FFFFFF98
:1054A000FFFF08000049FFFFFFFFFFFFFFFFFFFFB7
:1054B000FFFFF6000049FFFFFFFFFFFFFF080000AE
:1054C000000052F7F6FFFF07A400000049F6FFFFB7
:1054D000FFFFFFFF000000F6FFFFFFFFFFFFFFFFE2
:1054E000FFFFFFFFFFA40000A4FFFFFFFFFFFFFF80
:1054F000F69B0000000000000000000000A4F6FF82
:10550000FFFFFFFFFF9B0000F7FFFFFFFFFFFFFF15
:10551000FFFFFFFFFFFFFFF6490000A4FFFFFFFFB3
:10552000FFFFFFFF085B000000000000005BF6FFCC
:10553000FFFFFFFFFFFF9B000049FFFFFFFFFFFF93
:10554000FFFFFFFFFFFFFFFFFFFFF6490000A4F68C
:10555000FFFFFFFFFFFFFFFFFF089B9B9BF6F6FF90
:10556000FFFFFFFFFFFF089B000049FFFFFFFFFF5A
:10557000FFFFFFFFFFFFFFFFFFFFFFFFFFF64900F9
:105580000049F6FFFFFFFFFFFFFFFFFFFFFFFFFFE9
:10559000FFFFFFFFFFFFFF0800000049FFFFFFFFC5
:1055A000FFFFFFFFFFFFFFFFFFFFFFFFFFFFFFFF0B
:1055B000F65B000000A4F6FFFFFFFFFFFFFFFFFF09
:1055C000FFFFFFFFFFFFFF089B00000049FFFFFFF9
:1055D000FFFFFFFFFFFFFFFFFFFFFFFFFFFFFFFFDB
:1055E000FFFFFFFFA400000000A4F6FFFFFFFFFF86
:1055F000FFFFFFFFFFFFFF089B00000000F7FFFF1A
:10560000FFFFFFFFFFFFFFFFFFFFFFFFFFFFFFFFAA
:10561000FFFFFFFFFFFFFFF65B0000000049F7F709
:10562000FFFFFFFFFFFFF7F7000000000049F6FF54
:10563000FFFFFFFFFFFFFFFFFFFFFFFFFFFFFFFF7A
:10564000FFFFFFFFFFFFFFFFFFFFFFF64900000026
:105650000000000000000000000000000049F7FF0B
:10566000FFFFFFFFFFFFFFFFFFFFFFFFFFFFFFFF4A
:10567000FFFFFFFFFFFFFFFFFFFFFFFFFFFFFFF643
:105680009B0000000000000000000000499BF6FFA6
:10569000FFFFFFFFFFFFFFFFFFFFFFFFFFFFFFFF1A
:1056A000FFFFFFFFFFFFFFFFFFFFFFFFFFFFFFFF0A
:1056B000FFFFFFFFFF08A4A4A4A4A4A4F6FFFFFF1C
:1056C000FFFFFFFFFFFFFFFFFFFFFFFFFFFFFFFFEA
:1056D000FFFFFFFFFFFFFFFFFFFFFFFFFFFFFFFFDA
:1056E000FFFFFFFFFFFFFFFFFFFFFFFFFFFFFFFFCA
:1056F000FFFFFFFFFFFFFFFFFFFFFFFFFFFFFFFFBA
:10570000FFFFFFFFFFFFFFFFFFFFFFFFFFFFFFFFA9
:10571000FFFFFFFFFFFFFFFFFFFFFFFFFFFFFFFF99
:10572000FFFFFFFFFFFFFFFFFFFFFFFFFFFFFFFF89
:10573000FFFFFFFFFFFFFFFFFFFFFFFFFFFFFFFF79
:10574000FFFFFFFFFFFFFFFFFFFFFFFFFFFFFFFF69
:10575000FFFFFFFFFFFFFFFFFFFFFFFFFFFFFFFF59
:10576000FFFFFFFFFFFFFFFFFFFFFFFFFFFFFFFF49
:10577000FFFFFFFFFFFFFFFFFFFFFFFFFFFFFFFF39
:10578000FFFFFFFFFFFFFFFFFFFFFFFFFFFFFFFF29
:10579000FFFFFFFFFFFFFFFFFFFFFFFFFFFFFFFF19
:1057A000FFFFFFFFFFFFFFFFFFFFFFFFFFFFFFFF09
:1057B000FFFFFFFFFFFFFFFFFFFFFFFFFFFFFFFFF9
:1057C000FFFFFFFFFFFFFFFFFFFFFFFF32000000B3
:1057D00032000000FFFFFFFFFFFFFFFFFFFFFFFFA3
:1057E000FFFFFFFFFFFFFFFFFFFFFFFFFFFFFFFFC9
:1057F000FFFFFFFFFFFFFFFFFFFFFFFFFFFFFFFFB9
:10580000FFFFFFFFFFFFFFFFFFFFFFFFFFFFFFFFA8
:10581000FFFFFFFFFFFFFFFFFFFF08A4A4A4A4A456
:10582000F7FFFFFFFFFFFFFFFFFFFFFFFFFFFFFF90
:10583000FFFFFFFFFFFFFFFFFFFFFFFFFFFFFFFF78
:10584000FFFFFFFFFFFFFFFFF7A44900000000007C
:1058500000000000009BA4F6FFFFFFFFFFFFFFFF1B
:10586000FFFFFFFFFFFFFFFFFFFFFFFFFFFFFFFF48
:10587000FFFFFFFFFFFFFFF6A4490000000000004C
:105880000000000000000000000049F7FFFFFFFFDC
:10589000FFFFFFFFFFFFFFFFFFFFFFFFFFFFFFFF18
:1058A000FFFFFFFFFFFFFFF6F74900000000A4F72E
:1058B000F7FFFFFFFFFFF6F7F749000000009BF638
:1058C000FFFFFFFFFFFFFFFFFFFFFFFFFFFFFFFFE8
:1058D000FFFFFFFFFFFFFFFFF64900000049F7FF52
:1058E000FFFFFFFFFFFFFFFFFFFFFFFFF69B000033
:1058F0000000F7F6FFFFFFFFFFFFFFFFFFFFFFFFC7
:10590000FFFFFFFFFFFFFFFFFFA400000049F7FFBD
:10591000FFFFFFFFFFFFFFFFFFFFFFFFFFFFFFFF97
:10592000089B00000049F6FFFFFFFFFFFFFFFFFF9E
:10593000FFFFFFFFFFFFFFFFFFFFA4000000A4FF2A
:10594000FFFFFFFFFFFFFFFFFFFFFFFFFFFFFFFF67
:10595000FFFFFFFF089B000049F6FFFFFFFFFFFF6F
:10596000FFFFFFFFFFFFFFFFFFFFFFA4000049F65F
:10597000FFFFFFFFFFFFFFFFFFFFFFFFFFFFFFFF37
:10598000FFFFFFFFFFFFFFFFA4000049F6FFFFFF3F
:10599000FFFFFFFFFFFFFFFFFFFFFFFFA400004926
:1059A000F6FFFFFFFFFFFFFFFFFFFFFFFFFFFFFF10
:1059B000FFFFFFFFFFFFFFFFFFFFFFA4000049F60F
:1059C000FFFFFFFFFFFFFFFFFFFFFFFFFFF70000ED
:1059D00049F6FFFFFFFFFFFFFFFFFFFFFFFFFFFF96
:1059E000FFFFFFFFFFFFFFFFFFFFFFFFFFFFA40021
:1059F0000049FFFFFFFFFFFFFFFFFFFFFFFFF6492B
:105A00000049F6FFFFFFFFFFFFFFFFFFFFFFFFFF64
:105A1000FFFFFFFFFFFFFFFFFFFFFFFFFFFFFFFF96
:105A2000FFA40000A4FFFFFFFFFFFFFFFFFFFFFF3A
:105A30005B0000F7FFFFFFFFFFFFFFFFF6F6FFFF32
:105A4000FFFFFFFFFFFFFFFFFFFFF65B52F6FFFFC9
:105A5000FFFFFFFF9B0000F6FFFFFFFFFFFFFFFFC1
:105A6000FFF60000A4FFFFFFFFFFFFFFFFF60000AF
:105A700008FFFFFFFFFFFFFFFFFFFFFF0700005BC7
:105A8000FFFFFFFFFFFFF600009BFFFFFFFFFFFF91
:105A9000FFFFFF5B0000F6FFFFFFFFFFFFFFFF08B8
:105AA000000007FFFFFFFFFFFFFFFFFFFFFFF652B2
:105AB0004907FFFFFFFFFFFFFFA40000F7FFFFFF05
:105AC000FFFFFFFFF60000A4FFFFFFFFFFFFFFFF48
:105AD000FFF65252F6FFFFFFFFFFFFFFFFFFFFFF42
