:020000040800F2
:1000000084350120A9070008050800080508000834
:1000100005080008050800080508000800000000A1
:1000200000000000000000000000000005080008BB
:100030000508000800000000050800080508000881
:10004000050800080508000805080008050800085C
:10005000050800080508000805080008050800084C
:10006000050800080508000805080008050800083C
:10007000050800080508000805080008050800082C
:10008000050800080508000805080008050800081C
:10009000050800080508000805080008050800080C
:1000A00005080008050800080508000805080008FC
:1000B000D92E0008050800080508000805080008F2
:1000C00005080008050800080508000805080008DC
:1000D00005080008050800081D07000805080008B5
:1000E00005080008050800080508000805080008BC
:1000F00005080008050800080508000805080008AC
:10010000050800080508000805080008050800089B
:10011000050800080508000805080008050800088B
:10012000050800080508000805080008050800087B
:10013000050800080508000805080008050800086B
:10014000050800080508000805080008050800085B
:10015000912F000805080008050800080508000898
:10016000050800080508000805080008050800083B
:10017000050800080508000805080008050800082B
:10018000050800080508000880B58AB004AFF860CB
:10019000B9607A603B603B6A00937B6A0193BB6AFB
:1001A0000293FB6A03933868F968BA687B6802F0C7
:1001B000D3FB78617B6918461837BD4680BD00BF08
:1001C00080B584B000AF3B46184601F0BFFE3A68E8
:1001D000454B1A60444B1B68184603F0C7FA0246A9
:1001E0000B46104619464FF00002404B03F034FB1B
:1001F00002460B46104619464FF000023C4B03F0F6
:1002000055FC02460B46104619464FF000024FF0CF
:10021000804303F04BFC02460B461046194603F0A0
:100220002DFD0246334B1A602F4B1B68184603F016
:100230009DFA02460B46104619464FF000022B4B22
:1002400003F00AFB02460B461046194622A3D3E9E7
:10025000002303F02BFC02460B46104619464FF0D4
:1002600000024FF0804303F021FC02460B4610468B
:10027000194603F003FD02461F4B1A601A4B1B6818
:10028000184603F073FA02460B46104619464FF023
:100290000002164B03F0E0FA02460B4610461946E0
:1002A0000FA3D3E9002303F001FC02460B461046DE
:1002B00019464FF000024FF0804303F0F7FB02466F
:1002C0000B461046194603F0D9FC02460B4B1A6048
:1002D0001037BD4680BD00BF000000000094C14043
:1002E00000000000882A6141142D01200000F43F25
:1002F00000002240182D0120202D01201C2D01205E
:1003000080B58AB000AF7860396000237B6200233B
:100310003B620023FB610023BB617B681B8A9BB2AD
:100320007B627B6A23F440537B623B68DB887A6A9A
:1003300013437B627B6A9AB27B681A827B689B89D3
:100340009BB27B627B6A23F4B05323F00C037B6285
:100350003B689A883B681B8913439AB23B685B8968
:1003600013439BB27A6A13437B627B6A9AB27B68BF
:100370009A817B689B8A9BB27B627B6A23F4407381
:100380007B623B689B897A6A13437B627B6A9AB281
:100390007B689A8207F10803184601F0D7FD7A6856
:1003A000314B9A4203D07A68304B9A4202D17B6932
:1003B0003B6201E03B693B627B689B899BB29BB2DD
:1003C0001BB2002B0CDA3A6A13469B0013449A00C6
:1003D0001A443B681B685B00B2FBF3F3FB610BE064
:1003E0003A6A13469B0013449A001A443B681B6800
:1003F0009B00B2FBF3F3FB61FA691D4BA3FB0213F5
:100400005B091B017B627B6A1B09642202FB03F30D
:10041000FA69D31ABB617B689B899BB29BB21BB202
:10042000002B0DDABB69DB0003F13202104BA3FB9A
:1004300002135B0903F007037A6A13437B620CE043
:10044000BB691B0103F13202094BA3FB02135B09D9
:1004500003F00F037A6A13437B627B6A9AB27B686C
:100460001A812837BD4680BD0010014000140140AC
:100470001F85EB5180B483B000AF78600B46FB70F2
:10048000FB78002B08D07B689B899BB243F4005318
:100490009AB27B689A8107E07B689B899BB223F4C0
:1004A00000539AB27B689A810C37BD465DF8047B95
:1004B000704700BF80B487B000AF786013460A462B
:1004C0007A807B7000233B610023FB600023BB60CC
:1004D00000237B617B687B617B88DBB25B09DBB2DD
:1004E0003B617B8803F01F03FB60FB68012202FA7B
:1004F00003F3BB603B69012B03D17B690C337B6148
:1005000009E03B69022B03D17B6910337B6102E078
:100510007B6914337B617B78002B06D07B697A6919
:100520001168BA680A431A6006E07B697A69116843
:10053000BA68D2430A401A601C37BD465DF8047B96
:10054000704700BF80B485B000AF78600B467B80F9
:100550000023FB737B681B889AB27B8813409BB295
:10056000002B02D00123FB7301E00023FB73FB7B14
:1005700018461437BD465DF8047B704780B487B0D9
:1005800000AF78600B467B800023FB6000237B611B
:100590000023BB600023FB747B88DBB25B09DBB20A
:1005A000BB607B8803F01F037B617B69012202FA39
:1005B00003F37B61BB68012B06D17B689B899BB2EF
:1005C0007A6913407B610FE0BB68022B06D17B6820
:1005D0001B8A9BB27A6913407B6105E07B689B8A2A
:1005E0009BB27A6913407B617B881B0A9BB2FB60DC
:1005F000FB68012202FA03F3FB607B681B889BB255
:10060000FA681340FB607B69002B05D0FB68002B68
:1006100002D00123FB7401E00023FB74FB7C18462D
:100620001C37BD465DF8047B704700BF80B485B0C1
:1006300000AF78600B467B800023FB810023BB81E9
:100640007B881B0AFB81FB89012202FA03F3BB8131
:10065000BB89DB439AB27B681A801437BD465DF8CC
:10066000047B704780B586B000AF4FF400300121A5
:1006700001F034FD0120012101F012FD0C233B614A
:1006800002233B750023BB750123FB7502237B7599
:1006900007F110031648194601F05CFD14480221C9
:1006A000072201F0E5FD12480321072201F0E0FDD9
:1006B0004FF4E1333B600023BB800023FB80002329
:1006C0003B810023BB810C237B813B4609481946B3
:1006D000FFF716FE074840F225510122FFF7EAFE18
:1006E00004480121FFF7C6FE1837BD4680BD00BF94
:1006F000000002400044004080B582B000AF2623D5
:100700003B7101237B710123BB710123FB713B1DF5
:10071000184602F063FC0837BD4680BD80B582B044
:1007200000AF1E4840F22551FFF728FF0346002B7B
:1007300030D01A4840F22551FFF778FF174B9B88BD
:100740009BB2FB71FB79082B09D1154B1B68002B61
:1007500013DD134B1B685A1E114B1A600DE0104B32
:100760001B68632B09D80E4B1B680E4AF979D154CC
:100770000B4B1B685A1C0A4B1A60094B1B68094A31
:100780000021D15400BF05484021FFF7DBFE03469E
:10079000002BF8D00837BD4680BD00BF00440040A4
:1007A00014000020242D012080B582B000AF104B32
:1007B0007B60104B3B6007E03B681A1D3A607A682B
:1007C000111D796012681A603A680B4B9A42F3D394
:1007D0000A480B494FF000028842B8BF40F8042B8A
:1007E000FFF6FAAF01F052FB0837BD4680BD00BFEF
:1007F00070B6000800000020140000201400002043
:10080000882D012080B400AFFEE700BF80B58AB01C
:1008100000AFB9607A603B600346FB73FB7B203B13
:10082000FB73FB7B314ADB0013445B68BB61FB7BE2
:100830005D2B06D0FB7B01332C4ADB0013445B6845
:1008400001E04FF475737B6100237B6244E0002379
:10085000FB612DE000233B6224E080223B6A1A41C9
:10086000B969FB690B442249CB5C13403B613B698E
:10087000002B14D0FB699BB2DB009AB23B6A9BB29F
:1008800013449AB2BB689BB2134499B27B689AB284
:100890003B68DBB2084611461A4602F0CBF93B6AC8
:1008A00001333B623B6A072BD7DDFB690133FB61F8
:1008B000FA7B0E4B53F83220FB699A42CADC7B6804
:1008C00001337B60FA7B094B53F83230BA69134429
:1008D000BB617B6A01337B62BA697B699A42B6DB92
:1008E000002318462837BD4680BD00BFA44100083C
:1008F000D03D000890B58BB002AFF860B9607A6067
:100900003B600023BB61BB687B617B683B61FB682C
:100910001B783A6B0092184679693A693B68FFF791
:1009200075FFB8610123FB6152E0FB69013BFA6886
:1009300013441B78A3F120022B4B53F83230DA001A
:100940007B691A443B6914337869396901F094FF73
:10095000B861BB69012B15D13B6914333B61FB695D
:10096000013BFA6813441B78A3F120021E4B53F895
:10097000322013465B079B1ADB001A46BB68134400
:100980007B6104E0BB69022B01D1BB6928E0FB69F4
:10099000FA6813441B78FA69013AF9680A44127834
:1009A000A2F12001104A52F83120D20079690A449C
:1009B0007A613A6B0092184679693A693B68FFF7A9
:1009C00025FF0346BA691343BB61FB690133FB6131
:1009D000FC69F86803F072F903469C42A5D3BB6931
:1009E00018462437BD4690BDA441000880B58AB0A2
:1009F00000AFB9607A603B600346FB73FB7B203B32
:100A0000FB73FB7B314ADB0013445B68BB61FB7B00
:100A10005D2B06D0FB7B01332C4ADB0013445B6863
:100A200001E04FF475737B6100237B6244E0002397
:100A3000FB612DE000233B6224E080223B6A1A41E7
:100A4000B969FB690B442249CB5C13403B613B69AC
:100A5000002B14D0FB699BB2DB009AB23B6A9BB2BD
:100A600013449AB2BB689BB2134499B27B689AB2A2
:100A70003B68DBB2084611461A4602F0DBF83B6AD7
:100A800001333B623B6A072BD7DDFB690133FB6116
:100A9000FA7B0E4B53F83220FB699A42CADC7B6822
:100AA00001337B60FA7B094B53F83230BA69134447
:100AB000BB617B6A01337B62BA697B699A42B6DBB0
:100AC000002318462837BD4680BD00BFA44100085A
:100AD000D03D000890B58BB002AFF860B9607A6085
:100AE0003B600023BB61BB687B617B683B61FB684B
:100AF0001B783A6B0092184679693A693B68FFF7B0
:100B000075FFB8610123FB6152E0FB69013BFA68A4
:100B100013441B78A3F120022B4B53F83230DA0038
:100B20007B691A443B6914337869396901F0A4FE82
:100B3000B861BB69012B15D13B6914333B61FB697B
:100B4000013BFA6813441B78A3F120021E4B53F8B3
:100B5000322013465B079B1ADB001A46BB6813441E
:100B60007B6104E0BB69022B01D1BB6928E0FB6912
:100B7000FA6813441B78FA69013AF9680A44127852
:100B8000A2F12001104A52F83120D20079690A44BA
:100B90007A613A6B0092184679693A693B68FFF7C7
:100BA00025FF0346BA691343BB61FB690133FB614F
:100BB000FC69F86803F082F803469C42A5D3BB6940
:100BC00018462437BD4690BDA441000880B58AB0C0
:100BD00000AFB9607A603B600346FB73FB7B203B50
:100BE000FB73FB7B314ADB0013445B68BB61FB7B1F
:100BF0005D2B06D0FB7B01332C4ADB0013445B6882
:100C000001E04FF493637B6100237B6244E00023A7
:100C1000FB612DE000233B6224E080223B6A1A4105
:100C2000B969FB690B442249CB5C13403B613B69CA
:100C3000002B14D0FB699BB2DB009AB23B6A9BB2DB
:100C400013449AB2BB689BB2134499B27B689AB2C0
:100C50003B68DBB2084611461A4601F0EBFF3B6ADF
:100C600001333B623B6A072BD7DDFB690133FB6134
:100C7000FA7B0E4B53F83220FB699A42CADC7B6840
:100C800001337B60FA7B094B53F83230BA69134465
:100C9000BB617B6A01337B62BA697B699A42B6DBCE
:100CA000002318462837BD4680BD00BF60500008AD
:100CB000C84B000890B58BB002AFF860B9607A609D
:100CC0003B600023BB61BB687B617B683B61FB6869
:100CD0001B783A6B0092184679693A693B68FFF7CE
:100CE00075FFB8610123FB6152E0FB69013BFA68C3
:100CF00013441B78A3F120022B4B53F83230DA0057
:100D00007B691A443B6914337869396901F0B4FD91
:100D1000B861BB69012B15D13B6914333B61FB6999
:100D2000013BFA6813441B78A3F120021E4B53F8D1
:100D3000322013465B079B1ADB001A46BB6813443C
:100D40007B6104E0BB69022B01D1BB6928E0FB6930
:100D5000FA6813441B78FA69013AF9680A44127870
:100D6000A2F12001104A52F83120D20079690A44D8
:100D70007A613A6B0092184679693A693B68FFF7E5
:100D800025FF0346BA691343BB61FB690133FB616D
:100D9000FC69F86802F092FF03469C42A5D3BB6948
:100DA00018462437BD4690BD6050000880B58AB013
:100DB00000AFB9607A603B600346FB73FB7B203B6E
:100DC000FB73FB7B314ADB0013445B68BB61FB7B3D
:100DD0005D2B06D0FB7B01332C4ADB0013445B68A0
:100DE00001E040F635537B6100237B6244E0002341
:100DF000FB612DE000233B6224E080223B6A1A4124
:100E0000B969FB690B442249CB5C13403B613B69E8
:100E1000002B14D0FB699BB2DB009AB23B6A9BB2F9
:100E200013449AB2BB689BB2134499B27B689AB2DE
:100E30003B68DBB2084611461A4601F0FBFE3B6AEE
:100E400001333B623B6A072BD7DDFB690133FB6152
:100E5000FA7B0E4B53F83220FB699A42CADC7B685E
:100E600001337B60FA7B094B53F83230BA69134483
:100E7000BB617B6A01337B62BA697B699A42B6DBEC
:100E8000002318462837BD4680BD00BF8860000893
:100E90005053000890B58BB002AFF860B9607A602B
:100EA0003B600023BB61BB687B617B683B61FB6887
:100EB0001B783A6B0092184679693A693B68FFF7EC
:100EC00075FFB8610123FB6152E0FB69013BFA68E1
:100ED00013441B78A3F120022B4B53F83230DA0075
:100EE0007B691A443B6914337869396901F0C4FCA1
:100EF000B861BB69012B15D13B6914333B61FB69B8
:100F0000013BFA6813441B78A3F120021E4B53F8EF
:100F1000322013465B079B1ADB001A46BB6813445A
:100F20007B6104E0BB69022B01D1BB6928E0FB694E
:100F3000FA6813441B78FA69013AF9680A4412788E
:100F4000A2F12001104A52F83120D20079690A44F6
:100F50007A613A6B0092184679693A693B68FFF703
:100F600025FF0346BA691343BB61FB690133FB618B
:100F7000FC69F86802F0A2FE03469C42A5D3BB6957
:100F800018462437BD4690BD8860000880B58AB0F9
:100F900000AFB9607A603B600346FB73FB7B203B8C
:100FA000FB73FB7B314ADB0013445B68BB61FB7B5B
:100FB0005D2B06D0FB7B01332C4ADB0013445B68BE
:100FC00001E040F65F537B6100237B6244E0002335
:100FD000FB612DE000233B6224E080223B6A1A4142
:100FE000B969FB690B442249CB5C13403B613B6907
:100FF000002B14D0FB699BB2DB009AB23B6A9BB218
:1010000013449AB2BB689BB2134499B27B689AB2FC
:101010003B68DBB2084611461A4601F00BFE3B6AFC
:1010200001333B623B6A072BD7DDFB690133FB6170
:10103000FA7B0E4B53F83220FB699A42CADC7B687C
:1010400001337B60FA7B094B53F83230BA691344A1
:10105000BB617B6A01337B62BA697B699A42B6DB0A
:10106000002318462837BD4680BD00BFD870000851
:101070007863000890B58BB002AFF860B9607A6011
:101080003B600023BB61BB687B617B683B61FB68A5
:101090001B783A6B0092184679693A693B68FFF70A
:1010A00075FFB8610123FB6152E0FB69013BFA68FF
:1010B00013441B78A3F120022B4B53F83230DA0093
:1010C0007B691A443B6914337869396901F0D4FBB0
:1010D000B861BB69012B15D13B6914333B61FB69D6
:1010E000013BFA6813441B78A3F120021E4B53F80E
:1010F000322013465B079B1ADB001A46BB68134479
:101100007B6104E0BB69022B01D1BB6928E0FB696C
:10111000FA6813441B78FA69013AF9680A441278AC
:10112000A2F12001104A52F83120D20079690A4414
:101130007A613A6B0092184679693A693B68FFF721
:1011400025FF0346BA691343BB61FB690133FB61A9
:10115000FC69F86802F0B2FD03469C42A5D3BB6966
:1011600018462437BD4690BDD870000880B58AB0B7
:1011700000AFB9607A603B600346FB73FB7B203BAA
:10118000FB73FB7B314ADB0013445B68BB61FB7B79
:101190005D2B06D0FB7B01332C4ADB0013445B68DC
:1011A00001E040F674537B6100237B6244E000233E
:1011B000FB612DE000233B6224E080223B6A1A4160
:1011C000B969FB690B442249CB5C13403B613B6925
:1011D000002B14D0FB699BB2DB009AB23B6A9BB236
:1011E00013449AB2BB689BB2134499B27B689AB21B
:1011F0003B68DBB2084611461A4601F01BFD3B6A0C
:1012000001333B623B6A072BD7DDFB690133FB618E
:10121000FA7B0E4B53F83220FB699A42CADC7B689A
:1012200001337B60FA7B094B53F83230BA691344BF
:10123000BB617B6A01337B62BA697B699A42B6DB28
:10124000002318462837BD4680BD00BF3C810008FA
:10125000C873000890B58BB002AFF860B9607A60CF
:101260003B600023BB61BB687B617B683B61FB68C3
:101270001B783A6B0092184679693A693B68FFF728
:1012800075FFB8610123FB6152E0FB69013BFA681D
:1012900013441B78A3F120022B4B53F83230DA00B1
:1012A0007B691A443B6914337869396901F0E4FABF
:1012B000B861BB69012B15D13B6914333B61FB69F4
:1012C000013BFA6813441B78A3F120021E4B53F82C
:1012D000322013465B079B1ADB001A46BB68134497
:1012E0007B6104E0BB69022B01D1BB6928E0FB698B
:1012F000FA6813441B78FA69013AF9680A441278CB
:10130000A2F12001104A52F83120D20079690A4432
:101310007A613A6B0092184679693A693B68FFF73F
:1013200025FF0346BA691343BB61FB690133FB61C7
:10133000FC69F86802F0C2FC03469C42A5D3BB6975
:1013400018462437BD4690BD3C81000880B58AB060
:1013500000AFB9607A603B600346FB73FB7B203BC8
:10136000FB73FB7B314ADB0013445B68BB61FB7B97
:101370005D2B06D0FB7B01332C4ADB0013445B68FA
:1013800001E040F20A437B6100237B6244E00023DA
:10139000FB612DE000233B6224E080223B6A1A417E
:1013A000B969FB690B442249CB5C13403B613B6943
:1013B000002B14D0FB699BB2DB009AB23B6A9BB254
:1013C00013449AB2BB689BB2134499B27B689AB239
:1013D0003B68DBB2084611461A4601F02BFC3B6A1B
:1013E00001333B623B6A072BD7DDFB690133FB61AD
:1013F000FA7B0E4B53F83220FB699A42CADC7B68B9
:1014000001337B60FA7B094B53F83230BA691344DD
:10141000BB617B6A01337B62BA697B699A42B6DB46
:10142000002318462837BD4680BD00BF3888000815
:101430002C84000890B58BB002AFF860B9607A6078
:101440003B600023BB61BB687B617B683B61FB68E1
:101450001B783A6B0092184679693A693B68FFF746
:1014600075FFB8610123FB6152E0FB69013BFA683B
:1014700013441B78A3F120022B4B53F83230DA00CF
:101480007B691A443B6914337869396901F0F4F9CE
:10149000B861BB69012B15D13B6914333B61FB6912
:1014A000013BFA6813441B78A3F120021E4B53F84A
:1014B000322013465B079B1ADB001A46BB681344B5
:1014C0007B6104E0BB69022B01D1BB6928E0FB69A9
:1014D000FA6813441B78FA69013AF9680A441278E9
:1014E000A2F12001104A52F83120D20079690A4451
:1014F0007A613A6B0092184679693A693B68FFF75E
:1015000025FF0346BA691343BB61FB690133FB61E5
:10151000FC69F86802F0D2FB03469C42A5D3BB6984
:1015200018462437BD4690BD3888000880B58AB07B
:1015300000AFB9607A603B600346FB73FB7B203BE6
:10154000FB73FB7B314ADB0013445B68BB61FB7BB5
:101550005D2B06D0FB7B01332C4ADB0013445B6818
:1015600001E040F20A437B6100237B6244E00023F8
:10157000FB612DE000233B6224E080223B6A1A419C
:10158000B969FB690B442249CB5C13403B613B6961
:10159000002B14D0FB699BB2DB009AB23B6A9BB272
:1015A00013449AB2BB689BB2134499B27B689AB257
:1015B0003B68DBB2084611461A4601F03BFB3B6A2A
:1015C00001333B623B6A072BD7DDFB690133FB61CB
:1015D000FA7B0E4B53F83220FB699A42CADC7B68D7
:1015E00001337B60FA7B094B53F83230BA691344FC
:1015F000BB617B6A01337B62BA697B699A42B6DB65
:10160000002318462837BD4680BD00BF348F000830
:10161000288B000890B58BB002AFF860B9607A6093
:101620003B600023BB61BB687B617B683B61FB68FF
:101630001B783A6B0092184679693A693B68FFF764
:1016400075FFB8610123FB6152E0FB69013BFA6859
:1016500013441B78A3F120022B4B53F83230DA00ED
:101660007B691A443B6914337869396901F004F9DC
:10167000B861BB69012B15D13B6914333B61FB6930
:10168000013BFA6813441B78A3F120021E4B53F868
:10169000322013465B079B1ADB001A46BB681344D3
:1016A0007B6104E0BB69022B01D1BB6928E0FB69C7
:1016B000FA6813441B78FA69013AF9680A44127807
:1016C000A2F12001104A52F83120D20079690A446F
:1016D0007A613A6B0092184679693A693B68FFF77C
:1016E00025FF0346BA691343BB61FB690133FB6104
:1016F000FC69F86802F0E2FA03469C42A5D3BB6994
:1017000018462437BD4690BD348F000880B58AB096
:1017100000AFB9607A603B600346FB73FB7B203B04
:10172000FB73FB7B314ADB0013445B68BB61FB7BD3
:101730005D2B06D0FB7B01332C4ADB0013445B6836
:1017400001E040F20A437B6100237B6244E0002316
:10175000FB612DE000233B6224E080223B6A1A41BA
:10176000B969FB690B442249CB5C13403B613B697F
:10177000002B14D0FB699BB2DB009AB23B6A9BB290
:1017800013449AB2BB689BB2134499B27B689AB275
:101790003B68DBB2084611461A4601F04BFA3B6A39
:1017A00001333B623B6A072BD7DDFB690133FB61E9
:1017B000FA7B0E4B53F83220FB699A42CADC7B68F5
:1017C00001337B60FA7B094B53F83230BA6913441A
:1017D000BB617B6A01337B62BA697B699A42B6DB83
:1017E000002318462837BD4680BD00BF309600084C
:1017F0002492000890B58BB002AFF860B9607A60AF
:101800003B600023BB61BB687B617B683B61FB681D
:101810001B783A6B0092184679693A693B68FFF782
:1018200075FFB8610123FB6152E0FB69013BFA6877
:1018300013441B78A3F120022B4B53F83230DA000B
:101840007B691A443B6914337869396901F014F8EB
:10185000B861BB69012B15D13B6914333B61FB694E
:10186000013BFA6813441B78A3F120021E4B53F886
:10187000322013465B079B1ADB001A46BB681344F1
:101880007B6104E0BB69022B01D1BB6928E0FB69E5
:10189000FA6813441B78FA69013AF9680A44127825
:1018A000A2F12001104A52F83120D20079690A448D
:1018B0007A613A6B0092184679693A693B68FFF79A
:1018C00025FF0346BA691343BB61FB690133FB6122
:1018D000FC69F86802F0F2F903469C42A5D3BB69A3
:1018E00018462437BD4690BD3096000880B58AB0B2
:1018F00000AFB9607A603B600346FB73FB7B203B23
:10190000FB73FB7B314ADB0013445B68BB61FB7BF1
:101910005D2B06D0FB7B01332C4ADB0013445B6854
:1019200001E04FF4C6637B6100237B6244E0002347
:10193000FB612DE000233B6224E080223B6A1A41D8
:10194000B969FB690B442249CB5C13403B613B699D
:10195000002B14D0FB699BB2DB009AB23B6A9BB2AE
:1019600013449AB2BB689BB2134499B27B689AB293
:101970003B68DBB2084611461A4601F05BF93B6A48
:1019800001333B623B6A072BD7DDFB690133FB6107
:10199000FA7B0E4B53F83220FB699A42CADC7B6813
:1019A00001337B60FA7B094B53F83230BA69134438
:1019B000BB617B6A01337B62BA697B699A42B6DBA1
:1019C000002318462837BD4680BD00BF509F000841
:1019D0002099000890B58BB002AFF860B9607A60CA
:1019E0003B600023BB61BB687B617B683B61FB683C
:1019F0001B783A6B0092184679693A693B68FFF7A1
:101A000075FFB8610123FB6152E0FB69013BFA6895
:101A100013441B78A3F120022B4B53F83230DA0029
:101A20007B691A443B6914337869396900F024FFF3
:101A3000B861BB69012B15D13B6914333B61FB696C
:101A4000013BFA6813441B78A3F120021E4B53F8A4
:101A5000322013465B079B1ADB001A46BB6813440F
:101A60007B6104E0BB69022B01D1BB6928E0FB6903
:101A7000FA6813441B78FA69013AF9680A44127843
:101A8000A2F12001104A52F83120D20079690A44AB
:101A90007A613A6B0092184679693A693B68FFF7B8
:101AA00025FF0346BA691343BB61FB690133FB6140
:101AB000FC69F86802F002F903469C42A5D3BB69B1
:101AC00018462437BD4690BD509F000880B58AB0A7
:101AD00000AFB9607A603B600346FB73FB7B203B41
:101AE000FB73FB7B314ADB0013445B68BB61FB7B10
:101AF0005D2B06D0FB7B01332C4ADB0013445B6873
:101B000001E04FF4C0637B6100237B6244E000236B
:101B1000FB612DE000233B6224E080223B6A1A41F6
:101B2000B969FB690B442249CB5C13403B613B69BB
:101B3000002B14D0FB699BB2DB009AB23B6A9BB2CC
:101B400013449AB2BB689BB2134499B27B689AB2B1
:101B50003B68DBB2084611461A4601F06BF83B6A57
:101B600001333B623B6A072BD7DDFB690133FB6125
:101B7000FA7B0E4B53F83220FB699A42CADC7B6831
:101B800001337B60FA7B094B53F83230BA69134456
:101B9000BB617B6A01337B62BA697B699A42B6DBBF
:101BA000002318462837BD4680BD00BF40A8000866
:101BB00040A2000890B58BB002AFF860B9607A60BF
:101BC0003B600023BB61BB687B617B683B61FB685A
:101BD0001B783A6B0092184679693A693B68FFF7BF
:101BE00075FFB8610123FB6152E0FB69013BFA68B4
:101BF00013441B78A3F120022B4B53F83230DA0048
:101C00007B691A443B6914337869396900F034FE02
:101C1000B861BB69012B15D13B6914333B61FB698A
:101C2000013BFA6813441B78A3F120021E4B53F8C2
:101C3000322013465B079B1ADB001A46BB6813442D
:101C40007B6104E0BB69022B01D1BB6928E0FB6921
:101C5000FA6813441B78FA69013AF9680A44127861
:101C6000A2F12001104A52F83120D20079690A44C9
:101C70007A613A6B0092184679693A693B68FFF7D6
:101C800025FF0346BA691343BB61FB690133FB615E
:101C9000FC69F86802F012F803469C42A5D3BB69C0
:101CA00018462437BD4690BD40A8000880B58AB0CC
:101CB00000AFB9607A603B600346FB73FB7B203B5F
:101CC000FB73FB7B314ADB0013445B68BB61FB7B2E
:101CD0005D2B06D0FB7B01332C4ADB0013445B6891
:101CE00001E04FF4DE637B6100237B6244E000236C
:101CF000FB612DE000233B6224E080223B6A1A4115
:101D0000B969FB690B442249CB5C13403B613B69D9
:101D1000002B14D0FB699BB2DB009AB23B6A9BB2EA
:101D200013449AB2BB689BB2134499B27B689AB2CF
:101D30003B68DBB2084611461A4600F07BFF3B6A5F
:101D400001333B623B6A072BD7DDFB690133FB6143
:101D5000FA7B0E4B53F83220FB699A42CADC7B684F
:101D600001337B60FA7B094B53F83230BA69134474
:101D7000BB617B6A01337B62BA697B699A42B6DBDD
:101D8000002318462837BD4680BD00BF20B200089A
:101D900030AB000890B58BB002AFF860B9607A60E4
:101DA0003B600023BB61BB687B617B683B61FB6878
:101DB0001B783A6B0092184679693A693B68FFF7DD
:101DC00075FFB8610123FB6152E0FB69013BFA68D2
:101DD00013441B78A3F120022B4B53F83230DA0066
:101DE0007B691A443B6914337869396900F044FD12
:101DF000B861BB69012B15D13B6914333B61FB69A9
:101E0000013BFA6813441B78A3F120021E4B53F8E0
:101E1000322013465B079B1ADB001A46BB6813444B
:101E20007B6104E0BB69022B01D1BB6928E0FB693F
:101E3000FA6813441B78FA69013AF9680A4412787F
:101E4000A2F12001104A52F83120D20079690A44E7
:101E50007A613A6B0092184679693A693B68FFF7F4
:101E600025FF0346BA691343BB61FB690133FB617C
:101E7000FC69F86801F022FF03469C42A5D3BB69C8
:101E800018462437BD4690BD20B2000880B59EB0EC
:101E900004AF00F0DDFC00F0E9FCFF2000F05AFE8A
:101EA000234B00930123019300230293E023039328
:101EB00000200021E0221F4BFEF766F91E4B009325
:101EC0000223019300230293E02303930020322195
:101ED000E0221A4BFEF758F9174B009302230193A7
:101EE00001230293E023039300209621E022144B68
:101EF000FEF74AF9104B009301230193022302934A
:101F0000E02303930020C821E0220E4BFEF73CF9AA
:101F1000094B00930223019302230293E0230393CE
:101F20000020DC21E022084BFEF72EF9FEE700BF7F
:101F300018B5000810B5000828B5000820B500083D
:101F400034B5000840B500084CB5000880B489B02D
:101F500000AF78600023BB6100237B610023FB613D
:101F600002233B610023FB600223BB60484B9B685C
:101F700003F00C03BB61BB69042B07D0082B09D00D
:101F8000002B3FD17B68434A1A603FE07B68424A9E
:101F90001A603BE03E4B5B6803F480039B0DFB60E3
:101FA0003B4B5B6803F03F03BB60FB68002B0DD02D
:101FB000394ABB68B2FBF3F2354B596847F6C07338
:101FC0000B409B0903FB02F3FB610CE0314ABB6849
:101FD000B2FBF3F22E4B596847F6C0730B409B09D6
:101FE00003FB02F3FB612A4B5B6803F440331B0CD9
:101FF00001335B003B61FA693B69B2FBF3F27B683A
:102000001A6003E07B68234A1A6000BF204B9B687C
:1020100003F0F003BB61BB691B09BB611F4ABB69CD
:1020200013441B78DBB27B617B681A687B69DA40FA
:102030007B685A60164B9B6803F4E053BB61BB6935
:102040009B0ABB61154ABB6913441B78DBB27B61F9
:102050007B685A687B69DA407B689A600C4B9B68A6
:1020600003F46043BB61BB695B0BBB610B4ABB699B
:1020700013441B78DBB27B617B685A687B69DA406A
:102080007B68DA602437BD465DF8047B704700BF8B
:10209000003802400024F40000127A000000002002
:1020A00080B483B000AF78600B46FB70FB78002BE8
:1020B00006D0094B084A116B7A680A431A6306E096
:1020C000054B054A116B7A68D2430A401A630C37F4
:1020D000BD465DF8047B70470038024080B483B091
:1020E00000AF78600B46FB70FB78002B06D0094BE5
:1020F000084A116C7A680A431A6406E0054B054ADF
:10210000116C7A68D2430A401A640C37BD465DF8F8
:10211000047B70470038024080B483B000AF786021
:102120000B46FB70FB78002B06D0094B084A516C1C
:102130007A680A435A6406E0054B054A516C7A688E
:10214000D2430A405A640C37BD465DF8047B7047A1
:102150000038024080B487B000AF78603960002357
:102160007B6100233B610023FB6000237B6176E001
:102170007B69012202FA03F33B613B681A683B6901
:102180001340FB60FA683B699A4265D17B681A6824
:102190007B695B00032101FA03F3DB431A407B6890
:1021A0001A607B681A683B681B7919467B695B007B
:1021B00001FA03F31A437B681A603B681B79012B11
:1021C00003D03B681B79022B2ED17B689A687B6910
:1021D0005B00032101FA03F3DB431A407B689A603A
:1021E0007B689A683B685B7919467B695B0001FAFA
:1021F00003F31A437B689A607B685A687B699BB2D9
:10220000012101FA03F3DB431A407B685A607B68C3
:102210005A683B689B7919467B699BB201FA03F3C4
:102220009BB21A437B685A607B68DA687B699BB211
:102230005B00032101FA03F3DB431A407B68DA6099
:102240007B68DA683B68DB7919467B695B0001FAD9
:1022500003F31A437B68DA607B6901337B617B6936
:102260000F2B85D91C37BD465DF8047B704700BF36
:1022700080B485B000AF786013460A467A807B70E0
:102280000023FB600023BB607A787B8803F00703A0
:102290009B0002FA03F3FB607B88DB089BB21A46C3
:1022A0007B88DB089BB219467B68083153F8211004
:1022B0007B8803F007039B000F2000FA03F3DB4346
:1022C00019407B68083243F822107B88DB089BB2F8
:1022D0001A467B68083253F82220FB681343BB6020
:1022E0007B88DB089BB21A467B680832B96843F8E2
:1022F00022101437BD465DF8047B704780B500AFEF
:10230000114B114A126842F001021A600E4B002272
:102310009A600D4A0C4B1B6823F0847323F48033BE
:102320001360094B094A5A60074B074A126822F4A6
:1023300080221A60044B0022DA6000F00BF8044B94
:102340004FF000629A6080BD0038024010300024D7
:1023500000ED00E080B483B000AF00237B60002379
:102360003B60354B344A126842F480321A60324B7B
:102370001B6803F400333B607B6801337B603B6880
:10238000002B03D17B68B3F5A06FF0D12A4B1B68FB
:1023900003F40033002B02D001233B6001E0002353
:1023A0003B603B68012B42D1234B234A126C42F025
:1023B00080521A64214B214A126842F480421A600A
:1023C0001D4B1D4A92689A601B4B1B4A926842F44F
:1023D00000429A60184B184A926842F4A0529A60E0
:1023E000154B174A5A60144B134A126842F0807218
:1023F0001A6000BF104B1B6803F00073002BF9D06C
:10240000104B40F205621A600B4B0B4A926822F0A7
:1024100003029A60084B084A926842F002029A60EE
:1024200000BF054B9B6803F00C03082BF9D10C3758
:10243000BD465DF8047B70470038024000700040E4
:1024400008544007003C024080B483B000AF78607D
:102450007B681B6823F001027B681A607B6800229E
:102460001A607B6800225A607B6800229A607B6851
:102470000022DA607B6800221A617B6821225A619F
:102480007A68454B9A4203D1444B3D229A607EE0E4
:102490007A68434B9A4204D1404B4FF474629A607D
:1024A00075E07A683F4B9A4204D13C4B4FF474126A
:1024B0009A606CE07A683C4B9A4204D1374B4FF0FB
:1024C00074629A6063E07A68384B9A4203D1334B66
:1024D000374ADA605BE07A68364B9A4203D12F4B79
:1024E000354ADA6053E07A68344B9A4203D12B4B79
:1024F000334ADA604BE07A68324B9A4204D1274B78
:102500004FF03D52DA6042E07A682F4B9A4203D195
:102510002E4B3D229A603AE07A682D4B9A4204D1C4
:102520002A4B4FF474629A6031E07A68294B9A42E0
:1025300004D1264B4FF474129A6028E07A68264B37
:102540009A4204D1214B4FF074629A601FE07A687E
:10255000224B9A4203D11D4B154ADA6017E07A6884
:102560001F4B9A4203D1194B134ADA600FE07A6885
:102570001C4B9A4203D1154B114ADA6007E07A6886
:10258000194B9A4203D1114B4FF03D52DA600C3790
:10259000BD465DF8047B7047106002400060024059
:1025A0002860024040600240586002407060024073
:1025B0003D00002088600240400F0020A0600240E3
:1025C00000003D20B86002401064024000640240F8
:1025D0002864024040640240586402407064024033
:1025E00088640240A0640240B864024080B485B0B0
:1025F00000AF786039600023FB607B681B68FB607C
:10260000FA68244B1340FB603B681A683B68DB6840
:102610001A433B685B691A433B689B691A433B68F2
:10262000DB691A433B681B6A1A433B685B6A1A43BF
:102630003B689B6A1A433B685B6B1A433B689B6B26
:102640001343FA681343FB607B68FA681A607B687F
:102650005B69FB60FB6823F00703FB603B68DA6A99
:102660003B681B6B1343FA681343FB607B68FA6893
:102670005A613B681A697B685A603B685A687B6894
:102680009A603B689A687B68DA601437BD465DF8EB
:10269000047B70473F801CF080B483B000AF78604B
:1026A0000B46FB70FB78002B06D07B681B6843F061
:1026B00001027B681A6005E07B681B6823F0010259
:1026C0007B681A600C37BD465DF8047B704700BF1D
:1026D00080B485B000AFF860B9601346FB71BB6889
:1026E00003F08003002B0FD0FB79002B06D0FB6892
:1026F0005B6943F08002FB685A6105E0FB685B6937
:1027000023F08002FB685A61BB68802B14D0FB79F0
:10271000002B08D0FB681A68BB6803F01E031A433D
:10272000FB681A6008E0FB681A68BB6803F01E03C8
:10273000DB431A40FB681A601437BD465DF8047B22
:10274000704700BF80B487B000AF78603960002365
:10275000FB750023FB600023BB607A68224B9A4222
:1027600002D8224B3B6101E0214B3B613B6823F0E7
:10277000F02323F0C313002B0AD03B68DB0A03F0DD
:102780001E03FB607B681A68FB681340BB6004E0B3
:102790007B685B6903F08003BB603B6803F0005318
:1027A000002B03D03B695B68FB6002E03B691B6860
:1027B000FB60FB6823F0F02323F08213FB60FA68D0
:1027C0003B681340002B05D0BB68002B02D00123CF
:1027D000FB7501E00023FB75FB7D18461C37BD46E9
:1027E0005DF8047B704700BF0F6402400060024048
:1027F0000064024080B485B000AF786039607A68C8
:10280000104B9A4202D8104BFB6001E00F4BFB606B
:102810003B6803F00053002B07D03B6823F0F02304
:1028200023F08213FA68D36006E03B6823F0F023BC
:1028300023F08213FA6893601437BD465DF8047B79
:10284000704700BF0F640240006002400064024015
:1028500080B500AFFFF752FD00F088F9FDF7B0FC3E
:10286000FDF700FFFDF748FF80BD00BF80B500AF5A
:10287000FDF742FF80BD00BF80B487B000AFF860B5
:10288000B9607A603B6000237B61FB68B3F5A07F91
:1028900009DCFB68002B06DB7B68B3F5A07F02DC5C
:1028A0007B68002B03DA7B6943F001037B61BB6823
:1028B000F02B08DCBB68002B05DB3B68F02B02DC4F
:1028C0003B68002B03DA7B6943F002037B617B6981
:1028D00018461C37BD465DF8047B704780B584B050
:1028E00000AF786039600023FB601AE0FB687A680B
:1028F0001A44FB6879680B441B78FB72154B196806
:10290000FB7A01330B441B7803F00303022B02D143
:10291000FB7A203B00E0FB7ADBB21370FB680133EB
:10292000FB60FB687A6813441B78002BDED13868A3
:1029300001F0C4F90346786839681A4601F0EEF9E7
:102940000346002B01D1012300E000231846103775
:10295000BD4680BD1000002080B588B002AFF86091
:10296000B9607A603B6000237B61FF233B61386A7A
:102970007649FFF7B3FF0346002B25D0BB6A012B36
:102980000CD0022B13D0002B1AD17B6A012B02D161
:1029900000233B6117E003233B6114E07B6A012BBA
:1029A00002D101233B610EE004233B610BE07B6A13
:1029B000012B02D102233B6105E005233B6102E0CC
:1029C00001237B6100BF2EE0386A6149FFF786FF73
:1029D0000346002B25D0BB6A012B0CD0022B13D051
:1029E000002B1AD17B6A012B02D106233B6117E031
:1029F00009233B6114E07B6A012B02D107233B6171
:102A00000EE00A233B610BE07B6A012B02D1082315
:102A10003B6105E00B233B6102E001237B6100BFCA
:102A200001E001237B613B690B2B00F2878001A24F
:102A300052F823F0652A0008772A0008892A00083E
:102A40009B2A0008AD2A0008BF2A0008D12A0008E6
:102A5000E32A0008F52A0008072B0008192B0008B4
:102A60002B2B0008FB6A0093F868B9687A683B680A
:102A7000FDF740FF65E0FB6A0093F868B9687A6883
:102A80003B68FEF727F85CE0FB6A0093F868B968DA
:102A90007A683B68FEF70EF953E0FB6A0093F8682A
:102AA000B9687A683B68FEF7F5F94AE0FB6A00937B
:102AB000F868B9687A683B68FEF7DCFA41E0FB6ABF
:102AC0000093F868B9687A683B68FEF7C3FB38E0A2
:102AD000FB6A0093F868B9687A683B68FEF7AAFC5D
:102AE0002FE0FB6A0093F868B9687A683B68FEF7E4
:102AF00091FD26E0FB6A0093F868B9687A683B6844
:102B0000FEF778FE1DE0FB6A0093F868B9687A6802
:102B10003B68FEF75FFF14E0FB6A0093F868B96852
:102B20007A683B68FFF746F80BE0FB6A0093F868A9
:102B3000B9687A683B68FFF72DF902E001237B61F1
:102B400000BF7B6918461837BD4680BD58B50008E0
:102B500060B5000880B582B000AF78607B68DBB2FA
:102B6000184600F043F80837BD4680BD80B582B0F6
:102B700000AF1B4B00221A80194B00225A60184BE1
:102B800000229A600023BB8017E00023FB800DE049
:102B9000BA8813469B0013449B011A44FB881344D4
:102BA000104A0021D154FB880133FB80FB88B3F528
:102BB000A07FEDD9BB880133BB80BB88EF2BE4D964
:102BC00000F05EF800F0B0F800F03EF900F010F907
:102BD000054B1A68024B9A600837BD4680BD00BF9E
:102BE00018000020240000208864024080B584B0D2
:102BF00000AF0346FB710023BB8114E00023FB817F
:102C00000AE0F989BA89FB79084611461A4600F0AC
:102C100011F8FB890133FB81FB89B3F5A07FF0D369
:102C2000BB890133BB81BB89EF2BE7D91037BD4688
:102C300080BD00BF80B483B000AF13460246FA8067
:102C40000A46BA80FB70FB88B3F5A07F01D300234E
:102C5000FB80BB88EF2B01D90023BB80BA881346C9
:102C60009B0013449B011A44FB881344034AF978E0
:102C7000D1540C37BD465DF8047B7047240000201A
:102C800080B582B000AF10200121FFF709FA4FF4A0
:102C90007F433B6001233B710023BB710123FB7128
:102CA00003237B713B461E481946FFF753FA1C4B22
:102CB0004FF47F425A8302200121FFF7F1F94FF4CC
:102CC00000633B6002233B7103237B710023BB71D4
:102CD0000123FB713B4613481946FFF73BFA1148A5
:102CE0000B210122FFF7C4FA02200121FFF7D8F9D6
:102CF0004FF480533B6001233B710023BB710123E0
:102D0000FB7103237B713B4606481946FFF722FA05
:102D1000044B4FF480521A830837BD4680BD00BF74
:102D2000001002400004024080B588B000AF0120CE
:102D30000121FFF7F1F90B23BB610023BB820023C4
:102D4000BB830023FB8207F114032848194600F0D7
:102D5000A3F901200121FFF7C1F940F66B23BB6104
:102D60000023BB820023BB830023FB8207F11403F3
:102D70004FF08040194600F08FF960233B8001231B
:102D80007B804FF4D273BB600223BB813B464FF084
:102D90008040194600F02AFA4FF08040082100F0E8
:102DA00011FB60233B8001237B804FF4A073BB6049
:102DB0000223BB813B464FF08040194600F09CFA4D
:102DC0004FF08040082100F019FB0848012100F075
:102DD000CDF94FF08040012100F0C8F94FF080405C
:102DE000012100F0E3F92037BD4680BD000001401D
:102DF00080B582B000AF134810210122FFF768FCB4
:102E000044233B7100237B710023BB710123FB71C1
:102E10003B1D184600F0E2F84FF0804008210122E7
:102E200000F00AFB1C233B7100237B710023BB7164
:102E30000123FB713B1D184600F0D0F80837BD4652
:102E400080BD00BF8864024080B590B000AF4FF4F1
:102E500080000121FFF724F91B480021FFF71CFC2B
:102E60001948FFF7F1FA4FF040637B60174BBB60E6
:102E7000174BFB6040233B6140F241137B61002311
:102E8000BB614FF48063FB6100233B6200237B62E4
:102E90000023BB624FF44033FB6200233B630123FA
:102EA0007B630023BB630023FB633B1D064819467D
:102EB000FFF79CFB07484FF48071012200F0F0FA05
:102EC0004037BD4680BD00BF8864024015100240F7
:102ED000240000200000014080B500AF4FF080408A
:102EE000082100F0CDFA254B1B8801339AB2234B01
:102EF0001A80224B1B88B3F5037F05D91F4B002294
:102F00001A801F4A1D4B5A601C4B1B88012B04D88A
:102F10001C4B4FF480525A8303E01A4B4FF48052FB
:102F20001A83164B1B88232B27D9144B1A8840F27F
:102F300002239A4221D8144B104A92681A60124B0D
:102F40000E4A5268DA60114B104A128892B242F06F
:102F5000010292B21A800C4B0B4A126842F0010235
:102F60001A60064B1B8803F00103002B05D0034BAE
:102F70005B6803F24112014B5A6080BD18000020CB
:102F80002400002000040240886402400000014048
:102F900080B500AF0D480E49FFF7D4FB0346002B68
:102FA00012D00A480A49FFF725FC0A4B094A128841
:102FB00092B222F0010292B21A80044B00221A60EF
:102FC000054B4FF47F425A8380BD00BF88640240A6
:102FD00000880020000001400010024080B485B04D
:102FE00000AF78600023FB730023BB730F237B7358
:102FF0007B68DB78002B37D0254BDB68DB4303F4A1
:10300000E0631B0AFB73FB7BC3F10403BB737A7B96
:10301000FB7B42FA03F37B737B685B781A46BB7BCE
:1030200002FA03F3FB737B689A787B7B1340DAB276
:10303000FB7B1343FB73FB7B1B01FB73154A7B6814
:103040001B781344FA7B83F80023124B7A681278BA
:103050005209D2B27968097801F01F01012000FA03
:1030600001F143F822100EE00A4B7A6812785209F7
:10307000D2B27968097801F01F01012000FA01F14C
:10308000203243F822101437BD465DF8047B7047A8
:1030900000ED00E000E100E080B485B000AF7860B2
:1030A00039600023FB817B681B88FB817A68284B91
:1030B0009A4213D07A68274B9A420FD07B68B3F1BB
:1030C000804F0BD07A68244B9A4207D07A68234B02
:1030D0009A4203D07A68224B9A4208D1FB8923F0A6
:1030E0007003FB813B685A88FB891343FB817A6834
:1030F0001C4B9A420CD07A681B4B9A4208D0FB8931
:1031000023F44073FB813B681A89FB891343FB81DD
:103110007B68FA891A803B685A687B68DA623B6888
:103120001A887B681A857A68094B9A4203D07A68B4
:10313000084B9A4204D13B689B7A1A467B681A86F0
:103140007B6801229A821437BD465DF8047B704784
:10315000000001400004014000040040000800405D
:10316000000C0040001000400014004080B483B008
:1031700000AF78600B46FB70FB78002B08D07B68B3
:103180001B889BB243F080039AB27B681A8007E0E9
:103190007B681B889BB223F080039AB27B681A80FD
:1031A0000C37BD465DF8047B704700BF80B483B028
:1031B00000AF78600B46FB70FB78002B08D07B6873
:1031C0001B889BB243F001039AB27B681A8007E028
:1031D0007B681B889BB223F001039AB27B681A803C
:1031E0000C37BD465DF8047B704700BF80B485B0E6
:1031F00000AF7860396000237B810023FB810023CE
:10320000BB817B681B8C9BB223F480739AB27B6872
:103210001A847B681B8CFB817B689B88BB817B68E5
:103220009B8B7B817B8923F070037B817B8923F0DF
:1032300003037B813B681A887B8913437B81FB896D
:1032400023F40073FB813B689B891B029AB2FB89C4
:103250001343FB813B685B881B029AB2FB891343D3
:10326000FB817A68224B9A4203D07A68214B9A42BA
:103270002BD1FB8923F40063FB813B68DB891B02B4
:103280009AB2FB891343FB81FB8923F48063FB81A2
:103290003B689B881B029AB2FB891343FB81BB8965
:1032A00023F48053BB81BB8923F40053BB813B686B
:1032B0001B8A1B019AB2BB891343BB813B685B8AA3
:1032C0001B019AB2BB891343BB817B68BA899A8080
:1032D0007B687A899A833B689A687B68DA637B6843
:1032E000FA891A841437BD465DF8047B704700BF25
:1032F000000001400004014080B485B000AF786058
:1033000039600023BB8100237B810023FB817B6824
:103310001B8C9BB223F480539AB27B681A847B681F
:103320001B8C7B817B689B88FB817B689B8BBB8133
:10333000BB8923F4E043BB81BB8923F44073BB8189
:103340003B681B881B029AB2BB891343BB817B89F4
:1033500023F400537B813B689B891B039AB27B89D2
:1033600013437B813B685B881B039AB27B891343C1
:103370007B817A68114B9A4203D07A68104B9A424B
:103380000AD1FB8923F48043FB813B681B8A9B01A4
:103390009AB2FB891343FB817B68FA899A807B6828
:1033A000BA899A833B689A687B681A647B687A89D1
:1033B0001A841437BD465DF8047B70470000014055
:1033C0000004014080B485B000AF78600B467B807C
:1033D0000023FB817B689B8BFB81FB8923F0080327
:1033E000FB81FA897B881343FB817B68FA899A8386
:1033F0001437BD465DF8047B704700BF80B485B0CC
:1034000000AF78600B467B800023FB817B689B8B41
:10341000FB81FB8923F40063FB817B881B029AB24A
:10342000FB891343FB817B68FA899A831437BD4675
:103430005DF8047B704700BF80B483B000AF786054
:1034400013460A467A807B707B78002B08D07B6815
:103450009B899AB27B8813439AB27B689A8109E070
:103460007B689B899AB27B88DB439BB213409AB2FC
:103470007B689A810C37BD465DF8047B704700BFBE
:1034800080B483B000AF78600B467B807B88DB43E1
:103490009AB27B681A820C37BD465DF8047B704790
:1034A00080B483B000AF786013460A467A807B70A0
:1034B0007B78002B08D07B689B899AB27B8813436A
:1034C0009AB27B689A8109E07B689B899AB27B8873
:1034D000DB439BB213409AB27B689A810C37BD469E
:1034E0005DF8047B704700BF81F0004102E000BF3F
:1034F00083F0004330B54FEA41044FEA430594EAB4
:10350000050F08BF90EA020F1FBF54EA000C55EAEE
:10351000020C7FEA645C7FEA655C00F0E2804FEABF
:103520005454D4EB5555B8BF6D420CDD2C4480EAA1
:10353000020281EA030382EA000083EA010180EAD1
:10354000020281EA0303362D88BF30BD11F0004F1F
:103550004FEA01314FF4801C4CEA113102D0404255
:1035600061EB410113F0004F4FEA03334CEA133390
:1035700002D0524263EB430394EA050F00F0A780A8
:10358000A4F10104D5F1200E0DDB02FA0EFC22FAA3
:1035900005F2801841F1000103FA0EF2801843FA97
:1035A00005F359410EE0A5F120050EF1200E012A88
:1035B00003FA0EFC28BF4CF0020C43FA05F3C018C6
:1035C00051EBE37101F0004507D54FF0000EDCF13F
:1035D000000C7EEB00006EEB0101B1F5801F1BD3E8
:1035E000B1F5001F0CD349085FEA30004FEA3C0CEC
:1035F00004F101044FEA445212F5800F80F09A80E2
:10360000BCF1004F08BF5FEA500C50F1000041EBE5
:10361000045141EA050130BD5FEA4C0C404141EBE9
:10362000010111F4801FA4F10104E9D191F0000F10
:1036300004BF01460020B1FA81F308BF2033A3F193
:103640000B03B3F120020CDA0C3208DD02F1140C8A
:10365000C2F10C0201FA0CF021FA02F10CE002F1C5
:103660001402D8BFC2F1200C01FA02F120FA0CFCBE
:10367000DCBF41EA0C019040E41AA2BF01EB045107
:10368000294330BD6FEA04041F3C1CDA0C340EDC05
:1036900004F11404C4F1200220FA04F001FA02F348
:1036A00040EA030021FA04F345EA030130BDC4F106
:1036B0000C04C4F1200220FA02F001FA04F340EAFB
:1036C0000300294630BD21FA04F0294630BD94F0AC
:1036D000000F83F4801306BF81F480110134013D93
:1036E0004EE77FEA645C18BF7FEA655C29D094EA04
:1036F000050F08BF90EA020F05D054EA000C04BF82
:103700001946104630BD91EA030F1EBF002100206C
:1037100030BD5FEA545C05D14000494128BF41F00B
:10372000004130BD14F580043CBF01F5801130BD6F
:1037300001F0004545F0FE4141F470014FF00000FA
:1037400030BD7FEA645C1ABF194610467FEA655CAB
:103750001CBF0B46024650EA013406BF52EA03354D
:1037600091EA030F41F4002130BD00BF90F0000F3B
:1037700004BF0021704730B54FF4806404F1320477
:103780004FF000054FF0000150E700BF90F0000F30
:1037900004BF0021704730B54FF4806404F1320457
:1037A00010F0004548BF40424FF000013EE700BF27
:1037B00042004FEAE2014FEA31014FEA02701FBFB7
:1037C00012F07F4393F07F4F81F06051704792F089
:1037D000000F14BF93F07F4F704730B54FF4607403
:1037E00001F0004521F0004120E700BF50EA01024E
:1037F00008BF704730B54FF000050AE050EA0102FB
:1038000008BF704730B511F0004502D5404261EB6A
:1038100041014FF4806404F132045FEA915C3FF4AB
:10382000DCAE4FF003025FEADC0C18BF03325FEA44
:10383000DC0C18BF033202EBDC02C2F1200300FAF9
:1038400003FC20FA02F001FA03FE40EA0E0021FA1E
:1038500002F11444C1E600BF70B54FF0FF0C4CF408
:10386000E06C1CEA11541DBF1CEA135594EA0C0FBE
:1038700095EA0C0F00F0DEF82C4481EA030621EAF9
:103880004C5123EA4C5350EA013518BF52EA033534
:1038900041F4801143F4801338D0A0FB02CE4FF0E6
:1038A0000005E1FB02E506F00042E0FB03E54FF016
:1038B0000006E1FB03569CF0000F18BF4EF0010E0E
:1038C000A4F1FF04B6F5007F64F5407404D25FEA0A
:1038D0004E0E6D4146EB060642EAC62141EA5551BD
:1038E0004FEAC52040EA5E504FEACE2EB4F1FD0CFF
:1038F00088BFBCF5E06F1ED8BEF1004F08BF5FEA7D
:10390000500E50F1000041EB045170BD06F000462E
:1039100046EA010140EA020081EA0301B4EB5C04DB
:10392000C2BFD4EB0C0541EA045170BD41F48011D3
:103930004FF0000E013C00F3AB8014F1360FDEBFF8
:10394000002001F0004170BDC4F10004203C35DAD4
:103950000C341BDC04F11404C4F1200500FA05F357
:1039600020FA04F001FA05F240EA020001F00042F8
:1039700021F0004110EBD37021FA04F642EB06016E
:103980005EEA430E08BF20EAD37070BDC4F10C0498
:10399000C4F1200500FA04F320FA05F001FA04F25C
:1039A00040EA020001F0004110EBD37041F1000148
:1039B0005EEA430E08BF20EAD37070BDC4F1200553
:1039C00000FA05F24EEA020E20FA04F301FA05F2BB
:1039D00043EA020321FA04F001F0004121FA04F263
:1039E00020EA020000EBD3705EEA430E08BF20EA33
:1039F000D37070BD94F0000F0FD101F0004640006D
:103A000041EB010111F4801F08BF013CF7D041EAEE
:103A1000060195F0000F18BF704703F000465200F2
:103A200043EB030313F4801F08BF013DF7D043EAC3
:103A30000603704794EA0C0F0CEA135518BF95EA79
:103A40000C0F0CD050EA410618BF52EA4306D1D100
:103A500081EA030101F000414FF0000070BD50EA1F
:103A6000410606BF1046194652EA430619D094EAA9
:103A70000C0F02D150EA013613D195EA0C0F05D193
:103A800052EA03361CBF104619460AD181EA0301E7
:103A900001F0004141F0FE4141F470014FF000009F
:103AA00070BD41F0FE4141F4780170BD70B54FF03A
:103AB000FF0C4CF4E06C1CEA11541DBF1CEA1355BA
:103AC00094EA0C0F95EA0C0F00F0A7F8A4EB05049C
:103AD00081EA030E52EA03354FEA013100F0888093
:103AE0004FEA03334FF0805545EA131343EA12635C
:103AF0004FEA022245EA111545EA10654FEA002611
:103B00000EF000419D4208BF964244F1FD0404F5C9
:103B1000407402D25B084FEA3202B61A65EB030525
:103B20005B084FEA32024FF480104FF4002CB6EBE2
:103B3000020E75EB030E22BFB61A754640EA0C0062
:103B40005B084FEA3202B6EB020E75EB030E22BFA2
:103B5000B61A754640EA5C005B084FEA3202B6EBE3
:103B6000020E75EB030E22BFB61A754640EA9C00A2
:103B70005B084FEA3202B6EB020E75EB030E22BF72
:103B8000B61A754640EADC0055EA060E18D04FEA30
:103B9000051545EA16754FEA06164FEAC30343EAD0
:103BA00052734FEAC2025FEA1C1CC0D111F4801F9D
:103BB0000BD141EA00014FF000004FF0004CB6E796
:103BC00011F4801F04BF01430020B4F1FD0C88BF35
:103BD000BCF5E06F3FF6AFAEB5EB030C04BFB6EB40
:103BE000020C5FEA500C50F1000041EB045170BD33
:103BF0000EF0004E4EEA113114EB5C04C2BFD4EB60
:103C00000C0541EA045170BD41F480114FF0000EE3
:103C1000013C90E645EA060E8DE60CEA135594EA5F
:103C20000C0F08BF95EA0C0F3FF43BAF94EA0C0F62
:103C30000AD150EA01347FF434AF95EA0C0F7FF4D7
:103C400025AF104619462CE795EA0C0F06D152EA2B
:103C500003353FF4FDAE1046194622E750EA41060F
:103C600018BF52EA43067FF4C5AE50EA41047FF420
:103C70000DAF52EA43057FF4EBAE12E74A0011D2D2
:103C800012F5001211D20DD56FF47873B3EB6252B6
:103C90000ED44FEAC12343F0004343EA505323FAC2
:103CA00002F070474FF00000704750EA013002D137
:103CB0004FF0FF3070474FF00000704720F00301D5
:103CC00010F00300C0F1000051F8043B00F1040CB7
:103CD0004FEACC0C6FF000021CBF22FA0CF2134327
:103CE0004FF0010C4CEA0C2C4CEA0C4CA3EB0C02F0
:103CF00022EA030212EACC1204BF51F8043B04305A
:103D0000F4D013F0FF0F1FBF013013F47F4F0130C9
:103D100013F47F0F18BF0130704700BF30B4002A82
:103D20004AD040EA010313F003032DD1032A2BD913
:103D300004680D68AC4227D1043A3DD0A4F10135A6
:103D400025EA040414F0803F3CD10C4603460EE003
:103D50005B686468A3F10135A34225EA030513D12A
:103D6000043A29D015F0803F29D103460C46032A96
:103D700000F1040001F10401EAD8551E2AB91879AE
:103D80002279801A30BC7047551E03780A78934216
:103D90001AD1DDB1B3B16C1C0C448B1C014604E09C
:103DA000A3420CD001330028ECD011F8010F13F816
:103DB000012C9042F4D0E4E7104630BC704700205C
:103DC00030BC70471846DDE71846DAE72846D9E7E1
:103DD00000000000000000000000808080808080E3
:103DE00000800000A0A0A000000000000000282823
:103DF000F85050F8A0A0000070A8A0702828A87063
:103E0000200062009400940068000B00148014806D
:103E100023000000000030484830508C88740000B7
:103E200080808000000000000000204080808080B2
:103E3000808040208040202020202020408040E0C2
:103E400040A000000000000000002020F82020001A
:103E500000000000000000000080808000000000E2
:103E600000E00000000000000000000000800000F2
:103E700020204040404080800000708888888888EA
:103E8000887000002060A020202020200000708882
:103E90000808102040F80000708808300808887072
:103EA00000001030505090F810100000784080F062
:103EB000080888700000708880F08888887000008A
:103EC000F8101020204040400000708888708888DA
:103ED000887000007088888878088870000000006A
:103EE00080000000008000000000800000000080D2
:103EF000808000000870807008000000000000F85A
:103F000000F80000000000008070087080000000D1
:103F1000708808102020002000001F0060804D40A5
:103F20009340A240A240A6809B0040403F801028C2
:103F30002828447C82820000F88484FC848484F8ED
:103F4000000038448080808044380000F0888484F9
:103F5000848488F00000F88080F8808080F8000079
:103F6000F88080F0808080800000384482808E82DB
:103F700044380000848484FC84848484000080802D
:103F80008080808080800000101010101090906061
:103F90000000848890B0D088888400008080808071
:103FA000808080F8000082C6C6AAAAAA9292000069
:103FB00084C4A4A494948C840000384482828282B5
:103FC00044380000F0888888F08080800000384401
:103FD0008282829A443A0000F88484F89088888427
:103FE000000078848060180484780000F820202085
:103FF000202020200000848484848484847800002D
:104000008282444428281010000084208A204A40DC
:104010004A405140514020802080000000008448E8
:104020004830304848840000824444281010101062
:1040300000007C081010202040FC0000C080808020
:104040008080808080C080804040404020200000F0
:10405000C04040404040404040C020505088000098
:1040600000000000000000000000000000FC804094
:104070000000000000000000000070887888986848
:1040800000008080B0C88888C8B000000000708838
:104090008080887000000808689888889868000008
:1040A00000007088F880887000002040E0404040A8
:1040B00040400000000068988888986808F0808078
:1040C000B0C88888888800008000808080808080D8
:1040D000000040004040404040404080808090A030
:1040E000C0A0A09000008080808080808080000040
:1040F0000000BCD29292929200000000F088888862
:10410000888800000000708888888870000000009F
:10411000B0C88888C8B0808000006898888898688F
:1041200008080000A0C08080808000000000708827
:104130006010887000004040E04040404060000057
:10414000000088888888986800000000888850509F
:104150002020000000000000888094805500550059
:10416000220022000000000000008850202050881B
:104170000000000088885050202020400000F810E7
:10418000202040F800002040404080404040402037
:10419000808080808080808080808040404020407F
:1041A00040404080010000000000000001000000CD
:1041B0000A000000010000001400000001000000DF
:1041C0001E000000010000002800000002000000A6
:1041D0003200000001000000460000000100000065
:1041E00050000000010000005A0000000100000023
:1041F00064000000010000006E00000001000000EB
:1042000078000000010000008200000001000000B2
:104210008C0000000100000096000000010000007A
:10422000A000000001000000AA0000000100000042
:10423000B400000001000000BE000000010000000A
:10424000C800000001000000D200000001000000D2
:10425000DC00000001000000E6000000010000009A
:10426000F000000001000000FA0000000100000062
:1042700004010000010000000E0100000100000028
:1042800018010000010000002201000001000000F0
:104290002C010000010000003601000001000000B8
:1042A00040010000020000004A010000010000007F
:1042B0005E01000001000000680100000100000034
:1042C00072010000010000007C01000001000000FC
:1042D00086010000010000009001000001000000C4
:1042E0009A01000001000000A4010000010000008C
:1042F000AE01000001000000B80100000100000054
:10430000C201000001000000CC010000010000001B
:10431000D601000001000000E001000001000000E3
:10432000EA01000001000000F401000001000000AB
:10433000FE01000001000000080200000100000072
:1043400012020000010000001C0200000100000039
:104350002602000001000000300200000200000000
:104360003A020000010000004E02000001000000BF
:10437000580200000100000062020000010000007D
:104380006C02000001000000760200000100000045
:1043900080020000010000008A020000010000000D
:1043A00094020000010000009E02000001000000D5
:1043B000A802000001000000B2020000010000009D
:1043C000BC02000001000000C60200000100000065
:1043D000D002000001000000DA020000010000002D
:1043E000E402000001000000EE02000001000000F5
:1043F000F8020000010000000203000001000000BC
:104400000C03000001000000160300000100000082
:1044100020030000010000002A030000010000004A
:1044200034030000010000003E0300000100000012
:1044300048030000010000005203000001000000DA
:104440005C030000010000006603000001000000A2
:1044500070030000010000007A0300000200000069
:104460008403000001000000980300000100000028
:10447000A203000001000000AC03000001000000E6
:10448000B603000001000000C003000001000000AE
:10449000CA0300000000000000000000000000004F
:1044A000C0C0C0C0C000C0C0000000D8D8D8000044
:1044B0000000000000002424FC4848FC909000000C
:1044C0002070A8A0F07828A870200000E4A4A8E834
:1044D00017152527000000386C6C307ACECC7E0092
:1044E0000000C0C0C000000000000000002060C04C
:1044F000C0C0C0C04060200080404060606060403C
:10450000C0800040E040A00000000000000000006B
:104510002020F8202000000000000000000000C063
:10452000C04080000000000000E00000000000002B
:104530000000000000C0C0000000202040404040BB
:10454000808000000070D8D8D8D8D8D8700000007B
:104550003070F0B03030303000000070D8181830B3
:1045600060C0F800000070D818301818D87000002B
:10457000001838585898FC18180000007860C0F0EF
:104580009818D87000000070D8C0F0D8D8D8700043
:104590000000F81830306060606000000070D8D80B
:1045A00070D8D8D87000000070D8D8D87818D870D3
:1045B0000000000000C0C00000C0C00000000000FB
:1045C000C0C00000C0C0408000000830C0C030083B
:1045D00000000000000000F800F8000000000000EB
:1045E0008060181860800000000070D818306000EB
:1045F0006060000000001F0060805F409340A240A8
:10460000A240A6805F0060C01F000038386C6C6C50
:10461000FEC6C6000000F8CCCCF8CCCCCCF800002C
:10462000003C66C0C0C0C0663C000000F8CCCCCCEA
:10463000CCCCCCF8000000F8C0C0F8C0C0C0F80076
:104640000000F8C0C0F8C0C0C0C00000003C66C098
:10465000C0CEC6663C000000CCCCCCFCCCCCCCCCD4
:10466000000000C0C0C0C0C0C0C0C000000018181A
:1046700018181818D870000000CCD8D8F0F8D8CC8A
:10468000CC000000C0C0C0C0C0C0C0FC0000000022
:10469000E380E380F780F780D580DD80DD80C9800E
:1046A0000000000000CCCCECECDCDCCCCC0000004A
:1046B000386CC6C6C6C66C38000000F8CCCCCCF846
:1046C000C0C0C0000000386CC6C6C6D66C3C020034
:1046D00000F8CCCCCCF8D8CCC600000078CCC0F028
:1046E0003C0CCC78000000FC3030303030303000F2
:1046F0000000CCCCCCCCCCCCCC78000000C6C66CB6
:104700006C6C6C383800000000C460CE606EC06A0B
:10471000C06AC07BC0318031800000000000CCCC7A
:1047200078303078CCCC000000CCCC4878303030B9
:1047300030000000FC0C18303060C0FC000000E0CD
:10474000C0C0C0C0C0C0C0C0E00080804040404089
:104750002020000000E06060606060606060E00059
:10476000207050D800000000000000000000000091
:1047700000000000FC00C06000000000000000001D
:10478000000000709878D8D878000000C0C0F8CC3D
:10479000CCCCCCF8000000000070D8C0C0D87000AD
:1047A00000000C0C7CCCCCCCCC7C00000000007851
:1047B000CCFCC0CC780000003860F06060606060C5
:1047C00000000000007CCCCCCCCC7C8C7800C0C03D
:1047D000F8CCCCCCCCCC000000C000C0C0C0C0C065
:1047E000C0000000600060606060606060C000C089
:1047F000C0CCD8F0F8D8CC000000C0C0C0C0C0C049
:10480000C0C00000000000000000FF80CCC0CCC091
:10481000CCC0CCC0CCC000000000000000F8CCCC64
:10482000CCCCCC000000000078CCCCCCCC78000004
:10483000000000F8CCCCCCCCF8C0C00000007CCC90
:10484000CCCCCC7C0C0C000000F0C0C0C0C0C000C0
:104850000000000078CCF03CCC780000002060F034
:1048600060606060300000000000CCCCCCCCCC7C20
:104870000000000000D8D8D8D870700000000000F8
:10488000000000C980DD80DD8077007700630000D4
:10489000000000000000D8D87070D8D800000000D8
:1048A00000C66C6C6C383830E0000000F8183060DE
:1048B000C0F80000003060606060C0606060300080
:1048C0008080808080808080808000C060606060A8
:1048D00030606060C00000000100000000000000C7
:1048E000010000000B0000000100000016000000A5
:1048F0000100000021000000010000002C00000069
:10490000010000003700000001000000420000002C
:10491000010000004D0000000100000058000000F0
:104920000100000063000000010000006E000000B4
:104930000100000079000000010000008400000078
:10494000010000008F000000010000009A0000003C
:1049500001000000A500000001000000B000000000
:1049600001000000BB00000001000000C6000000C4
:1049700001000000D100000001000000DC00000088
:1049800001000000E700000001000000F20000004C
:1049900001000000FD00000001000000080100000F
:1049A0000100000013010000010000001E010000D2
:1049B0000100000029010000010000003401000096
:1049C000010000003F010000010000004A0100005A
:1049D000010000005501000002000000600100001D
:1049E00001000000760100000100000081010000CC
:1049F000010000008C010000010000009701000090
:104A000001000000A201000001000000AD01000053
:104A100001000000B801000001000000C301000017
:104A200001000000CE01000001000000D9010000DB
:104A300001000000E401000001000000EF0100009F
:104A400002000000FA010000010000001002000056
:104A5000010000001B02000001000000260200000F
:104A60000100000031020000010000003C020000D3
:104A70000100000047020000010000005202000097
:104A8000010000005D02000001000000680200005B
:104A90000200000073020000010000008902000013
:104AA0000100000094020000010000009F020000CD
:104AB00001000000AA02000001000000B502000091
:104AC00001000000C002000001000000CB02000055
:104AD00001000000D602000001000000E102000019
:104AE00001000000EC02000001000000F7020000DD
:104AF0000100000002030000010000000D0300009F
:104B00000100000018030000010000002303000062
:104B1000010000002E030000010000003903000026
:104B20000100000044030000010000004F030000EA
:104B3000010000005A0300000100000065030000AE
:104B40000200000070030000010000008603000066
:104B50000100000091030000010000009C03000020
:104B600001000000A703000001000000B2030000E4
:104B700001000000BD03000001000000C8030000A8
:104B800001000000D303000001000000DE0300006C
:104B900002000000E903000001000000FF03000024
:104BA000010000000A0400000100000015040000DC
:104BB0000100000020040000010000002B040000A0
:104BC00001000000360400000000000000000000AA
:104BD0000000000000202040404040008000000015
:104BE000005050A00000000000000000002828FC39
:104BF0004848FC5050000000083C54503018949431
:104C0000782000000000710092009400E8000B8002
:104C100014802480470000000000000000182424B5
:104C2000287094887400000000404080000000005C
:104C30000000000000102040408080808080400004
:104C40000020101010101020204080000040E04094
:104C5000A0000000000000000000002020F820203C
:104C60000000000000000000000000004040800044
:104C7000000000000000F000000000000000000044
:104C800000000000800000000008101020204040BC
:104C90008000000000304848888890906000000044
:104CA000002060A020204040400000000030480864
:104CB00010204080F00000000030480830080888CC
:104CC00070000000000818305090F820200000000C
:104CD000007840B0C80808906000000000304880AC
:104CE000B0C888906000000000F010202040408094
:104CF000800000000030484830488888700000007C
:104D0000003048889868089060000000000000406B
:104D100000000000800000000000002000000000F3
:104D20004040800000000008708070080000000013
:104D300000000000F800F800000000000000008003
:104D4000700870800000000000708808102040008B
:104D50004000000000001F0020804D409340A24012
:104D6000A240A6809B00404060801F0000081414F1
:104D700024247C4484000000003C2444784444847F
:104D8000F8000000003844808080848870000000B3
:104D9000003C224242424284F8000000003E204093
:104DA0007C404080FC000000003E20407C40408071
:104DB00080000000003C4280809E848478000000D7
:104DC000002121427E4242848400000000202040D5
:104DD00040404080800000000008080810109090BB
:104DE00060000000002428506050508888000000B7
:104DF0000020204040404080F8000000000031804A
:104E0000530053005500550059009A0092000000CD
:104E10000000000000213152524A4A8C84000000F8
:104E2000003C42828282828478000000003C224260
:104E3000427C408080000000003C42428282849C90
:104E400078040000003E22427C4848848400000030
:104E5000003C4240300884847800000000FE1010BE
:104E60002020204040000000004242448484848886
:104E700070000000008484889090A0A04000000092
:104E8000000084408C4094809480A500A500C6005A
:104E9000840000000000000000412214181828447B
:104EA0008400000000848850502020404000000012
:104EB000007C040810204080FC00000000302040EE
:104EC000404040408080C000008080404040402002
:104ED0002000000000301010202020204040C000A2
:104EE000002050508800000000000000000000007A
:104EF000000000000000FC000080400000000000F6
:104F000000000000000000384808F090F0000000A9
:104F100000202058644444C8B00000000000003065
:104F2000488080906000000000040428588888B001
:104F3000500000000000003048F880906000000041
:104F4000003040E04080808080000000000000349D
:104F50002C4444483888700000202050684848900D
:104F60009000000000200040404040808000000091
:104F700000080010101010202020C0000020204841
:104F80005060509090000000002020404040408041
:104F900080000000000000526D494992920000001C
:104FA0000000005068484890900000000000007029
:104FB000488888907000000000000028344444684D
:104FC00050808000000000744C88889868101000A1
:104FD0000000005060408080800000000000003031
:104FE0004860188870000000004040E040808080E9
:104FF000C000000000000048484888B0D000000011
:10500000000000889090A060400000000000009226
:10501000B2B4D8D8900000000000004428103048F6
:105020008400000000000044484850302020C000A8
:105030000000007810202040F00000000018101040
:1050400020C04040404060000080808080808080A0
:105050008080800000301010101018204040C000E8
:105060000100000000000000010000000C00000032
:1050700001000000180000000100000024000000F2
:105080000100000030000000020000003C000000B1
:10509000010000005400000001000000600000005A
:1050A000010000006C00000001000000780000001A
:1050B00001000000840000000100000090000000DA
:1050C000010000009C00000001000000A80000009A
:1050D00001000000B400000001000000C00000005A
:1050E00001000000CC00000001000000D80000001A
:1050F00001000000E400000001000000F0000000DA
:1051000001000000FC000000010000000801000098
:105110000100000014010000010000002001000057
:10512000010000002C010000010000003801000017
:1051300001000000440100000100000050010000D7
:10514000010000005C010000010000006801000097
:105150000100000074010000010000008001000057
:10516000020000008C01000001000000A40100000A
:1051700001000000B001000001000000BC010000BF
:1051800001000000C801000001000000D40100007F
:1051900001000000E001000001000000EC0100003F
:1051A00001000000F80100000100000004020000FE
:1051B0000100000010020000010000001C020000BD
:1051C000010000002802000002000000340200007C
:1051D000010000004C020000010000005802000025
:1051E00001000000640200000100000070020000E5
:1051F000010000007C0200000100000088020000A5
:10520000010000009402000001000000A002000064
:1052100001000000AC02000002000000B802000023
:1052200001000000D002000001000000DC020000CC
:1052300001000000E802000001000000F40200008C
:105240000100000000030000010000000C0300004A
:10525000010000001803000001000000240300000A
:105260000100000030030000010000003C030000CA
:10527000010000004803000001000000540300008A
:105280000100000060030000010000006C0300004A
:10529000010000007803000001000000840300000A
:1052A0000100000090030000010000009C030000CA
:1052B00001000000A803000001000000B40300008A
:1052C00001000000C003000001000000CC0300004A
:1052D00001000000D803000001000000E40300000A
:1052E00001000000F003000001000000FC030000CA
:1052F0000100000008040000010000001404000088
:105300000100000020040000010000002C04000047
:105310000100000038040000010000004404000007
:105320000100000050040000010000005C040000C7
:105330000100000068040000010000007404000087
:105340000100000080040000010000008C04000047
:10535000000000000000000000000000000000004D
:10536000000000000000C0C0C0C0C0C0C0C0C0C0BD
:10537000C00000C0C0000000000000CCCCCCCCCCF1
:10538000000000000000000000000000000000001D
:10539000000C600C600CE018C0FFF0FFF018C0318A
:1053A000803180FFF0FFF031807300630063000004
:1053B00000000000000000000008003E007F00EB3D
:1053C00080C980C800E8007C001F000B80098009AC
:1053D00080C980EB807F003E0008000800000000CC
:1053E000000000000000380C006C1800C61800C651
:1053F0003000C63000C660006CC00038CE00019B93
:105400000001B1800331800331800631800C1B0024
:105410000C0E000000000000000000000000000072
:10542000000000000F001F8030C030C031801B0022
:105430001E003E006730C3B0C1E0C0C0E1E07FB0F5
:105440003E100000000000000000000000C0C0C0CE
:10545000C0C00000000000000000000000000000CC
:105460000000081030206060C0C0C0C0C0C0C06074
:10547000602030100800008040602030301818187C
:105480001818181830302060408000001818FF18D5
:105490003C6600000000000000000000000000006A
:1054A00000000000000000000C000C000C000C00CC
:1054B000FFC0FFC00C000C000C000C00000000003E
:1054C00000000000000000000000000000000000DC
:1054D0000000000000000000C0C04040800000004C
:1054E0000000000000000000FCFC000000000000C4
:1054F00000000000000000000000000000000000AC
:105500000000C0C00000000000000C0C18181818A3
:1055100030303060606060C0C000000000000000FB
:105520003E007F806180C0C0C0C0C0C0C0C0C0C0DD
:10553000C0C0C0C0C0C0C0C061807F801F0000006C
:105540000000000000000000000C0C3C7CCC0C0CA7
:105550000C0C0C0C0C0C0C0C000000000000003FAC
:10556000007F80E1C0C0C000C000C0018001800396
:10557000000E001C0030006000FFC0FFC0000000F3
:105580000000000000000000003E007F00E380C13A
:1055900080018003000E000F8001C000C000C0C069
:1055A000C0E1807F803E000000000000000000009D
:1055B0000000000100030007000F001B001B003368
:1055C000006300C300FFC0FFC0030003000300032B
:1055D000000000000000000000000000003F803FCD
:1055E000806000600060006F00FF80C1C000C000EC
:1055F000C000C0C0C0E1807F803E0000000000000D
:10560000000000000000001F003F8061C060C0C0BB
:1056100000CF00FF80E1C0C0C0C0C0C0C0C0C0613A
:10562000803F801E0000000000000000000000001D
:1056300000FFC0FFC0018003000300060006000C4D
:10564000000C001800180018003000300030000076
:1056500000000000000000000000001E003F00618C
:10566000806180618061803F003F006180C0C0C078
:10567000C0C0C0E1C07F803F00000000000000000B
:1056800000000000001E007F006180C0C0C0C0C0DC
:10569000C0C0C061C07FC03CC000C0C180E1807F8D
:1056A000003E0000000000000000000000000000BC
:1056B0000000C0C000000000000000C0C0000000EA
:1056C00000000000000000C0C0000000000000005A
:1056D000C0C0404080000000000000000000400109
:1056E000C007801E007000C00070001E000780010F
:1056F000C0004000000000000000000000000000AA
:105700000000000000000000000000FFC0FFC0001B
:105710000000000000FFC0FFC0000000000000000B
:105720000000000000000000000000000000000079
:10573000008000E00078001E00038000C003801E8F
:10574000007800E000800000000000000000000081
:10575000000000000000003F007F80E1C0C0C000EA
:10576000C00180038007000E000C000C0000000048
:10577000000C000C00000000000000000000000011
:10578000000001FC000FFF001E07803801C030E65A
:10579000C063F6E0671C60C60C60CC0C60CC0C608B
:1057A000CC08E0CC18C0CE398067FF0073DE6038CB
:1057B00000C01E03800FFF0003FC0000000000007B
:1057C000070007000D800D800D8018C018C018C09C
:1057D0003FE03FE0603060306030C018C01800002B
:1057E00000000000000000000000FF00FF80C1C0BA
:1057F000C0C0C0C0C1C0FF80FF80C0C0C060C0606A
:10580000C060C0E0FFC0FF8000000000000000009A
:10581000000000000FC03FE038706038E018C000A2
:10582000C000C000C000C000E018603078703FE0E9
:105830000FC0000000000000000000000000FF009A
:10584000FFC0C0E0C060C030C030C030C030C03029
:10585000C030C030C060C0E0FFC0FF0000000000EA
:105860000000000000000000FFE0FFE0C000C000FA
:10587000C000C000FFC0FFC0C000C000C000C0002A
:10588000C000FFE0FFE0000000000000000000009A
:105890000000FFC0FFC0C000C000C000C000FF800B
:1058A000FF80C000C000C000C000C000C000C00039
:1058B0000000000000000000000000000FE01FF0EA
:1058C0003838601C6008C000C000C1FCC1FCC00CBE
:1058D000600C600C383C1FF807E00000000000007E
:1058E000000000000000C030C030C030C030C03008
:1058F000C030FFF0FFF0C030C030C030C030C0302A
:10590000C030C0300000000000000000000000C0F7
:10591000C0C0C0C0C0C0C0C0C0C0C0C0C0C0000007
:105920000000000003030303030303030303C3C3D3
:10593000E77E3C00000000000000C0E0C1C0C38062
:10594000C700CE00DC00DC00FC00EE00C700C38016
:10595000C180C1C0C0E0C0700000000000000000B5
:1059600000000000C000C000C000C000C000C000B7
:10597000C000C000C000C000C000C000C000FF8068
:10598000FF80000000000000000000000000E00EAA
:10599000F01EF01ED016D836D836C826CC66CC6697
:1059A000C446C6C6C6C6C286C386C38600000000FB
:1059B0000000000000000000C030E030F030F030A7
:1059C000D830CC30CC30C630C330C330C1B0C0F0DA
:1059D000C0F0C070C03000000000000000000000F7
:1059E00000000FC01FE038706018E01CC00CC00C35
:1059F000C00CC00CC00CE01C601838701FE00FC059
:105A0000000000000000000000000000FF80FFC058
:105A1000C0E0C060C060C060C0E0FFC0FF80C000E8
:105A2000C000C000C000C000C000000000000000B6
:105A30000000000000000FC01FF038786018E01C64
:105A4000C00CC00CC00CC00CC00CE01861D8387081
:105A50001FF80FDC00040000000000000000000040
:105A6000FF80FFC0C0E0C060C060C0E0FFC0FF803A
:105A7000C300C380C180C1C0C0E0C060C07000006E
:105A8000000000000000000000000F803FE0707088
:105A90006030600070003F000FC000E00030C03098
:105AA000E03070703FE01F80000000000000000048
:105AB00000000000FFF0FFF00600060006000600F0
:105AC00006000600060006000600060006000600A6
:105AD0000600000000000000000000000000C030D0
