:020000040800F2
:10000000AC5E0120F5090008510A0008510A0008F9
:10001000510A0008510A0008510A000800000000B7
:10002000000000000000000000000000510A00086D
:10003000510A000800000000510A0008510A000897
:10004000510A0008510A0008510A0008510A000824
:10005000510A0008510A0008510A0008510A000814
:10006000510A0008510A0008510A0008510A000804
:10007000510A0008510A0008510A0008510A0008F4
:10008000510A0008510A0008510A0008510A0008E4
:10009000510A0008510A0008510A0008510A0008D4
:1000A000510A0008510A0008510A0008510A0008C4
:1000B000F9180008510A0008510A0008510A0008FE
:1000C000510A0008510A0008510A0008510A0008A4
:1000D000510A0008510A00083D2A0008510A000888
:1000E000510A0008510A0008510A0008510A000884
:1000F000510A0008510A0008510A0008510A000874
:10010000510A0008510A0008510A0008510A000863
:10011000510A0008510A0008510A0008510A000853
:10012000510A0008510A0008510A0008510A000843
:10013000510A0008510A0008510A0008510A000833
:10014000510A0008510A0008510A0008510A000823
:10015000B1190008510A0008510A0008510A0008A4
:10016000510A0008510A0008510A0008510A000803
:10017000510A0008510A0008510A0008510A0008F3
:10018000510A0008510A000880B483B000AF7860BB
:1001900013460A46FA70BB700AE07B681B78FA784F
:1001A0009A4205D17B68BA781A707B6801337B600C
:1001B0007B685A1C7A601B78002BEED10C37BD4649
:1001C0005DF8047B704700BF80B483B000AF7860F7
:1001D00039600DE002E07B6801337B607B681B784F
:1001E000002BF8D17B6801337B603B68013B3B60AF
:1001F0003B68002BEEDC7B6818460C37BD465DF88B
:10020000047B704780B485B000AF78600B46FB700C
:100210000023FB6010E002E0FB680133FB60FB6839
:100220007A6813441B78FA789A42F5D0FB687A68AA
:1002300013441A787B681A707B685A1C7A601B78A2
:10024000002BE8D11437BD465DF8047B704700BF32
:1002500080B5A2B002AF01F00BFFE32001F0DCFF9C
:100260003B1D18460021322203F0D4FBA14801F0C7
:1002700025FF322300930123019301200121012254
:10028000C82301F075FE00206421032200F06AFB00
:100290003B1D184601F0FAFE3B1D18462021FFF7D2
:1002A000B1FF3B1D18462C210022FFF76DFF0023F4
:1002B000FB671EE0FB6F3A1D1A44FB6F391D0B44B0
:1002C0001B7887F87B308C4B196897F87B300133AB
:1002D0000B441B7803F00303022B03D197F87B3008
:1002E000203B01E097F87B30DBB21370FB6F0133EA
:1002F000FB67FB6F3A1D13441B78002BDAD13B1DC3
:1003000018467E49042203F0FFFB0346002B53D11D
:100310000023BB633B1D18460121FFF755FF034631
:10032000184603F073FB0346FB633B1D184602218E
:10033000FFF74AFF0346184603F068FB03463B6499
:100340003B1D18460321FFF73FFF0346184603F005
:100350005DFB03467B643B1D18460421FFF734FF19
:100360000346184603F052FB0346BB643B1D184688
:100370000521FFF729FF0346184603F047FB034614
:10038000FB653B1D18460621FFF71EFF0346184676
:1003900003F03CFB03463B66594801F08FFE07F132
:1003A0003803184600F058FB0346184601F07AFE61
:1003B000544801F083FE96E03B1D1846524909223D
:1003C00003F0A2FB0346002B4DD10123BB633B1D71
:1003D00018460121FFF7F8FE0346184603F016FB06
:1003E0000346FB633B1D18460221FFF7EDFE034663
:1003F000184603F00BFB03463B643B1D18460321E4
:10040000FFF7E2FE0346184603F000FB0346FB64D9
:100410003B1D18460421FFF7D7FE0346184603F09C
:10042000F5FA03463B653B1D18460521FFF7CCFE58
:100430000346184603F0EAFA0346FB653B1D1846DF
:100440000621FFF7C1FE0346184603F0DFFA034614
:100450007B6607F13803184600F0FEFA034618469B
:1004600001F020FE3FE03B1D18462849062203F01C
:100470004BFB0346002B36D10323BB633B1D1846C1
:100480000121FFF7A1FE0346184603F0BFFA034619
:100490007B653B1D18460221FFF796FE0346184672
:1004A00003F0B4FA0346FB633B1D18460321FFF734
:1004B0008BFE0346184603F0A9FA03463B643B1D36
:1004C00018460421FFF780FE0346184603F09EFA03
:1004D0000346BB6507F13803184600F0BDFA034632
:1004E000184601F0DFFD3B1D18460021322203F0C3
:1004F00091FACDE6E83C000808250020003D000800
:10050000083D0008143D0008183D0008243D00087F
:1005100080B58AB000AF7860396000237B62002329
:100520003B620023FB610023BB617B681B8A9BB29B
:100530007B627B6A23F440537B623B68DB887A6A88
:1005400013437B627B6A9AB27B681A827B689B89C1
:100550009BB27B627B6A23F4B05323F00C037B6273
:100560003B689A883B681B8913439AB23B685B8956
:1005700013439BB27A6A13437B627B6A9AB27B68AD
:100580009A817B689B8A9BB27B627B6A23F440736F
:100590007B623B689B897A6A13437B627B6A9AB26F
:1005A0007B689A8207F10803184600F037FB7A68E7
:1005B000314B9A4203D07A68304B9A4202D17B6920
:1005C0003B6201E03B693B627B689B899BB29BB2CB
:1005D0001BB2002B0CDA3A6A13469B0013449A00B4
:1005E0001A443B681B685B00B2FBF3F3FB610BE052
:1005F0003A6A13469B0013449A001A443B681B68EE
:100600009B00B2FBF3F3FB61FA691D4BA3FB0213E2
:100610005B091B017B627B6A1B09642202FB03F3FB
:10062000FA69D31ABB617B689B899BB29BB21BB2F0
:10063000002B0DDABB69DB0003F13202104BA3FB88
:1006400002135B0903F007037A6A13437B620CE031
:10065000BB691B0103F13202094BA3FB02135B09C7
:1006600003F00F037A6A13437B627B6A9AB27B685A
:100670001A812837BD4680BD00100140001401409A
:100680001F85EB5180B483B000AF78600B46FB70E0
:10069000FB78002B08D07B689B899BB243F4005306
:1006A0009AB27B689A8107E07B689B899BB223F4AE
:1006B00000539AB27B689A810C37BD465DF8047B83
:1006C000704700BF80B483B000AF78600B467B807A
:1006D0007B88C3F308039AB27B689A800C37BD46C7
:1006E0005DF8047B704700BF80B487B000AF7860CE
:1006F00013460A467A807B7000233B610023FB602F
:100700000023BB6000237B617B687B617B88DBB25D
:100710005B09DBB23B617B8803F01F03FB60FB6876
:10072000012202FA03F3BB603B69012B03D17B6911
:100730000C337B6109E03B69022B03D17B691033E9
:100740007B6102E07B6914337B617B78002B06D0F0
:100750007B697A691168BA680A431A6006E07B69A6
:100760007A691168BA68D2430A401A601C37BD46DC
:100770005DF8047B704700BF80B485B000AF78603F
:100780000B467B800023FB737B681B889AB27B88B7
:1007900013409BB2002B02D00123FB7301E0002326
:1007A000FB73FB7B18461437BD465DF8047B70472E
:1007B00080B487B000AF78600B467B800023FB607D
:1007C00000237B610023BB600023FB747B88DBB2CA
:1007D0005B09DBB2BB607B8803F01F037B617B6935
:1007E000012202FA03F37B61BB68012B06D17B680F
:1007F0009B899BB27A6913407B610FE0BB68022B37
:1008000006D17B681B8A9BB27A6913407B6105E045
:100810007B689B8A9BB27A6913407B617B881B0A49
:100820009BB2FB60FB68012202FA03F3FB607B686A
:100830001B889BB2FA681340FB607B69002B05D0D4
:10084000FB68002B02D00123FB7401E00023FB7442
:10085000FB7C18461C37BD465DF8047B704700BF23
:1008600080B485B000AF78600B467B800023FB81AD
:100870000023BB817B881B0AFB81FB89012202FAD2
:1008800003F3BB81BB89DB439AB27B681A801437C0
:10089000BD465DF8047B704780B58AB000AFF86054
:1008A000B9607A603B602D4AFB68DB0013445B68EB
:1008B0003B61FB685D2B03D140F635537B6206E05C
:1008C000FB680133254ADB0013445B687B62BB682D
:1008D0003B6200237B613B69FB6136E00023BB6127
:1008E0001AE08022BB691A411D49FB690B441B7841
:1008F0001340002B0AD03B6A99B27B689AB23B68DE
:10090000DBB2084611461A4600F0A4FE3B6A0133EA
:100910003B62BB690133BB61BB69072BE1DD0F4B58
:10092000FA6853F832305A1E7B699A4203DD7B69BC
:1009300001337B6106E0BB683B627B6801337B600F
:1009400000237B61FB690133FB61FA697B6A9A4290
:10095000C4DB002318462837BD4680BD644A000822
:100960002C3D0008B0B590B000AFF860B9607A6077
:100970001E4B07F114041D460FCD0FC495E8070068
:1009800084E8070000237B6321E007F114027B6BFE
:1009900013441B78203B3B637B6B002B02D101236C
:1009A000BB6304E0124BFA6B53F83230BB63BB6B92
:1009B000DB00FA681344FB60386BF968BA687B683F
:1009C000FFF76AFF3B6BFB637B6B01337B637C6BE5
:1009D00007F11403184603F067F803469C42D4D38A
:1009E000002318464037BD46B0BD00BF544D000837
:1009F000644A000880B582B000AF104B7B60104B9A
:100A00003B6007E03B681A1D3A607A68111D796007
:100A100012681A603A680B4B9A42F3D30A480B49A2
:100A20004FF000028842B8BF40F8042BFFF6FAAF3F
:100A3000FFF70EFC0837BD4680BD00BF8C4E000896
:100A4000000000203C2900203C290020B056012055
:100A500080B400AFFEE700BFB0B586B002AF7860EB
:100A60000023FB607B681B68012B50D0032B00F038
:100A70009B80002B40F0C7807B681B68184601F004
:100A800011FB634801F01AFB7B685B68184601F0B4
:100A900009FB5F4801F012FB7B689B68184601F078
:100AA00001FB5B4801F00AFB7B68DB68184601F03C
:100AB000F9FA574801F002FB7B681B69184601F000
:100AC000F1FA534801F0FAFA7B685B6A184601F0C4
:100AD000E9FA4F4801F0F2FA7B689B6A184601F088
:100AE000E1FA4C4801F0EAFA7B6858687B6899683B
:100AF0007B68DA687B681B697C68646AE5B27C683D
:100B0000A46A0095019401F033FAF8607BE07B68F9
:100B10001B68184601F0C6FA3D4801F0CFFA7B6821
:100B20005B68184601F0BEFA394801F0C7FA7B68E5
:100B30009B68184601F0B6FA354801F0BFFA7B68A9
:100B40005B69184601F0AEFA314801F0B7FA7B68EC
:100B50009B69184601F0A6FA2D4801F0AFFA7B68B0
:100B60005B6A184601F09EFA294801F0A7FA7B68F3
:100B7000DB6A184601F096FA264801F09FFA7B6876
:100B800058687B6899687B685A697B689B697C6850
:100B9000656A7C68E46A0095019401F083FCF86062
:100BA0001D4801F08BFA2EE07B681B68184601F0A7
:100BB00079FA174801F082FA7B68DB69184601F080
:100BC00071FA134801F07AFA7B685B68184601F005
:100BD00069FA0F4801F072FA7B689B68184601F0C9
:100BE00061FA0C4801F06AFA7B68D8697B68596839
:100BF0007B689A687B681B6A01F0E0F9F860064838
:100C000001F05CFA00BFFB6818461037BD46B0BD66
:100C1000704D0008744D0008784D000880B489B00C
:100C200000AF78600023BB6100237B610023FB6180
:100C300002233B610023FB600223BB60484B9B689F
:100C400003F00C03BB61BB69042B07D0082B09D050
:100C5000002B3FD17B68434A1A603FE07B68424AE1
:100C60001A603BE03E4B5B6803F480039B0DFB6026
:100C70003B4B5B6803F03F03BB60FB68002B0DD070
:100C8000394ABB68B2FBF3F2354B596847F6C0737B
:100C90000B409B0903FB02F3FB610CE0314ABB688C
:100CA000B2FBF3F22E4B596847F6C0730B409B0919
:100CB00003FB02F3FB612A4B5B6803F440331B0C1C
:100CC00001335B003B61FA693B69B2FBF3F27B687D
:100CD0001A6003E07B68234A1A6000BF204B9B68C0
:100CE00003F0F003BB61BB691B09BB611F4ABB6911
:100CF00013441B78DBB27B617B681A687B69DA403E
:100D00007B685A60164B9B6803F4E053BB61BB6978
:100D10009B0ABB61154ABB6913441B78DBB27B613C
:100D20007B685A687B69DA407B689A600C4B9B68E9
:100D300003F46043BB61BB695B0BBB610B4ABB69DE
:100D400013441B78DBB27B617B685A687B69DA40AD
:100D50007B68DA602437BD465DF8047B704700BFCE
:100D6000003802400024F40000127A000000002045
:100D700080B483B000AF78600B46FB70FB78002B2B
:100D800006D0094B084A116B7A680A431A6306E0D9
:100D9000054B054A116B7A68D2430A401A630C3737
:100DA000BD465DF8047B70470038024080B483B0D4
:100DB00000AF78600B46FB70FB78002B06D0094B28
:100DC000084A116C7A680A431A6406E0054B054A22
:100DD000116C7A68D2430A401A640C37BD465DF83C
:100DE000047B70470038024080B483B000AF786065
:100DF0000B46FB70FB78002B06D0094B084A516C60
:100E00007A680A435A6406E0054B054A516C7A68D1
:100E1000D2430A405A640C37BD465DF8047B7047E4
:100E20000038024080B487B000AF7860396000239A
:100E30007B6100233B610023FB6000237B6176E044
:100E40007B69012202FA03F33B613B681A683B6944
:100E50001340FB60FA683B699A4265D17B681A6867
:100E60007B695B00032101FA03F3DB431A407B68D3
:100E70001A607B681A683B681B7919467B695B00BE
:100E800001FA03F31A437B681A603B681B79012B54
:100E900003D03B681B79022B2ED17B689A687B6953
:100EA0005B00032101FA03F3DB431A407B689A607D
:100EB0007B689A683B685B7919467B695B0001FA3D
:100EC00003F31A437B689A607B685A687B699BB21C
:100ED000012101FA03F3DB431A407B685A607B6807
:100EE0005A683B689B7919467B699BB201FA03F308
:100EF0009BB21A437B685A607B68DA687B699BB255
:100F00005B00032101FA03F3DB431A407B68DA60DC
:100F10007B68DA683B68DB7919467B695B0001FA1C
:100F200003F31A437B68DA607B6901337B617B6979
:100F30000F2B85D91C37BD465DF8047B704700BF79
:100F400080B485B000AF78600B467B800023FB73D4
:100F50007B681A697B881340002B02D00123FB7346
:100F600001E00023FB73FB7B18461437BD465DF898
:100F7000047B704780B483B000AF78600B467B8001
:100F80007B687A881A830C37BD465DF8047B70470E
:100F900080B483B000AF78600B467B807B687A8832
:100FA0005A830C37BD465DF8047B704780B485B02A
:100FB00000AF786013460A467A807B700023FB609E
:100FC0000023BB607A787B8803F007039B0002FA5A
:100FD00003F3FB607B88DB089BB21A467B88DB0847
:100FE0009BB219467B68083153F821107B8803F0C7
:100FF00007039B000F2000FA03F3DB4319407B68D3
:10100000083243F822107B88DB089BB21A467B68C3
:10101000083253F82220FB681343BB607B88DB084F
:101020009BB21A467B680832B96843F8221014371D
:10103000BD465DF8047B704780B500AF114B114A87
:10104000126842F001021A600E4B00229A600D4AAB
:101050000C4B1B6823F0847323F480331360094B1B
:10106000094A5A60074B074A126822F480221A6024
:10107000044B0022DA6000F00BF8044B4FF00062E2
:101080009A6080BD003802401030002400ED00E07E
:1010900080B483B000AF00237B6000233B60354BFE
:1010A000344A126842F480321A60324B1B6803F4EF
:1010B00000333B607B6801337B603B68002B03D1CE
:1010C0007B68B3F5A06FF0D12A4B1B6803F40033A3
:1010D000002B02D001233B6001E000233B603B6812
:1010E000012B42D1234B234A126C42F080521A64E6
:1010F000214B214A126842F480421A601D4B1D4A5E
:1011000092689A601B4B1B4A926842F400429A60B4
:10111000184B184A926842F4A0529A60154B174A2D
:101120005A60144B134A126842F080721A6000BF72
:10113000104B1B6803F00073002BF9D0104B40F2EA
:1011400005621A600B4B0B4A926822F003029A6008
:10115000084B084A926842F002029A6000BF054BB1
:101160009B6803F00C03082BF9D10C37BD465DF8E2
:10117000047B70470038024000700040085440076C
:10118000003C024080B483B000AF78607B681B688D
:1011900023F001027B681A607B6800221A607B687A
:1011A00000225A607B6800229A607B680022DA6025
:1011B0007B6800221A617B6821225A617A68454B5C
:1011C0009A4203D1444B3D229A607EE07A68434BB9
:1011D0009A4204D1404B4FF474629A6075E07A6889
:1011E0003F4B9A4204D13C4B4FF474129A606CE02E
:1011F0007A683C4B9A4204D1374B4FF074629A6044
:1012000063E07A68384B9A4203D1334B374ADA604D
:101210005BE07A68364B9A4203D12F4B354ADA604D
:1012200053E07A68344B9A4203D12B4B334ADA604D
:101230004BE07A68324B9A4204D1274B4FF03D5233
:10124000DA6042E07A682F4B9A4203D12E4B3D225E
:101250009A603AE07A682D4B9A4204D12A4B4FF4B7
:1012600074629A6031E07A68294B9A4204D1264B25
:101270004FF474129A6028E07A68264B9A4204D19F
:10128000214B4FF074629A601FE07A68224B9A42B9
:1012900003D11D4B154ADA6017E07A681F4B9A425A
:1012A00003D1194B134ADA600FE07A681C4B9A425B
:1012B00003D1154B114ADA6007E07A68194B9A425C
:1012C00003D1114B4FF03D52DA600C37BD465DF84B
:1012D000047B7047106002400060024028600240BA
:1012E0004060024058600240706002403D000020B3
:1012F00088600240400F0020A060024000003D20B6
:10130000B860024010640240006402402864024059
:1013100040640240586402407064024088640240A5
:10132000A0640240B864024080B485B000AF786029
:1013300039600023FB607B681B68FB60FA68244B04
:101340001340FB603B681A683B68DB681A433B68E4
:101350005B691A433B689B691A433B68DB691A4324
:101360003B681B6A1A433B685B6A1A433B689B6A8B
:101370001A433B685B6B1A433B689B6B1343FA68E9
:101380001343FB607B68FA681A607B685B69FB60EB
:10139000FB6823F00703FB603B68DA6A3B681B6B62
:1013A0001343FA681343FB607B68FA685A613B6831
:1013B0001A697B685A603B685A687B689A603B6828
:1013C0009A687B68DA601437BD465DF8047B704725
:1013D0003F801CF080B483B000AF78600B46FB7098
:1013E000FB78002B06D07B681B6843F001027B680A
:1013F0001A6005E07B681B6823F001027B681A60B5
:101400000C37BD465DF8047B704700BF80B485B0E3
:1014100000AFF860B9601346FB71BB6803F080034E
:10142000002B0FD0FB79002B06D0FB685B6943F0E3
:101430008002FB685A6105E0FB685B6923F080026B
:10144000FB685A61BB68802B14D0FB79002B08D055
:10145000FB681A68BB6803F01E031A43FB681A6036
:1014600008E0FB681A68BB6803F01E03DB431A4000
:10147000FB681A601437BD465DF8047B704700BFF7
:1014800080B487B000AF786039600023FB7500231B
:10149000FB600023BB607A68224B9A4202D8224B41
:1014A0003B6101E0214B3B613B6823F0F02323F0DB
:1014B000C313002B0AD03B68DB0A03F01E03FB605A
:1014C0007B681A68FB681340BB6004E07B685B695B
:1014D00003F08003BB603B6803F00053002B03D094
:1014E0003B695B68FB6002E03B691B68FB60FB6873
:1014F00023F0F02323F08213FB60FA683B6813406B
:10150000002B05D0BB68002B02D00123FB7501E046
:101510000023FB75FB7D18461C37BD465DF8047B38
:10152000704700BF0F640240006002400064024048
:1015300080B485B000AF786039607A68104B9A4209
:1015400002D8104BFB6001E00F4BFB603B6803F0DF
:101550000053002B07D03B6823F0F02323F08213C5
:10156000FA68D36006E03B6823F0F02323F082138F
:10157000FA6893601437BD465DF8047B704700BF7E
:101580000F640240006002400064024080B582B0F7
:1015900000AF1B4B00221A80194B00225A60184BD7
:1015A00000229A600023BB8017E00023FB800DE03F
:1015B000BA8813469B0013449B011A44FB881344CA
:1015C000104A0021D154FB880133FB80FB88B3F51E
:1015D000A07FEDD9BB880133BB80BB88EF2BE4D95A
:1015E00000F05EF800F0B0F800F03EF900F010F9FD
:1015F000054B1A68024B9A600837BD4680BD00BF94
:10160000402900204C2900208864024080B584B025
:1016100000AF0346FB710023BB8114E00023FB8174
:101620000AE0F989BA89FB79084611461A4600F0A2
:1016300011F8FB890133FB81FB89B3F5A07FF0D35F
:10164000BB890133BB81BB89EF2BE7D91037BD467E
:1016500080BD00BF80B483B000AF13460246FA805D
:101660000A46BA80FB70FB88B3F5A07F01D3002344
:10167000FB80BB88EF2B01D90023BB80BA881346BF
:101680009B0013449B011A44FB881344034AF978D6
:10169000D1540C37BD465DF8047B70474C290020BF
:1016A00080B582B000AF10200121FFF761FB4FF43D
:1016B0007F433B6001233B710023BB710123FB711E
:1016C00003237B713B461E481946FFF7ABFB1C4BBF
:1016D0004FF47F425A8302200121FFF749FB4FF468
:1016E00000633B6002233B7103237B710023BB71CA
:1016F0000123FB713B4613481946FFF793FB114842
:101700000B210122FFF752FC02200121FFF730FBE1
:101710004FF480533B6001233B710023BB710123D5
:10172000FB7103237B713B4606481946FFF77AFBA2
:10173000044B4FF480521A830837BD4680BD00BF6A
:10174000001002400004024080B588B000AF0120C4
:101750000121FFF749FB0B23BB610023BB82002360
:10176000BB830023FB8207F114032848194600F0CD
:10177000A3F901200121FFF719FB40F66B23BB61A0
:101780000023BB820023BB830023FB8207F11403E9
:101790004FF08040194600F08FF960233B80012311
:1017A0007B804FF4D273BB600223BB813B464FF07A
:1017B0008040194600F02AFA4FF08040082100F0DE
:1017C00011FB60233B8001237B804FF4A073BB603F
:1017D0000223BB813B464FF08040194600F09CFA43
:1017E0004FF08040082100F019FB0848012100F06B
:1017F000CDF94FF08040012100F0C8F94FF0804052
:10180000012100F0E3F92037BD4680BD0000014012
:1018100080B582B000AF134810210122FFF7F6FD1A
:1018200044233B7100237B710023BB710123FB71B7
:101830003B1D184600F0E2F84FF0804008210122DD
:1018400000F00AFB1C233B7100237B710023BB715A
:101850000123FB713B1D184600F0D0F80837BD4648
:1018600080BD00BF8864024080B590B000AF4FF4E7
:1018700080000121FFF77CFA1B480021FFF7AAFD39
:101880001948FFF77FFC4FF040637B60174BBB604C
:10189000174BFB6040233B6140F241137B61002307
:1018A000BB614FF48063FB6100233B6200237B62DA
:1018B0000023BB624FF44033FB6200233B630123F0
:1018C0007B630023BB630023FB633B1D0648194673
:1018D000FFF72AFD07484FF48071012200F0F0FA6B
:1018E0004037BD4680BD00BF8864024015100240ED
:1018F0004C2900200000014080B500AF4FF080402F
:10190000082100F0CDFA254B1B8801339AB2234BF6
:101910001A80224B1B88B3F5037F05D91F4B002289
:101920001A801F4A1D4B5A601C4B1B88012B04D880
:101930001C4B4FF480525A8303E01A4B4FF48052F1
:101940001A83164B1B88232B27D9144B1A8840F275
:1019500002239A4221D8144B104A92681A60124B03
:101960000E4A5268DA60114B104A128892B242F065
:10197000010292B21A800C4B0B4A126842F001022B
:101980001A60064B1B8803F00103002B05D0034BA4
:101990005B6803F24112014B5A6080BD4029002070
:1019A0004C290020000402408864024000000140ED
:1019B00080B500AF0D480E49FFF762FD0346002BCE
:1019C00012D00A480A49FFF7B3FD0A4B094A1288A8
:1019D00092B222F0010292B21A80044B00221A60E5
:1019E000054B4FF47F425A8380BD00BF886402409C
:1019F00000880020000001400010024080B485B043
:101A000000AF78600023FB730023BB730F237B734D
:101A10007B68DB78002B37D0254BDB68DB4303F496
:101A2000E0631B0AFB73FB7BC3F10403BB737A7B8C
:101A3000FB7B42FA03F37B737B685B781A46BB7BC4
:101A400002FA03F3FB737B689A787B7B1340DAB26C
:101A5000FB7B1343FB73FB7B1B01FB73154A7B680A
:101A60001B781344FA7B83F80023124B7A681278B0
:101A70005209D2B27968097801F01F01012000FAF9
:101A800001F143F822100EE00A4B7A6812785209ED
:101A9000D2B27968097801F01F01012000FA01F142
:101AA000203243F822101437BD465DF8047B70479E
:101AB00000ED00E000E100E080B485B000AF7860A8
:101AC00039600023FB817B681B88FB817A68284B87
:101AD0009A4213D07A68274B9A420FD07B68B3F1B1
:101AE000804F0BD07A68244B9A4207D07A68234BF8
:101AF0009A4203D07A68224B9A4208D1FB8923F09C
:101B00007003FB813B685A88FB891343FB817A6829
:101B10001C4B9A420CD07A681B4B9A4208D0FB8926
:101B200023F44073FB813B681A89FB891343FB81D3
:101B30007B68FA891A803B685A687B68DA623B687E
:101B40001A887B681A857A68094B9A4203D07A68AA
:101B5000084B9A4204D13B689B7A1A467B681A86E6
:101B60007B6801229A821437BD465DF8047B70477A
:101B70000000014000040140000400400008004053
:101B8000000C0040001000400014004080B483B0FE
:101B900000AF78600B46FB70FB78002B08D07B68A9
:101BA0001B889BB243F080039AB27B681A8007E0DF
:101BB0007B681B889BB223F080039AB27B681A80F3
:101BC0000C37BD465DF8047B704700BF80B483B01E
:101BD00000AF78600B46FB70FB78002B08D07B6869
:101BE0001B889BB243F001039AB27B681A8007E01E
:101BF0007B681B889BB223F001039AB27B681A8032
:101C00000C37BD465DF8047B704700BF80B485B0DB
:101C100000AF7860396000237B810023FB810023C3
:101C2000BB817B681B8C9BB223F480739AB27B6868
:101C30001A847B681B8CFB817B689B88BB817B68DB
:101C40009B8B7B817B8923F070037B817B8923F0D5
:101C500003037B813B681A887B8913437B81FB8963
:101C600023F40073FB813B689B891B029AB2FB89BA
:101C70001343FB813B685B881B029AB2FB891343C9
:101C8000FB817A68224B9A4203D07A68214B9A42B0
:101C90002BD1FB8923F40063FB813B68DB891B02AA
:101CA0009AB2FB891343FB81FB8923F48063FB8198
:101CB0003B689B881B029AB2FB891343FB81BB895B
:101CC00023F48053BB81BB8923F40053BB813B6861
:101CD0001B8A1B019AB2BB891343BB813B685B8A99
:101CE0001B019AB2BB891343BB817B68BA899A8076
:101CF0007B687A899A833B689A687B68DA637B6839
:101D0000FA891A841437BD465DF8047B704700BF1A
:101D1000000001400004014080B485B000AF78604D
:101D200039600023BB8100237B810023FB817B681A
:101D30001B8C9BB223F480539AB27B681A847B6815
:101D40001B8C7B817B689B88FB817B689B8BBB8129
:101D5000BB8923F4E043BB81BB8923F44073BB817F
:101D60003B681B881B029AB2BB891343BB817B89EA
:101D700023F400537B813B689B891B039AB27B89C8
:101D800013437B813B685B881B039AB27B891343B7
:101D90007B817A68114B9A4203D07A68104B9A4241
:101DA0000AD1FB8923F48043FB813B681B8A9B019A
:101DB0009AB2FB891343FB817B68FA899A807B681E
:101DC000BA899A833B689A687B681A647B687A89C7
:101DD0001A841437BD465DF8047B7047000001404B
:101DE0000004014080B485B000AF78600B467B8072
:101DF0000023FB817B689B8BFB81FB8923F008031D
:101E0000FB81FA897B881343FB817B68FA899A837B
:101E10001437BD465DF8047B704700BF80B485B0C1
:101E200000AF78600B467B800023FB817B689B8B37
:101E3000FB81FB8923F40063FB817B881B029AB240
:101E4000FB891343FB817B68FA899A831437BD466B
:101E50005DF8047B704700BF80B483B000AF78604A
:101E600013460A467A807B707B78002B08D07B680B
:101E70009B899AB27B8813439AB27B689A8109E066
:101E80007B689B899AB27B88DB439BB213409AB2F2
:101E90007B689A810C37BD465DF8047B704700BFB4
:101EA00080B483B000AF78600B467B807B88DB43D7
:101EB0009AB27B681A820C37BD465DF8047B704786
:101EC00080B483B000AF786013460A467A807B7096
:101ED0007B78002B08D07B689B899AB27B88134360
:101EE0009AB27B689A8109E07B689B899AB27B8869
:101EF000DB439BB213409AB27B689A810C37BD4694
:101F00005DF8047B704700BF80B487B000AFF86015
:101F1000B9607A603B6000237B61FB68B3F5A07F0A
:101F200009DAFB68002B06DD7B68B3F5A07F02DAD7
:101F30007B68002B03DC7B6943F001037B61BB689A
:101F4000B3F5A07F09DABB68002B06DD3B68B3F56B
:101F5000A07F02DA3B68002B03DC7B6943F00203BD
:101F60007B617B6918461C37BD4680BC704700BF4B
:101F700080B588B002AFF860B9607A603B6000233A
:101F80007B613B687A68B968F868FFF7BDFF7861E4
:101F90007B69002B01D07B690CE07B6A019397F889
:101FA000203000933B687A68B968F86800F042F91D
:101FB00078617B6918461837BD4680BD80B586B00C
:101FC00000AFF860B9607A603B6000237B61FB681A
:101FD000052B39D801A252F823F000BFF51F0008E5
:101FE00003200008112000081F2000082D200008F1
:101FF0003B2000083B68184A7968B86800F06AF826
:1020000024E03B68154A7968B86800F063F81DE081
:102010003B68134A7968B86800F05CF816E03B68E2
:10202000104A7968B86800F055F80FE03B680E4A2E
:102030007968B86800F04EF808E03B680B4A7968A8
:10204000B86800F047F801E008237B617B69184617
:102050001837BD4680BD00BF100000207804002066
:10206000E0080020200D0020601100202C1B002023
:1020700080B500AFFEF7E0FFFFF788FA00F084FAC2
:1020800000F0AAFB00F05AFC00BF80BD80B582B012
:1020900000AF78600021786800F0A8FD00BF083725
:1020A000BD4680BD80B582B000AF78607B681846C1
:1020B00000F01EFD00BF0837BD4680BD80B582B070
:1020C00000AF7860786800F09DFC00BF0837BD461F
:1020D00080BD00BF80B588B000AFF860B9607A609D
:1020E0003B607B681B781A467B6801331B781B02B8
:1020F0001A437B6802331B781B041A437B68033343
:102100001B781946202301FA03F313437B617B6894
:1021100004331B781A467B6805331B781B021A436D
:102120007B6806331B781B041A437B6807331B78D4
:102130001946202301FA03F313433B610023BB61DB
:1021400061E00023FB6157E0BB697A6902FB03F29F
:10215000FB69134408337A6813441B78FF2B24D09F
:102160003B68002B21D1FB689AB2FB699BB21344F8
:102170009AB27B699BB2134498B2BB689AB2BB69AE
:102180009BB213449AB23B699BB2134499B2BB69A8
:102190007A6902FB03F2FB69134408337A6813443B
:1021A0001B781A46FFF756FA23E03B68012B20D133
:1021B000FB689AB2FB699BB213449AB27B699BB2EB
:1021C000134498B2BB689AB2BB699BB213449AB2EB
:1021D0003B699BB2134499B2BB697A6902FB03F273
:1021E000FB69134408337A6813441B781A46FFF7D7
:1021F00031FAFB690133FB61FA697B699A42A3D327
:10220000BB690133BB61BA693B699A4299D300BF8C
:102210002037BD4680BD00BF80B582B000AF78607A
:102220007B68DBB21846FFF7F1F900BF0837BD46FF
:1022300080BD00BF90B58BB000AFF860B9607A6028
:102240003B607A68FB68D31A184601F09FF9034691
:10225000BB613A68BB68D31A184601F097F9034688
:102260007B61B969786901F099FA03463B61FB6BC0
:10227000DA0F13445B10FB610BE13B6923F0004371
:102280004FF07E51184601F07DFB0346002B77D0BE
:10229000FA687B689A4238DAFB687B6230E07A6AD7
:1022A000FB68D31A184601F071F9034639691846DC
:1022B00001F0C0F903461C46B86801F067F903460F
:1022C0001946204601F0AEF803461C46F86901F0B5
:1022D0005DF903461946204601F0A4F80346184666
:1022E00001F06EFB03463B627B6A9BB23A6A91B295
:1022F00097F838201846FFF7ADF97B6A01337B6207
:102300007A6A7B689A42CADBBDE07B687B6232E016
:102310007A6AFB68D31A184601F038F9034639691E
:10232000184601F087F903461C46B86801F02EF9FB
:1023300003461946204601F075F803461C46F86925
:1023400001F024F903461946204601F06BF80346D4
:10235000184601F035FB03463B627B6A98B23B6A44
:102360009BB2013B9BB297F838201946FFF772F9F0
:102370007B6A01337B627A6AFB689A42C8DB82E03F
:10238000BA683B689A423FDABB683B6237E039691A
:102390004FF07E5001F002FA03461C463A6ABB68D1
:1023A000D31A184601F0F2F803461946204601F008
:1023B00041F903461C46F86801F0E8F8034619465F
:1023C000204601F02FF803461C46F86901F0DEF8BC
:1023D00003461946204601F025F80346184601F049
:1023E000EFFA03467B627B6A9BB23A6A91B297F836
:1023F00038201846FFF72EF93B6A01333B623A6AF0
:102400003B689A42C3DB3EE03B683B6237E0396998
:102410004FF07E5001F0C2F903461C463A6ABB6891
:10242000D31A184601F0B2F803461946204601F0C7
:1024300001F903461C46F86801F0A8F8034619465E
:10244000204600F0EFFF03461C46F86901F09EF8B5
:1024500003461946204600F0E5FF0346184601F002
:10246000AFFA03467B627B6A9BB23A6A91B297F8F5
:1024700038201846FFF7EEF83B6A01333B623A6AB0
:10248000BB689A42C3DBFB69013BFB61FB6B013B11
:10249000FB63FB6B002B3FF7F0AE002318462C3795
:1024A000BD4690BD80B586B002AFF860B9607A6075
:1024B0003B607A68FB6813447B603A68BB681344EE
:1024C0003B60FB69002B02D0012B3BD03FE0BB6996
:1024D000DBB2012201920093BB687A68B968F868A0
:1024E000FFF7A8FEBB69DBB20122019200933B68B3
:1024F000FA68B968F868FFF79DFEBB69DBB2012294
:1025000001920093BB687A6839687868FFF792FE99
:10251000BB69DBB20122019200933B68FA6839681B
:102520007868FFF787FE14E0BB69DBB201220192F5
:102530000093BB687A68B968F868FFF77BFEBB68F0
:102540000133BB60BA683B689A42EDDB01E00123CE
:1025500000E0002318461037BD4680BD80B500AFAF
:1025600008210848FEF714FD10210648FEF710FD6B
:1025700020210448FEF70CFD40210248FEF708FD2B
:1025800000BF80BD0010024080B582B000AF0121C5
:102590001020FEF7EDFB01210420FEF7E9FB0121ED
:1025A0000820FEF7E5FB01233B710023BB710023EC
:1025B000FB7102237B7178233B603B461946284818
:1025C000FEF730FC4FF420533B603B46194625484C
:1025D000FEF728FC01233B603B4619462248FEF7E4
:1025E00021FC4FF400511F48FEF7D2FC01211E4888
:1025F000FEF7CEFC4FF400611A48FEF7C9FC0F202D
:1026000000F07EF9302000F063F8322000F078F915
:10261000302000F05DF8302000F05AF8022000F081
:1026200057F8052000F06CF92C2000F051F80F202D
:1026300000F066F90E2000F04BF80F2000F060F972
:10264000012000F045F80F2000F05AF9062000F0B4
:102650003FF80F2000F054F900BF0837BD4680BD99
:102660000010024000080240000C024080B582B019
:1026700000AF0346FB71FFF771FFFB7903F0010325
:10268000002B03D040211148FEF774FCFB7903F0C6
:102690000203002B03D020210C48FEF76BFCFB79D2
:1026A00003F00403002B03D010210848FEF762FC5E
:1026B000FB7903F00803002B03D008210348FEF741
:1026C00059FC00BF0837BD4680BD00BF0010024066
:1026D00080B582B000AF0346FB7101211148FEF7BF
:1026E00049FCFB791B09DBB21846FFF7BFFF01214C
:1026F0000C48FEF74DFC00F017F801210948FEF7E1
:1027000039FCFB7903F00F03DBB21846FFF7AEFF8D
:1027100001210448FEF73CFC00F006F800BF083732
:10272000BD4680BD000C024080B584B000AF0023E0
:10273000FB730123BB732FE078237B6000233B7284
:102740000023BB720023FB7202237B723B1D1946E0
:102750001E48FEF767FB4FF400511D48FEF718FCBA
:102760004FF400611A48FEF705FC012000F0C8F89C
:1027700001211848FEF7FEFB012000F0C1F84021BE
:102780001248FEF7DDFB0346FB7301211148FEF7FB
:10279000FFFB012000F0B4F8FA7BBB7B9A42CBD060
:1027A00078237B6001233B720023BB720023FB7202
:1027B00002237B723B1D19460448FEF733FB0120C0
:1027C00000F09EF800BF1037BD4680BD00100240EB
:1027D00000080240000C024090B585B000AF3B46B7
:1027E0001846FEF71BFA3B683F4A13603E4B1B68D6
:1027F000184600F069FB4FF000023C4B00F0DAFB9A
:1028000003460C46184621464FF00002384B00F0B4
:10281000FBFC03460C46184621464FF000024FF0E1
:10282000804300F0F1FC03460C461846214600F0B8
:10283000D3FD02462F4B1A602B4B1B68184600F045
:1028400043FB4FF00002294B00F0B4FB03460C465B
:102850001846214620A3D3E9002300F0D5FC034607
:102860000C46184621464FF000024FF0804300F01E
:10287000CBFC03460C461846214600F0ADFD02464F
:102880001D4B1A60184B1B68184600F01DFB4FF0DB
:102890000002164B00F08EFB03460C4618462146FC
:1028A0000FA3D3E9002300F0AFFC03460C46184603
:1028B00021464FF000024FF0804300F0A5FC034694
:1028C0000C461846214600F087FD02460B4B1A6065
:1028D00000BF1437BD4690BD000000000094C14009
:1028E00000000000882A61413C5601200000F43FAE
:1028F0000000224040560120485601204456012045
:1029000080B485B000AF78600DE00023FB6002E08A
:10291000FB680133FB60FA68074B1B689A42F7D3E8
:102920007B68013B7B607B68002BEED100BF1437D6
:10293000BD4680BC704700BF4856012080B586B0B8
:1029400000AF01214FF40030FEF730FA01210120E1
:10295000FEF70EFA0C233B6102233B750023BB7587
:102960000123FB7502237B7507F1100319461648F6
:10297000FEF758FA072202211348FEF717FB072239
:1029800003211148FEF712FB4FF4E1333B600023B3
:10299000BB800023FB8000233B810023BB810C23F1
:1029A0007B813B4619460948FDF7B2FD012240F202
:1029B00025510648FDF798FE01210448FDF762FE07
:1029C00000BF1837BD4680BD0000024000440040F3
:1029D00080B582B000AF0346FB7100BF802108487C
:1029E000FDF7CAFE0346002BF8D0FB799BB21946CF
:1029F0000348FDF767FE00BF0837BD4680BD00BF36
:102A00000044004080B584B000AF78600023FB60D4
:102A100009E0FB687A6813441B781846FFF7D8FF73
:102A2000FB680133FB60FB687A6813441B78002B5A
:102A3000EFD100BF1037BD4680BD00BF80B582B06A
:102A400000AF40F225512748FDF7B2FE0346002BA8
:102A500044D040F225512348FDF702FF214B9B88CB
:102A60009BB2FB70FB78402B05D9FB785A2B02D820
:102A7000FB782033FB70FB780D2B1DD800237B6087
:102A80000BE0194A7B6813441B789BB21946154822
:102A9000FDF718FE7B6801337B60144B1B687A6876
:102AA0009A42EEDB114B00221A60FB789BB219466A
:102AB0000C48FDF707FE09E00C4B1B680A49FA7841
:102AC000CA540A4B1B680133084A136000BF4021F7
:102AD0000448FDF751FE0346002BF8D000BF08372D
:102AE000BD4680BD004400404C5601203C290020DA
:102AF00080B582B000AF78600A21786800F004F8F1
:102B000000BF0837BD4680BD80B588B000AF786093
:102B10000B46FB700F23FB617B68002B29D107F16B
:102B20000802FB69134430221A70FB69013BFB6108
:102B300039E0FA787B68B3FBF2F102FB01F29B1AF1
:102B4000BB61FB787A68B2FBF3F37B60194ABB691F
:102B500013441B7859B207F10802FB6913440A4673
:102B60001A70FB69013BFB61FB69002B01D100235B
:102B70007B607B68002BDCD115E0FB690133FB61D6
:102B800000BF80210C48FDF7F7FD0346002BF8D06D
:102B900007F10802FB69134493F900309BB2194610
:102BA0000548FDF78FFDFB690E2BE6DD00BF2037E2
:102BB000BD4680BDF82400200044004080B582B0AE
:102BC00000AFFF23FB7120210748FDF7D5FD034629
:102BD000012B03D1044B9B889BB2FB71FB791846F8
:102BE0000837BD4680BD00BF0044004080B582B0BC
:102BF00000AF78603960FFF7E1FF03461A467B6853
:102C00001A707B681B78FF2B17D07B681B780A2B08
:102C100013D03B68002B04D07B681B781846FFF765
:102C2000D7FE7B681B780D2B03D17B6800221A70BE
:102C300005E07B6801337B60DDE700BFDBE7083739
:102C4000BD4680BD81F0004102E000BF83F000433B
:102C500030B54FEA41044FEA430594EA050F08BF37
:102C600090EA020F1FBF54EA000C55EA020C7FEAFB
:102C7000645C7FEA655C00F0E2804FEA5454D4EB78
:102C80005555B8BF6D420CDD2C4480EA020281EA42
:102C9000030382EA000083EA010180EA020281EA7A
:102CA0000303362D88BF30BD11F0004F4FEA0131CC
:102CB0004FF4801C4CEA113102D0404261EB4101DB
:102CC00013F0004F4FEA03334CEA133302D0524261
:102CD00063EB430394EA050F00F0A780A4F101041D
:102CE000D5F1200E0DDB02FA0EFC22FA05F2801857
:102CF00041F1000103FA0EF2801843FA05F359413D
:102D00000EE0A5F120050EF1200E012A03FA0EFCBB
:102D100028BF4CF0020C43FA05F3C01851EBE371E5
:102D200001F0004507D54FF0000EDCF1000C7EEB02
:102D300000006EEB0101B1F5801F1BD3B1F5001F40
:102D40000CD349085FEA30004FEA3C0C04F101045F
:102D50004FEA445212F5800F80F09A80BCF1004F88
:102D600008BF5FEA500C50F1000041EB045141EA0A
:102D7000050130BD5FEA4C0C404141EB010111F40B
:102D8000801FA4F10104E9D191F0000F04BF0146B6
:102D90000020B1FA81F308BF2033A3F10B03B3F194
:102DA00020020CDA0C3208DD02F1140CC2F10C0224
:102DB00001FA0CF021FA02F10CE002F11402D8BF82
:102DC000C2F1200C01FA02F120FA0CFCDCBF41EA4E
:102DD0000C019040E41AA2BF01EB0451294330BD1D
:102DE0006FEA04041F3C1CDA0C340EDC04F11404FA
:102DF000C4F1200220FA04F001FA02F340EA0300D1
:102E000021FA04F345EA030130BDC4F10C04C4F116
:102E1000200220FA02F001FA04F340EA03002946F6
:102E200030BD21FA04F0294630BD94F0000F83F440
:102E3000801306BF81F480110134013D4EE77FEA23
:102E4000645C18BF7FEA655C29D094EA050F08BF6F
:102E500090EA020F05D054EA000C04BF1946104650
:102E600030BD91EA030F1EBF0021002030BD5FEA94
:102E7000545C05D14000494128BF41F0004130BDBC
:102E800014F580043CBF01F5801130BD01F0004510
:102E900045F0FE4141F470014FF0000030BD7FEA83
:102EA000645C1ABF194610467FEA655C1CBF0B467E
:102EB000024650EA013406BF52EA033591EA030F95
:102EC00041F4002130BD00BF90F0000F04BF00218D
:102ED000704730B54FF4806404F132044FF00005C0
:102EE0004FF0000150E700BF90F0000F04BF002139
:102EF000704730B54FF4806404F1320410F000459F
:102F000048BF40424FF000013EE700BF42004FEA99
:102F1000E2014FEA31014FEA02701FBF12F07F4316
:102F200093F07F4F81F06051704792F0000F14BF13
:102F300093F07F4F704730B54FF4607401F0004557
:102F400021F0004120E700BF50EA010208BF7047AE
:102F500030B54FF000050AE050EA010208BF7047A3
:102F600030B511F0004502D5404261EB41014FF40C
:102F7000806404F132045FEA915C3FF4DCAE4FF010
:102F800003025FEADC0C18BF03325FEADC0C18BFF7
:102F9000033202EBDC02C2F1200300FA03FC20FA48
:102FA00002F001FA03FE40EA0E0021FA02F1144495
:102FB000C1E600BF70B54FF0FF0C4CF4E06C1CEAAA
:102FC00011541DBF1CEA135594EA0C0F95EA0C0F1F
:102FD00000F0DEF82C4481EA030621EA4C5123EA92
:102FE0004C5350EA013518BF52EA033541F48011C1
:102FF00043F4801338D0A0FB02CE4FF00005E1FB74
:1030000002E506F00042E0FB03E54FF00006E1FBBD
:1030100003569CF0000F18BF4EF0010EA4F1FF0400
:10302000B6F5007F64F5407404D25FEA4E0E6D4140
:1030300046EB060642EAC62141EA55514FEAC52051
:1030400040EA5E504FEACE2EB4F1FD0C88BFBCF5CD
:10305000E06F1ED8BEF1004F08BF5FEA500E50F17E
:10306000000041EB045170BD06F0004646EA010144
:1030700040EA020081EA0301B4EB5C04C2BFD4EB76
:103080000C0541EA045170BD41F480114FF0000E6F
:10309000013C00F3AB8014F1360FDEBF002001F0DD
:1030A000004170BDC4F10004203C35DA0C341BDC57
:1030B00004F11404C4F1200500FA05F320FA04F029
:1030C00001FA05F240EA020001F0004221F000415D
:1030D00010EBD37021FA04F642EB06015EEA430ED0
:1030E00008BF20EAD37070BDC4F10C04C4F1200500
:1030F00000FA04F320FA05F001FA04F240EA0200B3
:1031000001F0004110EBD37041F100015EEA430E83
:1031100008BF20EAD37070BDC4F1200500FA05F2A3
:103120004EEA020E20FA04F301FA05F243EA020322
:1031300021FA04F001F0004121FA04F220EA020031
:1031400000EBD3705EEA430E08BF20EAD37070BD77
:1031500094F0000F0FD101F00046400041EB010157
:1031600011F4801F08BF013CF7D041EA060195F039
:10317000000F18BF704703F00046520043EB0303F3
:1031800013F4801F08BF013DF7D043EA06037047E0
:1031900094EA0C0F0CEA135518BF95EA0C0F0CD0EB
:1031A00050EA410618BF52EA4306D1D181EA030131
:1031B00001F000414FF0000070BD50EA410606BF2B
:1031C0001046194652EA430619D094EA0C0F02D170
:1031D00050EA013613D195EA0C0F05D152EA0336B5
:1031E0001CBF104619460AD181EA030101F00041D3
:1031F00041F0FE4141F470014FF0000070BD41F01C
:10320000FE4141F4780170BD70B54FF0FF0C4CF4F5
:10321000E06C1CEA11541DBF1CEA135594EA0C0F14
:1032200095EA0C0F00F0A7F8A4EB050481EA030E61
:1032300052EA03354FEA013100F088804FEA033348
:103240004FF0805545EA131343EA12634FEA022216
:1032500045EA111545EA10654FEA00260EF00041D7
:103260009D4208BF964244F1FD0404F5407402D229
:103270005B084FEA3202B61A65EB03055B084FEABA
:1032800032024FF480104FF4002CB6EB020E75EBB7
:10329000030E22BFB61A754640EA0C005B084FEADF
:1032A0003202B6EB020E75EB030E22BFB61A75465C
:1032B00040EA5C005B084FEA3202B6EB020E75EBA7
:1032C000030E22BFB61A754640EA9C005B084FEA1F
:1032D0003202B6EB020E75EB030E22BFB61A75462C
:1032E00040EADC0055EA060E18D04FEA051545EA1B
:1032F00016754FEA06164FEAC30343EA52734FEAC4
:10330000C2025FEA1C1CC0D111F4801F0BD141EA3C
:1033100000014FF000004FF0004CB6E711F4801FA1
:1033200004BF01430020B4F1FD0C88BFBCF5E06F81
:103330003FF6AFAEB5EB030C04BFB6EB020C5FEA91
:10334000500C50F1000041EB045170BD0EF0004EE6
:103350004EEA113114EB5C04C2BFD4EB0C0541EA18
:10336000045170BD41F480114FF0000E013C90E615
:1033700045EA060E8DE60CEA135594EA0C0F08BFD9
:1033800095EA0C0F3FF43BAF94EA0C0F0AD150EAD8
:1033900001347FF434AF95EA0C0F7FF425AF10466B
:1033A00019462CE795EA0C0F06D152EA03353FF493
:1033B000FDAE1046194622E750EA410618BF52EA10
:1033C00043067FF4C5AE50EA41047FF40DAF52EAE4
:1033D00043057FF4EBAE12E74A0011D212F500125A
:1033E00011D20DD56FF47873B3EB62520ED44FEA5D
:1033F000C12343F0004343EA505323FA02F07047DD
:103400004FF00000704750EA013002D14FF0FF301A
:1034100070474FF00000704780F0004002E000BFAE
:1034200081F0004142001FBF5FEA410392EA030FAF
:103430007FEA226C7FEA236C6AD04FEA1262D2EBF9
:103440001363C1BFD218414048404140B8BF5B42FE
:10345000192B88BF704710F0004F40F4000020F097
:103460007F4018BF404211F0004F41F4000121F0AD
:103470007F4118BF494292EA030F3FD0A2F10102F7
:1034800041FA03FC10EB0C00C3F1200301FA03F135
:1034900000F0004302D5494260EB4000B0F5000F58
:1034A00013D3B0F1807F06D340084FEA310102F117
:1034B0000102FE2A51D2B1F1004F40EBC25008BFC9
:1034C00020F0010040EA03007047490040EB000093
:1034D00010F4000FA2F10102EDD1B0FA80FCACF1C2
:1034E000080CB2EB0C0200FA0CF0AABF00EBC250C1
:1034F00052421843BCBFD0401843704792F0000FAF
:1035000081F4000106BF80F400000132013BB5E701
:103510004FEA41037FEA226C18BF7FEA236C21D077
:1035200092EA030F04D092F0000F08BF08467047DC
:1035300090EA010F1CBF0020704712F07F4F04D1AA
:10354000400028BF40F00040704712F100723CBFBD
:1035500000F50000704700F0004343F0FE4040F4E7
:10356000000070477FEA226216BF08467FEA2363A5
:103570000146420206BF5FEA412390EA010F40F490
:10358000800070474FF0000304E000BF10F00043DC
:1035900048BF40425FEA000C08BF704743F09643C3
:1035A00001464FF000001CE050EA010208BF7047DE
:1035B0004FF000030AE000BF50EA010208BF704765
:1035C00011F0004302D5404261EB41015FEA010C7A
:1035D00002BF84460146002043F0B64308BFA3F172
:1035E0008053A3F50003BCFA8CF2083AA3EBC25354
:1035F00010DB01FA02FC634400FA02FCC2F1200273
:10360000BCF1004F20FA02F243EB020008BF20F0A9
:103610000100704702F1200201FA02FCC2F120020F
:1036200050EA4C0021FA02F243EB020008BF20EA04
:10363000DC7070474FF0FF0C1CEAD0521EBF1CEA32
:10364000D15392EA0C0F93EA0C0F6FD01A4480EA20
:10365000010C400218BF5FEA41211ED04FF0006309
:1036600043EA501043EA5111A0FB01310CF0004035
:10367000B1F5000F3EBF490041EAD3715B0040EA5B
:10368000010062F17F02FD2A1DD8B3F1004F40EB2B
:10369000C25008BF20F00100704790F0000F0CF0FE
:1036A000004C08BF49024CEA502040EA51207F3AC2
:1036B000C2BFD2F1FF0340EAC250704740F400009D
:1036C0004FF00003013A5DDC12F1190FDCBF00F08E
:1036D00000407047C2F10002410021FA02F1C2F13C
:1036E000200200FA02FC5FEA310040F1000053EAD8
:1036F0004C0308BF20EADC70704792F0000F00F026
:10370000004C02BF400010F4000F013AF9D040EA2B
:103710000C0093F0000F01F0004C02BF490011F4BF
:10372000000F013BF9D041EA0C018FE70CEAD153BD
:1037300092EA0C0F18BF93EA0C0F0AD030F0004C3D
:1037400018BF31F0004CD8D180EA010000F00040F1
:10375000704790F0000F17BF90F0004F084691F0AF
:10376000000F91F0004F14D092EA0C0F01D14202E9
:103770000FD193EA0C0F03D14B0218BF084608D1B2
:1037800080EA010000F0004040F0FE4040F40000FC
:10379000704740F0FE4040F4400070474FF0FF0C8F
:1037A0001CEAD0521EBF1CEAD15392EA0C0F93EAD6
:1037B0000C0F69D0A2EB030280EA010C49024FEA28
:1037C000402037D04FF0805343EA111143EA1013E1
:1037D0000CF000408B4238BF5B0042F17D024FF499
:1037E000000C8B4224BF5B1A40EA0C00B3EB510F74
:1037F00024BFA3EB510340EA5C00B3EB910F24BF5D
:10380000A3EB910340EA9C00B3EBD10F24BFA3EBE1
:10381000D10340EADC001B0118BF5FEA1C1CE0D1A9
:10382000FD2A3FF650AF8B4240EBC25008BF20F05C
:10383000010070470CF0004C4CEA50207F32C2BFB0
:10384000D2F1FF0340EAC250704740F400004FF04D
:103850000003013A37E792F0000F00F0004C02BF7E
:10386000400010F4000F013AF9D040EA0C0093F048
:10387000000F01F0004C02BF490011F4000F013BA2
:10388000F9D041EA0C0195E70CEAD15392EA0C0F0A
:1038900008D142027FF47DAF93EA0C0F7FF470AF42
:1038A000084676E793EA0C0F04D14B023FF44CAF85
:1038B00008466EE730F0004C18BF31F0004CCAD11A
:1038C00030F000427FF45CAF31F000437FF43CAF56
:1038D0005FE700BF4FF0FF3C06E000BF4FF0010C78
:1038E00002E000BF4FF0010C4DF804CD4FEA40025A
:1038F0004FEA41037FEA226C18BF7FEA236C11D0A4
:1039000001B052EA530C18BF90EA010F58BFB2EB56
:10391000030088BFC81738BF6FEAE17018BF40F0D6
:10392000010070477FEA226C02D15FEA402C05D18A
:103930007FEA236CE4D15FEA412CE1D05DF8040B0F
:10394000704700BF844608466146FFE70FB5FFF7A2
:10395000C9FF002848BF10F1000F0FBD4DF808ED5A
:10396000FFF7F4FF0CBF012000205DF808FB00BF4B
:103970004DF808EDFFF7EAFF34BF012000205DF8A5
:1039800008FB00BF4DF808EDFFF7E0FF94BF0120F2
:1039900000205DF808FB00BF4DF808EDFFF7D2FFEF
:1039A00094BF012000205DF808FB00BF4DF808ED32
:1039B000FFF7C8FF34BF012000205DF808FB00BFFF
:1039C0004FEA4002B2F1FE4F0FD34FF09E03B3EB2C
:1039D00012620DD94FEA002343F0004310F0004F6C
:1039E00023FA02F018BF404270474FF000007047C2
:1039F00012F1610F01D1420205D110F0004008BF61
:103A00006FF0004070474FF00000704700210A221D
:103A100000F05EB9F0B4840743D0541E002A3ED0B3
:103A2000CDB2034603E0621E002C38D0144603F8E2
:103A3000015B9A07F7D1032C2AD9CDB245EA0525B7
:103A40000F2C45EA054515D9A4F110073F0903F1EC
:103A5000100606EB07161A46156055609560D5608E
:103A60001032B242F8D104F00F040137032C03EBFB
:103A700007130DD91E462246043A032A46F8045B72
:103A8000FAD8221F22F003020432134404F0030484
:103A90002CB1C9B21C4403F8011BA342FBD1F0BCFA
:103AA000704714460346C6E720F0030110F00300F8
:103AB000C0F1000051F8043B00F1040C4FEACC0CBB
:103AC0006FF000021CBF22FA0CF213434FF0010CFE
:103AD0004CEA0C2C4CEA0C4CA3EB0C0222EA03023D
:103AE00012EACC1204BF51F8043B0430F4D013F0B6
:103AF000FF0F1FBF013013F47F4F013013F47F0F0E
:103B000018BF0130704700BF30B4002A4AD040EAE5
:103B1000010313F003032DD1032A2BD904680D6888
:103B2000AC4227D1043A3DD0A4F1013525EA040482
:103B300014F0803F3CD10C4603460EE05B6864689D
:103B4000A3F10135A34225EA030513D1043A29D094
:103B500015F0803F29D103460C46032A00F10400EA
:103B600001F10401EAD8551E2AB918792279801A80
:103B700030BC7047551E03780A7893421AD1DDB1E4
:103B8000B3B16C1C0C448B1C014604E0A3420CD066
:103B900001330028ECD011F8010F13F8012C9042EA
:103BA000F4D0E4E7104630BC7047002030BC7047CA
:103BB0001846DDE71846DAE72846D9E72DE9F00F81
:103BC000424C82B0D4F800C001900E4600E0264678
:103BD000344614F8015B0CEB0500407800F0080057
:103BE00000F0FF0A0028F2D12D2D5BD02B2D04BF51
:103BF0007578B41C33F010003CD09946BAF1000F30
:103C00000CBF6FF0004B4FF0004BBBFBF9F80027E7
:103C100009FB18BB38460CE0303DAB4219DD7E1C79
:103C200005D0404523D820D009FB0050012714F8C7
:103C3000015B0CEB0506767816F0040FECD116F05C
:103C4000030606D0012E14BF57263726AD1BAB4204
:103C5000E5DC7B1C15D0BAF1000F21D10AB1EFB918
:103C6000116002B0BDE8F00F70475D45DCDD4FF03C
:103C7000FF37DCE7302D1AD0002BBED10A2399463E
:103C8000BCE70199BAF1000F4FF022030CBF6FF0AF
:103C900000404FF000400B60002AE2D0611EDFE7D9
:103CA0004042DBE7B41C75784FF0010AA2E72078A8
:103CB00000F0DF00582803D0002B9ED108239CE79A
:103CC000102365789946023498E700BF0825002044
:103CD00030B4044C0D46134601462A46206830BCD9
:103CE000FFF76CBF3829002057454C4B4F4D204DF6
:103CF000494A4E20434F4445203A440A0D000000F3
:103D00004C494A4E000000000A0D4572726F723A2B
:103D1000200A0D000A0A0D005245434854484F45F9
:103D20004B0000004249544D41500000000000008B
:103D30000000000000000000000000000000000083
:103D40000000C0C0C0C0C0C0C0C0C0C0C00000C073
:103D5000C0000000000000CCCCCCCCCC00000000A7
:103D6000000000000000000000000000000C600CDB
:103D7000600CE018C0FFF0FFF018C031803180FF08
:103D8000F0FFF0318073006300630000000000006A
:103D9000000000000008003E007F00EB80C980C8E2
:103DA00000E8007C001F000B8009800980C980EBBF
:103DB000807F003E000800080000000000000000B6
:103DC0000000380C006C1800C61800C63000C63061
:103DD00000C660006CC00038CE00019B0001B180BD
:103DE0000331800331800631800C1B000C0E000073
:103DF00000000000000000000000000000000000C3
:103E00000F001F8030C030C031801B001E003E00FC
:103E10006730C3B0C1E0C0C0E1E07FB03E10000039
:103E2000000000000000000000C0C0C0C0C00000D2
:103E3000000000000000000000000000000008106A
:103E400030206060C0C0C0C0C0C0C0606020301002
:103E50000800008040602030301818181818181812
:103E600030302060408000001818FF183C660000C9
:103E70000000000000000000000000000000000042
:103E8000000000000C000C000C000C00FFC0FFC084
:103E90000C000C000C000C000000000000000000F2
:103EA0000000000000000000000000000000000012
:103EB00000000000C0C04040800000000000000082
:103EC00000000000FCFC00000000000000000000FA
:103ED0000000000000000000000000000000C0C062
:103EE0000000000000000C0C18181818303030606A
:103EF000606060C0C0000000000000003E007F80E5
:103F00006180C0C0C0C0C0C0C0C0C0C0C0C0C0C050
:103F1000C0C0C0C061807F801F00000000000000A2
:103F200000000000000C0C3C7CCC0C0C0C0C0C0CAD
:103F30000C0C0C0C000000000000003F007F80E132
:103F4000C0C0C000C000C00180018003000E001C82
:103F50000030006000FFC0FFC00000000000000053
:103F600000000000003E007F00E380C1800180036C
:103F7000000E000F8001C000C000C0C0C0E1807F03
:103F8000803E000000000000000000000000000172
:103F900000030007000F001B001B0033006300C379
:103FA00000FFC0FFC0030003000300030000000087
:103FB0000000000000000000003F803F80600060C3
:103FC0000060006F00FF80C1C000C000C000C0C022
:103FD000C0E1807F803E0000000000000000000083
:103FE0000000001F003F8061C060C0C000CF00FF24
:103FF00080E1C0C0C0C0C0C0C0C0C061803F801EE2
:1040000000000000000000000000000000FFC0FFF2
:10401000C0018003000300060006000C000C00181D
:1040200000180018003000300030000000000000D0
:10403000000000000000001E003F00618061806100
:104040008061803F003F006180C0C0C0C0C0C0E14F
:10405000C07F803F00000000000000000000000062
:10406000001E007F006180C0C0C0C0C0C0C0C06171
:10407000C07FC03CC000C0C180E1807F003E000026
:104080000000000000000000000000000000C0C0B0
:1040900000000000000000C0C000000000000000A0
:1040A000000000C0C000000000000000C0C0404090
:1040B000800000000000000000004001C007801EDA
:1040C000007000C00070001E00078001C0004000AA
:1040D00000000000000000000000000000000000E0
:1040E00000000000000000FFC0FFC0000000000052
:1040F00000FFC0FFC0000000000000000000000042
:10410000000000000000000000000000008000E04F
:104110000078001E00038000C003801E007800E0CD
:10412000008000000000000000000000000000000F
:104130000000003F007F80E1C0C0C000C0018003DC
:104140008007000E000C000C00000000000C000CAA
:10415000000000000000000000000000000001FC62
:10416000000FFF001E07803801C030E6C063F6E094
:10417000671C60C60C60CC0C60CC0C60CC08E0CC3A
:1041800018C0CE398067FF0073DE603800C01E03A0
:10419000800FFF0003FC0000000000000700070084
:1041A0000D800D800D8018C018C018C03FE03FE0A2
:1041B000603060306030C018C0180000000000009F
:1041C000000000000000FF00FF80C1C0C0C0C0C0F0
:1041D000C1C0FF80FF80C0C0C060C060C060C0E0E0
:1041E000FFC0FF8000000000000000000000000091
:1041F0000FC03FE038706038E018C000C000C00059
:10420000C000C000E018603078703FE00FC00000D0
:1042100000000000000000000000FF00FFC0C0E040
:10422000C060C030C030C030C030C030C030C030DE
:10423000C060C0E0FFC0FF00000000000000000000
:1042400000000000FFE0FFE0C000C000C000C000B0
:10425000FFC0FFC0C000C000C000C000C000FFE041
:10426000FFE0000000000000000000000000FFC0B0
:10427000FFC0C000C000C000C000FF80FF80C000C1
:10428000C000C000C000C000C000C00000000000AE
:1042900000000000000000000FE01FF03838601C34
:1042A0006008C000C000C1FCC1FCC00C600C600C08
:1042B000383C1FF807E0000000000000000000008C
:1042C0000000C030C030C030C030C030C030FFF05F
:1042D000FFF0C030C030C030C030C030C030C0305F
:1042E0000000000000000000000000C0C0C0C0C00E
:1042F000C0C0C0C0C0C0C0C0C0C00000000000003E
:1043000003030303030303030303C3C3E77E3C0068
:10431000000000000000C0E0C1C0C380C700CE00A4
:10432000DC00DC00FC00EE00C700C380C180C1C01F
:10433000C0E0C070000000000000000000000000AD
:10434000C000C000C000C000C000C000C000C0006D
:10435000C000C000C000C000C000FF80FF8000009F
:1043600000000000000000000000E00EF01EF01E43
:10437000D016D836D836C826CC66CC66C446C6C653
:10438000C6C6C286C386C3860000000000000000C7
:1043900000000000C030E030F030F030D830CC30D9
:1043A000CC30C630C330C330C1B0C0F0C0F0C07034
:1043B000C0300000000000000000000000000FC03E
:1043C0001FE038706018E01CC00CC00CC00CC00CA2
:1043D000C00CE01C601838701FE00FC00000000027
:1043E0000000000000000000FF80FFC0C0E0C060CF
:1043F000C060C060C0E0FFC0FF80C000C000C0005F
:10440000C000C000C000000000000000000000006C
:1044100000000FC01FF038786018E01CC00CC00C02
:10442000C00CC00CC00CE01861D838701FF80FDC4D
:10443000000400000000000000000000FF80FFC03A
:10444000C0E0C060C060C0E0FFC0FF80C300C380A8
:10445000C180C1C0C0E0C060C070000000000000AA
:104460000000000000000F803FE0707060306000CE
:1044700070003F000FC000E00030C030E0307070CE
:104480003FE01F800000000000000000000000006E
:10449000FFF0FFF00600060006000600060006001A
:1044A00006000600060006000600060006000000E2
:1044B00000000000000000000000C030C030C0302C
:1044C000C030C030C030C030C030C030C030C0306C
:1044D000E07070E03FC01F8000000000000000009E
:1044E00000000000C018E03860306030707030604C
:1044F000306038E018C018C01DC00D800D800F80DE
:10450000070000000000000000000000000000C0E4
:104510007018C0701860D83060D83060D83070C85B
:1045200070318C60318C60318C601B06C01B06C002
:104530001B06C01B06C00E03800E03800000000097
:10454000000000000000000000000000007038388B
:104550007018600CC00CC007800300078007800D36
:10456000C01CE0186030307038E01C000000000013
:1045700000000000000000E01C6018303038701CA3
:10458000E00CC00780078003000300030003000362
:104590000003000300000000000000000000000015
:1045A000007FF07FF0006000C00180018003000602
:1045B000000C001800180030006000FFF0FFF00051
:1045C00000000000000000000000F0F0C0C0C0C00B
:1045D000C0C0C0C0C0C0C0C0C0C0C0F0F00000C0FB
:1045E000C060606060303030181818180C0C000083
:1045F00000000000F0F030303030303030303030FB
:104600003030303030F0F00000183C3C3C666666DC
:10461000C3000000000000000000000000000000D7
:10462000000000000000000000000000000000008A
:10463000000000000000000000000000000000007A
:1046400000FFF0FFF0000000C0602000000000004C
:10465000000000000000000000000000000000005A
:104660000000000000003F00FF80C18001800F803B
:104670007F80F180C180C380FF807CC0000000008B
:104680000000000000000000C000C000C000C0002A
:10469000DE00FF00E300C180C180C180C180C18015
:1046A000E300FF00DE00000000000000000000004A
:1046B000000000000000000000001E007F0063807A
:1046C000C180C000C000C000C18063807F003E0088
:1046D00000000000000000000000000001800180D8
:1046E000018001803D807F806380C180C180C18066
:1046F000C180C18063807F803D8000000000000099
:1047000000000000000000000000000000001E008B
:104710007F806180C0C0FFC0FFC0C000C00061C01A
:104720007F801F0000000000000000000000001E4D
:104730003E3030FCFC303030303030303030000033
:10474000000000000000000000000000003D807F2D
:10475000806380C180C180C180C180C18063807F4F
:10476000803D800180C380FF003E0000000000C04B
:1047700000C000C000C000DE00FF00E380C180C1B7
:1047800080C180C180C180C180C180C18000000023
:104790000000000000000000C0C00000C0C0C0C099
:1047A000C0C0C0C0C0C0C000000000000030300069
:1047B0000030303030303030303030303030F0E0B9
:1047C000000000C000C000C000C000C380C700CE11
:1047D00000DC00F800FC00CC00C600C700C300C32A
:1047E000800000000000000000000000C0C0C0C049
:1047F000C0C0C0C0C0C0C0C0C0C0C0000000000079
:1048000000000000000000000000DE78FEFCE38CE9
:10481000C30CC30CC30CC30CC30CC30CC30CC30C20
:104820000000000000000000000000000000000088
:1048300000000000DE00FF00E380C180C180C18075
:10484000C180C180C180C180C18000000000000023
:1048500000000000000000000000000000001E003A
:104860007F806180C0C0C0C0C0C0C0C0C0C0618007
:104870007F801E000000000000000000000000001B
:104880000000000000000000DE00FF00E300C18027
:10489000C180C180C180C180E300FF00DE00C00094
:1048A000C000C000C00000000000000000000000C8
:1048B00000003D807F806380C180C180C180C18055
:1048C000C18063807F803D80018001800180018004
:1048D00000000000000000DCFCE0C0C0C0C0C0C0A0
:1048E000C0C0000000000000000000000000000048
:1048F000003E007F00C180C000F8007F00078001FB
:1049000080C1807F003E0000000000000000000029
:10491000000020606060F8F860606060606060784F
:10492000380000000000000000000000000000004F
:10493000C180C180C180C180C180C180C180C1806F
:10494000E3807F803D800000000000000000000048
:1049500000000000000000000000C060C06060C0F7
:1049600060C0318031801B001B000E000E0004006F
:104970000000000000000000000000000000000037
:1049800000000000C106C3864384628C66CC36D822
:1049900036D814501C701C700C6000000000000021
:1049A0000000000000000000000000000000E1C066
:1049B0006180330033001E000C001E003300330002
:1049C0006180E1C000000000000000000000000065
:1049D0000000000000000000C180C180630063008F
:1049E0007300330036001E001E000C000C000C008B
:1049F0001800F800F00000000000000000000000B7
:104A000000007F807F80038007000E001C003800BC
:104A10007000E000FF80FF80000000000000000048
:104A20000000001C3C303030303070E0E06030304E
:104A3000303030303C1C0000C0C0C0C0C0C0C0C05E
:104A4000C0C0C0C0C0C0C0C0C0C0C0C000E0F03066
:104A500030303030381C1C38303030303030F0E0FE
:104A60000000000001000000000000000100000044
:104A700015000000010000002A00000002000000F4
:104A80003F00000002000000690000000300000079
:104A90009300000002000000D200000001000000AE
:104AA000FC000000010000001101000001000000F6
:104AB00026010000010000003B0100000200000090
:104AC00050010000010000007A0100000100000018
:104AD0008F01000001000000A4010000010000009F
:104AE000B901000002000000CE010000010000003A
:104AF000F8010000020000000D02000002000000AA
:104B00003702000002000000610200000200000005
:104B10008B02000002000000B5020000020000004D
:104B2000DF02000002000000090300000200000094
:104B300033030000010000005D03000001000000DD
:104B40007203000002000000870300000200000062
:104B5000B103000002000000DB03000002000000BF
:104B600005040000030000002F0400000200000004
:104B70006E04000002000000980400000200000023
:104B8000C204000002000000EC040000020000006B
:104B900016050000020000004005000002000000B1
:104BA0006A050000020000009405000001000000FA
:104BB000BE05000001000000D30500000200000057
:104BC000E8050000020000001206000002000000DC
:104BD0003C06000002000000660600000200000023
:104BE0009006000002000000BA060000020000006B
:104BF000E4060000020000000E07000002000000B2
:104C000038070000020000006207000002000000F8
:104C10008C07000002000000B6070000030000003F
:104C2000E0070000020000001F0800000200000072
:104C300049080000020000007308000001000000A5
:104C40009D08000001000000B20800000100000003
:104C5000C708000001000000DC080000020000009E
:104C6000F1080000010000001B0900000200000024
:104C700030090000020000005A0900000200000094
:104C80008409000002000000AE09000002000000DC
:104C9000D809000001000000020A00000200000024
:104CA000170A000002000000410A00000100000095
:104CB0006B0A000001000000800A000002000000F2
:104CC000950A000001000000BF0A00000200000079
:104CD000D40A000002000000FE0A000002000000EA
:104CE000280B000002000000520B00000200000030
:104CF0007C0B000001000000A60B00000200000079
:104D0000BB0B000001000000E50B000002000000EA
:104D1000FA0B000002000000240C0000020000005A
:104D20004E0C000002000000780C000002000000A1
:104D3000A20C000002000000CC0C000001000000EA
:104D4000F60C0000010000000B0D00000100000047
:104D5000200D000054494E47205849414F206973A7
:104D600020737570657220636F6F6C203A29210083
:104D700020000000200A0D000A0D4572726F723A81
:104D8000200A0D000020202020202020202028287C
:104D900028282820202020202020202020202020FB
:104DA000202020202088101010101010101010103B
:104DB000101010101004040404040404040404106B
:104DC00010101010101041414141414101010101F9
:104DD00001010101010101010101010101010101C3
:104DE00010101010101042424242424202020202CF
:104DF0000202020202020202020202020202020293
:104E00001010101020000000000000000000000042
:104E10000000000000000000000000000000000092
:104E20000000000000000000000000000000000082
:104E30000000000000000000000000000000000072
:104E40000000000000000000000000000000000062
:104E50000000000000000000000000000000000052
:104E60000000000000000000000000000000000042
:104E70000000000000000000000000000000000032
:0C4E8000000000000000000043000000E3
:104E8C0000000000010203040102030406070809E4
:104E9C00280000001C000000FFFFFFFFFFFFFFFFCA
:104EAC00FFFFFFFFFFFFFFFFFFFFFFFFFFFFFFFF06
:104EBC00FFFFFFFFFFFFFFFFFFFFFFFFFFFFFFFFF6
:104ECC00FFFFFFFFFFFFFFFFFFFFFFFFFFFFFFFFE6
:104EDC00FFFFFF0000FFFFFFFFFFFFFFFFFFFFFFD4
:104EEC00FFFFFFFFFFFFFFFFFFFFFFFFFFFFFFFFC6
:104EFC00FFFFFFFFFFFFFFFFFF0000000000FFFFB1
:104F0C00FFFFFFFFFFFFFFFFFFFFFFFFFFFFFFFFA5
:104F1C00FFFFFFFFFFFFFFFFFFFFFFFFFFFFFF0094
:104F2C00000000000000FFFFFFFFFFFFFFFFFFFF7F
:104F3C00FFFFFFFFFFFFFFFFFFFFFFFFFFFFFFFF75
:104F4C00FFFFFFFFFFFF0000000000000000FFFF5D
:104F5C00FFFFFFFFFFFFFFFFFFFFFFFFFFFFFFFF55
:104F6C00FFFFFFFFFFFFFFFFFFFFFFFF0000000041
:104F7C00000000000000FFFFFFFFFFFFFFFFFFFF2F
:104F8C00FFFFFFFFFFFFFFFFFFFFFFFFFFFFFFFF25
:104F9C00FFFF000000000000000000000000000007
:104FAC000000000000000000000000000000FFFFF7
:104FBC00FFFFFFFFFFFFFFFFFF00000000000000EE
:104FCC0000000000000000000000000000000000D5
:104FDC0000000000000000FFFFFFFFFFFFFFFF00CD
:104FEC0000000000000000000000000000000000B5
:104FFC00000000000000000000000000000000FFA6
:10500C00FFFFFFFFFF000000000000000000000099
:10501C000000000000000000000000000000000084
:10502C0000000000000000FFFFFFFFFF0000000079
:10503C000000000000000000000000000000000064
:10504C00000000000000000000000000000000FF55
:10505C00FFFF000000000000000000000000000046
:10506C000000000000000000000000000000000034
:10507C0000000000000000FFFF0000000000000026
:10508C000000000000000000000000000000000014
:10509C00000000000000000000000000000000FF05
:1050AC00FF000000000000000000000000000000F5
:1050BC0000000000000000000000000000000000E4
:1050CC0000000000000000FFFF00000000000000D6
:1050DC0000000000000000000000000000000000C4
:1050EC00000000000000000000000000000000FFB5
:1050FC00FFFF0000000000000000000000000000A6
:10510C000000000000000000000000000000000093
:10511C0000000000000000FFFFFFFFFF0000000088
:10512C000000000000000000000000000000000073
:10513C00000000000000000000000000000000FF64
:10514C00FFFFFFFFFF000000000000000000000058
:10515C000000000000000000000000000000000043
:10516C0000000000000000FFFFFFFFFFFFFFFF003B
:10517C000000000000000000000000000000000023
:10518C00000000000000000000000000000000FF14
:10519C00FFFFFFFFFFFFFFFFFF000000000000000C
:1051AC0000000000000000000000000000000000F3
:1051BC0000000000000000FFFFFFFFFFFFFFFFFFEC
:1051CC00FFFF0000000000000000000000000000D5
:1051DC000000000000000000000000000000FFFFC5
:1051EC00FFFFFFFFFFFFFFFFFFFFFFFF00000000BF
:1051FC00000000000000FFFFFFFFFFFFFFFFFFFFAD
:10520C00FFFFFFFFFFFFFFFFFFFFFFFFFFFFFFFFA2
:10521C00FFFFFFFFFF000000000000000000FFFF89
:10522C00FFFFFFFFFFFFFFFFFFFFFFFFFFFFFFFF82
:10523C00FFFFFFFFFFFFFFFFFFFFFFFFFFFFFF0071
:10524C00000000000000FFFFFFFFFFFFFFFFFFFF5C
:10525C00FFFFFFFFFFFFFFFFFFFFFFFFFFFFFFFF52
:10526C00FFFFFFFFFFFFFFFFFF0000000000FFFF3D
:10527C00FFFFFFFFFFFFFFFFFFFFFFFFFFFFFFFF32
:10528C00FFFFFFFFFFFFFFFFFFFFFFFFFFFFFFFF22
:10529C00FFFF000000FFFFFFFFFFFFFFFFFFFFFF0F
:1052AC00FFFFFFFFFFFFFFFFFFFFFFFFFFFFFFFF02
:1052BC00FFFFFFFFFFFFFFFFFFFFFFFFFFFFFFFFF2
:1052CC00FFFFFFFFFFFFFFFFFFFFFFFFFFFFFFFFE2
:1052DC00FFFFFFFFFFFFFFFFFFFFFFFFFFFFFFFFD2
:1052EC00FFFFFFFFFFFFFFFFFFFFFFFFFFFFFFFFC2
:1052FC00FFFFFFFFFFFFFFFF280000001C00000066
:10530C00FFFFFFFFFFFFFFFFFFFFFFFFFFFFFFFFA1
:10531C00FFFFFFFFFFFFFFFFFFFFFFFFFFFFFFFF91
:10532C00FFFFFFFFFFFFFFFFFFFFFFFFFFFFFFFF81
:10533C00FFFFFFFFFFFFFFFFFFFFFFFFFFFFFFFF71
:10534C00FFFFFFFFFFFFFFFFFFFFFFFFFFFFFFFF61
:10535C00FFFFFFFFFFFFFFFFFFFFFFFFFFFFFFFF51
:10536C00FFFFFF000000FFFFFFFFFFFFFFFFFFFF3E
:10537C00FFFFFFFFFFFFFFFFFFFFFFFFFFFFFFFF31
:10538C00FFFFFFFFFFFFFFFFFFFF0000000000FF1C
:10539C00FFFFFFFFFFFFFFFFFFFFFFFFFFFFFFFF11
:1053AC00FFFFFFFFFFFFFFFFFFFFFFFFFFFFFFFF01
:1053BC00FFFF00000000000000FFFFFFFFFFFFFFEA
:1053CC00FFFFFFFFFFFFFFFFFFFFFFFFFFFFFFFFE1
:1053DC00FFFFFFFFFFFFFFFFFFFF000000000000CB
:1053EC00000000FFFFFFFFFFFFFFFFFFFFFFFFFFBE
:1053FC00FFFFFFFFFFFFFFFFFFFFFFFFFFFFFFFFB1
:10540C00FFFF00000000000000000000FFFFFFFF96
:10541C00FFFFFFFFFFFFFFFFFFFF0000000000008A
:10542C000000000000000000000000000000000070
:10543C00000000000000FFFFFFFFFFFFFFFFFFFF6A
:10544C00FF00000000000000000000000000000051
:10545C00000000000000000000000000000000FF41
:10546C00FFFFFFFFFFFFFFFFFF0000000000000039
:10547C000000000000000000000000000000000020
:10548C00000000000000000000FFFFFFFFFFFFFF17
:10549C00FF00000000000000000000000000000001
:1054AC0000000000000000000000000000000000F0
:1054BC00000000FFFFFFFFFFFF00000000000000E6
:1054CC0000000000000000000000000000000000D0
:1054DC00000000000000000000000000FFFFFFFFC4
:1054EC00FF000000000000000000000000000000B1
:1054FC0000000000000000000000000000000000A0
:10550C00000000000000FFFFFF0000000000000092
:10551C00000000000000000000000000000000007F
:10552C00000000000000000000000000000000FF70
:10553C00FF00000000000000000000000000000060
:10554C00000000000000000000000000000000004F
:10555C0000000000000000FFFF0000000000000041
:10556C00000000000000000000000000000000002F
:10557C00000000000000000000000000000000FF20
:10558C00FF00000000000000000000000000000010
:10559C0000000000000000000000000000000000FF
:1055AC00000000000000FFFFFF00000000000000F2
:1055BC0000000000000000000000000000000000DF
:1055CC00000000000000000000000000FFFFFFFFD3
:1055DC00FF000000000000000000000000000000C0
:1055EC0000000000000000000000000000000000AF
:1055FC00000000FFFFFFFFFFFF00000000000000A5
:10560C00000000000000000000000000000000008E
:10561C00000000000000000000FFFFFFFFFFFFFF85
:10562C00FF0000000000000000000000000000006F
:10563C00000000000000000000000000000000FF5F
:10564C00FFFFFFFFFFFFFFFFFFFF00000000000058
:10565C00000000000000000000000000000000003E
:10566C00000000000000FFFFFFFFFFFFFFFFFFFF38
:10567C00FFFFFFFFFFFFFFFFFFFFFFFFFFFFFFFF2E
:10568C00FFFF00000000000000000000FFFFFFFF14
:10569C00FFFFFFFFFFFFFFFFFFFFFFFFFFFFFFFF0E
:1056AC00FFFFFFFFFFFFFFFFFFFF000000000000F8
:1056BC000000FFFFFFFFFFFFFFFFFFFFFFFFFFFFEC
:1056CC00FFFFFFFFFFFFFFFFFFFFFFFFFFFFFFFFDE
:1056DC00FFFF00000000000000FFFFFFFFFFFFFFC7
:1056EC00FFFFFFFFFFFFFFFFFFFFFFFFFFFFFFFFBE
:1056FC00FFFFFFFFFFFFFFFFFFFF0000000000FFA9
:10570C00FFFFFFFFFFFFFFFFFFFFFFFFFFFFFFFF9D
:10571C00FFFFFFFFFFFFFFFFFFFFFFFFFFFFFFFF8D
:10572C00FFFFFF0000FFFFFFFFFFFFFFFFFFFFFF7B
:10573C00FFFFFFFFFFFFFFFFFFFFFFFFFFFFFFFF6D
:10574C00FFFFFFFFFFFFFFFFFFFFFFFFFFFFFFFF5D
:10575C00FFFFFFFFFFFFFFFFFFFFFFFFFFFFFFFF4D
:10576C001B00000028000000FFFFFFFFFFFFFFFFF2
:10577C00FFFFFFFFFFFFFFFFFFFFFFFFFFFFFFFF2D
:10578C00FFFFFFFFFFFFFFFFFFFFFFFFFFFFFF001C
:10579C000000FFFFFFFFFFFFFFFFFFFFFFFFFFFF0B
:1057AC00FFFFFFFFFFFFFFFFFF0000000000FFFFF8
:1057BC00FFFFFFFFFFFFFFFFFFFFFFFFFFFFFFFFED
:1057CC00FFFFFFFF0000000000FFFFFFFFFFFFFFD8
:1057DC00FFFFFFFFFFFFFFFFFFFFFFFFFFFF0000CB
:1057EC000000000000FFFFFFFFFFFFFFFFFFFFFFB8
:1057FC00FFFFFFFFFFFFFFFF0000000000000000A5
:10580C0000FFFFFFFFFFFFFFFFFFFFFFFFFFFFFF9B
:10581C00FFFFFF000000000000000000FFFFFFFF83
:10582C00FFFFFFFFFFFFFFFFFFFFFFFFFF00000079
:10583C000000000000000000FFFFFFFFFFFFFFFF64
:10584C00FFFFFFFFFFFFFFFF000000000000000054
:10585C00000000FFFFFFFFFFFFFFFFFFFFFFFFFF49
:10586C00FFFF00000000000000000000000000FF2F
:10587C00FFFFFFFFFFFFFFFFFFFFFFFF0000000028
:10588C000000000000000000000000FFFFFFFFFF11
:10589C00FFFFFFFFFFFFFF00000000000000000003
:1058AC00000000000000FFFFFFFFFFFFFFFFFFFFF6
:1058BC00FF000000000000000000000000000000DD
:1058CC000000FFFFFFFFFFFFFFFFFF0000000000D5
:1058DC0000000000000000000000000000FFFFFFBF
:1058EC00FFFFFFFFFFFF00000000000000000000B2
:1058FC00000000000000000000FFFFFFFFFFFFFFA3
:10590C00000000000000000000000000000000008B
:10591C000000000000FFFFFFFFFFFF000000000081
:10592C00000000000000000000000000000000006B
:10593C00FFFFFFFFFF000000000000000000000060
:10594C00000000000000000000000000FFFFFF004E
:10595C00000000000000000000000000000000003B
:10596C0000000000000000FFFFFF0000000000002E
:10597C00000000000000000000000000000000001B
:10598C00000000FFFF00000000000000000000000D
:10599C000000000000000000000000000000FFFFFD
:1059AC00FF000000000000000000000000000000EC
:1059BC000000000000000000FFFFFFFFFFFFFFFFE3
:1059CC00000000000000000000000000000000FFCC
:1059DC00FFFFFFFFFFFFFFFFFFFFFF0000000000C6
:1059EC0000000000000000000000FFFFFFFFFFFFB1
:1059FC00FFFFFFFFFFFF00000000000000000000A1
:105A0C000000000000FFFFFFFFFFFFFFFFFFFFFF95
:105A1C00FF0000000000000000000000000000007B
:105A2C00FFFFFFFFFFFFFFFFFFFFFFFF0000000076
:105A3C000000000000000000000000FFFFFFFFFF5F
:105A4C00FFFFFFFFFFFFFF00000000000000000051
:105A5C00000000000000FFFFFFFFFFFFFFFFFFFF44
:105A6C00FFFF00000000000000000000000000002C
:105A7C0000FFFFFFFFFFFFFFFFFFFFFFFF00000026
:105A8C00000000000000000000000000FFFFFFFF0E
:105A9C00FFFFFFFFFFFFFFFF000000000000000002
:105AAC0000000000000000FFFFFFFFFFFFFFFFFFF3
:105ABC00FFFFFF00000000000000000000000000DD
:105ACC000000FFFFFFFFFFFFFFFFFFFFFFFF0000D6
